:020000040800F2
:1000000000500020BD2300083D2300083F230008C6
:100010004123000843230008452300080000000096
:10002000000000000000000000000000C1620008A5
:10003000472300080000000051630008492300081E
:1000400005240008052400080524000805240008EC
:1000500005240008052400080524000805240008DC
:1000600005240008052400080524000805240008CC
:1000700005240008052400080524000805240008BC
:1000800005240008052400080524000805240008AC
:10009000052400080524000805240008052400089C
:1000A000052400080524000805240008052400088C
:1000B000052400080524000805240008052400087C
:1000C000052400080524000805240008052400086C
:1000D00005240008612300086D230008052400089A
:1000E000052400080524000805240008000000007D
:1000F0000000000000000000000000000000000000
:0C01000000000000000000005FF808F1A3
:1001100010B5054C237833B9044B13B10448AFF341
:1001200000800123237010BD60000020000000004B
:100130009C70000808B5034B1BB103490348AFF39B
:10014000008008BD00000000640000209C700008D2
:10015000034613F8012B002AFBD1181A0138704707
:100160004FF0FF0C1CEAD0521EBF1CEAD15392EA9A
:100170000C0F93EA0C0F6FD01A4480EA010C400276
:1001800018BF5FEA41211ED04FF0006343EA5010D0
:1001900043EA5111A0FB01310CF00040B1F5000F12
:1001A0003EBF490041EAD3715B0040EA010062F1C1
:1001B0007F02FD2A1DD8B3F1004F40EBC25008BFAB
:1001C00020F00100704790F0000F0CF0004C08BFC9
:1001D00049024CEA502040EA51207F3AC2BFD2F196
:1001E000FF0340EAC250704740F400004FF00003A4
:1001F000013A5DDC12F1190FDCBF00F000407047DE
:10020000C2F10002410021FA02F1C2F1200200FA1B
:1002100002FC5FEA310040F1000053EA4C0308BFE2
:1002200020EADC70704792F0000F00F0004C02BF33
:10023000400010F4000F013AF9D040EA0C0093F0AE
:10024000000F01F0004C02BF490011F4000F013B08
:10025000F9D041EA0C018FE70CEAD15392EA0C0F76
:1002600018BF93EA0C0F0AD030F0004C18BF31F0E1
:10027000004CD8D180EA010000F00040704790F0B7
:10028000000F17BF90F0004F084691F0000F91F05B
:10029000004F14D092EA0C0F01D142020FD193EA21
:1002A0000C0F03D14B0218BF084608D180EA0100A9
:1002B00000F0004040F0FE4040F40000704740F085
:1002C000FE4040F44000704780F0004002E000BF74
:1002D00081F0004142001FBF5FEA410392EA030F31
:1002E0007FEA226C7FEA236C6AD04FEA1262D2EB7B
:1002F0001363C1BFD218414048404140B8BF5B4280
:10030000192B88BF704710F0004F40F4000020F018
:100310007F4018BF404211F0004F41F4000121F02E
:100320007F4118BF494292EA030F3FD0A2F1010278
:1003300041FA03FC10EB0C00C3F1200301FA03F1B6
:1003400000F0004302D5494260EB4000B0F5000FD9
:1003500013D3B0F1807F06D340084FEA310102F198
:100360000102FE2A51D2B1F1004F40EBC25008BF4A
:1003700020F0010040EA03007047490040EB000014
:10038000013A28BFB0F5000FEDD2B0FA80FCACF115
:10039000080CB2EB0C0200FA0CF0AABF00EBC25042
:1003A00052421843BCBFD0401843704792F0000F30
:1003B00081F4000106BF80F400000132013BB5E783
:1003C0004FEA41037FEA226C18BF7FEA236C21D0F9
:1003D00092EA030F04D092F0000F08BF084670475E
:1003E00090EA010F1CBF0020704712F07F4F04D12C
:1003F000400028BF40F00040704712F100723CBF3F
:1004000000F50000704700F0004343F0FE4040F468
:10041000000070477FEA226216BF08467FEA236326
:100420000146420206BF5FEA412390EA010F40F411
:10043000800070474FF0000304E000BF10F000435D
:1004400048BF40425FEA000C08BF704743F0964344
:1004500001464FF000001CE050EA010208BF70475F
:100460004FF000030AE000BF50EA010208BF7047E6
:1004700011F0004302D5404261EB41015FEA010CFB
:1004800002BF84460146002043F0B64308BFA3F1F3
:100490008053A3F50003BCFA8CF2083AA3EBC253D5
:1004A00010DB01FA02FC634400FA02FCC2F12002F4
:1004B000BCF1004F20FA02F243EB020008BF20F02B
:1004C0000100704702F1200201FA02FCC2F1200291
:1004D00050EA4C0021FA02F243EB020008BF20EA86
:1004E000DC70704700B10A30704700B110307047BF
:1004F00000B11630704700B13E30704708B1007A45
:100500007047FF2070471FB5044690B14FF47A73CF
:100510008DF80C10017900938DF80D2002230068EE
:1005200003AA490002F04EFC08B10320E07104B0B8
:1005300010BD0120FBE770B50E46054610B9012439
:10054000204670BD0A463D21FFF7DDFF0446002826
:10055000F5D11E206E7101F09FFFF1E70A4610B140
:100560003E21FFF7D0BF012070471FB5044690B170
:100570008AB101234FF47A7C0079CDE9013C0092E5
:100580000A4600FA03F1206802F0A2FE08B1032037
:10059000E07104B010BD0120FBE70A4618B111B1AB
:1005A0000021FFF7E2BF0120704713B5044610B9E0
:1005B000012002B010BD35210DF10702FFF7D5FF74
:1005C0000028F5D19DF807309A0984F83E20C3F33E
:1005D000011284F83F20C3F3810203F0030384F87F
:1005E000402084F84130E4E713B5044610B90120F7
:1005F00002B010BD34210DF10702FFF7B6FF00284D
:10060000F5D19DF8073084F84230F1E738B515464A
:10061000044608B9012038BD0029FBD0002AF9D0D2
:100620000A463921FFF7A1FF0028F3D12A463A21D3
:100630002046FFF79AFF003818BF0120EBE737B5D7
:100640000446A8B3A1B30025292301600572C0F8B0
:100650000A50C58105618582C0F816504583C56181
:1006600005624562294643601022283006F088F86A
:10067000A563A587C4F83E5003250DF1050120466A
:10068000FFF78BFF014660B13220013D01F004FF0E
:1006900015F0FF05F1D10320FF23E071237203B0B1
:1006A00030BD9DF80530A02B04D001222372E271E9
:1006B0000120F4E72046FFF73EFF0028F8D1202272
:1006C0003F212046FFF71FFF0028F1D140F28A208A
:1006D00001F0E2FE01F0DAFE00F57A7520460DF138
:1006E00007020DF10601FFF791FF0028E0D10A2073
:1006F00001F0D2FE9DF80630012B15D100212046D5
:10070000FFF72CFF02460028D2D13B212046FFF7FD
:10071000FAFE0028CCD10C212046FFF70CFF002860
:10072000C6D10123E380BAE701F0B0FEA842D5D3D9
:100730009DF80630012BE1D00220E071AFE730B523
:10074000044685B098B192B18BB14FF47A750079B7
:10075000CDE90135012300920A4600FA03F1206831
:1007600002F0B6FD08B10320E07105B030BD0120F4
:10077000FBE713B5044610B9012002B010BD0623F3
:100780006A460821FFF7DBFF0028F5D1BDF80030ED
:100790006381BDF80230A381BDF80430E381ECE74A
:1007A00013B5044610B9012002B010BD06236A46F5
:1007B0001421FFF7C4FF0028F5D1009B2361BDF889
:1007C0000430A382F0E713B5044610B9012002B04B
:1007D00010BD06236A460E21FFF7B1FF0028F5D1B0
:1007E000BDF80030E382BDF802302383BDF8043049
:1007F0006383ECE7F7B5044618B90125284603B032
:10080000F0BD06236A461A21FFF799FF0546002826
:10081000F3D1BDF90000FFF711FE4FF07651FFF75D
:100820009FFCBDF90270E0613846FFF707FE4FF00C
:100830007651FFF795FCBDF9046020623046FFF762
:10084000FDFD4FF07651FFF78BFC6062D6E72DE996
:10085000F341044620B90125284602B0BDE8F081E5
:1008600008236A462021FFF76AFF05460028F2D1D7
:10087000BDF90000FFF7E2FD4FF06251FFF770FC99
:10088000BDF90280A0624046FFF7D8FD4FF06251EB
:10089000FFF766FCBDF90470E0623846FFF7CEFD55
:1008A0004FF06251FFF75CFCBDF9066020633046F3
:1008B000FFF7C4FD4FF06251FFF752FC6063CBE7D6
:1008C00013B5044610B9012002B010BD06236A46D4
:1008D0002821FFF734FF0028F5D1009BA363BDF862
:1008E0000430A387F0E738B5054680B3837973B346
:1008F000FFF73FFF04462846FFF752FF0443E4B2E8
:10090000003C284618BF0124FFF75DFF0028284659
:1009100018BF0124FFF76EFF0028284618BF0124E6
:10092000FFF795FF0028284618BF0124FFF7C8FFEE
:100930000028284618BF0124FFF737FE2846FFF796
:1009400053FE01F0A3FDEC716864204638BD042419
:10095000FBE7000008B50A480A4A0B4BC0E9002330
:1009600000234FF48042C0E90233C0E90423C0E908
:100970000633036202F064F908B172B6FEE708BDFF
:100980004814002000540040A0860100202210B529
:1009900090B000210DEB020005F0F2FE00211422C0
:1009A00001A805F0EDFE022401224FF4803306A8D1
:1009B000CDE90623CDE90D430A9202F081FE0146FE
:1009C00008B172B6FEE70F23CDE90300059001A838
:1009D000CDE9013403F036F808B172B6FEE710B085
:1009E00010BD00000FB413B50B4C04AB53F8042B2F
:1009F00080212046019305F0A5FE2046FFF7A8FBC5
:100A0000642382B22146054803F0A1F902B0BDE893
:100A1000104004B0704700BF880000200014002080
:100A200070B52C4D0121286803F0C3FC2A4C2B4ED5
:100A300008214FF47A730022286803F001FD0107B2
:100A40003BD52748FFF7CEFF0821286803F0DAFCE2
:100A50002378DA0711D523492348FFF7F0FD002852
:100A600034D12378214A23F00103237013782048DE
:100A700043F001031370FFF7B5FF23789B0710D5F0
:100A800018491C4801F05EFA10BB2378174A23F07E
:100A9000020323701378184843F002031370FFF722
:100AA000A1FF237803F00303032B06D11348FFF7BC
:100AB00099FF0821286803F0A5FC30464FF4005147
:100AC00001F00DFF642003F057FCB1E70C48D2E7BA
:100AD0000C48E4E77C0000200901002000100140E0
:100AE000B4700008481400203C1300200A010020C4
:100AF000E470000884130020257100086671000866
:100B0000FE7000083F7100082DE9F341314D4FF0B0
:100B1000FF3300220121286803F092FC2E48FFF7E2
:100B200061FFDFF8B8802E4E0A23002204212868D6
:100B300003F086FC430703D50421286803F062FC18
:100B400098F80030002B40D00A21306803F0DAFC1E
:100B500000283AD1234B244F1A7840F2071123483A
:100B600000F077FE4FF484713A78204800F071FE6F
:100B70001E4801F01FF940F209111C480DF1060250
:100B800000F08AFE0446E8B9BDF80630012B19D101
:100B900002460A213870154800F05BFE22462321E8
:100BA000124800F056FE22464FF484710F4800F0C0
:100BB00050FE224640F209110C4800F04AFE0C4853
:100BC000FFF710FF306803F0C0FC012003F0D4FBF6
:100BD000AAE700BF7C000020A571000808010020E2
:100BE000840000200A010020090100200C010020DF
:100BF000BB7100082DE9F84F694E4FF0FF3300221A
:100C00000121306803F01CFC6648FFF7EBFE664DDF
:100C1000664F3B782868002B00F08480644B1B787B
:100C2000DB077FD5642103F06DFC002868D16148A3
:100C3000FFF759FE604C8346002865D15D48FFF7F9
:100C400051FC82465B48FFF750FC81465948FFF74C
:100C50004FFC80465946BAF80020584800F0F9FD8C
:100C60000121BAF80220554800F0F3FD0221BAF83C
:100C70000420524800F0EDFD0321B9F800204F4850
:100C800000F0E7FD0421B9F802204C4800F0E1FD36
:100C90000521B9F80420494800F0DBFD0621B8F829
:100CA0000020464800F0D5FD0721B8F8022043484F
:100CB00000F0CFFD0821B8F80420404800F0C9FD3D
:100CC0003C48FFF718FC437802781B0143EA821383
:100CD000C278092113438278384843EA820200F03F
:100CE000B8FD3448FFF70AFC0A210246334800F0F9
:100CF000B0FD237823F001032370286803F025FC5E
:100D0000642003F039FB84E72378012243F00103D8
:100D10000A212A48237000F09CFD0821306803F066
:100D200048FBEAE70A2103F0EDFB04460028E7D17F
:100D300002460146214800F08CFD224601211F4851
:100D400000F087FD224602211C4800F082FD224669
:100D500003211A4800F07DFD22460421174800F0C7
:100D600078FD22460521154800F073FD2246062134
:100D7000124800F06EFD22460721104800F069FD80
:100D8000224608210D4800F064FD224609210B4847
:100D900000F05FFDFF220A21084800F05AFDACE791
:100DA0007C000020CF710008840000200801002092
:100DB0000A0100203C130020090100200C01002042
:100DC0002DE9F84F604E4FF0FF33002201213068CB
:100DD00003F036FB5D48FFF705FE5D4FDFF87481D9
:100DE00098F800303868002B00F089805A4B1B7847
:100DF0009B0740F18480642103F084FB04460028B3
:100E000064D1564801F016F9554D8146002836D177
:100E1000524801F014F900285DD0504801F01DF946
:100E200004464E4801F01CF98246B4F800B06488CC
:100E30005A4620214B4800F00CFD2246212149480A
:100E400000F007FD52462421464800F002FD012231
:100E50002221444800F0FDFC4A462321414800F08D
:100E6000F8FC25215A463F4800F0F3FC02212B787C
:100E700023F002032B70306803F09BFA23E0032871
:100E800029D122462021374800F0E3FC22462121C7
:100E9000344800F0DEFC22462421324800F0D9FC20
:100EA000224622212F4800F0D4FC224623212D483F
:100EB00000F0CFFC224625212A4800F0CAFC2B78FE
:100EC00023F002032B70386803F03FFB4FF4FA70F5
:100ED00003F052FA84E72B78204843F002032B708A
:100EE00001F0C3F80446002222211E4800F0B1FCA4
:100EF000232122461B4800F0ACFC0821BBE70A2155
:100F000003F000FB04460028E0D1024620211548EA
:100F100000F09FFC22462121124800F09AFC224654
:100F20002421104800F095FC224622210D4800F0B3
:100F300090FCFF2223210B4800F08BFC2246252148
:100F4000084800F086FCBEE77C000020E571000840
:100F500084000020080100200A01002084130020E2
:100F6000090100200C01002008B5074B834209D17C
:100F7000064800F041FF064B04211868BDE8084010
:100F800003F017BA08BD00BFB81300200C01002001
:100F90007C000020034B834202D1034800F016BDC1
:100FA000704700BFB81300200C01002008B5074BA4
:100FB000834209D1064800F012FD064B082118684B
:100FC000BDE8084003F0F5B908BD00BFB813002024
:100FD0000C0100207C0000202DE9F0415A485B4CB8
:100FE000FFF700FD242229215948FFF7FBFC94F864
:100FF0003D105848FFF7F6FC94F83D202A2AD3B25A
:1010000020D81F2B02D82BB3534824E0203B0A2BB7
:10101000FAD801A252F823F0C3100008CB10000840
:10102000CF10000809100008C710000809100008B8
:101030000910000809100008D3100008D710000894
:10104000DB100008A02B4AD0E02B4AD0602BDBD16C
:10105000424800E04248FFF7C5FC94F83D30202BA1
:1010600012D04048FFF7BEFC384801F091FE0A203C
:1010700001F012FAFFF76EFC322001F00DFA94F83D
:101080003D103948FFF7AEFC012400252F4E374FA5
:10109000DFF8DC80610001226423304689B202F06F
:1010A0005BFA024600283DD121464046FFF79AFCF4
:1010B0000135292CEDB216D12E48FFF793FC2A24D6
:1010C000E8E72D48C7E72D48C5E72D48C3E72D4879
:1010D000C1E72D48BFE72D48BDE72D48BBE72D48A8
:1010E000B9E72D48B7E7242C04D12C48FFF77AFC48
:1010F0002524CFE72A48FFF775FC0134802CC9D19D
:10110000E5B92848FFF76EFC2748FFF76BFC274836
:10111000FFF768FC2648FFF765FCBDE8F04125486D
:10112000FFF760BC0328E8D0292C01D0242CE4D19F
:1011300021463846FFF756FC0134ABE72946BDE8A7
:10114000F0411D48FFF74EBCF8710008481400201C
:101150001272000846720008DC720008BC720008B7
:1011600056720008E87200080E730008D573000874
:101170003473000859730008607200086A7200082E
:10118000737200087F7200088B7200089672000864
:10119000A9720008C6720008D272000874730008B1
:1011A0009373000800740008297400085374000841
:1011B0007A7400089E740008CE740008002370B58D
:1011C000574C584D584823702B70FFF70BFCFFF716
:1011D00003FF5648FFF706FC55495648FFF72FFA1C
:1011E00070BB5548FFF7FEFB237843F001032370E3
:1011F0005248FFF7F7FB4E49514800F0A3FE014665
:101200004F48002937D100F097FF4E48FFF7EAFB1F
:10121000237843F0020323704B4E4C48FFF7E2FB68
:1012200096F841104A48FFF7DDFB96F84120242A42
:10123000D3B23DD81F2B34D8002B3FD045483EE0D9
:101240003C48FFF75BF9064601464348FFF7CAFBF7
:10125000FF2E07D14148FFF7C5FB2B7843F0010370
:101260002B70C5E70EB93E48F5E7A02231463D4850
:10127000FFF7B8FBF1E700F0F8FE064601463A48F2
:10128000FFF7B0FB012E07D13848FFF7ABFB2B78F7
:1012900043F002032B70BFE7022E0CBF34483548E1
:1012A000F3E7213B032B27D8DFE803F02A2C2E2875
:1012B000A02B2BD0E02BC1D12F4800E02F48FFF707
:1012C00091FB214904222E4800F02FFB0146F8B97A
:1012D0002C48FFF787FB237843F004032370012297
:1012E000294B2A481A70FFF77DFB2A782178284875
:1012F000BDE87040FFF776BB2648E0E72648DEE70A
:101300002648DCE72648DAE72648D8E72648D6E725
:101310002648FFF767FB2B7843F004032B70DEE7CA
:101320000A01002009010020F77400080D7500086B
:10133000481400203C130020267500081E76000883
:101340008413002036760008B8130020F8760008D1
:1013500017770008DC720008487500087A750008E5
:10136000AE750008EF75000857760008847600080F
:10137000C3760008E3760008D272000856720008AF
:101380000C0100203777000808010020947700083E
:10139000B6770008607200086A720008737200086D
:1013A0007F72000828770008C67200085F7700087F
:1013B00080B588B001F04CF8FFF7E8FA1022002160
:1013C0000DEB020005F0DCF94C4B4FF400519A692B
:1013D0004B4842F010029A619A69012502F010020E
:1013E0000092009A9A69002442F020029A619A6958
:1013F0004FF4E13702F020020192019A9A690C261B
:1014000042F004029A619A6902F004020292029A7E
:101410009A6942F008029A619B69002203F008036E
:101420000393039B01F056FA4FF40053CDE90435C2
:101430000223334804A9CDE9064301F009F9FFF777
:1014400089FA3048304BC0E90244C0E90037C0E9AE
:1014500005640461C46102F04BFC034608B172B636
:10146000FEE72A482A4AC0E90233C0E90027C0E95A
:101470000436C0E9063302F03BFC044608B172B6FC
:10148000FEE7FFF79BFE2348FFF7ACFA2248FFF781
:10149000A9FA2248FFF7A6FA02F0FEFE204802F061
:1014A000F9FF204B214618601F4A284603F06CF8CC
:1014B0001E4B214618601E4A1E4802F019FF1E4BA3
:1014C000214618601D4A1E4802F012FF1D4B21469E
:1014D00018601D4A1D4802F00BFF1D4B2146186085
:1014E0001C4A1D4802F004FF1C4B18601C4802F007
:1014F0004FFF1C4B186002F0E1FEFEE700100240B7
:10150000001001400014002000380140B8130020F2
:1015100000440040E4770008F977000813780008D9
:10152000E878000884000020D878000880000020B7
:1015300064790008210A0008B413002040790008EB
:10154000090B0008B01300201C790008F50B0008F7
:10155000AC130020F8780008C10D0008A813002083
:10156000C87800087C00002070B5D8B1D2B100F571
:101570008055B5F81442FF2C14D80C2606FB040045
:1015800080F81C369DF81030A0F8141680F81D362F
:101590000123C0F8182680F81E3600201C44A5F848
:1015A000144270BD0120FCE72DE9F74F04460028E6
:1015B00000F04D81002500F2124B01235A462946C6
:1015C0000095FFF7D1FF01231946022604F2144AC1
:1015D000524604F2164920460095FFF7C5FF04F570
:1015E00083670B464A46022120460095FFF7BCFF61
:1015F0003A460123032120460095FFF7B5FF01235A
:10160000042104F21A4220460095FFF7ADFF0123A2
:10161000052104F21C4220460095FFF7A5FF012397
:10162000062104F21E4220460095FFF79DFF01238C
:10163000072104F5846220460095FFF795FF04F228
:1016400024480123082104F2224220460095FFF796
:101650008BFF01234246092120460095FFF784FFB6
:1016600001230A2104F2264220460095FFF77CFF61
:1016700001230B2104F5856220460095FFF774FFD6
:1016800001230C2104F22A4220460095FFF76CFF4B
:1016900001230D2104F22C4220460095FFF764FF40
:1016A00001230E2104F22E4220460095FFF75CFF35
:1016B00001230F2104F5866220460095FFF754FFB1
:1016C0000123102104F2324220460095FFF74CFF1F
:1016D0000123202104F2524220460095FFF744FFE7
:1016E0000123212104F2544220460095FFF73CFFDC
:1016F0000123222104F2564220460095FFF734FFD1
:101700000123232104F58B6220460095FFF72CFF6F
:101710000123242104F25A4220460095FFF724FFBA
:101720000123252104F25C4220460095FFF71CFFAF
:101730002B46302104F2722220460096FFF714FF58
:101740002B46312104F51D7220460096FFF70CFF51
:101750002B46322104F2762220460096FFF704FF42
:101760002B46332104F51E7220460096FFF7FCFE3F
:101770002B46342104F27A2220460096FFF7F4FE2D
:101780002B465A464FF4807120460096FFF7ECFE38
:101790002B46524640F2011120460096FFF7E4FE28
:1017A0002B464A464FF4817120460096FFF7DCFE37
:1017B0003A4601272B4640F2031120460096FFF7D8
:1017C000D3FE01234FF4827104F21A622046009581
:1017D000FFF7CAFE012340F2051104F21C62204605
:1017E0000095FFF7C1FE01234FF4837104F21E62DE
:1017F00020460095FFF7B8FE012340F2071104F5DB
:10180000C46220460095FFF7AFFE01234FF48471B8
:1018100004F2226220460095FFF7A6FE2B464246C0
:1018200040F2091120460097FFF79EFE0423A4F81A
:101830001234C4F814344FF001332846A4F8187455
:10184000A4F81A66C4F81C3603B0BDE8F08F012076
:10185000FAE770B540B100F58053B3F8145204466E
:1018600000239EB2AE4201D3012011E0B4F8146609
:101870008E420ED194F81E665EB10C2101FB03006E
:1018800090F81D36002BEFD0D0F8183600201A80C3
:1018900070BD01330C34E4E770B548B142B100F5D6
:1018A0008053B3F81452044600239EB2AE4201D3D3
:1018B000012012E0B4F814668E420FD194F81E662F
:1018C00066B10C2101FB030393F81D06012804D027
:1018D0000020D3F818361B88138070BD01330C34F8
:1018E000E3E710B5044608B9012010BD0023A0F8B5
:1018F0000E32006890F84130202B03D090F8413030
:10190000222BF1D190F84130222B04D102F090FA31
:10191000012000F0C1FD0122206804F10E0102F057
:10192000AAFC003818BF0120DFE770B5044610B9E3
:101930000125284670BD0029FAD04FF4E1334FF459
:10194000807583600160027185812A4600210E3016
:1019500004F016FF2A460025002104F5877004F0E4
:101960000FFF29464FF40072A4F80E52A4F810524B
:1019700004F2122004F004FF29464FF4007204F22E
:10198000124004F5805604F0FBFE29464FF44062F5
:1019900004F2146004F0F4FEC6E98655C6E98855E1
:1019A000A6F8145286F81652A6F82852C6F82C52F9
:1019B0002046FFF7F9FD05460028B9D12046FFF77C
:1019C00090FF0028B5D086F81652B2E730B1002259
:1019D00000F5805383F82922FFF783BF704758B181
:1019E00000F58053D3F81C220132C3F81C220122D7
:1019F00083F81622FFF775BF7047000003460144C5
:101A00004FF6FF7010B5064C8B4200D110BD13F895
:101A1000012B4240D2B234F8122082EA1020F3E7C0
:101A200088790008022938B504460D460ED90239D6
:101A300089B2FFF7E3FF611911F8012C11F8023C9C
:101A400043EA02231B1A5842584138BD0020FCE7E4
:101A500038B504460D46FFF7D1FF60552C44000A07
:101A6000607038BD70B50446C8B100F58776B0F82F
:101A700010123046FFF7ECFF0123B4F8102204F5F2
:101A80008055023292B2A4F810223146206885F8BF
:101A9000293202F0AAF918B1002385F82932012071
:101AA00070BD10B4A8B180F810210322047961F050
:101AB0007F0180F80E4180F80F1100F58053A0F8E7
:101AC0001022D3F8202210BC0132C3F82022FFF7E5
:101AD000C9BF012010BC70472DE9F3470446002818
:101AE0004AD0B0F80E32072B46D9458AB0F810908C
:101AF0006DBAADB26B1E99FA99F97C2B1FFA89F970
:101B000007D903221146FFF7CCFF042002B0BDE83D
:101B1000F08700270379804680F80E310323BA4608
:101B200080F80F316B0080F81031BEB206EB09016E
:101B300020460DF1060289B2ADF806A0FFF7ACFE13
:101B400018B1022203212046DDE7BDF80630013737
:101B50001A0A88F81231BBB2AB4288F8112108F199
:101B60000208E2D3204676000536A4F8106202B0DF
:101B7000BDE8F047FFF776BF0520C7E72DE9F3473B
:101B8000044600284AD0B0F80E32072B46D9458AC1
:101B9000B0F810906DBAADB26B1E99FA99F97C2B22
:101BA0001FFA89F907D903220421FFF77AFF0420DD
:101BB00002B0BDE8F08700270379804680F80E3137
:101BC0000423BA4680F80F316B0080F81031BEB2A2
:101BD00006EB090120460DF1060289B2ADF806A018
:101BE000FFF75AFE18B1022204212046DDE7BDF8B6
:101BF000063001371A0A88F81231BBB2AB4288F8B6
:101C0000112108F10208E2D3204676000536A4F837
:101C1000106202B0BDE8F047FFF724BF0520C7E718
:101C200010B5044610B3B0F80E32072B1ED9428A05
:101C3000018A52BA49BA92B289B2FFF70AFE30B1AC
:101C4000022206212046FFF72CFF042010BDD4F805
:101C50000E302046C4F80E31638AA4F812310623F0
:101C6000A4F81032BDE81040FFF7FCBE0520EDE7F8
:101C70002DE9F8430446002847D0B0F80E22082A80
:101C800043D9468A078A76BAB6B2711E7A29037D8D
:101C900005D8B3EB460F02D10833934207DB03228A
:101CA00010212046FFF7FDFE0420BDE8F8838046A2
:101CB0007DBAADB205EB06091FFA89F998F815202F
:101CC00098F816302946204643EA0222FFF7C1FD64
:101CD00008B10222E4E70135ADB24D4508F1020832
:101CE000ECD1237984F8120184F80E31102384F8A2
:101CF0000F310623A4F8107184F813612046A4F86C
:101D00001032BDE8F843FFF7ADBE0520CDE770B552
:101D1000044600284AD0B0F80E12032946D90E30E6
:101D2000FFF780FE40B9032004F58054D4F81C323C
:101D30000133C4F81C3270BDA37B22799A4200D0D3
:101D4000B3BB04F58055D5F81832E67B0133C5F8EE
:101D5000183200F09BFB062EC5F8240221D00FD8C4
:101D6000032E14D0042E17D0012231462046FFF74F
:101D700098FED5F8203204200133C5F82032DAE786
:101D8000102EF1D12046BDE87040FFF771BF20460C
:101D9000BDE87040FFF7A0BE2046BDE87040FFF7E9
:101DA000EDBE2046BDE87040FFF73ABF0520C2E710
:101DB0000020C0E748B100F5805393F8282232B1E3
:101DC000002283F82822FFF7A2BF012070471046A7
:101DD00070470000074BB3FBF0F02323584344F651
:101DE0001F63984286BF42F21073B0FBF3F00220EB
:101DF000704700BFC0D8A70070B5044640B300F0DC
:101E000045FBB4F80E12024604F58055E9B1D5F849
:101E10002C32C61AA068FFF7DDFF864215D90329C8
:101E200088BF01234FF0010188BF85F82832FF29C0
:101E3000A4F80E12C5F82C220AD80E3120682144CD
:101E40000122BDE8704002F016BA013189B2EEE716
:101E500070BDF0B50C46054689B010B9012009B037
:101E6000F0BD0029FAD045F25553642603930023B0
:101E70000096482103AAADF810300068062300F050
:101E8000A1FFC827304600F007FB022300978DF81A
:101E90000B304821012328680DF10B0200F092FF5E
:101EA00008B10420DBE7304600F0F6FA00970C2377
:101EB0004821286805AA01F05FF803460028F0D100
:101EC00005AA12F8011BA9B9107898B95178FF2911
:101ED00010D1062B0ED820336B4413F8082C13F8BE
:101EE000091C120413F8073C42EA016242EA032388
:101EF0002360B4E70133092BE3D1AFE770B50546A2
:101F000086B0C0B164260E4B00960393482104238B
:101F1000006803AA00F056FF044670B9322000F0B2
:101F2000BBFA009606234821286804AA01F024F889
:101F3000204606B070BD0124FAE70424F8E700BF8C
:101F40001401140113B5044600B3F9B14FF47A73C8
:101F500001600021C361017101841022053004F089
:101F60000FFC642000F098FA204601A9FFF771FFEA
:101F700028B14FF482730420238402B010BD2046A0
:101F8000FFF7BCFF20B140F2012323840120F4E7D6
:101F900084F82000F1E7000030B504468DB0002839
:101FA00043D06425224B00951A889B78ADF80C200D
:101FB0008DF80E3048210323006803AA00F002FFC9
:101FC00028B100230425237528460DB030BD2846CE
:101FD00000F062FAC823009304AA20234821206855
:101FE00000F0CAFF9DF810309DF81120134340EA1D
:101FF000030515F0FF0503D0002303252375E3E750
:102000009DF81230FF2BF7D19DF81630002BF3D03E
:10201000012323750423A371DDF81B306571C4F817
:10202000073000F033FAA061CEE70125CCE700BF0E
:102030007D78000808B1FFF7AFBF0120704710B5E9
:10204000044648B100F022FAA369C01AE369984235
:1020500084BF00232375207D10BD00B10730704779
:1020600008B140797047FF20704710B190F8210007
:102070007047FF2070470000F0B50F461446064633
:102080008DB0002854D0002952D00023ADF8103074
:10209000FF238DF81230531CD4258DF81330D34311
:1020A0000DF116008DF814308DF8155004F09CFBDE
:1020B00039462B46A21DD2B2381988421DD1303282
:1020C0006A445B4202F8203C0022E31DDBB230335D
:1020D0006B4403F8202C4FF47A7204F10803009249
:1020E00048213068DBB204AA00F06CFE50B1042431
:1020F00086F8204020460DB0F0BD11F8015B2B445E
:10210000DBB2DAE70A2000F0C7F964230093482124
:102110000623306802AA00F02FFF04460028E6D10B
:102120000622044902A804F01BFB0028E2D0DEE7E7
:102130000124DFE7887B0008012307B568B14FF46D
:1021400099720171ADF8042001A903228DF80630BF
:10215000FFF792FF03B05DF804FB1846FAE70000B2
:10216000114B07B59A690F2142F001029A619A69F1
:102170006FF0010002F001020092009ADA6942F069
:102180008052DA61DB69002203F080530193019BE6
:1021900000F0A6F9054A536823F0E06343F00073AA
:1021A000536003B05DF804FB0010024000000140E2
:1021B00010B5044686B01022002102A804F0E0FA0F
:1021C0002268114B9A421CD1104CC022A3691048BE
:1021D00043F00803A361A36902A903F00803009375
:1021E000009B1223CDE902230323059300F030FA6C
:1021F000E36943F40013E361E36903F4001301931B
:10220000019B06B010BD00BF00540040001002400A
:10221000000C014008B50268094B9A420ED1094AE8
:102220004021D369084823F40013D36100F0E4FA95
:10223000BDE808408021044800F0DEBA08BD00BFB8
:102240000054004000100240000C0140102210B564
:10225000044688B00DEB0200002104F091FA2368D7
:10226000324A934231D1324B4FF400719A6931486E
:1022700042F480429A619A69002402F480420092FA
:10228000009A9A6942F004029A619B6903F0040380
:102290000193019B0223CDE90413032304A90793AF
:1022A00000F0D6F94FF48063224804A9CDE9043444
:1022B000069400F0CDF925202246052100F010F902
:1022C000252000F03DF908B010BD1B4A9342FAD119
:1022D000174B1848DA6904A942F40032DA61DA6966
:1022E000002402F400320292029A9A6942F0040237
:1022F0009A619B69042203F004030393039B022366
:10230000CDE904230323079300F0A2F90823094829
:1023100004A9CDE90434069400F09AF92620224657
:10232000052100F0DDF82620CBE700BF0038014092
:10233000001002400008014000440040FEE7FEE7B4
:10234000FEE7FEE7FEE7704708B500F093F803F0FC
:102350007FFC012803D0BDE8084004F01BB808BD8D
:10236000014801F025BE00BF00140020014801F023
:102370001FBE00BFB81300200B4A0346116810B5FA
:1023800009B90A491160106809490A4C0344091B3C
:102390008B4206D904F0FCF90C2303604FF0FF30A8
:1023A00010BD1360FCE700BF9C140020382F0020F4
:1023B000005000200004000070470000FFF7FCFF01
:1023C0000B480C490C4A002302E0D458C450043393
:1023D000C4188C42F9D3094A094C002301E0136068
:1023E0000432A242FBD304F0D9F9FEF7E1FF7047B3
:1023F0000000002060000020C87B00086000002072
:10240000382F0020FEE7000038B50E4B05461A783D
:102410004FF47A73B3FBF2F30B4A1068B0FBF3F09E
:1024200000F09CF8044658B90F2D09D802462946F9
:102430004FF0FF3000F054F82046044B1D6038BDCB
:102440000120FCE70400002000000020080000201C
:10245000074A08B51368032043F01003136000F027
:102460002DF80F20FFF7D0FFFFF77AFE002008BD00
:1024700000200240034A044B11681B780B44136090
:10248000704700BFA014002004000020014B186812
:10249000704700BFA014002038B50446FFF7F6FFD0
:1024A0000546631C1EBF044B1B78E418FFF7EEFFC4
:1024B000431BA342FAD338BD04000020074903029E
:1024C000CA6803F4E06322F4E0621204120C1343BE
:1024D00043F0BF6343F40033CB60704700ED00E08E
:1024E000154B30B5DC68C4F30224C4F10703251D85
:1024F000042B28BF0423062D4FF0FF3594BF002482
:10250000033C05FA03F321EA0303A54022EA05028E
:10251000A340002843EA0203ACBF00F16040074A31
:102520004FEA0313DBB2ABBF00F5614000F00F00D0
:1025300080F80033135430BD00ED00E014ED00E0EE
:10254000002807DB01234109034A00F01F008340F4
:1025500042F82130704700BF00E100E00138B0F1DF
:10256000807F0BD24FF0E023F021054A586182F8BA
:1025700023100020072298611A61704701207047DC
:1025800000ED00E090F821200346022A06D0042244
:1025900082630120002283F8202070470268C06B0C
:1025A000116821F00E011160116821F00101116024
:1025B00001211A6C01FA02F24260002083F8211016
:1025C000E8E7000008B590F82130022B03D004237F
:1025D0008363012008BD03681A6822F00E021A60A6
:1025E0001A6822F001021A60174A93421FD014326F
:1025F00093421ED0143293421DD0143293421DD008
:10260000143293421DD01432934214BF4FF08073A2
:102610004FF480130D4A5360012380F821300023CA
:1026200080F82030436B03B198470020D2E70123A4
:10263000F0E71023EEE74FF48073EBE74FF480539D
:10264000E8E74FF48033E5E708000240000002406D
:102650002DE9F74F00244FF00F0E2646DFF884C116
:10266000614B00F104080A6832FA06F502D103B0A2
:10267000BDE8F08F012505FA06F702EA070537EAFB
:10268000020276D14A68032A07D8013A022A00F2E8
:102690008380DFE802F091969C00122A00F094807B
:1026A00069D8112A00F08A80FF2D94BF8146C14667
:1026B0004FEA8602D9F8007088BF203A0EFA02FA73
:1026C00027EA0A0704FA02F21743C9F80070D1F8A2
:1026D000049019F0805F4CD0DCF8182026F0030736
:1026E00042F00102CCF81820DCF8182007F18047EE
:1026F00002F00102019207F5803706F0030A019A01
:102700004FEA8A0ABA680EFA0AFB22EA0B0B374A2A
:10271000904260D002F5806290425ED002F5806205
:1027200090425CD002F58062904214BF04220322E2
:1027300002FA0AF242EA0B02BA609A6819F4801FA0
:1027400014BF2A43AA439A60DA6819F4001F14BF21
:102750002A43AA43DA605A6819F4003F14BF2A4397
:10276000AA435A601A6819F4803F14BF2A43AA4347
:102770001A60013677E7DFF878904A450CD014D814
:10278000A9F580194A4507D009F570294A4503D0B3
:10279000A9F580194A4587D18A68D2B1012A4FF03C
:1027A00008040CBF076147617EE7DFF848904A459F
:1027B000F2D009F58039EDE7CC6875E7CC680434D0
:1027C00072E7CC6808346FE7CC680C346CE70024FF
:1027D0006AE7042468E70022AAE70122A8E70222A8
:1027E000A6E700BF001002400004014000080140BD
:1027F00000002210000031102DE9F74F4FF0040BBC
:1028000000224FF0010A4FF00F0800EB0B03019379
:102810002E4B31FA02F402D103B0BDE8F08F0AFA70
:1028200002F70F4049D022F0030404F1804404F57C
:10283000803402F0030CA5684FEA8C0C08FA0CF9FE
:1028400009EA050E224DA84239D005F58065A84257
:1028500037D005F58065A84235D005F58065A842DA
:1028600014BF0425032505FA0CF575456FEA070624
:102870000FD11D6835401D605D6835405D60DD68C5
:102880003540DD609D6835409D60A56825EA0905F5
:10289000A560FF2F94BF0746019F4FEA82043D6861
:1028A00088BF203C08FA04FC25EA0C050BFA04F466
:1028B00025433D60C4683440C4600132A9E7002567
:1028C000D1E70125CFE70225CDE700BF0004014095
:1028D000000801400AB1016170470904FBE7C368C1
:1028E00001EA030221EA030141EA02410161704762
:1028F000016800224B6913F4806310D06FF4806389
:102900004B612023026380F83D3080F83E20036C49
:1029100080F83C2043F0040303640120704718460C
:1029200070472DE9F84606460F4691461D464FEA88
:10293000114A3368BAF1010F0CBF5C699C6927EA40
:102940000404A4B2B4FA84F46409A14501D00020BF
:1029500025E06A1CEED0FFF799FD089BC01AA8423B
:1029600001D8002DE5D13368BAF1010F0CBF5B69C6
:102970009B6927EA03039BB2B3FA83F35B0999458A
:10298000D7D1002320220120336386F83D2086F82A
:102990003E30326C86F83C3042F020023264BDE8B2
:1029A000F8862DE9F04104460F46164698462568FC
:1029B000686927EA000080B2C0B16B695A0517D573
:1029C0002B68202243F400732B606FF480636B61EB
:1029D0000023236384F83D2084F83E30236C43F0C9
:1029E000040323640023012084F83C30BDE8F08117
:1029F000731CDDD0FFF74AFDA0EB0800B04201D800
:102A0000002ED4D123685A6927EA020292B2002A22
:102A1000CDD000232022236384F83D2084F83E306B
:102A2000236C1343DDE770B504460D461646236854
:102A30005B691B0601D500201EE02046FFF758FF0A
:102A4000C8B96A1CF3D0FFF721FD801BA84201D84A
:102A5000002DECD123685B6913F08003E7D12022BD
:102A6000236384F83D2084F83E30226C84F83C30A7
:102A700042F020022264012070BD00002DE9FF47D2
:102A80009A46DDE90C78036815461A680E4642F44A
:102A900080621A601A684FF0011142F480721A6065
:102AA0003B460022CDF800800446FFF73AFF23683A
:102AB00048B11B68DB0548BF4FF400734FF00300BB
:102AC00048BF236421E05FFA86F906F0FE061E6126
:102AD0003A46434620462A49FFF763FFA0B92368D8
:102AE00003905A69394603929B69424603932046F4
:102AF000039BFFF798FF58B1236C042B01BF22689A
:102B0000136843F400731360012004B0BDE8F0873C
:102B1000BAF1010F23681AD1EDB242463946204678
:102B20001D61FFF780FF02460028E5D1216820469D
:102B30000B6843F480730B603B464FF00111CDF8F6
:102B40000080FFF7EEFE226860B11368B2E72A0A40
:102B50001A61394642462046FFF765FF0028CBD16F
:102B60002368D9E749F001031361204643463A46FA
:102B70000349FFF716FF003818BF0120C5E700BF63
:102B80000200010070B504460D46164623685B69D5
:102B90005B0701D500201EE02046FFF7A9FEC8B95B
:102BA0006A1CF3D0FFF772FC801BA84201D8002DED
:102BB000ECD123685B6913F00403E7D1202223637F
:102BC00084F83D2084F83E30226C84F83C3042F09A
:102BD00020022264012070BD70B504460D461646E1
:102BE00021684B6913F0400301D0002011E04A69CD
:102BF000D2060FD56FF010024A612022236384F8B9
:102C00003D2084F83E30236C23640023012084F8A7
:102C10003C3070BDFFF73AFC801BA84201D8002D64
:102C2000DED123685B6913F04003D9D120222363EE
:102C300084F83D2084F83E30236C1343E4E7000021
:102C400070B5044608B9012070BD90F83D3003F01E
:102C5000FF021BB980F83C20FFF7AAFA242384F86E
:102C60003D3023681A6822F001021A601A6842F4A3
:102C700000421A601A6822F400421A6000F07EFFD7
:102C80003F4B65689D4294BF3E4B3F4B98428CBF83
:102C900000230123002BD6D1394E3C4BB542B0FB6B
:102CA000F3F388BF4FF496762268516821F03F0114
:102CB00041EA030182BF73434FF47A76B3FBF6F324
:102CC0005160116A013321F03F010B431362D16956
:102CD000431E2B4821F44F41854221F0FF0132D899
:102CE0006D00B3FBF5F340F6FC700133034242D0B4
:102CF000C3F30B031943D1611168D4E9073021F004
:102D0000C00103430B4313609168D4E9030321F42A
:102D10000341034321F0FF010B439360D168D4E9E1
:102D2000053021F0FF0103430B43D36013680020FB
:102D300043F0010313602023206484F83D302063B6
:102D400084F83E0080E7A06850B905EB4505B3FB69
:102D5000F5F30133C3F30B037BB143F40043C9E73D
:102D600019206843B3FBF0F30133C3F30B0323B122
:102D700043F44043BEE70423BCE70123BAE700BFA6
:102D8000A08601007F841E00FF083D0040420F0026
:102D900010B5044698B12423026880F83D301368CA
:102DA00023F001031360FFF735FA0020206484F854
:102DB0003C0084F83D00206384F83E0010BD0120F3
:102DC000FCE700002DE9F043044685B098460D4627
:102DD00091460C9FFFF75AFB94F83D300646202B96
:102DE00004D00225284605B0BDE8F08300901923E1
:102DF000012220465C49FFF794FD0028F1D194F8A8
:102E00003C30012BEDD00123216884F83C300B6865
:102E1000DA075EBF0B6843F001030B600B6823F415
:102E200000630B60212384F83D30102384F83E308A
:102E300000232364A4F82A80638DC4F8249023859A
:102E40004A4BE362E36A082B04D0012B02D013F54E
:102E5000803F04D10B6843F480730B6002E0236B66
:102E6000122BF7D000223B464FF00111204600966E
:102E7000FFF757FD226840B11368DB0501D4012537
:102E8000B0E74FF400732364F9E72369B3F5804F8B
:102E900021D105F0FE05156133463A4620463449F6
:102EA000FFF77FFD05460028E9D1236803905A69A2
:102EB00003929B690393039B238DF3B921680A68EE
:102EC00042F400720A60202284F83C3084F83D20ED
:102ED00084F83E3086E7EB1103F0060343F0F0037D
:102EE0001361204633463A462249FFF75AFD00282F
:102EF000C5D12368EDB21D61CEE732463946204682
:102F0000FFF791FD40B1236C042BB8D12268136800
:102F100043F400731360B2E7636A20681A4612F83C
:102F2000011B01616262628D013A92B26285228D5B
:102F3000D0F814C0511E89B21CF0040F21850AD0AC
:102F400049B15978023301616362638D023A013BF2
:102F50009BB263852285324639462046FFF712FE32
:102F60000028A9D0CFE700BF020010000000FFFF3B
:102F700002000100080001002DE9F04398460023FB
:102F8000044689B002930E469146109FFFF77EFAE1
:102F900094F83D300546202B04D00226304609B077
:102FA000BDE8F08300901923012220468F49FFF7E6
:102FB000B8FC0028F1D194F83C30012BEDD001236E
:102FC000216884F83C300B68DB075EBF0B6843F078
:102FD00001030B600B6823F400630B60222384F869
:102FE0003D30102384F83E3000232364A4F82A8067
:102FF000638DC4F8249023857D4BE362E36A0A68FD
:10300000082B42F480620A6004D0012B02D013F531
:10301000803F04D10B6843F480730B6002E0236BA4
:10302000112BF7D03B4600224FF0011120460095AE
:10303000FFF777FC236838B11B68D80544BF4FF40D
:10304000007323640126A9E72269B2F5804F29D1D4
:1030500046F00106F6B21E612B463A462046654907
:10306000FFF79FFC06460028ECD1228D2368002A3A
:103070004DD103905A6903929A690392039A1A6890
:1030800042F400721A60DFF87081DFF87091238DCE
:10309000002B6CD1202284F83C3084F83D2084F849
:1030A0003E307BE74FEAE61808F0060848F0F002E9
:1030B0001A6120462B463A465149FFF772FC002818
:1030C000C0D12368F6B23A461E6120462B464949D4
:1030D000FFF767FC02460028B4D1236807905969BE
:1030E00020460791996907910799196841F4807101
:1030F00019603B464FF001110095FFF712FC226862
:1031000008B1136899E748F0F1031361A4E7012AB5
:1031100011D11A6822F480621A6072B62368049092
:103120005A6904929A690492049A1A6842F40072E5
:103130001A6062B6A7E7022A1A680ED142F400624A
:103140001A6072B6236805905A6905929A690592C9
:10315000059A1A6822F48062EAE742F480621A60F3
:1031600006905A6906929B690693069B8BE7032B90
:1031700000F28880012B16D12A4639462046FFF7F7
:103180002BFD00287FF45EAF23681A69636A1A700A
:10319000636A01336362238D013B2385638D013BA9
:1031A0009BB2638573E7022B4FF000023B4641461A
:1031B0002046009526D1FFF7B4FB00287FF442AFEC
:1031C00072B623681A6842F400721A601A69636A58
:1031D0001A70636A01336362238D013B2385638D1B
:1031E000013B9BB2638562B6CEE700BF02001000D0
:1031F0000000FFFF020001000400010000000020A9
:1032000008000100FFF78DFB00287FF41BAF226848
:10321000136823F48063136072B646F2A811236822
:103220001A69636A1A70626A531C6362238D013BD8
:103230002385638D013B9BB26385D9F80030B3FBD6
:10324000F1F323214B430293029B013B0293029B28
:103250006BB92022236384F83D2084F83E30226C31
:1032600042F02002226462B684F83C30EAE6236829
:1032700059694907E8D5196841F4007119601B695B
:103280005370A6E72A4639462046FFF7A5FC0028DA
:103290007FF4D8AE23681A69636A1A70628D616A16
:1032A000013A92B24B1C628522686362238D506999
:1032B000013B9BB2400723857FF5E9AE032B02BF9C
:1032C000136823F48063136013694B7060E700BFD9
:1032D0002DE9F04399460023044689B003930D4637
:1032E0009046129FFFF7D2F894F83D300646202B07
:1032F00004D00225284609B0BDE8F08300901923C8
:10330000012220469049FFF70CFB0028F1D194F8E8
:103310003C30012BEDD00123206884F83C30036859
:103320002946DB0758BF036842465CBF43F00103F0
:103330000360036823F400630360222384F83D30B4
:10334000402384F83E3000232364109B20466362B0
:10335000BDF844306385638D23857C4BE3624B4627
:10336000CDE90076FFF78AFB0546002840F0BA80D9
:10337000228D2368C2B904905A6904929A69049212
:10338000049A1A6842F400721A60DFF8C481DFF808
:10339000C491238D002B37D1202284F83C3084F84F
:1033A0003D2084F83E30A5E7012A11D11A6822F4A5
:1033B00080621A6072B6236805905A6905929A690C
:1033C0000592059A1A6842F400721A6062B6DCE748
:1033D000022A1A680ED142F400621A6072B623689B
:1033E00006905A6906929A690692069A1A6822F419
:1033F0008062EAE742F480621A6007905A69079295
:103400009B690793079BC0E7032B78D8012B15D145
:10341000324639462046FFF7DFFB002862D1236899
:103420001A69636A1A70636A01336362238D013B10
:103430002385638D013B9BB26385AAE7022B4FF086
:1034400000023B4641462046009618D1FFF769FA34
:10345000002847D172B623681A6842F400721A60D5
:103460001A69636A1A70636A01336362238D013BD0
:103470002385638D013B9BB2638562B6CFE7FFF77F
:1034800050FA00282ED12268136823F48063136059
:1034900072B646F2A81123681A69636A1A70626AE2
:1034A000531C6362238D013B2385638D013B9BB2DB
:1034B0006385D9F80030B3FBF1F323214B43039329
:1034C000039B013B0393039B73B92022236384F87E
:1034D0003D2084F83E30226C42F02002226462B625
:1034E00084F83C30012505E7236859694907E7D589
:1034F000196841F4007119601B695370B3E73246D3
:1035000039462046FFF768FB0028EBD123681A698B
:10351000636A1A70628D616A013A92B24B1C6285CD
:1035200022686362238D5069013B9BB2400723856B
:103530007FF52FAF032B02BF136823F48063136062
:1035400013694B706FE700BF020010000000FFFF1F
:1035500004000100000000202DE9F04F044685B072
:103560001F4688469246FEF791FF94F83D30054687
:10357000202B03D0022005B0BDE8F08F0090192366
:10358000012220464C49FFF7CCF90028F2D194F8EB
:103590003C30012BEED0012384F83C302368002618
:1035A0001A68DFF814B1D00758BF1A6808F0FE088F
:1035B0005CBF42F001021A601A6822F400621A60CD
:1035C000242384F83D303D4B2664E36222684FF0AB
:1035D00001111368204643F4807313603B460022B8
:1035E0000095FFF79EF9236838B11B680320D905C1
:1035F00044BF4FF400732364BDE7C3F81080FEF7A7
:1036000045FF4FF0A009054623685A695B69C2F37C
:103610004002C3F3802394F83D10A0291CD14FF041
:103620002009236884F83D905A6992072BD51A68BF
:10363000204642F400721A60002203925A691E4921
:1036400003929B6901220393039B00951923FFF7C3
:1036500068F998B101208EE71343E0D1FEF716FF19
:10366000401BB84200D80FB984F83D9023685A69CE
:103670005B69C2F34002C3F38023CCE784F83D903A
:1036800084F83C0077E71A68594642F400721A60E1
:103690006FF4806220465A61192301220095FFF7DA
:1036A00040F90028D6D1013656458FD384F83D9095
:1036B00084F83C00CEE700BF020010000000FFFFCE
:1036C0002DE9F341054638B30368DB0710D42B68B6
:1036D0009F075ED42B68190700F195802B685A0765
:1036E00000F1C180EB69002B40F02C81002029E023
:1036F000904C636803F00C03042B07D0636803F05D
:103700000C03082B0AD16368DE0307D523689C03EA
:10371000DDD56B68002BDAD1012013E06B68B3F5BF
:10372000803F12D1236843F480332360FEF7AEFE5E
:10373000064623689803CAD4FEF7A8FE801B6428B7
:10374000F7D9032002B0BDE8F0819BB9236823F4C8
:1037500080332360236823F480232360FEF796FEE2
:10376000064623689903B2D5FEF790FE801B6428B5
:10377000F7D9E6E7B3F5A02F236803D143F48023FC
:103780002360CFE723F480332360236823F480236E
:10379000CBE7684C636813F00C0F07D0636803F045
:1037A0000C03082B10D16368DA030DD423689B0740
:1037B00002D52B69012BAFD123686A6923F0F80386
:1037C00043EAC203236085E72A695B4B6AB10122A1
:1037D0001A60FEF75BFE064623689F07ECD4FEF7EF
:1037E00055FE801B0228F7D9ABE71A60FEF74EFEA4
:1037F0000646236898077FF56DAFFEF747FE801BEE
:103800000228F6D99DE7AA694A4E4B4BE2B1012244
:10381000C3F88024FEF73AFE0446736A9B070DD571
:103820004FF4FA52454B1B68B3FBF2F3019300BF10
:10383000019B5A1E0192002BF9D14FE7FEF726FE9D
:10384000001B0228E9D97CE7C3F88024FEF71EFE9E
:103850000446736A9F077FF541AFFEF717FE001B12
:103860000228F6D96DE7334CE369D80024D4012748
:10387000E36943F08053E361E36903F0805300930D
:10388000009B2F4E3368D90518D5EB68012B26D144
:10389000236A43F001032362FEF7F8FD41F2883802
:1038A0000646236A9B073FD5002F3FF41BAFE36911
:1038B00023F08053E36115E70027E2E7336843F420
:1038C00080733360FEF7E2FD80463368DA05DCD4AE
:1038D000FEF7DCFDA0EB08006428F6D931E7ABB9B0
:1038E000236A41F2883823F001032362236A23F01C
:1038F00004032362FEF7CAFD0646236A9807D3D560
:10390000FEF7C4FD801B4045F7D91AE7052B236A53
:1039100003D143F004032362BAE723F001032362D7
:10392000236A23F00403B6E7FEF7B0FD801B404591
:10393000B7D906E700100240000042420000002014
:10394000007000402A4C626802F00C02082A3ED047
:103950000022022B274B1A662CD1FEF797FD064654
:103960002368990120D42B6AB3F5803F05D16268A2
:10397000A96822F400320A436260696A62680B43F4
:1039800022F474121343012263601A4B1A66FEF785
:103990007DFD054623689A013FF5A8AEFEF776FD4A
:1039A000401B0228F6D9CCE6FEF770FD801B0228EA
:1039B000D6D9C6E6FEF76AFD054623689B017FF56A
:1039C00095AEFEF763FD401B0228F6D9B9E6012B40
:1039D0003FF4A2AE60682B6A00F480329A427FF412
:1039E0009BAE6B6A00F47010C01A18BF0120A9E6E4
:1039F00000100240000042420D4A536803F00C01DF
:103A0000082912D10B48C3F38341DB03405C09D57D
:103A10005368094AC3F340435043084AD35CB0FBA0
:103A2000F3F07047064B584370470348704700BF98
:103A300000100240A87B000800127A00A67B000854
:103A400000093D002DE9F0410D46044610B9012062
:103A5000BDE8F081444A136803F007038B4228D382
:103A600021688E0730D4CA0743D43F4A136803F055
:103A70000703AB4265D822683C4D12F0040F6CD1AD
:103A8000130706D56B68226923F4605343EAC20327
:103A90006B60FFF7B1FF6B68354AC3F30313D35C68
:103AA000D840344B1860344B1868FEF7ADFC00204A
:103AB000CEE7136823F007030B431360136803F08A
:103AC00007038B42C3D1CBE7284B11F0040F1EBF75
:103AD0005A6842F4E0625A60080742BF5A6842F4EA
:103AE00060525A605A68A06822F0F00202435A609D
:103AF000B9E762681D4E012A33681AD113F4003FFA
:103B0000A5D0736841F2883823F003031343736030
:103B1000FEF7BCFC07467368626803F00C03B3EB66
:103B2000820FA2D0FEF7B2FCC01B4045F3D90320A0
:103B30008EE7022A02D113F0007FE1E713F0020FB3
:103B4000DEE7136823F007032B431360136803F0C9
:103B50000703AB427FF47BAF8DE76B68E16823F42A
:103B6000E0630B436B608BE70020024000100240D3
:103B7000967B00080000002008000020044B054A46
:103B80005B68C3F30223D35C034A1068D8407047D4
:103B9000001002408E7B000800000020044B054A04
:103BA0005B68C3F3C223D35C034A1068D8407047F4
:103BB000001002408E7B000800000020026802F125
:103BC0000C0353E8003F23F490730C3242E80031B9
:103BD00002680029F2D102F1140353E8003F23F0F8
:103BE000010302F1140C4CE800310029F3D1036BFE
:103BF000012B0BD102F10C0353E8003F23F010031B
:103C000002F10C0C4CE800310029F3D1202380F89C
:103C1000423000230363704710B504460368C1684F
:103C20001A6922F440520A431A6182680069D9680D
:103C30000243606921F4B05121F00C0102430A43B0
:103C4000DA605A69A16922F440720A435A610E4A45
:103C5000934215D1FFF7A2FF1923434362682068FE
:103C60009200B3FBF2F36422B3FBF2F102FB1133D7
:103C70001B013233B3FBF2F303EB0113836010BD7E
:103C8000FFF77CFFE8E700BF00380140F7B50546C5
:103C90000C4617461E462A68136834EA030301D10E
:103CA000002021E0701CF7D0FEF7F0FBC01B86421D
:103CB0001CD3DEB12B68DA685107ECD5802CEAD032
:103CC000402CE8D01A681207E5D5002401941A6840
:103CD000284601925B680193019BFFF76FFF082361
:103CE00001206B6485F8404003B0F0BD0320FBE782
:103CF00010B5044648B390F8413003F0FF021BB9F9
:103D000080F84020FEF7A2FA2423226884F841308C
:103D1000D368204623F40053D360FFF77DFF236868
:103D200000201A6922F490421A615A6922F02A028C
:103D30005A61DA6842F40052DA602023606484F841
:103D4000413084F84230606310BD0120FCE72DE96A
:103D5000F843984690F841300446202B0E4617460B
:103D60003FD100293FD0002A3DD0212300254564C2
:103D700080F84130FEF78AFBA3688146B3F5805F87
:103D8000A784E78403D123690BB935461E46E38C2B
:103D90009BB253B943464A4640212046FFF776FF7F
:103DA000202350B984F841300AE043464A46802136
:103DB0002046FFF76BFF28B12023032084F8413011
:103DC000BDE8F88322684EB935F8023BC3F3080317
:103DD0005360E18C013989B2E184D8E716F8013BE0
:103DE000F6E70220ECE70120EAE790F84130202BCB
:103DF00010D189B182B1C284828400232122016260
:103E00000168436480F84120CA68184642F0800285
:103E1000CA607047022070470120704708B5002330
:103E2000406AC385C384FDF7C1F808BD7047000030
:103E300010B50446226802F10C0353E8003F23F456
:103E400090730C3242E8003123680029F2D103F16B
:103E5000140252E8002F22F0010203F1140040E89E
:103E600000210029F3D1226B012A0BD103F10C02AE
:103E700052E8002F22F0100203F10C0040E800216C
:103E80000029F3D15A6912F0400220D003F1140244
:103E900052E8002F22F0400203F1140040E8002114
:103EA0000029F3D1E06B48B10C4B4363FEF78AFB6A
:103EB00010B1E06B436B9847002010BD2023E085D4
:103EC00084F8423020632046FFF7B0FFF4E7202358
:103ED000E28584F842302263F5E700BFE13E000846
:103EE00008B520220023406AC38580F8422003637E
:103EF000FFF79CFF08BD704790F8423007B5222BB2
:103F000042D181680268B1F5805F836A3FD101695F
:103F100000293FD15268C2F3080223F8022B8362C2
:103F2000C38D013B9BB2C385002B2DD10268D168A4
:103F300021F02001D160D16821F48071D1605169F4
:103F400021F001015161202280F842204363026B7D
:103F5000012A026828D1036302F10C0353E8003FF1
:103F600023F0100302F10C0C4CE800310029F3D1CE
:103F70001368DB0605D5019113680193536801931B
:103F8000019B818DFFF7B7FF03B05DF804FB39B9E2
:103F9000016929B95268D2B21A70836A0133BEE747
:103FA000526802F07F02F7E7FCF7DEFFECE7000063
:103FB000036873B51A6804461607D9685D6908D1A5
:103FC000960668D58D0666D502B0BDE87040FFF74D
:103FD00093BF05F0010001F4907505435BD0D6074F
:103FE00005D5CD0542BF636C43F0010363645307FD
:103FF00004D518B1636C43F002036364960704D5DB
:1040000018B1636C43F004036364150707D501F02E
:10401000200303431EBF636C43F008036364636CB7
:10402000002B32D0920604D58B0602D52046FFF72E
:1040300063FF266820467369626C03F0400302F058
:10404000080253EA020522D0FFF7B8FD73695E0645
:1040500018D5226802F1140353E8003F23F040030F
:10406000143242E800310029F3D1E06B50B1744BB7
:104070004363FEF7A7FA40B1E06B436B02B0BDE8C3
:10408000704018472046FCF791FF02B070BDFCF766
:104090008DFF6564F9E7206B012840F09480D50618
:1040A00040F19180C80640F18E80002201921A688A
:1040B00001925A680192019A5A6952064DD5E16BF4
:1040C0000A68526892B2002ADFD0A08D9042DCD9F3
:1040D000E2858A69202A36D003F10C0252E8002FCB
:1040E00022F4807203F10C0040E800210029F3D192
:1040F00003F1140252E8002F22F0010203F1140030
:1041000040E800210029F3D103F1140252E8002F06
:1041100022F0400203F1140040E800210029F3D10D
:10412000202284F84220216303F10C0252E8002F80
:1041300022F0100203F10C0040E800210029F3D125
:10414000E06BFEF71FFA02236363E38DA18DC91AAA
:1041500089B22046FFF7CFFE97E7E28DE08DA18D73
:1041600080B292B2002890D0891A89B200298CD0EE
:1041700003F10C0252E8002F22F4907203F10C05B7
:1041800045E800200028F3D103F1140252E8002F83
:1041900022F0010203F1140545E800200028F3D1C4
:1041A000202284F84220206303F10C0252E8002F01
:1041B00022F0100203F10C0545E800200028F3D19D
:1041C00002236363C5E7160628D50D0626D594F8A5
:1041D0004120212A7FF459AFA168226AB1F5805F9E
:1041E00017D12169A9B932F8021BC1F3080159603E
:1041F0002262E28C013A92B2E284002A7FF445AF57
:10420000DA6822F08002DA60DA6842F04002DA60AE
:104210003BE7511C216212785A60EAE750067FF5AD
:1042200034AF4A067FF531AFDA68204622F040020B
:10423000DA60202384F84130FCF7ACFE25E700BFAC
:104240001D3E00080023C285436422238285026943
:1042500080F84230816203681AB1DA6842F48072F1
:10426000DA605A69002042F001025A61DA6842F0CD
:104270002002DA60704770B490F84260202E06D1B8
:1042800041B13AB10024046370BCFFF7DBBF0220E8
:1042900070BC70470120FBE7EFF305832BB9064B99
:1042A000186828B901221A6070476FF0050070473E
:1042B0004FF0FF30704700BF5C1B002010B5EFF3DC
:1042C00005845CB9084B1A68012A0AD1074AD477D9
:1042D00002221A6001F0C0F9204610BD6FF00500FF
:1042E000FBE74FF0FF30F8E75C1B002000ED00E03B
:1042F000F0B51446002287B00B460592EFF3058215
:10430000FAB9F0B154B3A56925B1691E372902D9AC
:10431000002017E018256268D207F9D466699EB1BB
:10432000B2082168D4E9027C87B1BCF15B0F08D9DF
:10433000246934B12EB1CDE90147009501F025F98A
:104340000590059807B0F0BD8022EAE7BCF1000FA8
:10435000F7D12469002CF4D10C4601E01825802205
:1043600005A9CDE9005192B2214601F046F9012894
:104370001CBF00230593E4E708B5EFF3058222B9DB
:1043800008B101F0C9FA002008BD6FF00500FBE795
:104390000346EFF3058242B948B1D3E9020318B1ED
:1043A0001F2B02D900F052B90BB10020704700F06A
:1043B00071B913B50C46F8B1B1F1807F1CD2EFF39F
:1043C0000583A3B1002301AA019300F07BFAB0B1E9
:1043D000019B4BB14FF0E0234FF08052C3F8042D06
:1043E000BFF34F8FBFF36F8F204602B010BD02B0F6
:1043F000BDE8104000F020BA6FF00304F4E76FF05E
:104400000204F1E770B50E460546B0B1B1F1807F08
:1044100013D2EFF3058363B100F000FA314604468E
:10442000284600F0F3F9002808BF6FF00204204688
:1044300070BDBDE8704000F0C3B96FF00304F6E74B
:1044400073B50C461D46F8B1B1F1807F1CD2EFF375
:104450000583E3B902F0010682F00202C2F34002D2
:104460003346009500F024F904EA00024EB1A2425E
:1044700005D0002D14BF6FF001006FF0020002B0F4
:1044800070BD002AF5D0FAE76FF00300F7E76FF090
:104490000500F4E7F8B50546EFF3058717B10024EA
:1044A0002046F8BD20B346683307F8D4D0E902139C
:1044B00006F0010699B14F2BF1D9BEB1042000F0EE
:1044C00077FC04460028EAD037462D682946204666
:1044D00000F098FE002FE3D044F00104E0E7002B49
:1044E000DDD12EB1042000F097FCEAE70120E6E7D9
:1044F000012000F091FC04460028D0D0002DE5D02A
:104500000026E1E738B503460C4620F0010003F031
:104510000102EFF3058595B9012B13D962B100F0C3
:1045200050FE012801D1002038BD002C14BF6FF0CF
:1045300001006FF00200F7E700F086FDF1E76FF091
:104540000500F1E76FF00300EEE7024608B520F042
:10455000010002F00103EFF3058179B9012A10D9B6
:104560003BB100F03AFC01280CBF00206FF00200C4
:1045700008BD1A46194600F069FBF4E76FF0050024
:10458000F6E76FF00300F3E7F7B504460E4615466D
:10459000EFF3058242B938B1884205D355B1D5E968
:1045A00002372BB14F2F22D80024204603B0F0BD94
:1045B000002FF9D1012C0CD02046314600F028FB09
:1045C00004460028F0D085B92946204600F01AFE9E
:1045D000EBE703220021012000F0D1FA0EE01A4699
:1045E00000F0F4FA04460028DED02D68ECE701283C
:1045F000F5D103210091114600F073FA044600281A
:10460000D2D0002EDFD000231A46194600F01EFB40
:104610000128D8D0204600F01FFEC5E7034B0360F9
:10462000034B0B6080231360704700BF001B00200A
:1046300000190020034B0360034B0B604FF48073A1
:1046400013607047A4180020A414002013B504467A
:1046500040B94FF0500383F31188BFF36F8FBFF35E
:104660004F8FFEE720230193019B202B08D04FF0B2
:10467000500383F31188BFF36F8FBFF34F8FFEE7B3
:10468000002340F8043B00F025F90123204623775E
:1046900002B010BD38B5202001F050FF044628B10B
:1046A000002540F8045B00F015F92577204638BD59
:1046B0002DE9F843DDF820900D461746984606464A
:1046C00040B94FF0500383F31188BFF36F8FBFF3EE
:1046D0004F8FFEE7B1F1807F08D34FF0500383F393
:1046E0001188BFF36F8FBFF34F8FFEE741B94FF0D3
:1046F000500383F31188BFF36F8FBFF34F8FFEE733
:1047000001F0A6FA58B9B9F1000F08D04FF05003E4
:1047100083F31188BFF36F8FBFF34F8FFEE700F075
:10472000E1FF346805EA0403B8F1000F13D1A3B91F
:10473000B9F1000F15D0391E18BF01210906B8F1D3
:10474000000F01D041F080614A462943301D01F03D
:104750005DF9002407E09D42EAD117B124EA050380
:1047600033604FF0000901F063F8B9F1000F1CD07D
:1047700048B94FF0E0234FF08052C3F8042DBFF347
:104780004F8FBFF36F8F01F041FB830104460AD4C2
:1047900001F0A8FD346805EA0403B8F1000F07D161
:1047A00043B901F0BFFD24F07F442046BDE8F88303
:1047B0009D42F6D1002FF4D024EA05053560F0E7DC
:1047C00070B50C46054640B94FF0500383F311888D
:1047D000BFF36F8FBFF34F8FFEE7B1F1807F08D338
:1047E0004FF0500383F31188BFF36F8FBFF34F8FE8
:1047F000FEE701F077FD2E6826EA04042C6001F044
:1048000091FD304670BDFFF7DBBF00000A46002374
:104810000146014801F0FABC07480008EFF3118394
:104820004FF0500282F31188BFF36F8FBFF34F8FA9
:10483000006883F3118870472DE9F0410D46044666
:1048400040B94FF0500383F31188BFF36F8FBFF36C
:104850004F8FFEE7B1F1807F08D34FF0500383F311
:104860001188BFF36F8FBFF34F8FFEE700F10C0687
:1048700000F038FF236820692B430025236086421F
:10488000216807D121EA0501216000F0D1FF2068ED
:10489000BDE8F081D0E9002822F07F4312F0806F5C
:1048A00003EA010702D11FB94046E8E7BB42FBD14A
:1048B000D20141F0007148BF1D4301F033F9F3E725
:1048C000FFF7BABF13460A460146014801F09EBCF5
:1048D000C14800084FF0FF3200F10803C0E902238D
:1048E0004360036100230360704700230361704746
:1048F00043689A684B608A605160996003680861F8
:1049000001330360704730B50C68631C0AD103693A
:104910005A684A6091608B6059600368086101338E
:10492000036030BD00F10802134652681568A542C5
:10493000FAD9EDE70369D0E901128A60516059683C
:10494000814208BF5A60002202611A68013A1A6067
:104950001868704710B5044601F0C4FCA46B01F060
:10496000E1FCB4FA84F0400910BD70B51646026C43
:104970000446856B42B906689EB9806801F0B6F9B5
:10498000A6600135A56370BD6EB9406801F02CFFCB
:104990006368226C1344A2686360934224BF236857
:1049A00063600020EDE7C06801F01EFF226CE36841
:1049B00051429B1A2268E36093423EBFA3685B1892
:1049C000E360022EEDD10DB1013DEAE72846D8E7BC
:1049D00003461A6C084610B462B1DC689968144446
:1049E0008C4228BF1968DC6028BFD960D96810BC28
:1049F00001F0FABE10BC704770B5044601F072FCBD
:104A000094F8455004F124066DB2002D01DD636A6F
:104A1000B3B9FF2384F8453001F084FC01F062FC57
:104A200094F8445004F110066DB2002D01DD2369A5
:104A30007BB9FF2384F84430BDE8704001F072BCBC
:104A4000304601F02FF808B101F0F6F8013D6DB2E3
:104A5000DBE7304601F026F808B101F0EDF8013D42
:104A60006DB2E2E738B50D46044640B94FF0500349
:104A700083F31188BFF36F8FBFF34F8FFEE701F011
:104A800031FCD4E90F314B432268D0185B1AA06087
:104A9000626000201A44FF23A063E26084F844307F
:104AA00084F84530A5B9236973B104F1100000F012
:104AB000F9FF48B14FF0E0234FF08052C3F8042DC6
:104AC000BFF34F8FBFF36F8F01F02CFC012038BD77
:104AD00004F11000FFF7FEFE04F12400FFF7FAFED8
:104AE000F2E737B50D461C4640B94FF0500383F34B
:104AF0001188BFF36F8FBFF34F8FFEE743B94FF0BD
:104B0000500383F31188BFF36F8FBFF34F8FFEE71E
:104B10004AB191B94FF0500383F31188BFF36F8FFF
:104B2000BFF34F8FFEE741B14FF0500383F311887D
:104B3000BFF36F8FBFF34F8FFEE750230193019BAD
:104B4000502B08D04FF0500383F31188BFF36F8FC1
:104B5000BFF34F8FFEE70121002D08BF2246C4E9B5
:104B60000F0584F8461020462260019BFFF77AFF6C
:104B700020469DF8183084F84C3003B030BDF8B5AD
:104B80000D461746064640B94FF0500383F311888F
:104B9000BFF36F8FBFF34F8FFEE74843503001F0F4
:104BA000CDFC044670B1002380F8463065B100F1B9
:104BB000500301212046C4E90F652360FFF752FF2F
:104BC00084F84C702046F8BD0346F2E713B513464F
:104BD0000C4640B94FF0500383F31188BFF36F8F39
:104BE000BFF34F8FFEE7884208D24FF0500383F3A4
:104BF0001188BFF36F8FBFF34F8FFEE70222009241
:104C000000221146FFF76DFF00B1846302B010BDB2
:104C100010B50C4640B94FF0500383F31188BFF331
:104C20006F8FBFF34F8FFEE7884208D24FF05003DB
:104C300083F31188BFF36F8FBFF34F8FFEE702221C
:104C40000021FFF79CFF00B1846310BD2DE9FF41F7
:104C50000F461E460446019240B94FF0500383F3BD
:104C60001188BFF36F8FBFF34F8FFEE751B9036C0D
:104C700043B14FF0500383F31188BFF36F8FBFF33D
:104C80004F8FFEE7022E0BD1E36B012B08D04FF0C4
:104C9000500383F31188BFF36F8FBFF34F8FFEE78D
:104CA00000F0D6FF054620B300254FF0000801F0C4
:104CB00019FBA26BE36B9A4227D232463946204653
:104CC000FFF753FE636A1BB104F1240000F0EAFE13
:104CD00048B14FF0E0234FF08052C3F8042DBFF3EA
:104CE0004F8FBFF36F8F01F01DFB012004B0BDE8B3
:104CF000F081019B002BD8D04FF0500383F3118833
:104D0000BFF36F8FBFF34F8FFEE7022ED5D0019B0D
:104D10001BB901F007FB0020E8E715B902A800F075
:104D200043FF01F0FFFA00F0DDFC01F0DBFA94F83C
:104D30004430FF2B08BF84F8448094F84530FF2BA3
:104D400008BF84F8458001F0EDFA01A902A800F03F
:104D500037FF38BB01F0C6FAA26BE36B9A420ED163
:104D600001F0E0FA019904F1100000F035FE204650
:104D7000FFF742FE00F05CFD48B1012597E701F026
:104D8000D1FA2046FFF738FE00F052FDF5E74FF06C
:104D9000E0234FF08052C3F8042DBFF34F8FBFF3D1
:104DA0006F8FEAE72046FFF727FE00F041FDB2E7EC
:104DB000002213B50B46009011460120FFF791FE2B
:104DC000044638B100231A46194683600360C36065
:104DD000FFF73CFF204602B010BD38B5044640B98D
:104DE0004FF0500383F31188BFF36F8FBFF34F8FE2
:104DF000FEE7856800F026FF85420BD1E368013BA2
:104E0000E3600BB1012038BD1A4619462046FFF772
:104E10001DFFF7E70020F6E770B50646502001F0C9
:104E20008DFB044698B10025012180F84650C0E969
:104E30000F150060FFF716FE2B462A46294620462E
:104E400084F84C60A5602560E560FFF7FFFE204612
:104E500070BD2DE9F843894617461E46044640B901
:104E60004FF0500383F31188BFF36F8FBFF34F8F61
:104E7000FEE751B9036C43B14FF0500383F311883F
:104E8000BFF36F8FBFF34F8FFEE7022E0BD1E36BA3
:104E9000012B08D04FF0500383F31188BFF36F8FBD
:104EA000BFF34F8FFEE701F0F5FAEFF311884FF0F3
:104EB000500383F31188BFF36F8FBFF34F8FA26B43
:104EC000E36B9A4201D3022E1ED194F8455032462C
:104ED000494620466DB2A36BFFF747FD6B1C0ED110
:104EE000636A3BB104F1240000F0DCFD10B10FB1A6
:104EF00001233B60012088F31188BDE8F883013568
:104F00006DB284F84550F5E70020F4E72DE9FF4144
:104F10000E460446019240B94FF0500383F31188C6
:104F2000BFF36F8FBFF34F8FFEE751B9036C43B1EF
:104F30004FF0500383F31188BFF36F8FBFF34F8F90
:104F4000FEE700F085FE054618B300254FF0000887
:104F500001F0C8F9A76B47B331462046013FFFF780
:104F600037FDA763236973B104F1100000F09AFDC7
:104F700048B14FF0E0234FF08052C3F8042DBFF347
:104F80004F8FBFF36F8F01F0CDF9012004B0BDE862
:104F9000F081019B002BD9D04FF0500383F311888F
:104FA000BFF36F8FBFF34F8FFEE7019B1BB901F07B
:104FB000B9F90020EAE715B902A800F0F5FD01F003
:104FC000B1F900F08FFB01F08DF994F84430FF2B1C
:104FD00008BF84F8448094F84530FF2B08BF84F85C
:104FE000458001F09FF901A902A800F0E9FD00BB8E
:104FF0002046FFF7AFFCB0B1019904F1240000F0A6
:10500000EBFC2046FFF7F8FC00F012FC48B94FF02B
:10501000E0234FF08052C3F8042DBFF34F8FBFF34E
:105020006F8F012594E72046FFF7E6FC00F000FCB7
:10503000F7E72046FFF7E0FC00F0FAFB2046FFF719
:1050400089FC0028EDD0B4E7F0B585B004460191A5
:1050500040B94FF0500383F31188BFF36F8FBFF354
:105060004F8FFEE7056C45B14FF0500383F3118875
:10507000BFF36F8FBFF34F8FFEE700F0E9FD0646E9
:1050800020B32E46002701F02DF9A36B53B3013B4B
:10509000A363236813B900F0C5FEA060236973B150
:1050A00004F1100000F0FEFC48B14FF0E0234FF097
:1050B0008052C3F8042DBFF34F8FBFF36F8F01F001
:1050C00031F9012005B0F0BD3546DBE7019B002B2F
:1050D000FAD04FF0500383F31188BFF36F8FBFF303
:1050E0004F8FFEE7019B53B9002D66D04FF0500360
:1050F00083F31188BFF36F8FBFF34F8FFEE716B9AD
:1051000002A800F051FD01F00DF900F0EBFA01F0FA
:10511000E9F894F84430FF2B08BF84F8447094F801
:105120004530FF2B08BF84F8457001F0FBF801A95A
:1051300002A800F045FD50BB2046FFF70BFC00B372
:1051400023683BB901F0CEF8A06800F091FD054658
:1051500001F0E8F8019904F1240000F03DFC20463C
:10516000FFF74AFC00F064FB48B94FF0E0234FF032
:105170008052C3F8042DBFF34F8FBFF36F8F01260A
:1051800081E72046FFF738FC00F052FBF7E72046A6
:10519000FFF732FC00F04CFB2046FFF7DBFB00285A
:1051A000EDD065B101F09EF8616A19B1236B196801
:1051B000C1F13801A06800F0DBFD01F0B3F8002078
:1051C00080E770B50D46044640B94FF0500383F3B5
:1051D0001188BFF36F8FBFF34F8FFEE7866800F033
:1051E00031FD864204D10120E3680133E36070BDE4
:1051F00029462046FFF728FF0028F8D0E36801334E
:10520000E360F4E7002330B5064A52F8335002EB6E
:10521000C3041DB942F83310606030BD0133082B60
:10522000F3D1FAE7601B0020002310B5084A52F8BA
:105230003310DC00814206D10021064A42F83310C7
:105240002244516010BD0133082BF0D1FAE700BFB2
:10525000641B0020601B002010B540B94FF05003C4
:1052600083F31188BFF36F8FBFF34F8FFEE7FFF714
:10527000DBFF90F846301BB9BDE8104001F0F6B9ED
:1052800010BD70B504460D46164601F02BF894F893
:105290004430FF2B04BF002384F8443094F8453099
:1052A000FF2B04BF002384F8453001F03BF8A36BCB
:1052B0002BB93246294604F1240000F0D3FB2046E6
:1052C000BDE87040FFF798BB2DE9F041044601F0BE
:1052D00009F8304B304E1A68304F01321A60356889
:1052E000002D4BD134601B68012B1FD1B8464046BE
:1052F0000135FFF7EFFA382D08F11408F7D1DFF880
:10530000A080284D4046FFF7E5FA2846FFF7E2FA6D
:105310002548FFF7DFFA2548FFF7DCFA2448FFF7B6
:10532000D9FA244BC3F80080234B1D601420234A74
:10533000136801331360224A63641168E36A8B4285
:1053400000FB037004F1040188BF1360FFF7D0FA7B
:1053500000F0E8FF1B4B1B6873B13368DA6AE36A3D
:105360009A4209D24FF0E0234FF08052C3F8042D47
:10537000BFF34F8FBFF36F8FBDE8F081114B1A68F9
:10538000E36A002AD2D13268D26A9A4298BF346066
:10539000CCE700BFC41B002098200020381C002050
:1053A000241C0020101C0020F41B0020E01B002007
:1053B000C81B00200C1C0020081C0020A81B00207B
:1053C000BC1B0020B81B0020F8B50646144B154D39
:1053D0001C6828680F460430FFF7ACFA731C07D12D
:1053E00037B1296810480431BDE8F840FFF780BAAA
:1053F0002B68A4195C6007D30C4B18682968BDE8BA
:10540000F8400431FFF77FBA094B18682968043166
:10541000FFF779FA074B1A68A24288BF1C60F8BDF3
:10542000C01B002098200020C81B0020081C002062
:105430000C1C0020A41B0020064A13681968064BA8
:1054400019B94FF0FF321A6070471268D268D268FB
:105450005268F8E70C1C0020A41B002010B590F83F
:10546000593004463BB9006B01F000F92046BDE815
:10547000104001F0FBB8012BF9D0022B08D04FF0FF
:10548000500383F31188BFF36F8FBFF34F8FFEE795
:1054900010BD000080B5134C134F144D236873B931
:1054A000134B1B68012BF8D94FF0E0234FF08052CB
:1054B000C3F8042DBFF34F8FBFF36F8FEDE700F0FC
:1054C00011FFFB68DE68301DFFF734FA2B68013BE3
:1054D0002B602368013B236000F024FF3046FFF778
:1054E000BDFFDBE7DC1B0020E01B0020C41B00200D
:1054F000381C00202DE9F0470D46DDE9099496009F
:1055000032460746A521206B984601F039F9236BF6
:10551000043E1E4426F00706A5B36B1E04F13302B9
:105520000F3513F8011F02F8011F09B1AB42F8D182
:10553000002384F84330089D4FF0000A372D28BF20
:105540003725201DE562E564C4F850A0FFF7CDF9CA
:10555000C5F1380504F11800FFF7C7F9C4F854A0E5
:105560004246394630462461A561646284F858A0F9
:1055700000F090FE2060B9F1000F01D0C9F80040A2
:10558000BDE8F08784F83450D5E770B586B0DDE922
:105590000B5445B94FF0500383F31188BFF36F8F5D
:1055A000BFF34F8FFEE744B94FF0500383F31188E8
:1055B000BFF36F8FBFF34F8FFEE75C260596059E06
:1055C0005C2E08D04FF0500383F31188BFF36F8F28
:1055D000BFF34F8FFEE72563022584F8595004ADD1
:1055E00001950A9D02940095059EFFF783FF2046D2
:1055F000FFF76AFE049806B070BD2DE9F043074638
:1056000085B0900088461646994600F097FF0546FB
:1056100020B94FF0FF3005B0BDE8F0835C2000F00A
:105620008DFF044698B1002380F859300D9B056327
:1056300001930C9B324641460290009338464B46FC
:10564000FFF758FF2046FFF73FFE0120E3E728461B
:1056500001F00CF8DDE7000010B5002488B007AABF
:1056600006A905A8CDE90544FEF7D8FF059B079AD2
:105670000293069B1649CDE9004316482346FFF7DF
:1056800084FF18B300F02CFC012814D14FF0500314
:1056900083F31188BFF36F8FBFF34F8F4FF0FF324B
:1056A0000D4B1A600D4B18600D4B1C6008B0BDE827
:1056B000104000F097BE013008D14FF0500383F343
:1056C0001188BFF36F8FBFF34F8FFEE708B010BD97
:1056D0008078000895540008A41B0020B81B002007
:1056E000C01B0020024A136801331360704700BFDB
:1056F000A01B0020014B1868704700BFC01B002092
:10570000404B2DE9F74F1B68002B73D13E4B1C68B3
:1057100001341C60BCB93D4B1A68126842B14FF0AD
:10572000500383F31188BFF36F8FBFF34F8FFEE7F2
:10573000374A1968106818601160364A13680133D7
:105740001360FFF779FE344D4FF0000B2B68334E9A
:105750009C42334F12D214213A68D26A4A43B2585B
:10576000022A304A28BF4FF0010B1268002A18BFE6
:105770004FF0010B584603B0BDE8F08FDFF88C9076
:10578000DFF8A4A0D9F8002012681AB94FF0FF3250
:105790002A60E0E7D9F80020D268D2F80C80D8F867
:1057A00004108C4201D22960D5E708F104031846A1
:1057B0000193FFF7BFF8D8F8281019B108F11800C5
:1057C000FFF7B8F81423D8F82C00DAF80010884254
:1057D00088BFCAF8000008F1040103FB0060FFF76E
:1057E00087F83868D8F82C10C26A914228BF4FF069
:1057F000010BC7E70D4A4FF0000B1368013313602C
:10580000B8E700BFA01B0020C01B00200C1C00201C
:10581000081C0020AC1B0020A41B0020381C00200A
:1058200098200020B01B0020BC1B0020B41B0020CF
:105830002DE9F041304C236843B94FF0500383F316
:105840001188BFF36F8FBFF34F8FFEE700F04AFD63
:105850002368013B236024682CB1002400F062FD22
:105860002046BDE8F081254B1B68002BF5D0244D68
:10587000244EDFF894801DE0EB68DC68271D04F1FE
:105880001800FFF757F83846FFF754F81420E36A7A
:10589000326800FB03809342394688BF3360FFF7CC
:1058A00027F81A4BE26A1B68DB6A9A4202D301228C
:1058B000174B1A602B68002BDED10CB1FFF7BCFD33
:1058C000144D2C6844B10127114EFFF719FF00B1A8
:1058D0003760013CF9D12C600D4B1B68002BBCD00C
:1058E0004FF0E0234FF08052C3F8042DBFF34F8FE9
:1058F000BFF36F8F0124B1E7A01B0020C41B002061
:10590000F41B0020BC1B0020381C00209820002025
:10591000B01B0020B41B002008B550B94FF0E023A5
:105920004FF08052C3F8042DBFF34F8FBFF36F8F3A
:1059300008BD0A4B196841B14FF0500383F3118839
:10594000BFF36F8FBFF34F8FFEE7FFF7CBFEFFF77D
:105950003BFDFFF76DFF0028E0D0E9E7A01B00202A
:10596000184B70B51A68184B12B101221A6070BD3D
:105970001426164D1A602A68154906FB02F3CC5806
:10598000C81894B14468083364680B449C4208BF4B
:105990006368446008BF4360142303FB02114B6833
:1059A000D9680C4B19602A60E1E742B94FF0500307
:1059B00083F31188BFF36F8FBFF34F8FFEE7013A78
:1059C000DBE700BFA01B0020B01B0020BC1B002099
:1059D000381C00209820002010B50C4640B94FF02C
:1059E000500383F31188BFF36F8FBFF34F8FFEE730
:1059F000054B19681831FEF786FF2046BDE81040B8
:105A00000121FFF7E1BC00BF9820002010B514462B
:105A100040B94FF0500383F31188BFF36F8FBFF38A
:105A20004F8FFEE70D4B1B6843B94FF0500383F3D4
:105A30001188BFF36F8FBFF34F8FFEE7084B41F024
:105A400000411A68916119681831FEF751FF20462C
:105A5000BDE810400121FFF7B7BC00BFA01B00202C
:105A60009820002038B50D46144640B94FF0500339
:105A700083F31188BFF36F8FBFF34F8FFEE7084B9F
:105A800019681831FEF734FF002C214608BF28465C
:105A9000BDE8384018BF4FF0FF30FFF795BC00BF9E
:105AA0009820002038B5C368DC6844B94FF0500333
:105AB00083F31188BFF36F8FBFF34F8FFEE704F1BD
:105AC00018052846FEF736FF104B1B68DBB9251D6D
:105AD0002846FEF72FFF0E4A14201168E36A8B4216
