:020000040800F2
:1000000000500020012800081127000813270008CD
:10001000152700081727000819270008000000000E
:10002000000000000000000000000000B1650008B2
:100030001B27000800000000416600081D2700087B
:1000400049280008492800084928000849280008CC
:1000500049280008492800084928000849280008BC
:1000600049280008492800084928000849280008AC
:10007000492800084928000849280008492800089C
:10008000492800084928000849280008492800088C
:10009000492800084928000849280008492800087C
:1000A000492800084928000849280008492800086C
:1000B000492800084928000849280008492800085C
:1000C000492800084928000849280008492800084C
:1000D000492800083527000841270008492800085A
:1000E00049280008492800084928000800000000A5
:1000F0000000000000000000000000000000000000
:0C01000000000000000000005FF808F1A3
:1001100010B5054C237833B9044B13B10448AFF341
:1001200000800123237010BDE001002000000000CA
:10013000ECA3000808B5034B1BB103490348AFF318
:10014000008008BD00000000E4010020ECA30008CE
:10015000034613F8012B002AFBD1181A0138704707
:1001600081F0004102E000BF83F0004330B54FEA68
:1001700041044FEA430594EA050F08BF90EA020FD5
:100180001FBF54EA000C55EA020C7FEA645C7FEA68
:10019000655C00F0E2804FEA5454D4EB5555B8BF8B
:1001A0006D420CDD2C4480EA020281EA030382EAFC
:1001B000000083EA010180EA020281EA0303362D8E
:1001C00088BF30BD11F0004F4FEA01314FF4801C61
:1001D0004CEA113102D0404261EB410113F0004F73
:1001E0004FEA03334CEA133302D0524263EB43032A
:1001F00094EA050F00F0A780A4F10104D5F1200EC8
:100200000DDB02FA0EFC22FA05F2801841F1000122
:1002100003FA0EF2801843FA05F359410EE0A5F1F6
:1002200020050EF1200E012A03FA0EFC28BF4CF027
:10023000020C43FA05F3C01851EBE37101F00045DD
:1002400007D54FF0000EDCF1000C7EEB00006EEBEA
:100250000101B1F5801F1BD3B1F5001F0CD3490874
:100260005FEA30004FEA3C0C04F101044FEA4452CB
:1002700012F5800F80F09A80BCF1004F08BF5FEA52
:10028000500C50F1000041EB045141EA050130BD32
:100290005FEA4C0C404141EB0101013C28BFB1F544
:1002A000801FE9D291F0000F04BF01460020B1FA8F
:1002B00081F308BF2033A3F10B03B3F120020CDA62
:1002C0000C3208DD02F1140CC2F10C0201FA0CF040
:1002D00021FA02F10CE002F11402D8BFC2F1200CA5
:1002E00001FA02F120FA0CFCDCBF41EA0C0190405B
:1002F000E41AA2BF01EB0451294330BD6FEA0404A4
:100300001F3C1CDA0C340EDC04F11404C4F120028E
:1003100020FA04F001FA02F340EA030021FA04F3A0
:1003200045EA030130BDC4F10C04C4F1200220FAF7
:1003300002F001FA04F340EA0300294630BD21FA35
:1003400004F0294630BD94F0000F83F4801306BFFB
:1003500081F480110134013D4EE77FEA645C18BFEF
:100360007FEA655C29D094EA050F08BF90EA020F86
:1003700005D054EA000C04BF1946104630BD91EA7E
:10038000030F1EBF0021002030BD5FEA545C05D181
:100390004000494128BF41F0004130BD14F58004C0
:1003A0003CBF01F5801130BD01F0004545F0FE4134
:1003B00041F470014FF0000030BD7FEA645C1ABF69
:1003C000194610467FEA655C1CBF0B46024650EAA0
:1003D000013406BF52EA033591EA030F41F40021CC
:1003E00030BD00BF90F0000F04BF0021704730B552
:1003F0004FF4806404F132044FF000054FF0000127
:1004000050E700BF90F0000F04BF0021704730B5E7
:100410004FF4806404F1320410F0004548BF4042BC
:100420004FF000013EE700BF42004FEAE2014FEA11
:1004300031014FEA02701FBF12F07F4393F07F4FEC
:1004400081F06051704732F07F4208BF704793F0EF
:100450007F4F04BF41F40021704730B54FF4607402
:1004600001F0004521F000411CE700BF50EA010205
:1004700008BF704730B54FF000050AE050EA0102AE
:1004800008BF704730B511F0004502D5404261EB1E
:1004900041014FF4806404F132045FEA915C3FF45F
:1004A000D8AE4FF003025FEADC0C18BF03325FEAFC
:1004B000DC0C18BF033202EBDC02C2F1200300FAAD
:1004C00003FC20FA02F001FA03FE40EA0E0021FAD2
:1004D00002F11444BDE600BF70B54FF0FF0C4CF4C0
:1004E000E06C1CEA11541DBF1CEA135594EA0C0F72
:1004F00095EA0C0F00F0DEF82C4481EA030621EAAD
:100500004C5123EA4C5350EA013518BF52EA0335E7
:1005100041F4801143F4801338D0A0FB02CE4FF099
:100520000005E1FB02E506F00042E0FB03E54FF0C9
:100530000006E1FB03569CF0000F18BF4EF0010EC1
:10054000A4F1FF04B6F5007F64F5407404D25FEABD
:100550004E0E6D4146EB060642EAC62141EA555170
:100560004FEAC52040EA5E504FEACE2EB4F1FD0CB2
:1005700088BFBCF5E06F1ED8BEF1004F08BF5FEA30
:10058000500E50F1000041EB045170BD06F00046E2
:1005900046EA010140EA020081EA0301B4EB5C048F
:1005A000C2BFD4EB0C0541EA045170BD41F4801187
:1005B0004FF0000E013C00F3AB8014F1360FDEBFAC
:1005C000002001F0004170BDC4F10004203C35DA88
:1005D0000C341BDC04F11404C4F1200500FA05F30B
:1005E00020FA04F001FA05F240EA020001F00042AC
:1005F00021F0004110EBD37021FA04F642EB060122
:100600005EEA430E08BF20EAD37070BDC4F10C044B
:10061000C4F1200500FA04F320FA05F001FA04F20F
:1006200040EA020001F0004110EBD37041F10001FB
:100630005EEA430E08BF20EAD37070BDC4F1200506
:1006400000FA05F24EEA020E20FA04F301FA05F26E
:1006500043EA020321FA04F001F0004121FA04F216
:1006600020EA020000EBD3705EEA430E08BF20EAE6
:10067000D37070BD94F0000F0FD101F00046400020
:1006800041EB010111F4801F08BF013CF7D041EAA2
:10069000060195F0000F18BF704703F000465200A6
:1006A00043EB030313F4801F08BF013DF7D043EA77
:1006B0000603704794EA0C0F0CEA135518BF95EA2D
:1006C0000C0F0CD050EA410618BF52EA4306D1D1B4
:1006D00081EA030101F000414FF0000070BD50EAD3
:1006E000410606BF1046194652EA430619D094EA5D
:1006F0000C0F02D150EA013613D195EA0C0F05D147
:1007000052EA03361CBF104619460AD181EA03019A
:1007100001F0004141F0FE4141F470014FF0000052
:1007200070BD41F0FE4141F4780170BD70B54FF0ED
:10073000FF0C4CF4E06C1CEA11541DBF1CEA13556D
:1007400094EA0C0F95EA0C0F00F0A7F8A4EB05044F
:1007500081EA030E52EA03354FEA013100F0888046
:100760004FEA03334FF0805545EA131343EA12630F
:100770004FEA022245EA111545EA10654FEA0026C4
:100780000EF000419D4208BF964244F1FD0404F57D
:10079000407402D25B084FEA3202B61A65EB0305D9
:1007A0005B084FEA32024FF480104FF4002CB6EB96
:1007B000020E75EB030E22BFB61A754640EA0C0016
:1007C0005B084FEA3202B6EB020E75EB030E22BF56
:1007D000B61A754640EA5C005B084FEA3202B6EB97
:1007E000020E75EB030E22BFB61A754640EA9C0056
:1007F0005B084FEA3202B6EB020E75EB030E22BF26
:10080000B61A754640EADC0055EA060E18D04FEAE3
:10081000051545EA16754FEA06164FEAC30343EA83
:1008200052734FEAC2025FEA1C1CC0D111F4801F50
:100830000BD141EA00014FF000004FF0004CB6E749
:1008400011F4801F04BF01430020B4F1FD0C88BFE8
:10085000BCF5E06F3FF6AFAEB5EB030C04BFB6EBF3
:10086000020C5FEA500C50F1000041EB045170BDE6
:100870000EF0004E4EEA113114EB5C04C2BFD4EB13
:100880000C0541EA045170BD41F480114FF0000E97
:10089000013C90E645EA060E8DE60CEA135594EA13
:1008A0000C0F08BF95EA0C0F3FF43BAF94EA0C0F16
:1008B0000AD150EA01347FF434AF95EA0C0F7FF48B
:1008C00025AF104619462CE795EA0C0F06D152EADF
:1008D00003353FF4FDAE1046194622E750EA4106C3
:1008E00018BF52EA43067FF4C5AE50EA41047FF4D4
:1008F0000DAF52EA43057FF4EBAE12E74FF0FF3C39
:1009000006E000BF4FF0010C02E000BF4FF0010C09
:100910004DF804CD4FEA410C7FEA6C5C4FEA430C82
:1009200018BF7FEA6C5C1BD001B050EA410C0CBFD1
:1009300052EA430C91EA030F02BF90EA020F002033
:10094000704710F1000F91EA030F58BF994208BF9A
:1009500090422CBFD8176FEAE37040F00100704757
:100960004FEA410C7FEA6C5C02D150EA013C07D1AE
:100970004FEA430C7FEA6C5CD6D152EA033CD3D0F9
:100980005DF8040B704700BF8446104662468C46F3
:100990001946634600E000BF01B5FFF7B7FF002826
:1009A00048BF10F1000F01BD4DF808EDFFF7F4FF4F
:1009B0000CBF012000205DF808FB00BF4DF808EDDA
:1009C000FFF7EAFF34BF012000205DF808FB00BFFD
:1009D0004DF808EDFFF7E0FF94BF012000205DF81F
:1009E00008FB00BF4DF808EDFFF7CEFF94BF0120D4
:1009F00000205DF808FB00BF4DF808EDFFF7C4FFCD
:100A000034BF012000205DF808FB00BF4FEA410C15
:100A10007FEA6C5C02D150EA013C0AD14FEA430CF8
:100A20007FEA6C5C02D152EA033C02D14FF0000035
:100A300070474FF0010070474FEA410212F5001273
:100A400015D211D56FF47873B3EB625212D94FEA15
:100A5000C12343F0004343EA505311F0004F23FAFF
:100A600002F018BF404270474FF00000704750EA54
:100A7000013005D111F0004008BF6FF00040704711
:100A80004FF00000704700BF80F0004002E000BF60
:100A900081F0004142001FBF5FEA410392EA030F69
:100AA0007FEA226C7FEA236C6AD04FEA1262D2EBB3
:100AB0001363C1BFD218414048404140B8BF5B42B8
:100AC000192B88BF704710F0004F40F4000020F051
:100AD0007F4018BF404211F0004F41F4000121F067
:100AE0007F4118BF494292EA030F3FD0A2F10102B1
:100AF00041FA03FC10EB0C00C3F1200301FA03F1EF
:100B000000F0004302D5494260EB4000B0F5000F11
:100B100013D3B0F1807F06D340084FEA310102F1D0
:100B20000102FE2A51D2B1F1004F40EBC25008BF82
:100B300020F0010040EA03007047490040EB00004C
:100B4000013A28BFB0F5000FEDD2B0FA80FCACF14D
:100B5000080CB2EB0C0200FA0CF0AABF00EBC2507A
:100B600052421843BCBFD0401843704792F0000F68
:100B700081F4000106BF80F400000132013BB5E7BB
:100B80004FEA41037FEA226C18BF7FEA236C21D031
:100B900092EA030F04D092F0000F08BF0846704796
:100BA00090EA010F1CBF0020704712F07F4F04D164
:100BB000400028BF40F00040704712F100723CBF77
:100BC00000F50000704700F0004343F0FE4040F4A1
:100BD000000070477FEA226216BF08467FEA23635F
:100BE0000146420206BF5FEA412390EA010F40F44A
:100BF000800070474FF0000304E000BF10F0004396
:100C000048BF40425FEA000C08BF704743F096437C
:100C100001464FF000001CE050EA010208BF704797
:100C20004FF000030AE000BF50EA010208BF70471E
:100C300011F0004302D5404261EB41015FEA010C33
:100C400002BF84460146002043F0B64308BFA3F12B
:100C50008053A3F50003BCFA8CF2083AA3EBC2530D
:100C600010DB01FA02FC634400FA02FCC2F120022C
:100C7000BCF1004F20FA02F243EB020008BF20F063
:100C80000100704702F1200201FA02FCC2F12002C9
:100C900050EA4C0021FA02F243EB020008BF20EABE
:100CA000DC7070474FF0FF0C1CEAD0521EBF1CEAEC
:100CB000D15392EA0C0F93EA0C0F6FD01A4480EADA
:100CC000010C400218BF5FEA41211ED04FF00063C3
:100CD00043EA501043EA5111A0FB01310CF00040EF
:100CE000B1F5000F3EBF490041EAD3715B0040EA15
:100CF000010062F17F02FD2A1DD8B3F1004F40EBE5
:100D0000C25008BF20F00100704790F0000F0CF0B7
:100D1000004C08BF49024CEA502040EA51207F3A7B
:100D2000C2BFD2F1FF0340EAC250704740F4000056
:100D30004FF00003013A5DDC12F1190FDCBF00F047
:100D400000407047C2F10002410021FA02F1C2F1F5
:100D5000200200FA02FC5FEA310040F1000053EA91
:100D60004C0308BF20EADC70704792F0000F00F0DF
:100D7000004C02BF400010F4000F013AF9D040EAE5
:100D80000C0093F0000F01F0004C02BF490011F479
:100D9000000F013BF9D041EA0C018FE70CEAD15377
:100DA00092EA0C0F18BF93EA0C0F0AD030F0004CF7
:100DB00018BF31F0004CD8D180EA010000F00040AB
:100DC000704790F0000F17BF90F0004F084691F069
:100DD000000F91F0004F14D092EA0C0F01D14202A3
:100DE0000FD193EA0C0F03D14B0218BF084608D16C
:100DF00080EA010000F0004040F0FE4040F40000B6
:100E0000704740F0FE4040F4400070474FF0FF0C48
:100E10001CEAD0521EBF1CEAD15392EA0C0F93EA8F
:100E20000C0F69D0A2EB030280EA010C49024FEAE1
:100E3000402037D04FF0805343EA111143EA10139A
:100E40000CF000408B4238BF5B0042F17D024FF452
:100E5000000C8B4224BF5B1A40EA0C00B3EB510F2D
:100E600024BFA3EB510340EA5C00B3EB910F24BF16
:100E7000A3EB910340EA9C00B3EBD10F24BFA3EB9B
:100E8000D10340EADC001B0118BF5FEA1C1CE0D163
:100E9000FD2A3FF650AF8B4240EBC25008BF20F016
:100EA000010070470CF0004C4CEA50207F32C2BF6A
:100EB000D2F1FF0340EAC250704740F400004FF007
:100EC0000003013A37E792F0000F00F0004C02BF38
:100ED000400010F4000F013AF9D040EA0C0093F002
:100EE000000F01F0004C02BF490011F4000F013B5C
:100EF000F9D041EA0C0195E70CEAD15392EA0C0FC4
:100F000008D142027FF47DAF93EA0C0F7FF470AFFB
:100F1000084676E793EA0C0F04D14B023FF44CAF3E
:100F200008466EE730F0004C18BF31F0004CCAD1D3
:100F300030F000427FF45CAF31F000437FF43CAF0F
:100F40005FE700BF4FF0FF3C06E000BF4FF0010C31
:100F500002E000BF4FF0010C4DF804CD4FEA400213
:100F60004FEA41037FEA226C18BF7FEA236C11D05D
:100F700001B052EA530C18BF90EA010F58BFB2EB10
:100F8000030088BFC81738BF6FEAE17018BF40F090
:100F9000010070477FEA226C02D15FEA402C05D144
:100FA0007FEA236CE4D15FEA412CE1D05DF8040BC9
:100FB000704700BF844608466146FFE70FB5FFF75C
:100FC000C9FF002848BF10F1000F0FBD4DF808ED14
:100FD000FFF7F4FF0CBF012000205DF808FB00BF05
:100FE0004DF808EDFFF7EAFF34BF012000205DF85F
:100FF00008FB00BF4DF808EDFFF7E0FF94BF0120AC
:1010000000205DF808FB00BF4DF808EDFFF7D2FFA8
:1010100094BF012000205DF808FB00BF4DF808EDEB
:10102000FFF7C8FF34BF012000205DF808FB00BFB8
:101030004FEA40024FEA41037FEA226C02D15FEAA5
:10104000402C08D17FEA236C02D15FEA412C02D107
:101050004FF0000070474FF0010070474FEA400228
:10106000B2F1FE4F0FD34FF09E03B3EB12620DD9D6
:101070004FEA002343F0004310F0004F23FA02F040
:1010800018BF404270474FF00000704712F1610FE7
:1010900001D1420205D110F0004008BF6FF00040BE
:1010A00070474FF00000704700B11030704700B13A
:1010B0001C30704700B12830704700B1383070479D
:1010C00008B1007A7047FF2070471FB5044690B101
:1010D0004FF47A738DF80C10017900938DF80D2080
:1010E0000223006803AA490002F08EF808B1032029
:1010F000E07104B010BD0120FBE770B50E46054657
:1011000010B90124204670BD0A463D21FFF7DDFFDE
:1011100004460028F5D11E206E7101F0DFFBF1E7D7
:101120000A4610B13E21FFF7D0BF012070471FB51E
:10113000044690B18AB101234FF47A7C0079CDE95D
:10114000013C00920A4600FA03F1206802F0E2FA3C
:1011500008B10320E07104B010BD0120FBE70A468E
:1011600018B111B10021FFF7E2BF0120704713B59C
:10117000044610B9012002B010BD35210DF107025F
:10118000FFF7D5FF0028F5D19DF807309A0984F8BC
:101190003E20C3F3011284F83F20C3F3810203F021
:1011A000030384F8402084F84130E4E713B5044693
:1011B00010B9012002B010BD34210DF10702FFF774
:1011C000B6FF0028F5D19DF8073084F84230F1E7EA
:1011D00038B51546044608B9012038BD0029FBD0B2
:1011E000002AF9D00A463921FFF7A1FF0028F3D1E0
:1011F0002A463A212046FFF79AFF003818BF0120FF
:10120000EBE737B50446A8B3A1B300252923016055
:10121000C5800572C0F80A50C58105618582C0F895
:1012200016504583C5610562456229460371102247
:10123000283006F07DF9A563A587C4F83E50032544
:1012400020460DF10501FFF78AFF60B13220013D14
:1012500001F044FB15F0FF05F2D10323E371FF23F6
:101260002372032007E09DF80530A02B05D0012252
:101270002372E271012003B030BD40F28A2001F0F8
:101280002DFB01F025FB00F5FA6520460DF1070264
:101290000DF10601FFF79CFF10B10323E371E0E7B6
:1012A0009DF8063003F0FB03012B18D19DF8065082
:1012B000012D1CD100212046FFF732FF02460028F5
:1012C000D8D13B212046FFF700FF0028D2D10C21C6
:1012D0002046FFF712FF0028CCD1E580CBE70A209B
:1012E00001F0FCFA01F0F4FAA842CED3DEE70220C6
:1012F000E071C0E730B5044685B098B192B18BB1CA
:101300004FF47A750079CDE90135012300920A4640
:1013100000FA03F1206802F0FDF908B10320E07142
:1013200005B030BD0120FBE713B5044610B901201C
:1013300002B010BD06236A460821FFF7DBFF002834
:10134000F5D1BDF800306381BDF80230A381BDF84E
:101350000430E381ECE713B5044610B9012002B074
:1013600010BD06236A461421FFF7C4FF0028F5D1FB
:10137000009B2361BDF80430A382F0E713B5044657
:1013800010B9012002B010BD06236A460E21FFF7F6
:10139000B1FF0028F5D1BDF80030E382BDF802307E
:1013A0002383BDF804306383ECE7F7B5044618B92E
:1013B0000125284603B0F0BD06236A461A21FFF72F
:1013C00099FF05460028F3D1BDF90000FFF716FC90
:1013D0004FF07651FFF766FCBDF90270E0613846C8
:1013E000FFF70CFC4FF07651FFF75CFCBDF9046091
:1013F00020623046FFF702FC4FF07651FFF752FCB7
:101400006062D6E72DE9F341044620B9012528465C
:1014100002B0BDE8F08108236A462021FFF76AFF89
:1014200005460028F2D1BDF90000FFF7E7FB4FF0B9
:101430006251FFF737FCBDF90280A0624046FFF71A
:10144000DDFB4FF06251FFF72DFCBDF90470E06247
:101450003846FFF7D3FB4FF06251FFF723FCBDF98D
:10146000066020633046FFF7C9FB4FF06251FFF77B
:1014700019FC6063CBE713B5044610B9012002B034
:1014800010BD06236A462821FFF734FF0028F5D156
:10149000009BA363BDF80430A387F0E738B5054689
:1014A00080B3837973B3FFF73FFF04462846FFF705
:1014B00052FF0443E4B2003C284618BF0124FFF762
:1014C0005DFF0028284618BF0124FFF76EFF0028A3
:1014D000284618BF0124FFF795FF0028284618BFAB
:1014E0000124FFF7C8FF0028284618BF0124FFF792
:1014F0003EFE2846FFF75AFE01F0EAF9EC716864F7
:10150000204638BD0424FBE73422002106F010B841
:1015100070B504460E46856A50F82510006BFFF73B
:10152000B7FA314644F82560FFF7B4FA0A230135CB
:1015300095FBF3F203FB1255E36A0646092BDCBF69
:101540000133E3622063A562E06AFFF757FB0146BF
:101550003046FFF75BFC70BD08B50A480A4A0B4BE2
:10156000C0E9002300234FF48042C0E90233C0E900
:101570000423C0E90633036201F084FD08B172B6AA
:10158000FEE708BDE803002000540040A0860100EB
:101590000FB413B50B4C04AB53F8042B8021204639
:1015A000019305F0A7FF2046FEF7D2FD642382B227
:1015B0002146054802F0EDFD02B0BDE8104004B040
:1015C000704700BF5C020020A0030020F8B5254E44
:1015D0002548FFF7DDFF0121306803F066F800259C
:1015E000224F234C08214FF47A730022306803F015
:1015F000A3F801072DD501F06BF942F20F73401BE0
:10160000984208D80821306803F078F84FF47A70CF
:1016100003F02EF8E6E71748FFF7BAFF01F058F994
:1016200008210546306803F069F82378DA0706D503
:101630001148FFF7ADFF237823F0010323702378CF
:101640009B0706D50D48FFF7A3FF237823F002037D
:10165000237038464FF4005101F063FB4FF4FA70E9
:10166000D6E700BF4C02002008A40008001001408B
:10167000DD0200202BA400085BA4000876A400086B
:101680002DE9F04FB4484FF0FF330022012185B01F
:10169000006803F051F8B148FFF77AFF0024B04B1F
:1016A0001B78002B00F0DA81AE4B1B78DB0740F192
:1016B000D581AD4B6421186803F0A0F8002840F0F4
:1016C0008881AA48FFF7EAFE0146002840F0B4816D
:1016D000A748FFF719FFA548FFF7EFFC0646A34808
:1016E000FFF7E8FC0546A148FFF7E1FC07469F48E5
:1016F000FFF7DAFC0090002E00F0B481002D00F01E
:10170000B181002F00F0AE81002800F0AB8101F024
:10171000DFF8DFF860928046D9F8000058B1A8EBF6
:101720000000FFF767FA9449FFF770FB00210446B9
:10173000FFF760FC00B1914CC9F80080D5F800803B
:10174000D5F804B041464046FFF7ACFAD5F808A0FA
:10175000D5F80C90594605465846FFF7A3FA0146BE
:101760002846FFF797F9514605465046FFF79AFA83
:1017700001462846FFF78EF9494605464846FFF7D9
:1017800091FA01462846FFF785F907F0A7FF7C4943
:101790000546FFF725FC002840F06481294658469D
:1017A000FFF734FB294683465046FFF72FFB2946B7
:1017B00082464846FFF72AFB01460190FFF76AF987
:1017C00001998146FFF76EFA594601905846FFF796
:1017D00061F951460390FFF765FA294602904046A9
:1017E000FFF714FB4946FFF75DFA8146B6F90000A2
:1017F000FFF704FA6349FFF755FA0546B6F9040006
:10180000FFF7FCF95F49FFF74DFA5F490646386874
:10181000FFF748FA5D49FFF7F9FA074607F078FF46
:101820008046384607F0ACFF514607465046FFF762
:1018300031F95146FFF736FA01464FF07E50FFF777
:1018400027F90199FFF724F92946FFF72BFA4946B2
:1018500082460298FFF71CF93146FFF723FA01464A
:101860005046FFF717F94146FFF71CFA59468046E4
:101870000398FFF717FA01464FF07E50FFF708F97B
:101880000199FFF705F93146FFF70CFA494606467C
:101890000298FFF7FFF82946FFF704FA01463046A1
:1018A000FFF7F8F83946FFF7FDF901464046FFF724
:1018B000F1F801462E48FFF72BFE354B06461A7805
:1018C000344D002A40F08980012228601A702E6869
:1018D000314F30463968FFF7DDF84FF07C51FFF7A4
:1018E000E1F921462D4CFFF7DDF92168FFF7D2F829
:1018F0003E60206005462A4926F00040FFF770FB55
:10190000284E002800F08580009BB3F90000FFF707
:1019100075F94FF0804120F00040FFF761FB00288F
:1019200077D0009BB3F90200FFF768F94FF08041D0
:1019300020F00040FFF754FB00286AD0009BB3F969
:101940000400FFF75BF94FF0804120F00040FFF703
:1019500047FB00285DD027E04C02002091A400083E
:10196000DC020020DE02002054020020F0020020F1
:10197000180200201402002000007A440AD7A33C79
:10198000BD3786350AD7233CDB0F4940000034437E
:10199000100200200C020020080200200402002097
:1019A000CDCC4C3D0002002033780133DBB2022B5A
:1019B000337030D90023236000222C4B1A602C4A4C
:1019C000137823F00103137000242A4B186802F0E7
:1019D00038FF322002F04CFE61E627492046FFF72F
:1019E00059F801462046FFF711FA014680464FF0AC
:1019F0007E50FFF74DF82968FFF754F94146074636
:101A00003046FFF74FF901463846FFF743F82860A4
:101A10005DE700233370194E28463146FFF7FEFA82
:101A200008B12660C8E7164D20682946FFF7D8FAA6
:101A30000028C1D02560BFE7013422461148FFF7D6
:101A4000A7FD042CC1D90A4A0821137843F00103E9
:101A500013700D4B186802F028FEB5E7642002F001
:101A600007FEB6E705B0BDE8F08F00BF58020020C2
:101A7000DD02002054020020AF4C593D00004842D6
:101A8000000048C2B2A400084C0200202DE9F04F2B
:101A90006F4F85B06F48FFF77BFD42F21073002255
:101AA0000121386802F048FEFF2000F0E3FC002826
:101AB0007DD06948FFF76CFD00F054FC002878D019
:101AC0006648FFF765FDDFF89881664D664E98F829
:101AD0000010002900F0A180644B1B789B0740F1A7
:101AE0009C806421286802F089FE0446002859D1B0
:101AF0004FF4FA630DF1070202A98DF8070000F018
:101B0000F1FC002875D09DF80730002B71D05848A3
:101B1000FFF73EFD5748FFF73BFDDFF85C919DF86E
:101B20000720E3B29A4246D85448FFF731FD00231C
:101B300099469DF8070002A9DAB2904201D9042B18
:101B400042D1DFF83CA1DFF83CB1DAF800304B4578
:101B500002D19BF80030E3B949464B48FFF718FD26
:101B60009DF807404948224602A905F06EFD012272
:101B7000474B042C1C708BF80020464BCAF8009091
:101B80002AD145481A70FFF703FD0221386802F098
:101B90008CFD424B414A1B7803F0FD03137028680B
:101BA00002F04FFE4FF4FA7002F062FD8FE73C48FE
:101BB00080E73C4885E710336B44484613F8081C1F
:101BC000FFF7E6FC0134AAE711F8012BDC00A24084
:101BD00049EA02090133AFE7072C03D10222324858
:101BE0001A70D0E70022214630481A70FFF7D0FC67
:101BF000CBE7244C2378002BCBD02D48FFF7C8FC33
:101C00000023234A23701370224A13701C4A136066
:101C10001E4A1360C2F80330BBE733680133312B2F
:101C2000336006D9114B23481A78FFF7B1FC002323
:101C300033600A21286802F0E1FD0028B2D1114B7F
:101C40001870134B1870134B18700D4B1860A6E7E3
:101C50004C020020EBA400080BA5000854A50008C6
:101C6000DC02002054020020FC010020DE020020E3
:101C70008AA50008AEA50008B4A5000802A60008C1
:101C8000E0020020E4020020BAA50008E7020020DC
:101C9000E6020020E5020020DCA50008DD020020AD
:101CA0002EA5000871A5000805A6000831A60008A9
:101CB00054A6000863A60008202210B590B00021A9
:101CC0000DEB020005F034FC0021142201A805F000
:101CD0002FFC022401224FF4803306A8CDE906230D
:101CE000CDE90D430A9201F00DFF014608B172B62D
:101CF000FEE70F23CDE90300059001A8CDE90134EB
:101D000002F0C2F808B172B6FEE710B010BD0000D4
:101D1000F8B54F484F4CFFF73BFC242229214E4891
:101D2000FFF736FC61684D48FFF732FC94F83D1030
:101D30004B48FFF72DFC94F83D202A2AD3B221D836
:101D40001F2B02D833B3474825E0203B0A2BFAD893
:101D500001A252F823F000BFF91D0008011E00087F
:101D6000051E0008471D0008FD1D0008471D00084E
:101D7000471D0008471D0008091E00080D1E000829
:101D8000111E0008A02B45D0E02B45D0602BDAD1E6
:101D9000354800E03548FFF7FBFB94F83D30202B39
:101DA00012D03348FFF7F4FB2A4801F013FA0A2057
:101DB00000F094FDFFF7D0FB322000F08FFD94F887
:101DC0003D102C48FFF7E4FB0124224D2A4E2B4FF7
:101DD000610001226423284689B201F0DFFD02463A
:101DE00050BB21463846FFF7D3FB292C16D1244897
:101DF000FFF7CEFB2A24EBE72248CCE72248CAE7CC
:101E00002248C8E72248C6E72248C4E72248C2E77A
:101E10002248C0E72248BEE72248BCE7242C04D170
:101E20002148FFF7B5FB2524D2E72048FFF7B0FB98
:101E30000134802CCCD1F8BD0328F9D0292C01D055
:101E4000242CF5D121463046FFF7A2FB0134BFE731
:101E5000AAA60008E8030020C4A60008F8A6000807
:101E600012A70008A8A7000888A7000822A7000852
:101E7000B4A70008DAA70008A1A8000800A8000875
:101E800025A800082CA7000836A700083FA70008CF
:101E90004BA7000857A7000862A7000875A700080D
:101EA00092A700089EA7000840A800085FA80008A5
:101EB0002DE9F74300244D4D4D4E2C703470FFF743
:101EC00027FF4C48FFF764FBDFF82C81DFF82C91EB
:101ED0004B4F23460134002B60D040462146FFF78C
:101EE00057FB4FF4FA7000F0F9FC49463846FFF70B
:101EF00088F9032C54D00028EBD14248FFF748FB67
:101F00003F480DF107020DF10601FFF761F930B905
:101F10009DF807209DF806103B48FFF739FB7979BB
:101F20003A48FFF735FB2B7843F001032B70384814
:101F3000FFF72EFB374F314B00243B6048233B71AA
:101F4000354BDFF8D880BC60BC813B61234601344F
:101F5000002B42D040462146FFF71AFB4FF4FA709F
:101F600000F0BCFC384600F045FA032C37D00028BE
:101F7000ECD12B48FFF70CFB2B7843F002032B70BE
:101F80000122284B28481A70FFF702FB3278297883
:101F9000264803B0BDE8F043FFF7FABA6420A2E791
:101FA0000028AAD01648FFF78BF8044601462048BF
:101FB000FFF7EEFAFF2C07D11E48FFF7E9FA337856
:101FC00043F001033370B2E70CB91B48F5E7A022D8
:101FD00021461A48FFF7DCFAF1E76420C0E7002841
:101FE000C7D01748FFF7D4FACAE700BFDE020020C7
:101FF000DD020020CCA80008E5A80008E8030020C6
:10200000F002002001A9000823A9000853A9000834
:1020100055AA000838030020911500086DAA000891
:1020200088AA0008DC020020C6AA000825A900082A
:102030006EA90008B1A90008E5A9000826AA0008B1
:10204000A9AA000880B588B000F024FCFFF734FE90
:10205000102200210DEB020005F06AFA4B4B4FF401
:1020600000519A694A4842F010029A619A69012522
:1020700002F010020092009A9A69002442F02002B5
:102080009A619A694FF4E13702F020020192019AB5
:102090009A690C2642F004029A619A6902F00402DD
:1020A0000292029A9A6942F008029A619B690022A0
:1020B00003F008030393039B00F02EFE4FF400533C
:1020C000CDE904350223324804A9CDE9064300F0E6
:1020D000E1FCFFF741FA2F482F4BC0E90244C0E969
:1020E0000037C0E905640461C46102F023F80346C7
:1020F00008B172B6FEE72948294AC0E90233C0E9AF
:102100000027C0E90436C0E9063302F013F804469C
:1021100008B172B6FEE7FFF7CBFE2248FFF738FAA8
:102120002148FFF735FA2148FFF732FA02F030FA7A
:102130001F4802F02BFB1F4B214618601E4A284601
:1021400002F09EFB1D4B214618601D4A1D4802F0FF
:102150004BFA1D4B21461D4A18601D4802F044FAF7
:102160001C4B18601C4802F08FFA1C4B214618606B
:102170001B4A1C4802F038FA1B4B186010B91B4868
:10218000FFF706FA02F016FAFEE700BF0010024061
:1021900000100140A0030020003801405803002037
:1021A00000440040E8AA0008FDAA000817AB000898
:1021B000B0AD000854020020A0AD0008500200207D
:1021C00008AE0008CD15000854030020E4AD000857
:1021D000811600085003002090AD00084C0200203A
:1021E000C0AD00088D1A00084C03002031AB000878
:1021F000F0B5041E08BF4FF47A74002564270D4E15
:1022000085B0306801230179009700680DF10F0255
:1022100001F0D4F828B99DF80F00012801D105B0CC
:10222000F0BD0A200A3500F059FBAC42E9D8002085
:10223000F5E700BF3C040020F0B54B1CDBB283B0D7
:10224000DA1D02F4FC7202AFADEB020D6A466426A1
:1022500005460C4608490868017942F8086B006891
:1022600001F0ACF8224628460DF1090105F0EDF920
:102270000437BD46F0BD00BF3C04002010B50B4C38
:102280002368986888B19989002200F045FD0A20EA
:1022900000F024FB236801229868998900F03CFD36
:1022A000BDE81040322000F019BB10BD3C040020F6
:1022B0000B462DE9F0410024154603F10F0284B0CE
:1022C00002F4FC726E4602AFADEB020D02AA8DF86D
:1022D00008405470FF2494705C1CD470DC4314716B
:1022E000D424073154710DF10D0C00EB0308404567
:1022F0001AD1D018644284710020642450541749C4
:102300000833086801790094006800F07DFF02201E
:10231000B54600F0E3FA2846FFF76AFF58B90020F7
:102320000837BD46BDE8F08110F801EB74440CF8A5
:1023300001EFE4B2DBE706213846FFF77DFF062216
:102340003846074905F0E4F80028E8D1022000F0FB
:10235000C5FA2846FFF74CFFE2E700BF3C04002027
:10236000000000201422012310B50A4C0421227021
:10237000A270204664226370E370FFF799FF40B1BA
:1023800020460921FFF758FFA079A0F11503584214
:10239000584110BD400400201FB555238DF80F3063
:1023A000094B0DF10F02186864230179009300684E
:1023B000012300F029FF0A2000F090FAFFF7D2FF76
:1023C00005B05DF804FB00BF3C040020022310B5FB
:1023D000074C6422012120462370FFF769FF30B1CA
:1023E00020460D21FFF728FFD4F8060000BA10BDE3
:1023F0004004002038B5184D286098B103690BB12E
:1024000016489847FFF73AFF642000F067FAFFF795
:10241000C3FFFFF7DBFF2B6804461B6920B90BB134
:102420000F489847012001E00BB9002038BD0D4846
:1024300098472B68210E1B690B4898472B68C4F3FB
:1024400007411B69094898472B6809481B69C4F371
:1024500007219847E9E700BF3C04002091AB000842
:10246000ADAB0008D8AB000867A90008F1AB0008C5
:10247000C7A8000838B532230A4C05212370FF2372
:10248000A37001232071642220466170E370FFF77E
:102490000FFF054618B109212046FFF7CDFE28465B
:1024A00038BD00BF4004002070B50D4C05460E46F7
:1024B00020461421FFF7C0FEE379012B0DD1002245
:1024C000237B3370217BD3B2994201D8012070BDA8
:1024D000E118497B0132E954F4E70020F7E700BF37
:1024E0004004002070B516464A221C46104BB4F535
:1024F0007A7F1A704FF001020D465A70987022468A
:102500004FF0030128BF4FF47A721846FFF7D0FE50
:1025100060B1322000F0E2F92046FFF769FE28B1F1
:1025200031462846BDE87040FFF7BEBF002070BDB1
:1025300040040020114B07B59A690F2142F00102B7
:102540009A619A696FF0010002F001020092009A0C
:10255000DA6942F08052DA61DB69002203F08053CD
:102560000193019B00F0DEF9054A536823F0E06314
:1025700043F00073536003B05DF804FB00100240A9
:102580000000014010B5044686B01022002102A8C8
:1025900004F0CEFF2268114B9A421CD1104CC0228D
:1025A000A369104843F00803A361A36902A903F0DB
:1025B00008030093009B1223CDE902230323059314
:1025C00000F068FAE36943F40013E361E36903F49C
:1025D00000130193019B06B010BD00BF00540040E2
:1025E00000100240000C014008B50268094B9A42F5
:1025F0000ED1094A4021D369084823F40013D3615E
:1026000000F01CFBBDE808408021044800F016BB28
:1026100008BD00BF0054004000100240000C014003
:10262000102210B5044688B00DEB0200002104F022
:102630007FFF2368324A934231D1324B4FF400710D
:102640009A69314842F480429A619A69002402F4FE
:1026500080420092009A9A6942F004029A619B6952
:1026600003F004030193019B0223CDE90413032328
:1026700004A9079300F00EFA4FF48063224804A9DE
:10268000CDE90434069400F005FA25202246052100
:1026900000F048F9252000F075F908B010BD1B4A7C
:1026A0009342FAD1174B1848DA6904A942F4003270
:1026B000DA61DA69002402F400320292029A9A691D
:1026C00042F004029A619B69042203F0040303931D
:1026D000039B0223CDE904230323079300F0DAF9D7
:1026E0000823094804A9CDE90434069400F0D2F97E
:1026F00026202246052100F015F92620CBE700BF51
:102700000038014000100240000801400044004031
:10271000FEE7FEE7FEE7FEE7FEE7704708B500F0DC
:10272000CBF803F011FC012803D0BDE8084003F00A
:10273000A9BF08BD014801F0E1BD00BFA003002012
:10274000014801F0DBBD00BF5803002001207047A5
:1027500008B504F03FFF162303604FF0FF3008BDBB
:1027600008B504F037FF16230360FEE770B50D4689
:1027700014460E46731B9C4201DC204670BDAFF32D
:10278000008006F8010BF5E770B50D4614460E46BD
:10279000731B9C4201DC204670BD16F8010BAFF3A1
:1027A0000080F5E74FF0FF3070474FF400530020F2
:1027B0004B60704701207047002070470B4A03466A
:1027C000116810B509B90A491160106809490A4C25
:1027D0000344091B8B4206D904F0FCFE0C23036062
:1027E0004FF0FF3010BD1360FCE700BF80040020F5
:1027F000203B002000500020000400007047000033
:10280000FFF7FCFF0B480C490C4A002302E0D458A8
:10281000C4500433C4188C42F9D3094A094C00232C
:1028200001E013600432A242FBD304F0D9FEFFF7AB
:1028300009FC704700000020E001002044B40008BB
:10284000E0010020203B0020FEE7000038B50E4BE1
:1028500005461A784FF47A73B3FBF2F30B4A10680B
:10286000B0FBF3F000F09CF8044658B90F2D09D8DE
:10287000024629464FF0FF3000F054F82046044B42
:102880001D6038BD0120FCE70C000020080000207E
:1028900010000020074A08B51368032043F0100316
:1028A000136000F02DF80F20FFF7D0FFFFF742FE76
:1028B000002008BD00200240034A044B11681B7829
:1028C0000B441360704700BF840400200C000020FC
:1028D000014B1868704700BF8404002038B50446D7
:1028E000FFF7F6FF0546631C1EBF044B1B78E41878
:1028F000FFF7EEFF431BA342FAD338BD0C000020C4
:1029000007490302CA6803F4E06322F4E062120498
:10291000120C134343F0BF6343F40033CB607047A2
:1029200000ED00E0154B30B5DC68C4F30224C4F1BF
:102930000703251D042B28BF0423062D4FF0FF3568
:1029400094BF0024033C05FA03F321EA0303A540E6
:1029500022EA0502A340002843EA0203ACBF00F1CB
:102960006040074A4FEA0313DBB2ABBF00F561409A
:1029700000F00F0080F80033135430BD00ED00E08C
:1029800014ED00E0002807DB01234109034A00F0B1
:102990001F00834042F82130704700BF00E100E093
:1029A0000138B0F1807F0BD24FF0E023F021054ACF
:1029B000586182F823100020072298611A6170473D
:1029C0000120704700ED00E090F821200346022A24
:1029D00006D0042282630120002283F82020704761
:1029E0000268C06B116821F00E011160116821F0BE
:1029F0000101116001211A6C01FA02F2426000200B
:102A000083F82110E8E7000008B590F82130022B88
:102A100003D004238363012008BD03681A6822F0F1
:102A20000E021A601A6822F001021A60174A9342D5
:102A30001FD0143293421ED0143293421DD0143250
:102A400093421DD0143293421DD01432934214BFCE
:102A50004FF080734FF480130D4A5360012380F8C8
:102A60002130002380F82030436B03B198470020C9
:102A7000D2E70123F0E71023EEE74FF48073EBE792
:102A80004FF48053E8E74FF48033E5E70800024055
:102A9000000002402DE9F74F00244FF00F0E2646AC
:102AA000DFF884C1614B00F104080A6832FA06F5C8
:102AB00002D103B0BDE8F08F012505FA06F702EA5E
:102AC000070537EA020276D14A68032A07D8013A95
:102AD000022A00F28380DFE802F091969C00122A1D
:102AE00000F0948069D8112A00F08A80FF2D94BFED
:102AF0008146C1464FEA8602D9F8007088BF203A65
:102B00000EFA02FA27EA0A0704FA02F21743C9F892
:102B10000070D1F8049019F0805F4CD0DCF81820D8
:102B200026F0030742F00102CCF81820DCF8182048
:102B300007F1804702F00102019207F5803706F0A5
:102B4000030A019A4FEA8A0ABA680EFA0AFB22EAD5
:102B50000B0B374A904260D002F5806290425ED003
:102B600002F5806290425CD002F58062904214BF10
:102B70000422032202FA0AF242EA0B02BA609A68BD
:102B800019F4801F14BF2A43AA439A60DA6819F423
:102B9000001F14BF2A43AA43DA605A6819F4003FA1
:102BA00014BF2A43AA435A601A6819F4803F14BF1D
:102BB0002A43AA431A60013677E7DFF878904A453E
:102BC0000CD014D8A9F580194A4507D009F5702909
:102BD0004A4503D0A9F580194A4587D18A68D2B100
:102BE000012A4FF008040CBF076147617EE7DFF858
:102BF00048904A45F2D009F58039EDE7CC6875E791
:102C0000CC68043472E7CC6808346FE7CC680C34C5
:102C10006CE700246AE7042468E70022AAE701229F
:102C2000A8E70222A6E700BF00100240000401400E
:102C30000008014000002210000031102DE9F74F7C
:102C40004FF0040B00224FF0010A4FF00F0800EB89
:102C50000B0301932E4B31FA02F402D103B0BDE80D
:102C6000F08F0AFA02F70F4049D022F0030404F172
:102C7000804404F5803402F0030CA5684FEA8C0C04
:102C800008FA0CF909EA050E224DA84239D005F5DB
:102C90008065A84237D005F58065A84235D005F596
:102CA0008065A84214BF0425032505FA0CF5754577
:102CB0006FEA07060FD11D6835401D605D6835401D
:102CC0005D60DD683540DD609D6835409D60A568CC
:102CD00025EA0905A560FF2F94BF0746019F4FEA2B
:102CE00082043D6888BF203C08FA04FC25EA0C05F4
:102CF0000BFA04F425433D60C4683440C4600132DB
:102D0000A9E70025D1E70125CFE70225CDE700BFE0
:102D100000040140000801400AB101617047090444
:102D2000FBE7C36801EA030221EA030141EA024129
:102D300001617047016800224B6913F4806310D071
:102D40006FF480634B612023026380F83D3080F88C
:102D50003E20036C80F83C2043F004030364012010
:102D60007047184670472DE9F84606460F469146CB
:102D70001D464FEA114A3368BAF1010F0CBF5C6976
:102D80009C6927EA0404A4B2B4FA84F46409A14556
:102D900001D0002025E06A1CEED0FFF799FD089BCA
:102DA000C01AA84201D8002DE5D13368BAF1010F4D
:102DB0000CBF5B699B6927EA03039BB2B3FA83F3F9
:102DC0005B099945D7D1002320220120336386F87F
:102DD0003D2086F83E30326C86F83C3042F02002CE
:102DE0003264BDE8F8862DE9F04104460F461646E8
:102DF00098462568686927EA000080B2C0B16B690F
:102E00005A0517D52B68202243F400732B606FF40A
:102E100080636B610023236384F83D2084F83E3097
:102E2000236C43F0040323640023012084F83C3026
:102E3000BDE8F081731CDDD0FFF74AFDA0EB080070
:102E4000B04201D8002ED4D123685A6927EA020281
:102E500092B2002ACDD000232022236384F83D20A3
:102E600084F83E30236C1343DDE770B504460D460D
:102E7000164623685B691B0601D500201EE020462C
:102E8000FFF758FFC8B96A1CF3D0FFF721FD801B7C
:102E9000A84201D8002DECD123685B6913F08003B0
:102EA000E7D12022236384F83D2084F83E30226C51
:102EB00084F83C3042F020022264012070BD000002
:102EC0002DE9FF479A46DDE90C78036815461A6834
:102ED0000E4642F480621A601A684FF0011142F403
:102EE00080721A603B460022CDF800800446FFF74E
:102EF0003AFF236848B11B68DB0548BF4FF40073F5
:102F00004FF0030048BF236421E05FFA86F906F022
:102F1000FE061E613A46434620462A49FFF763FFF4
:102F2000A0B9236803905A69394603929B694246C7
:102F300003932046039BFFF798FF58B1236C042BA3
:102F400001BF2268136843F400731360012004B0CA
:102F5000BDE8F087BAF1010F23681AD1EDB24246FD
:102F6000394620461D61FFF780FF02460028E5D163
:102F7000216820460B6843F480730B603B464FF09A
:102F80000111CDF80080FFF7EEFE226860B11368F2
:102F9000B2E72A0A1A61394642462046FFF765FF22
:102FA0000028CBD12368D9E749F0010313612046FB
:102FB00043463A460349FFF716FF003818BF012081
:102FC000C5E700BF0200010070B504460D46164675
:102FD00023685B695B0701D500201EE02046FFF7F0
:102FE000A9FEC8B96A1CF3D0FFF772FC801BA84287
:102FF00001D8002DECD123685B6913F00403E7D1FD
:103000002022236384F83D2084F83E30226C84F82B
:103010003C3042F020022264012070BD70B50446AD
:103020000D46164621684B6913F0400301D000207D
:1030300011E04A69D2060FD56FF010024A612022D2
:10304000236384F83D2084F83E30236C23640023FE
:10305000012084F83C3070BDFFF73AFC801BA84289
:1030600001D8002DDED123685B6913F04003D9D16C
:103070002022236384F83D2084F83E30236C1343E0
:10308000E4E7000070B5044608B9012070BD90F86F
:103090003D3003F0FF021BB980F83C20FFF772FAC5
:1030A000242384F83D3023681A6822F001021A6054
:1030B0001A6842F400421A601A6822F400421A6048
:1030C00000F07EFF3F4B65689D4294BF3E4B3F4BF7
:1030D00098428CBF00230123002BD6D1394E3C4BA4
:1030E000B542B0FBF3F388BF4FF49676226851687F
:1030F00021F03F0141EA030182BF73434FF47A7626
:10310000B3FBF6F35160116A013321F03F010B4329
:103110001362D169431E2B4821F44F41854221F0AF
:10312000FF0132D86D00B3FBF5F340F6FC700133BC
:10313000034242D0C3F30B031943D1611168D4E9B0
:10314000073021F0C00103430B4313609168D4E9B9
:10315000030321F40341034321F0FF010B43936078
:10316000D168D4E9053021F0FF0103430B43D3605C
:103170001368002043F0010313602023206484F8C7
:103180003D30206384F83E0080E7A06850B905EB2D
:103190004505B3FBF5F30133C3F30B037BB143F4F4
:1031A0000043C9E719206843B3FBF0F30133C3F3CD
:1031B0000B0323B143F44043BEE70423BCE70123E0
:1031C000BAE700BFA08601007F841E00FF083D0013
:1031D00040420F0010B5044698B12423026880F8DD
:1031E0003D30136823F001031360FFF7FDF9002061
:1031F000206484F83C0084F83D00206384F83E009D
:1032000010BD0120FCE700002DE9F043044685B025
:1032100098460D4691460C9FFFF75AFB94F83D30B7
:103220000646202B04D00225284605B0BDE8F083D1
:1032300000901923012220465C49FFF794FD0028E5
:10324000F1D194F83C30012BEDD00123216884F8B2
:103250003C300B68DA075EBF0B6843F001030B607C
:103260000B6823F400630B60212384F83D301023A6
:1032700084F83E3000232364A4F82A80638DC4F8C8
:10328000249023854A4BE362E36A082B04D0012B88
:1032900002D013F5803F04D10B6843F480730B60B8
:1032A00002E0236B122BF7D000223B464FF00111B6
:1032B00020460096FFF757FD226840B11368DB05F2
:1032C00001D40125B0E74FF400732364F9E72369C3
:1032D000B3F5804F21D105F0FE05156133463A461E
:1032E00020463449FFF77FFD05460028E9D12368D1
:1032F00003905A6903929B690393039B238DF3B94F
:1033000021680A6842F400720A60202284F83C3086
:1033100084F83D2084F83E3086E7EB1103F0060385
:1033200043F0F0031361204633463A462249FFF743
:103330005AFD0028C5D12368EDB21D61CEE73246A3
:1033400039462046FFF791FD40B1236C042BB8D1DC
:103350002268136843F400731360B2E7636A20685D
:103360001A4612F8011B01616262628D013A92B243
:103370006285228DD0F814C0511E89B21CF0040F52
:1033800021850AD049B15978023301616362638DA6
:10339000023A013B9BB2638522853246394620467C
:1033A000FFF712FE0028A9D0CFE700BF02001000EF
:1033B0000000FFFF02000100080001002DE9F043BA
:1033C00098460023044689B002930E469146109F0A
:1033D000FFF77EFA94F83D300546202B04D00226F4
:1033E000304609B0BDE8F083009019230122204641
:1033F0008F49FFF7B8FC0028F1D194F83C30012B3D
:10340000EDD00123216884F83C300B68DB075EBFF8
:103410000B6843F001030B600B6823F400630B603F
:10342000222384F83D30102384F83E3000232364A7
:10343000A4F82A80638DC4F8249023857D4BE36231
:10344000E36A0A68082B42F480620A6004D0012B08
:1034500002D013F5803F04D10B6843F480730B60F6
:1034600002E0236B112BF7D03B4600224FF00111F5
:1034700020460095FFF777FC236838B11B68D80514
:1034800044BF4FF4007323640126A9E72269B2F513
:10349000804F29D146F00106F6B21E612B463A460E
:1034A00020466549FFF79FFC06460028ECD1228D97
:1034B0002368002A4DD103905A6903929A690392B6
:1034C000039A1A6842F400721A60DFF87081DFF81C
:1034D0007091238D002B6CD1202284F83C3084F82D
:1034E0003D2084F83E307BE74FEAE61808F00608F6
:1034F00048F0F0021A6120462B463A465149FFF740
:1035000072FC0028C0D12368F6B23A461E612046FC
:103510002B464949FFF767FC02460028B4D12368CF
:103520000790596920460791996907910799196889
:1035300041F4807119603B464FF001110095FFF78F
:1035400012FC226808B1136899E748F0F10313618F
:10355000A4E7012A11D11A6822F480621A6072B6B7
:10356000236804905A6904929A690492049A1A682A
:1035700042F400721A6062B6A7E7022A1A680ED1F6
:1035800042F400621A6072B6236805905A69059287
:103590009A690592059A1A6822F48062EAE742F471
:1035A00080621A6006905A6906929B690693069B90
:1035B0008BE7032B00F28880012B16D12A4639466F
:1035C0002046FFF72BFD00287FF45EAF23681A69C1
:1035D000636A1A70636A01336362238D013B23853A
:1035E000638D013B9BB2638573E7022B4FF00002B2
:1035F0003B4641462046009526D1FFF7B4FB002804
:103600007FF442AF72B623681A6842F400721A60FF
:103610001A69636A1A70636A01336362238D013B1E
:103620002385638D013B9BB2638562B6CEE700BF05
:10363000020010000000FFFF020001000400010072
:103640000800002008000100FFF78DFB00287FF430
:103650001BAF2268136823F48063136072B646F2CE
:10366000A81123681A69636A1A70626A531C63623C
:10367000238D013B2385638D013B9BB26385D9F884
:103680000030B3FBF1F323214B430293029B013B38
:103690000293029B6BB92022236384F83D2084F8B7
:1036A0003E30226C42F02002226462B684F83C3044
:1036B000EAE6236859694907E8D5196841F40071B9
:1036C00019601B695370A6E72A4639462046FFF762
:1036D000A5FC00287FF4D8AE23681A69636A1A70C3
:1036E000628D616A013A92B24B1C62852268636204
:1036F000238D5069013B9BB2400723857FF5E9AEDE
:10370000032B02BF136823F48063136013694B70AB
:1037100060E700BF2DE9F04399460023044689B0D5
:1037200003930D469046129FFFF7D2F894F83D3070
:103730000646202B04D00225284609B0BDE8F083B8
:1037400000901923012220469049FFF70CFB002826
:10375000F1D194F83C30012BEDD00123206884F89E
:103760003C3003682946DB0758BF036842465CBF0C
:1037700043F001030360036823F400630360222322
:1037800084F83D30402384F83E3000232364109BAE
:1037900020466362BDF844306385638D23857C4B8E
:1037A000E3624B46CDE90076FFF78AFB0546002829
:1037B00040F0BA80228D2368C2B904905A690492FD
:1037C0009A690492049A1A6842F400721A60DFF847
:1037D000C481DFF8C491238D002B37D1202284F8D7
:1037E0003C3084F83D2084F83E30A5E7012A11D111
:1037F0001A6822F480621A6072B6236805905A69CA
:1038000005929A690592059A1A6842F400721A6044
:1038100062B6DCE7022A1A680ED142F400621A602E
:1038200072B6236806905A6906929A690692069AB9
:103830001A6822F48062EAE742F480621A60079014
:103840005A6907929B690793079BC0E7032B78D8B7
:10385000012B15D1324639462046FFF7DFFB002801
:1038600062D123681A69636A1A70636A01336362FA
:10387000238D013B2385638D013B9BB26385AAE7C2
:10388000022B4FF000023B4641462046009618D1DD
:10389000FFF769FA002847D172B623681A6842F424
:1038A00000721A601A69636A1A70636A013363628C
:1038B000238D013B2385638D013B9BB2638562B6FB
:1038C000CFE7FFF750FA00282ED12268136823F4BF
:1038D0008063136072B646F2A81123681A69636A9E
:1038E0001A70626A531C6362238D013B2385638DCA
:1038F000013B9BB26385D9F80030B3FBF1F3232180
:103900004B430393039B013B0393039B73B9202217
:10391000236384F83D2084F83E30226C42F020027C
:10392000226462B684F83C30012505E723685969B2
:103930004907E7D5196841F4007119601B69537094
:10394000B3E7324639462046FFF768FB0028EBD143
:1039500023681A69636A1A70628D616A013A92B2C9
:103960004B1C628522686362238D5069013B9BB2C8
:10397000400723857FF52FAF032B02BF136823F485
:103980008063136013694B706FE700BF0200100083
:103990000000FFFF04000100080000202DE9F04FA7
:1039A000044685B01F4688469246FEF791FF94F87C
:1039B0003D300546202B03D0022005B0BDE8F08F36
:1039C00000901923012220464C49FFF7CCF900282A
:1039D000F2D194F83C30012BEED0012384F83C3036
:1039E000236800261A68DFF814B1D00758BF1A6898
:1039F00008F0FE085CBF42F001021A601A6822F467
:103A000000621A60242384F83D303D4B2664E36253
:103A100022684FF001111368204643F4807313604D
:103A20003B4600220095FFF79EF9236838B11B68DA
:103A30000320D90544BF4FF400732364BDE7C3F8E6
:103A40001080FEF745FF4FF0A009054623685A692C
:103A50005B69C2F34002C3F3802394F83D10A029B0
:103A60001CD14FF02009236884F83D905A699207D1
:103A70002BD51A68204642F400721A600022039285
:103A80005A691E4903929B6901220393039B009587
:103A90001923FFF768F998B101208EE71343E0D1AD
:103AA000FEF716FF401BB84200D80FB984F83D90CE
:103AB00023685A695B69C2F34002C3F38023CCE7F1
:103AC00084F83D9084F83C0077E71A68594642F440
:103AD00000721A606FF4806220465A611923012235
:103AE0000095FFF740F90028D6D1013656458FD30F
:103AF00084F83D9084F83C00CEE700BF020010003F
:103B00000000FFFF2DE9F341054638B30368DB07EA
:103B100010D42B689F075ED42B68190700F195809D
:103B20002B685A0700F1C180EB69002B40F02C8113
:103B3000002029E0904C636803F00C03042B07D0AD
:103B4000636803F00C03082B0AD16368DE0307D512
:103B500023689C03DDD56B68002BDAD1012013E0CC
:103B60006B68B3F5803F12D1236843F48033236040
:103B7000FEF7AEFE064623689803CAD4FEF7A8FEF9
:103B8000801B6428F7D9032002B0BDE8F0819BB9FF
:103B9000236823F480332360236823F48023236085
:103BA000FEF796FE064623689903B2D5FEF790FE0F
:103BB000801B6428F7D9E6E7B3F5A02F236803D16B
:103BC00043F480232360CFE723F48033236023680A
:103BD00023F48023CBE7684C636813F00C0F07D005
:103BE000636803F00C03082B10D16368DA030DD46B
:103BF00023689B0702D52B69012BAFD123686A6923
:103C000023F0F80343EAC203236085E72A695B4B8C
:103C10006AB101221A60FEF75BFE064623689F0721
:103C2000ECD4FEF755FE801B0228F7D9ABE71A60EB
:103C3000FEF74EFE0646236898077FF56DAFFEF748
:103C400047FE801B0228F6D99DE7AA694A4E4B4BD6
:103C5000E2B10122C3F88024FEF73AFE0446736AFB
:103C60009B070DD54FF4FA52454B1B68B3FBF2F39B
:103C7000019300BF019B5A1E0192002BF9D14FE71F
:103C8000FEF726FE001B0228E9D97CE7C3F8802452
:103C9000FEF71EFE0446736A9F077FF541AFFEF7ED
:103CA00017FE001B0228F6D96DE7334CE369D800F4
:103CB00024D40127E36943F08053E361E36903F00F
:103CC00080530093009B2F4E3368D90518D5EB68BD
:103CD000012B26D1236A43F001032362FEF7F8FD8E
:103CE00041F288380646236A9B073FD5002F3FF4F0
:103CF0001BAFE36923F08053E36115E70027E2E798
:103D0000336843F480733360FEF7E2FD8046336826
:103D1000DA05DCD4FEF7DCFDA0EB08006428F6D958
:103D200031E7ABB9236A41F2883823F001032362FB
:103D3000236A23F004032362FEF7CAFD0646236AC2
:103D40009807D3D5FEF7C4FD801B4045F7D91AE785
:103D5000052B236A03D143F004032362BAE723F05F
:103D600001032362236A23F00403B6E7FEF7B0FDE4
:103D7000801B4045B7D906E70010024000004242D0
:103D800008000020007000402A4C626802F00C021B
:103D9000082A3ED00022022B274B1A662CD1FEF7B0
:103DA00097FD06462368990120D42B6AB3F5803F1E
:103DB00005D16268A96822F400320A436260696A28
:103DC00062680B4322F474121343012263601A4B9E
:103DD0001A66FEF77DFD054623689A013FF5A8AEF9
:103DE000FEF776FD401B0228F6D9CCE6FEF770FD03
:103DF000801B0228D6D9C6E6FEF76AFD0546236871
:103E00009B017FF595AEFEF763FD401B0228F6D9B6
:103E1000B9E6012B3FF4A2AE60682B6A00F4803251
:103E20009A427FF49BAE6B6A00F47010C01A18BF00
:103E30000120A9E600100240000042420D4A5368EA
:103E400003F00C01082912D10B48C3F38341DB03B3
:103E5000405C09D55368094AC3F340435043084ABC
:103E6000D35CB0FBF3F07047064B584370470348F0
:103E7000704700BF0010024046AE000800127A00F2
:103E800044AE000800093D002DE9F0410D4604460E
:103E900010B90120BDE8F081444A136803F007031C
:103EA0008B4228D321688E0730D4CA0743D43F4AB7
:103EB000136803F00703AB4265D822683C4D12F04B
:103EC000040F6CD1130706D56B68226923F4605385
:103ED00043EAC2036B60FFF7B1FF6B68354AC3F377
:103EE0000313D35CD840344B1860344B1868FEF78A
:103EF000ADFC0020CEE7136823F007030B431360EB
:103F0000136803F007038B42C3D1CBE7284B11F0B2
:103F1000040F1EBF5A6842F4E0625A60080742BFAD
:103F20005A6842F460525A605A68A06822F0F0025F
:103F300002435A60B9E762681D4E012A33681AD1FC
:103F400013F4003FA5D0736841F2883823F00303CF
:103F500013437360FEF7BCFC07467368626803F0A6
:103F60000C03B3EB820FA2D0FEF7B2FCC01B40459E
:103F7000F3D903208EE7022A02D113F0007FE1E794
:103F800013F0020FDEE7136823F007032B431360DF
:103F9000136803F00703AB427FF47BAF8DE76B68D8
:103FA000E16823F4E0630B436B608BE70020024081
:103FB0000010024034AE000808000020100000206D
:103FC000044B054A5B68C3F30223D35C034A1068C1
:103FD000D8407047001002402CAE000808000020B6
:103FE000044B054A5B68C3F3C223D35C034A1068E1
:103FF000D8407047001002402CAE00080800002096
:10400000026802F10C0353E8003F23F490730C3272
:1040100042E8003102680029F2D102F1140353E8AA
:10402000003F23F0010302F1140C4CE80031002999
:10403000F3D1036B012B0BD102F10C0353E8003FCA
:1040400023F0100302F10C0C4CE800310029F3D1ED
:10405000202380F8423000230363704710B50446E4
:104060000368C1681A6922F440520A431A618268DF
:104070000069D9680243606921F4B05121F00C0154
:1040800002430A43DA605A69A16922F440720A4382
:104090005A610E4A934215D1FFF7A2FF19234343F9
:1040A000626820689200B3FBF2F36422B3FBF2F182
:1040B00002FB11331B013233B3FBF2F303EB0113A9
:1040C000836010BDFFF77CFFE8E700BF00380140C8
:1040D000F7B505460C4617461E462A68136834EAAB
:1040E000030301D1002021E0701CF7D0FEF7F0FBA4
:1040F000C01B86421CD3DEB12B68DA685107ECD5B1
:10410000802CEAD0402CE8D01A681207E5D50024AC
:1041100001941A68284601925B680193019BFFF79E
:104120006FFF082301206B6485F8404003B0F0BDA9
:104130000320FBE710B5044648B390F8413003F084
:10414000FF021BB980F84020FEF76AFA2423226898
:1041500084F84130D368204623F40053D360FFF73E
:104160007DFF236800201A6922F490421A615A697F
:1041700022F02A025A61DA6842F40052DA602023FF
:10418000606484F8413084F84230606310BD0120DF
:10419000FCE72DE9F843984690F841300446202B7F
:1041A0000E4617463FD100293FD0002A3DD021239B
:1041B0000025456480F84130FEF78AFBA3688146FC
:1041C000B3F5805FA784E78403D123690BB9354633
:1041D0001E46E38C9BB253B943464A4640212046D3
:1041E000FFF776FF202350B984F841300AE04346B8
:1041F0004A4680212046FFF76BFF28B12023032089
:1042000084F84130BDE8F88322684EB935F8023BA6
:10421000C3F308035360E18C013989B2E184D8E724
:1042200016F8013BF6E70220ECE70120EAE77047C9
:104230007047704708B50023406AC385C384FFF701
:10424000F8FF08BD704790F8423007B5222B42D1E5
:1042500081680268B1F5805F836A3FD101690029F6
:104260003FD15268C2F3080223F8022B8362C38D48
:10427000013B9BB2C385002B2DD10268D16821F090
:104280002001D160D16821F48071D160516921F0A1
:1042900001015161202280F842204363026B012A10
:1042A000026828D1036302F10C0353E8003F23F0B6
:1042B000100302F10C0C4CE800310029F3D1136813
:1042C000DB0605D501911368019353680193019BA7
:1042D000818DFFF7B7FF03B05DF804FB39B90169C1
:1042E00029B95268D2B21A70836A0133BEE75268A4
:1042F00002F07F02F7E7FFF79BFFECE7036873B577
:104300001A6804461607D9685D6908D1960668D50B
:104310008D0666D502B0BDE87040FFF794BF05F08A
:10432000010001F4907505435BD0D60705D5CD0596
:1043300042BF636C43F001036364530704D518B1B3
:10434000636C43F002036364960704D518B1636C91
:1043500043F004036364150707D501F0200303430A
:104360001EBF636C43F008036364636C002B32D0A0
:10437000920604D58B0602D52046FFF764FF266817
:1043800020467369626C03F0400302F0080253EAAE
:10439000020522D0FFF734FE73695E0618D5226845
:1043A00002F1140353E8003F23F04003143242E8C3
:1043B00000310029F3D1E06B50B1744B4363FEF739
:1043C00023FB40B1E06B436B02B0BDE8704018477F
:1043D0002046FFF72EFF02B070BDFFF72AFF65648D
:1043E000F9E7206B012840F09480D50640F19180D8
:1043F000C80640F18E80002201921A6801925A6824
:104400000192019A5A6952064DD5E16B0A685268C9
:1044100092B2002ADFD0A08D9042DCD9E2858A6971
:10442000202A36D003F10C0252E8002F22F48072C9
:1044300003F10C0040E800210029F3D103F114023C
:1044400052E8002F22F0010203F1140040E800219D
:104450000029F3D103F1140252E8002F22F04002A8
:1044600003F1140040E800210029F3D1202284F850
:104470004220216303F10C0252E8002F22F01002C7
:1044800003F10C0040E800210029F3D1E06BFEF7B6
:104490009BFA02236363E38DA18DC91A89B220467A
:1044A000FFF7D0FE97E7E28DE08DA18D80B292B24A
:1044B000002890D0891A89B200298CD003F10C020F
:1044C00052E8002F22F4907203F10C0545E8002019
:1044D0000028F3D103F1140252E8002F22F0010268
:1044E00003F1140545E800200028F3D1202284F8C8
:1044F0004220206303F10C0252E8002F22F0100248
:1045000003F10C0545E800200028F3D10223636382
:10451000C5E7160628D50D0626D594F84120212A90
:104520007FF459AFA168226AB1F5805F17D1216984
:10453000A9B932F8021BC1F3080159602262E28C6A
:10454000013A92B2E284002A7FF445AFDA6822F0A1
:104550008002DA60DA6842F04002DA603BE7511C20
:10456000216212785A60EAE750067FF534AF4A06B6
:104570007FF531AFDA68204622F04002DA6020236E
:1045800084F84130FFF753FE25E700BF35420008AD
:10459000EFF305832BB9064B186828B901221A607E
:1045A00070476FF0050070474FF0FF30704700BF55
:1045B000400B002010B5EFF305845CB9084B1A6876
:1045C000012A0AD1074AD47702221A6001F0C0F901
:1045D000204610BD6FF00500FBE74FF0FF30F8E715
:1045E000400B002000ED00E0F0B51446002287B03B
:1045F0000B460592EFF30582FAB9F0B154B3A56901
:1046000025B1691E372902D9002017E018256268F4
:10461000D207F9D466699EB1B2082168D4E9027C58
:1046200087B1BCF15B0F08D9246934B12EB1CDE953
:104630000147009501F025F90590059807B0F0BDF8
:104640008022EAE7BCF1000FF7D12469002CF4D1F5
:104650000C4601E01825802205A9CDE9005192B24F
:10466000214601F046F901281CBF00230593E4E729
:1046700008B5EFF3058222B908B101F0C9FA0020AC
:1046800008BD6FF00500FBE70346EFF3058242B972
:1046900048B1D3E9020318B11F2B02D900F052B977
:1046A0000BB10020704700F071B913B50C46F8B19A
:1046B000B1F1807F1CD2EFF30583A3B1002301AADF
:1046C000019300F07BFAB0B1019B4BB14FF0E023B6
:1046D0004FF08052C3F8042DBFF34F8FBFF36F8F9D
:1046E000204602B010BD02B0BDE8104000F020BA74
:1046F0006FF00304F4E76FF00204F1E770B50E46C3
:104700000546B0B1B1F1807F13D2EFF3058363B1F9
:1047100000F000FA31460446284600F0F3F900287C
:1047200008BF6FF00204204670BDBDE8704000F085
:10473000C3B96FF00304F6E773B50C461D46F8B134
:10474000B1F1807F1CD2EFF30583E3B902F00106DB
:1047500082F00202C2F340023346009500F024F9D1
:1047600004EA00024EB1A24205D0002D14BF6FF042
:1047700001006FF0020002B070BD002AF5D0FAE728
:104780006FF00300F7E76FF00500F4E7F8B50546B2
:10479000EFF3058717B100242046F8BD20B3466823
:1047A0003307F8D4D0E9021306F0010699B14F2B74
:1047B000F1D9BEB1042000F077FC04460028EAD00D
:1047C00037462D682946204600F098FE002FE3D09A
:1047D00044F00104E0E7002BDDD12EB1042000F00D
:1047E00097FCEAE70120E6E7012000F091FC04468F
:1047F0000028D0D0002DE5D00026E1E738B50346EB
:104800000C4620F0010003F00102EFF3058595B995
:10481000012B13D962B100F050FE012801D1002014
:1048200038BD002C14BF6FF001006FF00200F7E7F5
:1048300000F086FDF1E76FF00500F1E76FF003008F
:10484000EEE7024608B520F0010002F00103EFF3A5
:10485000058179B9012A10D93BB100F03AFC012851
:104860000CBF00206FF0020008BD1A46194600F088
:1048700069FBF4E76FF00500F6E76FF00300F3E77C
:10488000F7B504460E461546EFF3058242B938B136
:10489000884205D355B1D5E902372BB14F2F22D825
:1048A0000024204603B0F0BD002FF9D1012C0CD01C
:1048B0002046314600F028FB04460028F0D085B998
:1048C0002946204600F01AFEEBE7032200210120D2
:1048D00000F0D1FA0EE01A4600F0F4FA044600287F
:1048E000DED02D68ECE70128F5D1032100911146B7
:1048F00000F073FA04460028D2D0002EDFD0002347
:104900001A46194600F01EFB0128D8D0204600F0B8
:104910001FFEC5E7034B0360034B0B60802313604E
:10492000704700BFE40A0020E4080020034B036046
:10493000034B0B604FF480731360704788080020AE
:104940008804002013B5044640B94FF0500383F3A8
:104950001188BFF36F8FBFF34F8FFEE720230193C2
:10496000019B202B08D04FF0500383F31188BFF335
:104970006F8FBFF34F8FFEE7002340F8043B00F03A
:1049800025F901232046237702B010BD38B5202039
:1049900001F04CFF044628B1002540F8045B00F00C
:1049A00015F92577204638BD2DE9F843DDF820902C
:1049B0000D4617469846064640B94FF0500383F31C
:1049C0001188BFF36F8FBFF34F8FFEE7B1F1807F88
:1049D00008D34FF0500383F31188BFF36F8FBFF3F9
:1049E0004F8FFEE741B94FF0500383F31188BFF3B7
:1049F0006F8FBFF34F8FFEE701F0A6FA58B9B9F1F8
:104A0000000F08D04FF0500383F31188BFF36F8F6E
:104A1000BFF34F8FFEE700F0E1FF346805EA0403BF
:104A2000B8F1000F13D1A3B9B9F1000F15D0391E99
:104A300018BF01210906B8F1000F01D041F08061D3
:104A40004A462943301D01F05DF9002407E09D42EC
:104A5000EAD117B124EA050333604FF0000901F0F1
:104A600063F8B9F1000F1CD048B94FF0E0234FF0C4
:104A70008052C3F8042DBFF34F8FBFF36F8F01F047
:104A800041FB830104460AD401F0A4FD346805EA21
:104A90000403B8F1000F07D143B901F0BBFD24F0C6
:104AA0007F442046BDE8F8839D42F6D1002FF4D024
:104AB00024EA05053560F0E770B50C46054640B9B7
:104AC0004FF0500383F31188BFF36F8FBFF34F8F05
:104AD000FEE7B1F1807F08D34FF0500383F31188D4
:104AE000BFF36F8FBFF34F8FFEE701F073FD2E68AA
:104AF00026EA04042C6001F08DFD304670BDFFF7FE
:104B0000DBBF00000A4600230146014801F0FABC61
:104B1000FF4A0008EFF311834FF0500282F311882F
:104B2000BFF36F8FBFF34F8F006883F31188704717
:104B30002DE9F0410D46044640B94FF0500383F390
:104B40001188BFF36F8FBFF34F8FFEE7B1F1807F06
:104B500008D34FF0500383F31188BFF36F8FBFF377
:104B60004F8FFEE700F10C0600F038FF2368206944
:104B70002B43002523608642216807D121EA0501E5
:104B8000216000F0D1FF2068BDE8F081D0E9002865
:104B900022F07F4312F0806F03EA010702D11FB9B0
:104BA0004046E8E7BB42FBD1D20141F0007148BF6B
:104BB0001D4301F033F9F3E7FFF7BABF13460A4686
:104BC0000146014801F09EBCB94B00084FF0FF328E
:104BD00000F10803C0E9022343600361002303607E
:104BE000704700230361704743689A684B608A608E
:104BF000516099600368086101330360704730B504
:104C00000C68631C0AD103695A684A6091608B6022
:104C10005960036808610133036030BD00F1080288
:104C2000134652681568A542FAD9EDE70369D0E941
:104C300001128A6051605968814208BF5A6000229F
:104C400002611A68013A1A601868704710B5044684
:104C500001F0C0FCA46B01F0DDFCB4FA84F0400963
:104C600010BD70B51646026C0446856B42B90668E5
:104C70009EB9806801F0B6F9A6600135A56370BDE4
:104C80006EB9406802F0E1FC6368226C1344A268CC
:104C90006360934224BF236863600020EDE7C0682F
:104CA00002F0D3FC226CE36851429B1A2268E36055
:104CB00093423EBFA3685B18E360022EEDD10DB1B5
:104CC000013DEAE72846D8E703461A6C084610B4C7
:104CD00062B1DC68996814448C4228BF1968DC60B2
:104CE00028BFD960D96810BC02F0AFBC10BC7047B7
:104CF00070B5044601F06EFC94F8455004F12406AA
:104D00006DB2002D01DD636AB3B9FF2384F845302D
:104D100001F080FC01F05EFC94F8445004F11006B0
:104D20006DB2002D01DD23697BB9FF2384F8443087
:104D3000BDE8704001F06EBC304601F02FF808B1BC
:104D400001F0F6F8013D6DB2DBE7304601F026F8E0
:104D500008B101F0EDF8013D6DB2E2E738B50D465E
:104D6000044640B94FF0500383F31188BFF36F8FAF
:104D7000BFF34F8FFEE701F02DFCD4E90F314B4319
:104D80002268D0185B1AA060626000201A44FF23DA
:104D9000A063E26084F8443084F84530A5B9236903
:104DA00073B104F1100000F0F9FF48B14FF0E023B7
:104DB0004FF08052C3F8042DBFF34F8FBFF36F8FB6
:104DC00001F028FC012038BD04F11000FFF7FEFEC1
:104DD00004F12400FFF7FAFEF2E737B50D461C4652
:104DE00040B94FF0500383F31188BFF36F8FBFF3C7
:104DF0004F8FFEE743B94FF0500383F31188BFF3A1
:104E00006F8FBFF34F8FFEE74AB191B94FF0500358
:104E100083F31188BFF36F8FBFF34F8FFEE741B16C
:104E20004FF0500383F31188BFF36F8FBFF34F8FA1
:104E3000FEE750230193019B502B08D04FF0500305
:104E400083F31188BFF36F8FBFF34F8FFEE701210C
:104E5000002D08BF2246C4E90F0584F846102046FD
:104E60002260019BFFF77AFF20469DF8183084F8F6
:104E70004C3003B030BDF8B50D461746064640B974
:104E80004FF0500383F31188BFF36F8FBFF34F8F41
:104E9000FEE74843503001F0C9FC044670B10023DE
:104EA00080F8463065B100F1500301212046C4E985
:104EB0000F652360FFF752FF84F84C702046F8BD61
:104EC0000346F2E713B513460C4640B94FF05003C2
:104ED00083F31188BFF36F8FBFF34F8FFEE78842D4
:104EE00008D24FF0500383F31188BFF36F8FBFF3E5
:104EF0004F8FFEE70222009200221146FFF76DFF5E
:104F000000B1846302B010BD10B50C4640B94FF03B
:104F1000500383F31188BFF36F8FBFF34F8FFEE70A
:104F2000884208D24FF0500383F31188BFF36F8F8C
:104F3000BFF34F8FFEE702220021FFF79CFF00B175
:104F4000846310BD2DE9FF410F461E4604460192C1
:104F500040B94FF0500383F31188BFF36F8FBFF355
:104F60004F8FFEE751B9036C43B14FF0500383F309
:104F70001188BFF36F8FBFF34F8FFEE7022E0BD167
:104F8000E36B012B08D04FF0500383F31188BFF37C
:104F90006F8FBFF34F8FFEE700F0D6FF054620B3BB
:104FA00000254FF0000801F015FBA26BE36B9A425D
:104FB00027D2324639462046FFF753FE636A1BB1BB
:104FC00004F1240000F0EAFE48B14FF0E0234FF076
:104FD0008052C3F8042DBFF34F8FBFF36F8F01F0E2
:104FE00019FB012004B0BDE8F081019B002BD8D053
:104FF0004FF0500383F31188BFF36F8FBFF34F8FD0
:10500000FEE7022ED5D0019B1BB901F003FB002067
:10501000E8E715B902A800F043FF01F0FBFA00F041
:10502000DDFC01F0D7FA94F84430FF2B08BF84F878
:10503000448094F84530FF2B08BF84F8458001F088
:10504000E9FA01A902A800F037FF38BB01F0C2FA63
:10505000A26BE36B9A420ED101F0DCFA019904F1E4
:10506000100000F035FE2046FFF742FE00F05CFD28
:1050700048B1012597E701F0CDFA2046FFF738FE49
:1050800000F052FDF5E74FF0E0234FF08052C3F8F7
:10509000042DBFF34F8FBFF36F8FEAE72046FFF772
:1050A00027FE00F041FDB2E7002213B50B46009049
:1050B00011460120FFF791FE044638B100231A463D
:1050C000194683600360C360FFF73CFF204602B0CF
:1050D00010BD38B5044640B94FF0500383F3118832
:1050E000BFF36F8FBFF34F8FFEE7856800F026FF99
:1050F00085420BD1E368013BE3600BB1012038BD71
:105100001A4619462046FFF71DFFF7E70020F6E78D
:1051100070B50646502001F089FB044698B1002581
:10512000012180F84650C0E90F150060FFF716FE18
:105130002B462A462946204684F84C60A560256007
:10514000E560FFF7FFFE204670BD2DE9F843894674
:1051500017461E46044640B94FF0500383F31188AA
:10516000BFF36F8FBFF34F8FFEE751B9036C43B1AD
:105170004FF0500383F31188BFF36F8FBFF34F8F4E
:10518000FEE7022E0BD1E36B012B08D04FF050034A
:1051900083F31188BFF36F8FBFF34F8FFEE701F0EA
:1051A000F1FAEFF311884FF0500383F31188BFF346
:1051B0006F8FBFF34F8FA26BE36B9A4201D3022E26
:1051C0001ED194F845503246494620466DB2A36B35
:1051D000FFF747FD6B1C0ED1636A3BB104F124005D
:1051E00000F0DCFD10B10FB101233B60012088F31A
:1051F0001188BDE8F88301356DB284F84550F5E7B4
:105200000020F4E72DE9FF410E460446019240B923
:105210004FF0500383F31188BFF36F8FBFF34F8FAD
:10522000FEE751B9036C43B14FF0500383F311888B
:10523000BFF36F8FBFF34F8FFEE700F085FE05468B
:1052400018B300254FF0000801F0C4F9A76B47B36D
:1052500031462046013FFFF737FDA763236973B14D
:1052600004F1100000F09AFD48B14FF0E0234FF038
:105270008052C3F8042DBFF34F8FBFF36F8F01F03F
:10528000C9F9012004B0BDE8F081019B002BD9D001
:105290004FF0500383F31188BFF36F8FBFF34F8F2D
:1052A000FEE7019B1BB901F0B5F90020EAE715B94B
:1052B00002A800F0F5FD01F0ADF900F08FFB01F060
:1052C00089F994F84430FF2B08BF84F8448094F89F
:1052D0004530FF2B08BF84F8458001F09BF901A9F8
:1052E00002A800F0E9FD00BB2046FFF7AFFCB0B11B
:1052F000019904F1240000F0EBFC2046FFF7F8FCD4
:1053000000F012FC48B94FF0E0234FF08052C3F890
:10531000042DBFF34F8FBFF36F8F012594E7204615
:10532000FFF7E6FC00F000FCF7E72046FFF7E0FCA3
:1053300000F0FAFB2046FFF789FC0028EDD0B4E727
:10534000F0B585B00446019140B94FF0500383F3A6
:105350001188BFF36F8FBFF34F8FFEE7056C45B128
:105360004FF0500383F31188BFF36F8FBFF34F8F5C
:10537000FEE700F0E9FD064620B32E46002701F0C7
:1053800029F9A36B53B3013BA363236813B900F05E
:10539000C5FEA060236973B104F1100000F0FEFCAB
:1053A00048B14FF0E0234FF08052C3F8042DBFF313
:1053B0004F8FBFF36F8F01F02DF9012005B0F0BDC5
:1053C0003546DBE7019B002BFAD04FF0500383F307
:1053D0001188BFF36F8FBFF34F8FFEE7019B53B967
:1053E000002D66D04FF0500383F31188BFF36F8F09
:1053F000BFF34F8FFEE716B902A800F051FD01F090
:1054000009F900F0EBFA01F0E5F894F84430FF2BCD
:1054100008BF84F8447094F84530FF2B08BF84F827
:10542000457001F0F7F801A902A800F045FD50BB56
:105430002046FFF70BFC00B323683BB901F0CAF824
:10544000A06800F091FD054601F0E4F8019904F12F
:10545000240000F03DFC2046FFF74AFC00F064FB0E
:1054600048B94FF0E0234FF08052C3F8042DBFF34A
:105470004F8FBFF36F8F012681E72046FFF738FC7F
:1054800000F052FBF7E72046FFF732FC00F04CFB40
:105490002046FFF7DBFB0028EDD065B101F09AF85C
:1054A000616A19B1236B1968C1F13801A06800F075
:1054B000DBFD01F0AFF8002080E770B50D46044633
:1054C00040B94FF0500383F31188BFF36F8FBFF3E0
:1054D0004F8FFEE7866800F031FD864204D101203F
:1054E000E3680133E36070BD29462046FFF728FFDB
:1054F0000028F8D0E3680133E360F4E7002330B517
:10550000064A52F8335002EBC3041DB942F8331077
:10551000606030BD0133082BF3D1FAE7440B002063
:10552000002310B5084A52F83310DC00814206D13E
:105530000021064A42F833102244516010BD013365
:10554000082BF0D1FAE700BF480B0020440B0020E5
:1055500010B540B94FF0500383F31188BFF36F8F3C
:10556000BFF34F8FFEE7FFF7DBFF90F846301BB924
:10557000BDE8104001F0F2B910BD70B504460D460B
:10558000164601F027F894F84430FF2B04BF00239F
:1055900084F8443094F84530FF2B04BF002384F88E
:1055A000453001F037F8A36B2BB93246294604F198
:1055B000240000F0D3FB2046BDE87040FFF798BB05
:1055C0002DE9F041044601F005F8304B304E1A68E1
:1055D000304F01321A603568002D4BD134601B68A2
:1055E000012B1FD1B84640460135FFF7EFFA382DA1
:1055F00008F11408F7D1DFF8A080284D4046FFF7E6
:10560000E5FA2846FFF7E2FA2548FFF7DFFA2548D2
:10561000FFF7DCFA2448FFF7D9FA244BC3F80080DF
:10562000234B1D601420234A136801331360224A60
:1056300063641168E36A8B4200FB037004F10401A8
:1056400088BF1360FFF7D0FA00F0E4FF1B4B1B6824
:1056500073B13368DA6AE36A9A4209D24FF0E02301
:105660004FF08052C3F8042DBFF34F8FBFF36F8FFD
:10567000BDE8F081114B1A68E36A002AD2D1326882
:10568000D26A9A4298BF3460CCE700BFA80B0020D2
:105690007C1000201C0C0020080C0020F40B0020C3
:1056A000D80B0020C40B0020AC0B0020F00B002016
:1056B000EC0B00208C0B0020A00B00209C0B00208A
:1056C000F8B50646144B154D1C6828680F46043083
:1056D000FFF7ACFA731C07D137B1296810480431C1
:1056E000BDE8F840FFF780BA2B68A4195C6007D3C7
:1056F0000C4B18682968BDE8F8400431FFF77FBA01
:10570000094B186829680431FFF779FA074B1A68C2
:10571000A24288BF1C60F8BDA40B00207C100020B2
:10572000AC0B0020EC0B0020F00B0020880B0020BD
:10573000064A13681968064B19B94FF0FF321A6010
:1057400070471268D268D2685268F8E7F00B002000
:10575000880B002010B590F8593004463BB9006B17
:1057600001F0FCF82046BDE8104001F0F7B8012B2D
:10577000F9D0022B08D04FF0500383F31188BFF308
:105780006F8FBFF34F8FFEE710BD000080B5134C45
:10579000134F144D236873B9134B1B68012BF8D9B1
:1057A0004FF0E0234FF08052C3F8042DBFF34F8F2A
:1057B000BFF36F8FEDE700F00DFFFB68DE68301D73
:1057C000FFF734FA2B68013B2B602368013B236011
:1057D00000F020FF3046FFF7BDFFDBE7C00B0020E5
:1057E000C40B0020A80B00201C0C00202DE9F04762
:1057F0000D46DDE90994960032460746A521206B47
:10580000984601F095FE236B043E1E4426F00706E1
:10581000A5B36B1E04F133020F3513F8011F02F814
:10582000011F09B1AB42F8D1002384F84330089D31
:105830004FF0000A372D28BF3725201DE562E564AB
:10584000C4F850A0FFF7CDF9C5F1380504F11800F0
:10585000FFF7C7F9C4F854A04246394630462461E0
:10586000A561646284F858A000F090FE2060B9F150
:10587000000F01D0C9F80040BDE8F08784F834502B
:10588000D5E770B586B0DDE90B5445B94FF050034C
:1058900083F31188BFF36F8FBFF34F8FFEE744B9D7
:1058A0004FF0500383F31188BFF36F8FBFF34F8F17
:1058B000FEE75C260596059E5C2E08D04FF050034F
:1058C00083F31188BFF36F8FBFF34F8FFEE725631C
:1058D000022584F8595004AD01950A9D0294009563
:1058E000059EFFF783FF2046FFF76AFE049806B087
:1058F00070BD2DE9F043074685B0900088461646F6
:10590000994600F093FF054620B94FF0FF3005B0EF
:10591000BDE8F0835C2000F089FF044698B10023C5
:1059200080F859300D9B056301930C9B324641462C
:105930000290009338464B46FFF758FF2046FFF78A
:105940003FFE0120E3E7284601F008F8DDE700000C
:1059500010B5002488B007AA06A905A8CDE905441A
:10596000FEF7D8FF059B079A0293069B1649CDE9DF
:10597000004316482346FFF784FF18B300F02CFCC1
:10598000012814D14FF0500383F31188BFF36F8FB8
:10599000BFF34F8F4FF0FF320D4B1A600D4B186065
:1059A0000D4B1C6008B0BDE8104000F093BE013004
:1059B00008D14FF0500383F31188BFF36F8FBFF30B
:1059C0004F8FFEE708B010BD0DAC00088D570008E2
:1059D000880B00209C0B0020A40B0020024A1368B7
:1059E00001331360704700BF840B0020014B18681F
:1059F000704700BFA40B0020404B2DE9F74F1B68F8
:105A0000002B73D13E4B1C6801341C60BCB93D4B6C
:105A10001A68126842B14FF0500383F31188BFF344
:105A20006F8FBFF34F8FFEE7374A19681068186011
:105A30001160364A136801331360FFF779FE344D65
:105A40004FF0000B2B68334E9C42334F12D214217F
:105A50003A68D26A4A43B258022A304A28BF4FF005
:105A6000010B1268002A18BF4FF0010B584603B013
:105A7000BDE8F08FDFF88C90DFF8A4A0D9F8002003
:105A800012681AB94FF0FF322A60E0E7D9F8002017
:105A9000D268D2F80C80D8F804108C4201D2296068
:105AA000D5E708F1040318460193FFF7BFF8D8F8CB
:105AB000281019B108F11800FFF7B8F81423D8F826
:105AC0002C00DAF80010884288BFCAF8000008F1FC
:105AD000040103FB0060FFF787F83868D8F82C1042
