:020000040800F2
:10000000005000206D2200085D2100085F210008DB
:10001000612100086321000865210008000000003C
:10002000000000000000000000000000A15F0008C8
:100030006721000800000000316000086921000805
:10004000B5220008B5220008B5220008B522000834
:10005000B5220008B5220008B5220008B522000824
:10006000B5220008B5220008B5220008B522000814
:10007000B5220008B5220008B5220008B522000804
:10008000B5220008B5220008B5220008B5220008F4
:10009000B5220008B5220008B5220008B5220008E4
:1000A000B5220008B5220008B5220008B5220008D4
:1000B000B5220008B5220008B5220008B5220008C4
:1000C000B5220008B5220008B5220008B5220008B4
:1000D000B5220008812100088D210008B522000802
:1000E000B5220008B5220008B52200080000000073
:1000F0000000000000000000000000000000000000
:0C01000000000000000000005FF808F1A3
:1001100010B5054C237833B9044B13B10448AFF341
:1001200000800123237010BDE001002000000000CA
:10013000CC90000808B5034B1BB103490348AFF34B
:10014000008008BD00000000E4010020CC90000801
:10015000034613F8012B002AFBD1181A0138704707
:1001600081F0004102E000BF83F0004330B54FEA68
:1001700041044FEA430594EA050F08BF90EA020FD5
:100180001FBF54EA000C55EA020C7FEA645C7FEA68
:10019000655C00F0E2804FEA5454D4EB5555B8BF8B
:1001A0006D420CDD2C4480EA020281EA030382EAFC
:1001B000000083EA010180EA020281EA0303362D8E
:1001C00088BF30BD11F0004F4FEA01314FF4801C61
:1001D0004CEA113102D0404261EB410113F0004F73
:1001E0004FEA03334CEA133302D0524263EB43032A
:1001F00094EA050F00F0A780A4F10104D5F1200EC8
:100200000DDB02FA0EFC22FA05F2801841F1000122
:1002100003FA0EF2801843FA05F359410EE0A5F1F6
:1002200020050EF1200E012A03FA0EFC28BF4CF027
:10023000020C43FA05F3C01851EBE37101F00045DD
:1002400007D54FF0000EDCF1000C7EEB00006EEBEA
:100250000101B1F5801F1BD3B1F5001F0CD3490874
:100260005FEA30004FEA3C0C04F101044FEA4452CB
:1002700012F5800F80F09A80BCF1004F08BF5FEA52
:10028000500C50F1000041EB045141EA050130BD32
:100290005FEA4C0C404141EB0101013C28BFB1F544
:1002A000801FE9D291F0000F04BF01460020B1FA8F
:1002B00081F308BF2033A3F10B03B3F120020CDA62
:1002C0000C3208DD02F1140CC2F10C0201FA0CF040
:1002D00021FA02F10CE002F11402D8BFC2F1200CA5
:1002E00001FA02F120FA0CFCDCBF41EA0C0190405B
:1002F000E41AA2BF01EB0451294330BD6FEA0404A4
:100300001F3C1CDA0C340EDC04F11404C4F120028E
:1003100020FA04F001FA02F340EA030021FA04F3A0
:1003200045EA030130BDC4F10C04C4F1200220FAF7
:1003300002F001FA04F340EA0300294630BD21FA35
:1003400004F0294630BD94F0000F83F4801306BFFB
:1003500081F480110134013D4EE77FEA645C18BFEF
:100360007FEA655C29D094EA050F08BF90EA020F86
:1003700005D054EA000C04BF1946104630BD91EA7E
:10038000030F1EBF0021002030BD5FEA545C05D181
:100390004000494128BF41F0004130BD14F58004C0
:1003A0003CBF01F5801130BD01F0004545F0FE4134
:1003B00041F470014FF0000030BD7FEA645C1ABF69
:1003C000194610467FEA655C1CBF0B46024650EAA0
:1003D000013406BF52EA033591EA030F41F40021CC
:1003E00030BD00BF90F0000F04BF0021704730B552
:1003F0004FF4806404F132044FF000054FF0000127
:1004000050E700BF90F0000F04BF0021704730B5E7
:100410004FF4806404F1320410F0004548BF4042BC
:100420004FF000013EE700BF42004FEAE2014FEA11
:1004300031014FEA02701FBF12F07F4393F07F4FEC
:1004400081F06051704732F07F4208BF704793F0EF
:100450007F4F04BF41F40021704730B54FF4607402
:1004600001F0004521F000411CE700BF50EA010205
:1004700008BF704730B54FF000050AE050EA0102AE
:1004800008BF704730B511F0004502D5404261EB1E
:1004900041014FF4806404F132045FEA915C3FF45F
:1004A000D8AE4FF003025FEADC0C18BF03325FEAFC
:1004B000DC0C18BF033202EBDC02C2F1200300FAAD
:1004C00003FC20FA02F001FA03FE40EA0E0021FAD2
:1004D00002F11444BDE600BF70B54FF0FF0C4CF4C0
:1004E000E06C1CEA11541DBF1CEA135594EA0C0F72
:1004F00095EA0C0F00F0DEF82C4481EA030621EAAD
:100500004C5123EA4C5350EA013518BF52EA0335E7
:1005100041F4801143F4801338D0A0FB02CE4FF099
:100520000005E1FB02E506F00042E0FB03E54FF0C9
:100530000006E1FB03569CF0000F18BF4EF0010EC1
:10054000A4F1FF04B6F5007F64F5407404D25FEABD
:100550004E0E6D4146EB060642EAC62141EA555170
:100560004FEAC52040EA5E504FEACE2EB4F1FD0CB2
:1005700088BFBCF5E06F1ED8BEF1004F08BF5FEA30
:10058000500E50F1000041EB045170BD06F00046E2
:1005900046EA010140EA020081EA0301B4EB5C048F
:1005A000C2BFD4EB0C0541EA045170BD41F4801187
:1005B0004FF0000E013C00F3AB8014F1360FDEBFAC
:1005C000002001F0004170BDC4F10004203C35DA88
:1005D0000C341BDC04F11404C4F1200500FA05F30B
:1005E00020FA04F001FA05F240EA020001F00042AC
:1005F00021F0004110EBD37021FA04F642EB060122
:100600005EEA430E08BF20EAD37070BDC4F10C044B
:10061000C4F1200500FA04F320FA05F001FA04F20F
:1006200040EA020001F0004110EBD37041F10001FB
:100630005EEA430E08BF20EAD37070BDC4F1200506
:1006400000FA05F24EEA020E20FA04F301FA05F26E
:1006500043EA020321FA04F001F0004121FA04F216
:1006600020EA020000EBD3705EEA430E08BF20EAE6
:10067000D37070BD94F0000F0FD101F00046400020
:1006800041EB010111F4801F08BF013CF7D041EAA2
:10069000060195F0000F18BF704703F000465200A6
:1006A00043EB030313F4801F08BF013DF7D043EA77
:1006B0000603704794EA0C0F0CEA135518BF95EA2D
:1006C0000C0F0CD050EA410618BF52EA4306D1D1B4
:1006D00081EA030101F000414FF0000070BD50EAD3
:1006E000410606BF1046194652EA430619D094EA5D
:1006F0000C0F02D150EA013613D195EA0C0F05D147
:1007000052EA03361CBF104619460AD181EA03019A
:1007100001F0004141F0FE4141F470014FF0000052
:1007200070BD41F0FE4141F4780170BD70B54FF0ED
:10073000FF0C4CF4E06C1CEA11541DBF1CEA13556D
:1007400094EA0C0F95EA0C0F00F0A7F8A4EB05044F
:1007500081EA030E52EA03354FEA013100F0888046
:100760004FEA03334FF0805545EA131343EA12630F
:100770004FEA022245EA111545EA10654FEA0026C4
:100780000EF000419D4208BF964244F1FD0404F57D
:10079000407402D25B084FEA3202B61A65EB0305D9
:1007A0005B084FEA32024FF480104FF4002CB6EB96
:1007B000020E75EB030E22BFB61A754640EA0C0016
:1007C0005B084FEA3202B6EB020E75EB030E22BF56
:1007D000B61A754640EA5C005B084FEA3202B6EB97
:1007E000020E75EB030E22BFB61A754640EA9C0056
:1007F0005B084FEA3202B6EB020E75EB030E22BF26
:10080000B61A754640EADC0055EA060E18D04FEAE3
:10081000051545EA16754FEA06164FEAC30343EA83
:1008200052734FEAC2025FEA1C1CC0D111F4801F50
:100830000BD141EA00014FF000004FF0004CB6E749
:1008400011F4801F04BF01430020B4F1FD0C88BFE8
:10085000BCF5E06F3FF6AFAEB5EB030C04BFB6EBF3
:10086000020C5FEA500C50F1000041EB045170BDE6
:100870000EF0004E4EEA113114EB5C04C2BFD4EB13
:100880000C0541EA045170BD41F480114FF0000E97
:10089000013C90E645EA060E8DE60CEA135594EA13
:1008A0000C0F08BF95EA0C0F3FF43BAF94EA0C0F16
:1008B0000AD150EA01347FF434AF95EA0C0F7FF48B
:1008C00025AF104619462CE795EA0C0F06D152EADF
:1008D00003353FF4FDAE1046194622E750EA4106C3
:1008E00018BF52EA43067FF4C5AE50EA41047FF4D4
:1008F0000DAF52EA43057FF4EBAE12E74FF0FF3C39
:1009000006E000BF4FF0010C02E000BF4FF0010C09
:100910004DF804CD4FEA410C7FEA6C5C4FEA430C82
:1009200018BF7FEA6C5C1BD001B050EA410C0CBFD1
:1009300052EA430C91EA030F02BF90EA020F002033
:10094000704710F1000F91EA030F58BF994208BF9A
:1009500090422CBFD8176FEAE37040F00100704757
:100960004FEA410C7FEA6C5C02D150EA013C07D1AE
:100970004FEA430C7FEA6C5CD6D152EA033CD3D0F9
:100980005DF8040B704700BF8446104662468C46F3
:100990001946634600E000BF01B5FFF7B7FF002826
:1009A00048BF10F1000F01BD4DF808EDFFF7F4FF4F
:1009B0000CBF012000205DF808FB00BF4DF808EDDA
:1009C000FFF7EAFF34BF012000205DF808FB00BFFD
:1009D0004DF808EDFFF7E0FF94BF012000205DF81F
:1009E00008FB00BF4DF808EDFFF7CEFF94BF0120D4
:1009F00000205DF808FB00BF4DF808EDFFF7C4FFCD
:100A000034BF012000205DF808FB00BF4FEA410C15
:100A10007FEA6C5C02D150EA013C0AD14FEA430CF8
:100A20007FEA6C5C02D152EA033C02D14FF0000035
:100A300070474FF0010070474FEA410212F5001273
:100A400015D211D56FF47873B3EB625212D94FEA15
:100A5000C12343F0004343EA505311F0004F23FAFF
:100A600002F018BF404270474FF00000704750EA54
:100A7000013005D111F0004008BF6FF00040704711
:100A80004FF00000704700BF08B50A480A4A0B4BF8
:100A9000C0E9002300234FF48042C0E90233C0E9DB
:100AA0000423C0E90633036201F0B4FF08B172B653
:100AB000FEE708BD2008002000540040A086010089
:100AC0000FB413B50B4C04AB53F8042B8021204614
:100AD000019306F007FA2046FFF73AFB642382B23F
:100AE0002146054803F023F802B0BDE8104004B0E9
:100AF000704700BF0C02002090070020262810B588
:100B00000C4643D8092800D810BD0A381C28FBD849
:100B100001A353F820F000BFAB0B0008B70B00088F
:100B2000BB0B0008BF0B0008C30B0008090B000833
:100B3000090B0008090B0008090B0008090B000845
:100B4000090B0008090B0008090B0008090B000835
:100B5000090B0008090B0008090B0008090B000825
:100B6000090B0008090B0008090B0008090B000815
:100B7000FB0B0008FB0B0008C90B0008D50B000895
:100B8000D90B0008E50B0008FF0B0008A0F58073E7
:100B9000082BB9D86FF48073184407283AD8DFE8D7
:100BA00000F03C565A4E5E5E616380212F4801F092
:100BB000FBFD2080A8E74021F8E72021F6E710217F
:100BC000F4E72B4B1B7803E02A4B1B78C3F340035D
:100BD000238099E7284BF8E7284B1B78002BF7D0A8
:100BE000274BEFE7254B1B783BB1264B1B78012B9E
:100BF00003D9254B1B885BBAEAE70023E8E71F4BC4
:100C00001B78002BF9D01F4B1B78032BF5D91E4BFB
:100C10005B88F0E71D4B1B7ADAE71C4BD3F86C348A
:100C2000B3F5164F11D007D8B3F5165F09D0B3F559
:100C3000964F08D00523CBE7B3F5614FFAD10423D3
:100C4000C6E70123C4E70223C2E70323C0E70F4B33
:100C500093F87034BCE70D4B93F87134B8E740F269
:100C60000113B5E7034BADE7034BABE700080140C9
:100C70008F0200208E0200208D02002094020020AE
:100C8000950200209602002097020020A00200207A
:100C9000A0F5807010B50C46092853D8DFE800F0A5
:100CA000050F25335252525252424B1EF62B49D851
:100CB000254B26481972BDE81040FFF701BF4C1EB6
:100CC000A4B2032C8CBF4FF4E134214B1E4898BFD3
:100CD00033F8144090F87024214690F8713400F0F5
:100CE00029FD78BB21461B48E5E702292AD816488A
:100CF000CAB290F87134D0F86C1400F01BFD08BB38
:100D000021461548D7E74B1E012B1BD80E48CBB206
:100D100090F87024D0F86C1400F00CFD90B92146C6
:100D20000E48C8E701290DD100240D4B0D481C7059
:100D3000FFF7C6FE2246BDE810404FF400410A48C6
:100D400001F038BD10BD00BFA0020020E8900008EF
:100D5000889900080E910008309100084F91000812
:100D60008D020020719100080010014070B50E48FE
:100D7000FFF7A6FE0D4D0E4E8021284601F014FD12
:100D800004464021284601F00FFD012C07D101380F
:100D900018BF01203070C82003F062F9ECE7012889
:100DA00018BF0220F6E700BF879100080008014045
:100DB0008F0200202DE9F843324E3348FFF780FEC2
:100DC0000121306803F069F90025304C304FDFF81D
:100DD000C4804FF47A7300220821306803F0A4F92C
:100DE000831C2FD001072DD501F0A8FA42F20F7312
:100DF000401B984208D80821306803F077F94FF477
:100E00007A7003F02DF9E4E72348FFF759FE01F06B
:100E100095FA08210546306803F068F92378DA0767
:100E200006D51E48FFF74CFE237803F0FE0323701F
:100E300023789B0706D51A48FFF742FE237803F074
:100E4000FD032370237803F0FF099BB101224FF4C7
:100E50000041384601F0AEFC01224FF4807140465B
:100E600001F0A8FC38464FF4005101F0A8FC4FF403
:100E7000FA70C6E74A464FF40041384601F09AFC42
:100E80004A46EAE700020020A79100088D020020F0
:100E90000010014000080140CA910008FA910008C2
:100EA0001592000808B50548FFF70AFE044C2046D5
:100EB00000F0EEFC012003F0D3F8F8E730920008D0
:100EC000A00200202DE9F04F764F85B07648FFF75D
:100ED000F7FD012142F210730022386803F024F973
:100EE00000F09CFF0146002873D07048FFF7E8FD32
:100EF000FF2000F0A7FF00286FD06D48FFF7E0FD4E
:100F000000F040FF00286AD16A48FFF7D9FDDFF8FA
:100F1000A8816A4D6A4E98F80010002900F0A6805A
:100F2000684B1B789B0740F1A1806421286803F07F
:100F30005DF90446002873D14FF4FA630DF10702FE
:100F400002A98DF8070000F0B5FF00287AD09DF8BF
:100F50000730002B76D05C48FFF7B2FD5B48FFF707
:100F6000AFFDDFF86C919DF80720E3B29A4238D8C4
:100F70005848FFF7A5FD002399469DF8070002A9F0
:100F8000DAB2904236D8DFF850A1DFF850B1DAF883
:100F900000304B4538D049465148FFF791FD9DF848
:100FA00007405048224602A906F047F801224E4B5E
:100FB000042C1C708BF800204C4BCAF8009034D1E4
:100FC0004B481A70FFF77CFD0221386803F065F882
:100FD0001EE04848FFF774FD8AE747488EE7474818
:100FE00093E710336B44484613F8081CFFF768FD7D
:100FF0000134B8E7042BC6D011F8012BDC00A24065
:1010000049EA02090133BBE79BF80030002BC2D04C
:101010003B4A137803F0FD031370286803F009F9C5
:101020004FF4FA7003F01CF875E7072C03D1022285
:1010300034481A70C6E70022214633481A70FFF779
:101040003FFDC1E7254C2378002BE1D02F48FFF767
:1010500037FD0023244A23701370244A13701E4A5C
:101060001360204A1360C2F80330D1E733680133BC
:10107000312B336006D9134B25481A78FFF720FD32
:10108000002333600A21286803F0B0F80028C7D194
:10109000124B1870144B1870144B18700E4B1860CC
:1010A000BBE700BF000200205292000872920008C5
:1010B000B0920008F99200088C020020080200207B
:1010C000FC0100208E0200202F930008539300089B
:1010D000599300089897000890020020940200207D
:1010E0005F930008970200209602002095020020DE
:1010F000819300088F920008D39200081293000891
:101100008D020020AA930008D6930008F9930008E6
:1011100008940008202210B590B000210DEB0200C9
:1011200005F0FEFE0021142201A805F0F9FE0224BC
:1011300001224FF4803306A8CDE90623CDE90D4303
:101140000A9202F063F8014608B172B6FEE70F2377
:10115000CDE90300059001A8CDE9013402F018FAA9
:1011600008B172B6FEE710B010BD0000F8B54F48E8
:101170004F4CFFF7A5FC242229214E48FFF7A0FC85
:1011800061684D48FFF79CFC94F83D104B48FFF711
:1011900097FC94F83D202A2AD3B221D81F2B02D8DD
:1011A00033B3474825E0203B0A2BFAD801A252F876
:1011B00023F000BF551200085D12000861120008FC
:1011C000A311000859120008A3110008A311000878
:1011D000A311000865120008691200086D120008CA
:1011E000A02B45D0E02B45D0602BDAD1354800E06C
:1011F0003548FFF765FC94F83D30202B12D033487A
:10120000FFF75EFC2A4801F0ADFC0A2001F09CF8D3
:10121000FFF73AFC322001F097F894F83D102C4883
:10122000FFF74EFC0124224D2A4E2B4F6100012274
:101230006423284689B201F035FF024650BB21469F
:101240003846FFF73DFC292C16D12448FFF738FC1F
:101250002A24EBE72248CCE72248CAE72248C8E71D
:101260002248C6E72248C4E72248C2E72248C0E72E
:101270002248BEE72248BCE7242C04D12148FFF7CE
:101280001FFC2524D2E72048FFF71AFC0134802CEC
:10129000CCD1F8BD0328F9D0292C01D0242CF5D1CC
:1012A00021463046FFF70CFC0134BFE74F9400089D
:1012B00020080020699400089D940008B794000855
:1012C0004D9500082D950008C79400085995000811
:1012D0007F9500081A960008A5950008CA95000891
:1012E000D1940008DB940008E4940008F09400080E
:1012F000FC940008079500081A9500083795000827
:1013000043950008E5950008049600082DE9F04192
:101310000024294F294E3C703470FFF727FF2848DE
:10132000FFF7CEFB274D284BDFF8A0802B6048232A
:101330002B71274BAC60AC812B612346013413B376
:1013400040462146FFF7BCFB4FF4FA7000F0FCFF6B
:10135000284600F04BFD032C17D00028EDD11D4886
:10136000FFF7AEFB3B7843F002033B7001221A4BC0
:101370001A481A70FFF7A4FB397819483278BDE88B
:10138000F041FFF79DBB6420E0E70028E7D0154857
:10139000FFF796FB3378012243F002034FF400413C
:1013A0001148337001F006FA01224FF480710F48A2
:1013B00001F000FADAE700BF8E0200208D02002063
:1013C0004596000824070020200800205D960008AC
:1013D000C10A0008789600088C020020B696000822
:1013E000D8960008999600080010014000080140B6
:1013F00080B58AB000F084FFFFF78CFE1022002138
:1014000006A805F08DFD924B4FF460419A69914812
:1014100042F010029A619A69002402F010020092D0
:10142000009A9A69022542F020029A619A6901277E
:1014300002F020020192019A9A694FF4807842F0FA
:1014400004029A619A694FF4E13602F004020292B2
:10145000029A9A6942F008029A619B69002203F09D
:1014600008030393039B01F0A5F900224FF4807158
:10147000794801F09FF94FF46043764806A9CDE919
:101480000637CDE9084501F04DF8F023724806A96A
:10149000CDE90634089501F045F8CDE908450C255D
:1014A0006D4806A9CDE9068701F03CF8FFF7ECFA94
:1014B0006A486B4BC0E90244C0E90036C0E90554F4
:1014C0000461C46102F0EAFA08B172B6FEE7654C45
:1014D000654BC4E90200C4E90405C4E906002046DE
:1014E000C4E9003602F0DAFA064608B172B6FEE741
:1014F0000146102206A805F013FD4FF080435B4D16
:10150000CDE90466C5E900364FF6FF732846C5E904
:101510000336AE60AE6102F029F908B172B6FEE79B
:101520004FF48053284606A9069302F055F908B1F6
:1015300072B6FEE7CDE9040004A9284602F0E6F9F8
:1015400008B172B6FEE74FF47A7000F0FDFEFFF7C7
:10155000DDFE214604232A46454800F0BDF8044636
:10156000002871D14348FFF7ABFA04214248FFF746
:10157000A7FA4248FFF7A4FA4148FFF7A1FA414908
:101580003B4800F03CFB4049394800F03CFB04225A
:101590004146374800F028FB04224FF4827134485A
:1015A00000F022FB40F2011240F20511304800F039
:1015B0001BFB40F201124FF483712D4800F014FB25
:1015C000052240F201112A4800F00EFB22464FF49A
:1015D0008171274800F008FB3A4640F20311244885
:1015E00000F002FB02F0CCFC284802F0C7FD284BBB
:1015F00000211860274A012002F03AFE264B002104
:101600001860264A264802F0E7FC264B00211860A5
:10161000254A264802F0E0FC254B00211860254AA7
:10162000254802F0D9FC254B00211860244A2548A2
:1016300002F0D2FC244B1860244802F01DFD244B1C
:10164000186002F0AFFCFEE72248FFF739FAC9E75D
:1016500000100240001001400008014090070020E7
:10166000003801404807002000440040D80700200F
:10167000A00200200697000832970008489700084B
:101680005D970008FD0A0008910C0008B099000859
:1016900008020020A0990008040200202C9A0008EB
:1016A000B50D000844070020089A0008A50E0008A0
:1016B00040070020E4990008C50E00083C07002000
:1016C000C09900086D0D00083807002090990008A7
:1016D000000200207B970008F8B50D4617461E460D
:1016E000044610B309B302B3013BDBB2F62B1CD89E
:1016F00040F28442002105F013FC4FF4E1332672DE
:1017000001264FF416720021C4F86C34C4E9005766
:1017100084F8716404F10A0005F002FC32462846A0
:10172000034902F01CFC0020F8BD0120FCE700BFCB
:101730007808002038B50446002836D0C0F86C146C
:1017400080F8702480F87134006802F0D6F9002225
:10175000D4F86C3420684360826094F87134991E28
:101760004B424B415B03C36094F87034012B03D0B0
:10177000022B17D0026105E04FF4806303614FF440
:101780008053836000230C22C361C0E9052302F06B
:1017900085F9054620B901220549206802F0DFFBE2
:1017A000284638BD4FF4C063E8E70125F8E700BFDD
:1017B00078080020024601444FF6FF7030B5094D0D
:1017C0008A4200D130BD082412F8013B584040F352
:1017D00000032B4083EA500398B2631E13F0FF040A
:1017E000F5D1EDE701A0FFFF70B5B0F8685400F542
:1017F0005A76044629463046FFF7DCFF631983F822
:1018000068030323AA1C0135ADB292B22544000A35
:10181000A4F8682485F86803314684F86A3420689F
:10182000642302F084F9002284F86A24A4F8622375
:101830004FF48041BDE87040014800F0BBBF00BFDD
:1018400000100140B0F8623310B5FF2B044613D8E6
:10185000C218013382F86212A0F8623300F06EFD04
:101860000123C4F8640384F86A3420680122BDE8C7
:101870001040064902F073BBD0F878340133C0F849
:1018800078340023A0F86233EDE700BF7808002029
:101890002DE9F347044600F051FDB84B05461A68A0
:1018A000824233D0186094F86A34012B1AD0032B8B
:1018B000206800F0918190F84230222B06D000235E
:1018C0000122AF49A4F8623302F049FBB4F8623355
:1018D000E3B1D4F86433E81A632884BF0023A4F882
:1018E000623313E0D4F86433C31A042B0ED9B4F86E
:1018F000625335B1032D0CD8D4F878340133C4F8D1
:1019000078340023A4F8623384F86A3402B0BDE866
:10191000F08704F26226A91E304689B2FFF74AFF1B
:10192000354415F8012C15F8023C43EA02238342A2
:10193000E2D194F86232227A9A4201D0002BE0D1AF
:1019400001224FF480418F4800F034FF94F8633255
:10195000062B00F0CA801AD8032B217A23D0042B3F
:101960007CD063F07F0384F86933012384F86A3301
:101970000323227AA4F86834204684F86823FFF70A
:1019800033FFD4F878340133C4F878341BE0102BDB
:10199000E7D1B4F862130A2900F2D080237A84F8E0
:1019A0006833902361E0B4F86223082A11D08322BF
:1019B00084F8681384F8692384F86A33A4F86834D7
:1019C0002046FFF711FFD4F874340133C4F874349F
:1019D00097E7B4F86622B4F8645252BA92B2501E35
:1019E0006DBA7C28ADB206D8B5F5967F03D2A8189B
:1019F000B0F5967F09DD832384F8681384F8693392
:101A0000022384F86A330323D8E7A046560005F181
:101A1000040984F8681384F8693384F86A6304EB72
:101A2000490987B239F8023FADF80630D4F87C3462
:101A30001BB128460DF106019847BDF80630013567
:101A4000ADB21A0ABD4288F86B2388F86C3308F1EE
:101A50000208E7D1F21CA4F86824B1E7B4F86223C5
:101A6000082A06D0842384F8681384F86933032392
:101A7000A2E7B4F86622B4F8645252BA92B2501E89
:101A80006DBA7C28ADB206D8B5F5967F03D2A818FA
:101A9000B0F5967F03DD842384F86813AEE7A04693
:101AA000560005F1040984F8681384F8693384F852
:101AB0006A6304EB490987B239F8023FADF8063092
:101AC000D4F87C341BB128460DF106019847BDF8C7
:101AD00006300135ADB21A0ABD4288F86B2388F88A
:101AE0006C3308F10208E7D1B4E7B4F86233082B8D
:101AF00004D0237A84F868338623B6E7B4F8640206
:101B0000B4F8663240BA80B25BBAB0F5967F99B24B
:101B100004D3237A84F8683386236FE704EB40020A
:101B20005381D4F8803403B19847D4F86232C4F8B2
:101B30006833B388A4F86C3306233FE7B4F8663201
:101B4000B4F864725BBA9EB2721E7A2A94F8683254
:101B50000ED8B3EB460F0BD17DBAADB2B5F5967F7B
:101B600006D2AA19B2F5967F02DC093399420BD04E
:101B7000237A84F86833902340E700BF740800207C
:101B80007808002000100140A04605F1040904EB8C
:101B900049091FFA82FA98F8693298F86A1241EAFC
:101BA0000321D4F8803429F8021F0BB12846984746
:101BB0000135ADB2AA4508F10208ECD1237AA4F8A8
:101BC0006A7384F86833102384F86933002384F837
:101BD0006D6384F86C33AFE790F84130202B7FF4CD
:101BE00095AE002390E600BF40B1B1F5967F04D2D8
:101BF00000EB41004281012070470020704708B18E
:101C0000C0F87C14704708B1C0F880147047000019
:101C1000F0B5041E08BF4FF47A74002564270D4EFA
:101C200085B0306801230179009700680DF10F023B
:101C300001F08CF828B99DF80F00012801D105B0FA
:101C4000F0BD0A200A3500F07FFBAC42E9D8002045
:101C5000F5E700BF7C080020F0B54B1CDBB283B079
:101C6000DA1D02F4FC7202AFADEB020D6A46642687
:101C700005460C4608490868017942F8086B006877
:101C800001F064F8224628460DF1090105F0D5F966
:101C90000437BD46F0BD00BF7C08002010B50B4CDA
:101CA0002368986888B19989002200F083FD0A2092
:101CB00000F04AFB236801229868998900F07AFDB8
:101CC000BDE81040322000F03FBB10BD7C08002072
:101CD0000B462DE9F0410024154603F10F0284B0B4
:101CE00002F4FC726E4602AFADEB020D02AA8DF853
:101CF00008405470FF2494705C1CD470DC43147151
:101D0000D424073154710DF10D0C00EB030840454C
:101D10001AD1D018644284710020642450541749A9
:101D20000833086801790094006800F035FF02204C
:101D3000B54600F009FB2846FFF76AFF58B90020B6
:101D40000837BD46BDE8F08110F801EB74440CF88B
:101D500001EFE4B2DBE706213846FFF77DFF0622FC
:101D60003846074905F0CCF80028E8D1022000F0F9
:101D7000EBFA2846FFF74CFFE2E700BF7C080020A3
:101D8000000000201422012310B50A4C0421227007
:101D9000A270204664226370E370FFF799FF40B1A0
:101DA00020460921FFF758FFA079A0F115035842FA
:101DB000584110BD800800201FB555238DF80F3005
:101DC000094B0DF10F021868642301790093006834
:101DD000012300F0E1FE0A2000F0B6FAFFF7D2FF7F
:101DE00005B05DF804FB00BF7C08002008B5094B76
:101DF000186060B103690BB107489847FFF74EFFC1
:101E0000642000F0A1FAFFF7D7FF002008BD0120F1
:101E1000FCE700BF7C080020E9970008022310B50A
:101E2000074C6422012120462370FFF751FF30B197
:101E300020460D21FFF710FFD4F8060000BA10BDB0
:101E40008008002038B532230A4C05212370FF2377
:101E5000A37001232071642220466170E370FFF7B4
:101E600037FF054618B109212046FFF7F5FE284641
:101E700038BD00BF8008002070B50D4C05460E46E9
:101E800020461421FFF7E8FEE379012B0DD1002253
:101E9000237B3370217BD3B2994201D8012070BDDE
:101EA000E118497B0132E954F4E70020F7E700BF6D
:101EB0008008002070B516464A221C46104BB4F527
:101EC0007A7F1A704FF001020D465A7098702246C0
:101ED0004FF0030128BF4FF47A721846FFF7F8FE5F
:101EE00060B1322000F030FA2046FFF791FE28B1B1
:101EF00031462846BDE87040FFF7BEBF002070BDE8
:101F000080080020114B07B59A690F2142F00102A9
:101F10009A619A696FF0010002F001020092009A42
:101F2000DA6942F08052DA61DB69002203F0805303
:101F30000193019B00F02CFA054A536823F0E063FB
:101F400043F00073536003B05DF804FB00100240DF
:101F50000000014010B5044686B01022002102A8FE
:101F600004F0DEFF2268114B9A421CD1104CC022B3
:101F7000A369104843F00803A361A36902A903F011
:101F800008030093009B1223CDE90223032305934A
:101F900000F0C8FAE36943F40013E361E36903F472
:101FA00000130193019B06B010BD00BF0054004018
:101FB00000100240000C014008B50268094B9A422B
:101FC0000ED1094A4021D369084823F40013D36194
:101FD00000F07CFBBDE808408021044800F076BB9F
:101FE00008BD00BF0054004000100240000C01403A
:101FF000036882B0B3F1804F0AD103F50433DA6984
:1020000042F00102DA61DB6903F001030193019BF5
:1020100002B07047102210B5044688B00DEB0200E4
:10202000002104F07DFF2368324A934231D1324BC4
:102030004FF400719A69314842F480429A619A697A
:10204000002402F480420092009A9A6942F004024D
:102050009A619B6903F004030193019B0223CDE97C
:102060000413032304A9079300F05CFA4FF4806380
:10207000224804A9CDE90434069400F053FA25203F
:102080002246052100F084F9252000F0B1F908B0BE
:1020900010BD1B4A9342FAD1174B1848DA6904A9BC
:1020A00042F40032DA61DA69002402F4003202926A
:1020B000029A9A6942F004029A619B69042203F031
:1020C00004030393039B0223CDE904230323079313
:1020D00000F028FA0823094804A9CDE9043406943D
:1020E00000F020FA26202246052100F051F9262092
:1020F000CBE700BF0038014000100240000801405B
:102100000044004008B5124A036893420FD102F51B
:10211000584293690F4823F480434FF4C0619361A0
:1021200000F0D4FA2520BDE8084000F06FB90A4A53
:1021300093420BD102F5E632D369064823F400330B
:102140000C21D36100F0C2FA2620ECE708BD00BFE5
:10215000003801400008014000440040FEE7FEE76F
:10216000FEE7FEE7FEE7704708B500F0DBF803F096
:10217000E3FB012803D0BDE8084003F07BBF08BDA6
:10218000014801F089BD00BF90070020014801F01F
:1021900083BD00BF480700200268044B9A4204D167
:1021A000034B04481978FFF74DBB704700440040CB
:1021B00078080020A00200200120704708B504F034
:1021C00001FF162303604FF0FF3008BD08B504F08F
:1021D000F9FE16230360FEE770B50D4614460E4661
:1021E000731B9C4201DC204670BDAFF3008006F8F3
:1021F000010BF5E770B50D4614460E46731B9C4265
:1022000001DC204670BD16F8010BAFF30080F5E746
:102210004FF0FF3070474FF4005300204B60704781
:1022200001207047002070470B4A0346116810B523
:1022300009B90A491160106809490A4C0344091B8D
:102240008B4206D904F0BEFE0C2303604FF0FF3032
:1022500010BD1360FCE700BFC0080020603F0020F5
:10226000005000200004000070470000FFF7FCFF52
:102270000B480C490C4A002302E0D458C4500433E4
:10228000C4188C42F9D3094A094C002301E01360B9
:102290000432A242FBD304F09BFEFFF7A9F870477B
:1022A00000000020E00100208C9C0008E0010020DC
:1022B000603F0020FEE7000038B50E4B05461A7857
:1022C0004FF47A73B3FBF2F30B4A1068B0FBF3F0F0
:1022D00000F0AEF8044658B90F2D09D80246294639
:1022E0004FF0FF3000F054F82046044B1D6038BD1D
:1022F0000120FCE70C000020080000201000002056
:10230000074A08B51368032043F01003136000F078
:102310002DF80F20FFF7D0FFFFF7F4FD002008BDD8
:1023200000200240034A044B11681B780B441360E1
:10233000704700BFC40800200C000020014B186843
:10234000704700BFC408002038B50446FFF7F6FF09
:102350000546631C1EBF044B1B78E418FFF7EEFF15
:10236000431BA342FAD338BD0C00002007490302E7
:10237000CA6803F4E06322F4E0621204120C13430F
:1023800043F0BF6343F40033CB60704700ED00E0DF
:10239000154B30B5DC68C4F30224C4F10703251DD6
:1023A000042B28BF0423062D4FF0FF3594BF0024D3
:1023B000033C05FA03F321EA0303A54022EA0502E0
:1023C000A340002843EA0203ACBF00F16040074A83
:1023D0004FEA0313DBB2ABBF00F5614000F00F0022
:1023E00080F80033135430BD00ED00E014ED00E040
:1023F000002807DB01234109034A00F01F00834046
:1024000042F82130704700BF00E100E000280CDBFB
:1024100001220649430900F01F008240203341F8A1
:102420002320BFF34F8FBFF36F8F704700E100E0B1
:102430000138B0F1807F0BD24FF0E023F021054A44
:10244000586182F823100020072298611A617047B2
:102450000120704700ED00E090F821200346022A99
:1024600006D0042282630120002283F820207047D6
:102470000268C06B116821F00E011160116821F033
:102480000101116001211A6C01FA02F24260002080
:1024900083F82110E8E7000008B590F82130022BFE
:1024A00003D004238363012008BD03681A6822F067
:1024B0000E021A601A6822F001021A60174A93424B
:1024C0001FD0143293421ED0143293421DD01432C6
:1024D00093421DD0143293421DD01432934214BF44
:1024E0004FF080734FF480130D4A5360012380F83E
:1024F0002130002380F82030436B03B1984700203F
:10250000D2E70123F0E71023EEE74FF48073EBE707
:102510004FF48053E8E74FF48033E5E708000240CA
:10252000000002402DE9F74F00244FF00F0E264621
:10253000DFF884C1614B00F104080A6832FA06F53D
:1025400002D103B0BDE8F08F012505FA06F702EAD3
:10255000070537EA020276D14A68032A07D8013A0A
:10256000022A00F28380DFE802F091969C00122A92
:1025700000F0948069D8112A00F08A80FF2D94BF62
:102580008146C1464FEA8602D9F8007088BF203ADA
:102590000EFA02FA27EA0A0704FA02F21743C9F808
:1025A0000070D1F8049019F0805F4CD0DCF818204E
:1025B00026F0030742F00102CCF81820DCF81820BE
:1025C00007F1804702F00102019207F5803706F01B
:1025D000030A019A4FEA8A0ABA680EFA0AFB22EA4B
:1025E0000B0B374A904260D002F5806290425ED079
:1025F00002F5806290425CD002F58062904214BF86
:102600000422032202FA0AF242EA0B02BA609A6832
:1026100019F4801F14BF2A43AA439A60DA6819F498
:10262000001F14BF2A43AA43DA605A6819F4003F16
:1026300014BF2A43AA435A601A6819F4803F14BF92
:102640002A43AA431A60013677E7DFF878904A45B3
:102650000CD014D8A9F580194A4507D009F570297E
:102660004A4503D0A9F580194A4587D18A68D2B175
:10267000012A4FF008040CBF076147617EE7DFF8CD
:1026800048904A45F2D009F58039EDE7CC6875E706
:10269000CC68043472E7CC6808346FE7CC680C343B
:1026A0006CE700246AE7042468E70022AAE7012215
:1026B000A8E70222A6E700BF001002400004014084
:1026C0000008014000002210000031102DE9F74FF2
:1026D0004FF0040B00224FF0010A4FF00F0800EBFF
:1026E0000B0301932E4B31FA02F402D103B0BDE883
:1026F000F08F0AFA02F70F4049D022F0030404F1E8
:10270000804404F5803402F0030CA5684FEA8C0C79
:1027100008FA0CF909EA050E224DA84239D005F550
:102720008065A84237D005F58065A84235D005F50B
:102730008065A84214BF0425032505FA0CF57545EC
:102740006FEA07060FD11D6835401D605D68354092
:102750005D60DD683540DD609D6835409D60A56841
:1027600025EA0905A560FF2F94BF0746019F4FEAA0
:1027700082043D6888BF203C08FA04FC25EA0C0569
:102780000BFA04F425433D60C4683440C460013250
:10279000A9E70025D1E70125CFE70225CDE700BF56
:1027A00000040140000801408368194214BF012061
:1027B000002070470AB1016170470904FBE7C36854
:1027C00001EA030221EA030141EA02410161704783
:1027D000016800224B6913F4806310D06FF48063AA
:1027E0004B612023026380F83D3080F83E20036C6B
:1027F00080F83C2043F0040303640120704718462E
:1028000070472DE9F84606460F4691461D464FEAA9
:10281000114A3368BAF1010F0CBF5C699C6927EA61
:102820000404A4B2B4FA84F46409A14501D00020E0
:1028300025E06A1CEED0FFF781FD089BC01AA84274
:1028400001D8002DE5D13368BAF1010F0CBF5B69E7
:102850009B6927EA03039BB2B3FA83F35B099945AB
:10286000D7D1002320220120336386F83D2086F84B
:102870003E30326C86F83C3042F020023264BDE8D3
:10288000F8862DE9F04104460F461646984625681D
:10289000686927EA000080B2C0B16B695A0517D594
:1028A0002B68202243F400732B606FF480636B610C
:1028B0000023236384F83D2084F83E30236C43F0EA
:1028C000040323640023012084F83C30BDE8F08138
:1028D000731CDDD0FFF732FDA0EB0800B04201D839
:1028E000002ED4D123685A6927EA020292B2002A44
:1028F000CDD000232022236384F83D2084F83E308D
:10290000236C1343DDE770B504460D461646236875
:102910005B691B0601D500201EE02046FFF758FF2B
:10292000C8B96A1CF3D0FFF709FD801BA84201D883
:10293000002DECD123685B6913F08003E7D12022DE
:10294000236384F83D2084F83E30226C84F83C30C8
:1029500042F020022264012070BD70B504460D468D
:10296000164623685B695B0701D500201EE0204600
:10297000FFF72EFFC8B96A1CF3D0FFF7DFFC801BFE
:10298000A84201D8002DECD123685B6913F0040341
:10299000E7D12022236384F83D2084F83E30226C66
:1029A00084F83C3042F020022264012070BD70B5F2
:1029B00004460D46164621684B6913F0400301D0CA
:1029C000002011E04A69D2060FD56FF010024A616B
:1029D0002022236384F83D2084F83E30236C236456
:1029E0000023012084F83C3070BDFFF7A7FC801B5A
:1029F000A84201D8002DDED123685B6913F04003A3
:102A0000D9D12022236384F83D2084F83E30236C02
:102A10001343E4E770B5044608B9012070BD90F88F
:102A20003D3003F0FF021BB980F83C20FFF792FA1B
:102A3000242384F83D3023681A6822F001021A60CA
:102A40001A6842F400421A601A6822F400421A60BE
:102A500000F03AFE3F4B65689D4294BF3E4B3F4BB2
:102A600098428CBF00230123002BD6D1394E3C4B1A
:102A7000B542B0FBF3F388BF4FF4967622685168F5
:102A800021F03F0141EA030182BF73434FF47A769C
:102A9000B3FBF6F35160116A013321F03F010B43A0
:102AA0001362D169431E2B4821F44F41854221F026
:102AB000FF0132D86D00B3FBF5F340F6FC70013333
:102AC000034242D0C3F30B031943D1611168D4E927
:102AD000073021F0C00103430B4313609168D4E930
:102AE000030321F40341034321F0FF010B439360EF
:102AF000D168D4E9053021F0FF0103430B43D360D3
:102B00001368002043F0010313602023206484F83D
:102B10003D30206384F83E0080E7A06850B905EBA3
:102B20004505B3FBF5F30133C3F30B037BB143F46A
:102B30000043C9E719206843B3FBF0F30133C3F343
:102B40000B0323B143F44043BEE70423BCE7012356
:102B5000BAE700BFA08601007F841E00FF083D0089
:102B600040420F0010B5044698B12423026880F853
:102B70003D30136823F001031360FFF71DFA0020B6
:102B8000206484F83C0084F83D00206384F83E0013
:102B900010BD0120FCE700002DE9F043044685B09C
:102BA00098460D4691460C9FFFF7C8FB94F83D30C0
:102BB0000646202B04D00225284605B0BDE8F08348
:102BC00000901923012220465C49FFF71AFE0028D5
:102BD000F1D194F83C30012BEDD00123216884F829
:102BE0003C300B68DA075EBF0B6843F001030B60F3
:102BF0000B6823F400630B60212384F83D3010231D
:102C000084F83E3000232364A4F82A80638DC4F83E
:102C1000249023854A4BE362E36A082B04D0012BFE
:102C200002D013F5803F04D10B6843F480730B602E
:102C300002E0236B122BF7D000223B464FF001112C
:102C400020460096FFF7DDFD226840B11368DB05E2
:102C500001D40125B0E74FF400732364F9E7236939
:102C6000B3F5804F21D105F0FE05156133463A4694
:102C700020463449FFF705FE05460028E9D12368C0
:102C800003905A6903929B690393039B238DF3B9C5
:102C900021680A6842F400720A60202284F83C30FD
:102CA00084F83D2084F83E3086E7EB1103F00603FC
:102CB00043F0F0031361204633463A462249FFF7BA
:102CC000E0FD0028C5D12368EDB21D61CEE7324694
:102CD00039462046FFF717FE40B1236C042BB8D1CC
:102CE0002268136843F400731360B2E7636A2068D4
:102CF0001A4612F8011B01616262628D013A92B2BA
:102D00006285228DD0F814C0511E89B21CF0040FC8
:102D100021850AD049B15978023301616362638D1C
:102D2000023A013B9BB263852285324639462046F2
:102D3000FFF713FE0028A9D0CFE700BF0200100064
:102D40000000FFFF02000100080001002DE9F04330
:102D500098460023044689B002930E469146109F80
:102D6000FFF7ECFA94F83D300546202B04D00226FC
:102D7000304609B0BDE8F0830090192301222046B7
:102D80008F49FFF73EFD0028F1D194F83C30012B2C
:102D9000EDD00123216884F83C300B68DB075EBF6F
:102DA0000B6843F001030B600B6823F400630B60B6
:102DB000222384F83D30102384F83E30002323641E
:102DC000A4F82A80638DC4F8249023857D4BE362A8
:102DD000E36A0A68082B42F480620A6004D0012B7F
:102DE00002D013F5803F04D10B6843F480730B606D
:102DF00002E0236B112BF7D03B4600224FF001116C
:102E000020460095FFF7FDFC236838B11B68D80504
:102E100044BF4FF4007323640126A9E72269B2F589
:102E2000804F29D146F00106F6B21E612B463A4684
:102E300020466549FFF725FD06460028ECD1228D86
:102E40002368002A4DD103905A6903929A6903922C
:102E5000039A1A6842F400721A60DFF87081DFF892
:102E60007091238D002B6CD1202284F83C3084F8A3
:102E70003D2084F83E307BE74FEAE61808F006086C
:102E800048F0F0021A6120462B463A465149FFF7B6
:102E9000F8FC0028C0D12368F6B23A461E612046ED
:102EA0002B464949FFF7EDFC02460028B4D12368C0
:102EB0000790596920460791996907910799196800
:102EC00041F4807119603B464FF001110095FFF706
:102ED00098FC226808B1136899E748F0F103136180
:102EE000A4E7012A11D11A6822F480621A6072B62E
:102EF000236804905A6904929A690492049A1A68A1
:102F000042F400721A6062B6A7E7022A1A680ED16C
:102F100042F400621A6072B6236805905A690592FD
:102F20009A690592059A1A6822F48062EAE742F4E7
:102F300080621A6006905A6906929B690693069B06
:102F40008BE7032B00F28880012B16D12A463946E5
:102F50002046FFF72CFD00287FF45EAF23681A6936
:102F6000636A1A70636A01336362238D013B2385B0
:102F7000638D013B9BB2638573E7022B4FF0000228
:102F80003B4641462046009526D1FFF73AFC0028F3
:102F90007FF442AF72B623681A6842F400721A6076
:102FA0001A69636A1A70636A01336362238D013B95
:102FB0002385638D013B9BB2638562B6CEE700BF7C
:102FC000020010000000FFFF0200010004000100E9
:102FD0000800002008000100FFF713FC00287FF420
:102FE0001BAF2268136823F48063136072B646F245
:102FF000A81123681A69636A1A70626A531C6362B3
:10300000238D013B2385638D013B9BB26385D9F8FA
:103010000030B3FBF1F323214B430293029B013BAE
:103020000293029B6BB92022236384F83D2084F82D
:103030003E30226C42F02002226462B684F83C30BA
:10304000EAE6236859694907E8D5196841F400712F
:1030500019601B695370A6E72A4639462046FFF7D8
:10306000A6FC00287FF4D8AE23681A69636A1A7038
:10307000628D616A013A92B24B1C6285226863627A
:10308000238D5069013B9BB2400723857FF5E9AE54
:10309000032B02BF136823F48063136013694B7022
:1030A00060E700BF2DE9F04F044685B01F46884613
:1030B0009246FFF743F994F83D300546202B03D0A4
:1030C000022005B0BDE8F08F0090192301222046B0
:1030D0004C49FFF796FB0028F2D194F83C30012BC5
:1030E000EED0012384F83C30236800261A68DFF80C
:1030F00014B1D00758BF1A6808F0FE085CBF42F050
:1031000001021A601A6822F400621A60242384F80B
:103110003D303D4B2664E36222684FF00111136895
:10312000204643F4807313603B4600220095FFF76E
:1031300068FB236838B11B680320D90544BF4FF4EE
:1031400000732364BDE7C3F81080FFF7F7F84FF072
:10315000A009054623685A695B69C2F34002C3F3BC
:10316000802394F83D10A0291CD14FF0200923683A
:1031700084F83D905A6992072BD51A68204642F48C
:1031800000721A60002203925A691E4903929B69D9
:1031900001220393039B00951923FFF732FB98B19B
:1031A00001208EE71343E0D1FFF7C8F8401BB84277
:1031B00000D80FB984F83D9023685A695B69C2F35F
:1031C0004002C3F38023CCE784F83D9084F83C00B0
:1031D00077E71A68594642F400721A606FF4806209
:1031E00020465A61192301220095FFF70AFB0028A7
:1031F000D6D1013656458FD384F83D9084F83C00F3
:10320000CEE700BF020010000000FFFF2DE9F341F0
:10321000054638B30368DB0710D42B689F075ED4DC
:103220002B68190700F195802B685A0700F1C180BF
:10323000EB69002B40F02C81002029E0904C636862
:1032400003F00C03042B07D0636803F00C03082B76
:103250000AD16368DE0307D523689C03DDD56B685C
:10326000002BDAD1012013E06B68B3F5803F12D157
:10327000236843F480332360FFF760F80646236831
:103280009803CAD4FFF75AF8801B6428F7D90320A3
:1032900002B0BDE8F0819BB9236823F4803323603A
:1032A000236823F480232360FFF748F80646236849
:1032B0009903B2D5FFF742F8801B6428F7D9E6E7F7
:1032C000B3F5A02F236803D143F480232360CFE715
:1032D00023F480332360236823F48023CBE7684CF6
:1032E000636813F00C0F07D0636803F00C03082B1E
:1032F00010D16368DA030DD423689B0702D52B69CC
:10330000012BAFD123686A6923F0F80343EAC203B3
:10331000236085E72A695B4B6AB101221A60FFF7D7
:103320000DF8064623689F07ECD4FFF707F8801BCB
:103330000228F7D9ABE71A60FFF700F806462368C2
:1033400098077FF56DAFFEF7F9FF801B0228F6D9CD
:103350009DE7AA694A4E4B4BE2B10122C3F8802493
:10336000FEF7ECFF0446736A9B070DD54FF4FA5243
:10337000454B1B68B3FBF2F3019300BF019B5A1E40
:103380000192002BF9D14FE7FEF7D8FF001B02286E
:10339000E9D97CE7C3F88024FEF7D0FF0446736ABE
:1033A0009F077FF541AFFEF7C9FF001B0228F6D942
:1033B0006DE7334CE369D80024D40127E36943F077
:1033C0008053E361E36903F080530093009B2F4E29
:1033D0003368D90518D5EB68012B26D1236A43F051
:1033E00001032362FEF7AAFF41F288380646236AEA
:1033F0009B073FD5002F3FF41BAFE36923F08053B9
:10340000E36115E70027E2E7336843F48073336034
:10341000FEF794FF80463368DA05DCD4FEF78EFFB2
:10342000A0EB08006428F6D931E7ABB9236A41F272
:10343000883823F001032362236A23F00403236204
:10344000FEF77CFF0646236A9807D3D5FEF776FF82
:10345000801B4045F7D91AE7052B236A03D143F0B7
:1034600004032362BAE723F001032362236A23F0F3
:103470000403B6E7FEF762FF801B4045B7D906E7B5
:10348000001002400000424208000020007000408E
:103490002A4C626802F00C02082A3ED00022022B5D
:1034A000274B1A662CD1FEF749FF0646236899017F
:1034B00020D42B6AB3F5803F05D16268A96822F455
:1034C00000320A436260696A62680B4322F4741234
:1034D0001343012263601A4B1A66FEF72FFF05465D
:1034E00023689A013FF5A8AEFEF728FF401B02288B
:1034F000F6D9CCE6FEF722FF801B0228D6D9C6E615
:10350000FEF71CFF054623689B017FF595AEFEF78D
:1035100015FF401B0228F6D9B9E6012B3FF4A2AEF5
:1035200060682B6A00F480329A427FF49BAE6B6A2B
:1035300000F47010C01A18BF0120A9E60010024064
:10354000000042420D4A536803F00C01082912D1D1
:103550000B48C3F38341DB03405C09D55368094A38
:10356000C3F340435043084AD35CB0FBF3F07047C9
:10357000064B584370470348704700BF0010024095
:103580006A9A000800127A00689A000800093D0053
:103590002DE9F0410D46044610B90120BDE8F08147
:1035A000444A136803F007038B4228D321688E072F
:1035B00030D4CA0743D43F4A136803F00703AB4231
:1035C00065D822683C4D12F0040F6CD1130706D564
:1035D0006B68226923F4605343EAC2036B60FFF710
:1035E000B1FF6B68354AC3F30313D35CD840344B47
:1035F0001860344B1868FEF75FFE0020CEE71368B2
:1036000023F007030B431360136803F007038B4297
:10361000C3D1CBE7284B11F0040F1EBF5A6842F408
:10362000E0625A60080742BF5A6842F460525A602A
:103630005A68A06822F0F00202435A60B9E7626853
:103640001D4E012A33681AD113F4003FA5D07368C8
:1036500041F2883823F0030313437360FEF76EFED4
:1036600007467368626803F00C03B3EB820FA2D0C5
:10367000FEF764FEC01B4045F3D903208EE7022A03
:1036800002D113F0007FE1E713F0020FDEE71368C9
:1036900023F007032B431360136803F00703AB42C7
:1036A0007FF47BAF8DE76B68E16823F4E0630B4345
:1036B0006B608BE70020024000100240589A00081F
:1036C0000800002010000020044B054A5B68C3F38B
:1036D0000223D35C034A1068D840704700100240B0
:1036E000509A000808000020044B054A5B68C3F3A9
:1036F000C223D35C034A1068D840704700100240D0
:10370000509A000808000020174A036890420AD027
:10371000B0F1804F07D0A2F59432904203D002F569
:103720008062904207D14A6823F070031343CA684D
:1037300023F4407313434A6923F080031343036067
:103740008B68C3620B688362074B984204BF0B69A6
:103750000363012343610369DB0742BF036923F06D
:1037600001030361704700BF002C014010B50446FF
:1037700030B390F83D3003F0FF021BB980F83C20D5
:10378000FEF736FC0223206884F83D30211DFFF748
:10379000BBFF0123002084F8463084F83E3084F8D3
:1037A0003F3084F8403084F8413084F8423084F867
:1037B000433084F8443084F8453084F83D3010BDFF
:1037C0000120FCE710B584680A4324F47F4442EAF0
:1037D00003222243826010BD38B590F83C30044685
:1037E000012B4FF0020000F08E80012284F83D0092
:1037F000206884F83C20836823F47F4323F0770318
:1038000083600B68602B4FD032D8402B64D016D821
:10381000202B0DD00AD833F0100109D0012384F8F1
:103820003D30002384F83C30104638BD302BF5D1B4
:10383000826822F07002134343F0070328E0502B04
:10384000ECD14A68CD68016A036A21F00A0123F0CD
:103850000103036283690A4323F0F00343EA05137B
:1038600083610262836823F0700343F057030FE023
:10387000B3F5805F0DD0B3F5005F0CD0702BCDD1C8
:10388000CB68D1E90121FFF79DFF836843F07703FF
:1038900083600022C2E7CB68D1E90121FFF792FFE4
:1038A000836843F48043F3E7036A026A4D6822F0B9
:1038B0001002C9680262826923F0A00322F47042F8
:1038C00043EA051342EA013282610362836823F00E
:1038D000700343F06703DBE74A68CD68016A036A57
:1038E00021F00A0123F00103036283690A4323F0F4
:1038F000F00343EA051383610262836823F07003D7
:1039000043F04703C4E702468EE7000030B590F865
:103910003C300246012B4FF0020022D0136882F89F
:103920003D005C680D6824F070042C4398685C606E
:103930000C4CA3420AD0B3F1804F07D0A4F59434C5
:10394000A34203D004F58064A34204D1496820F067
:103950008000014399600123002082F83D3082F805
:103960003C0030BD002C0140026802F10C0353E81A
:10397000003F23F490730C3242E8003102680029C2
:10398000F2D102F1140353E8003F23F0010302F1E6
:10399000140C4CE800310029F3D1036B012B0BD13F
:1039A00002F10C0353E8003F23F0100302F10C0C6A
:1039B0004CE800310029F3D1202380F84230002365
:1039C0000363704710B504460368C1681A6922F49E
:1039D00040520A431A6182680069D96802436069EB
:1039E00021F4B05121F00C0102430A43DA605A6914
:1039F000A16922F440720A435A610E4A934215D1DA
:103A0000FFF772FE19234343626820689200B3FBFC
:103A1000F2F36422B3FBF2F102FB11331B013233E8
:103A2000B3FBF2F303EB0113836010BDFFF74CFE11
:103A3000E8E700BF00380140F7B505460C461746D9
:103A40001E462A68136834EA030301D1002021E0EE
:103A5000701CF7D0FEF772FCC01B86421CD3DEB18F
:103A60002B68DA685107ECD5802CEAD0402CE8D0DE
:103A70001A681207E5D5002401941A6828460192B5
:103A80005B680193019BFFF76FFF082301206B64C4
:103A900085F8404003B0F0BD0320FBE710B50446B5
:103AA00048B390F8413003F0FF021BB980F8402082
:103AB000FEF7B0FA2423226884F84130D368204608
:103AC00023F40053D360FFF77DFF236800201A69B9
:103AD00022F490421A615A6922F02A025A61DA6885
:103AE00042F40052DA602023606484F8413084F8A4
:103AF0004230606310BD0120FCE710B50446A0B160
:103B00002423026880F84130D36823F40053D36043
:103B1000FEF7F8FA0020606484F8400084F8410061
:103B200084F842002063606310BD0120FCE72DE9AA
:103B3000F843984690F841300446202B0E4617462D
:103B40003FD100293FD0002A3DD0212300254564E4
:103B500080F84130FEF7F2FBA3688146B3F5805F41
:103B6000A784E78403D123690BB935461E46E38C4D
:103B70009BB253B943464A4640212046FFF75CFFBB
:103B8000202350B984F841300AE043464A46802158
:103B90002046FFF751FF28B12023032084F841304D
:103BA000BDE8F88322684EB935F8023BC3F3080339
:103BB0005360E18C013989B2E184D8E716F8013B02
:103BC000F6E70220ECE70120EAE77047704708B506
:103BD0000023406AC385C384FFF7F8FF08BD704720
:103BE00090F8423007B5222B42D181680268B1F5C6
:103BF000805F836A3FD1016900293FD15268C2F3D7
:103C0000080223F8022B8362C38D013B9BB2C3855C
:103C1000002B2DD10268D16821F02001D160D1683C
:103C200021F48071D160516921F00101516120229C
:103C300080F842204363026B012A026828D10363A3
:103C400002F10C0353E8003F23F0100302F10C0CC7
:103C50004CE800310029F3D11368DB0605D501914A
:103C60001368019353680193019B818DFFF7B7FFA0
:103C700003B05DF804FB39B9016929B95268D2B2C1
:103C80001A70836A0133BEE7526802F07F02F7E7D9
:103C9000FEF782FAECE70000036873B51A68044681
:103CA0001607D9685D6908D1960668D58D0666D570
:103CB00002B0BDE87040FFF793BF05F0010001F4CA
:103CC000907505435BD0D60705D5CD0542BF636C23
:103CD00043F001036364530704D518B1636C43F0E8
:103CE00002036364960704D518B1636C43F00403C0
:103CF0006364150707D501F0200303431EBF636CFF
:103D000043F008036364636C002B32D0920604D541
:103D10008B0602D52046FFF763FF266820467369AD
:103D2000626C03F0400302F0080253EA020522D05D
:103D3000FFF71AFE73695E0618D5226802F11403B4
:103D400053E8003F23F04003143242E800310029D9
:103D5000F3D1E06B50B1744B4363FEF79DFB40B170
:103D6000E06B436B02B0BDE8704018472046FFF798
:103D70002DFF02B070BDFFF729FF6564F9E7206BE6
:103D8000012840F09480D50640F19180C80640F1AA
:103D90008E80002201921A6801925A680192019A5B
:103DA0005A6952064DD5E16B0A68526892B2002AF0
:103DB000DFD0A08D9042DCD9E2858A69202A36D0F6
:103DC00003F10C0252E8002F22F4807203F10C0080
:103DD00040E800210029F3D103F1140252E8002F3A
:103DE00022F0010203F1140040E800210029F3D180
:103DF00003F1140252E8002F22F0400203F11400F4
:103E000040E800210029F3D1202284F842202163D8
:103E100003F10C0252E8002F22F0100203F10C0013
:103E200040E800210029F3D1E06BFEF715FB0223E7
:103E30006363E38DA18DC91A89B22046FFF7CFFED7
:103E400097E7E28DE08DA18D80B292B2002890D0EC
:103E5000891A89B200298CD003F10C0252E8002F94
:103E600022F4907203F10C0545E800200028F3D1FC
:103E700003F1140252E8002F22F0010203F11405AD
:103E800045E800200028F3D1202284F84220206356
:103E900003F10C0252E8002F22F0100203F10C058E
:103EA00045E800200028F3D102236363C5E7160626
:103EB00028D50D0626D594F84120212A7FF459AF44
:103EC000A168226AB1F5805F17D12169A9B932F8DA
:103ED000021BC1F3080159602262E28C013A92B2DE
:103EE000E284002A7FF445AFDA6822F08002DA60CB
:103EF000DA6842F04002DA603BE7511C2162127836
:103F00005A60EAE750067FF534AF4A067FF531AFD5
:103F1000DA68204622F04002DA60202384F841303B
:103F2000FFF753FE25E700BFCF3B00080023C28503
:103F3000436422238285026980F8423081620368EB
:103F40001AB1DA6842F48072DA605A69002042F0ED
:103F500001025A61DA6842F02002DA60704770B4F8
:103F600090F84260202E06D141B13AB1002404639A
:103F700070BCFFF7DBBF022070BC70470120FBE77D
:103F8000EFF305832BB9064B186828B901221A6094
:103F900070476FF0050070474FF0FF30704700BF6B
:103FA000800F002010B5EFF305845CB9084B1A6848
:103FB000012A0AD1074AD47702221A6001F0C0F917
:103FC000204610BD6FF00500FBE74FF0FF30F8E72B
:103FD000800F002000ED00E0F0B51446002287B00D
:103FE0000B460592EFF30582FAB9F0B154B3A56917
:103FF00025B1691E372902D9002017E0182562680B
:10400000D207F9D466699EB1B2082168D4E9027C6E
:1040100087B1BCF15B0F08D9246934B12EB1CDE969
:104020000147009501F025F90590059807B0F0BD0E
:104030008022EAE7BCF1000FF7D12469002CF4D10B
:104040000C4601E01825802205A9CDE9005192B265
:10405000214601F046F901281CBF00230593E4E73F
:1040600008B5EFF3058222B908B101F0C9FA0020C2
:1040700008BD6FF00500FBE70346EFF3058242B988
:1040800048B1D3E9020318B11F2B02D900F052B98D
:104090000BB10020704700F071B913B50C46F8B1B0
:1040A000B1F1807F1CD2EFF30583A3B1002301AAF5
:1040B000019300F07BFAB0B1019B4BB14FF0E023CC
:1040C0004FF08052C3F8042DBFF34F8FBFF36F8FB3
:1040D000204602B010BD02B0BDE8104000F020BA8A
:1040E0006FF00304F4E76FF00204F1E770B50E46D9
:1040F0000546B0B1B1F1807F13D2EFF3058363B110
:1041000000F000FA31460446284600F0F3F9002892
:1041100008BF6FF00204204670BDBDE8704000F09B
:10412000C3B96FF00304F6E773B50C461D46F8B14A
:10413000B1F1807F1CD2EFF30583E3B902F00106F1
:1041400082F00202C2F340023346009500F024F9E7
:1041500004EA00024EB1A24205D0002D14BF6FF058
:1041600001006FF0020002B070BD002AF5D0FAE73E
:104170006FF00300F7E76FF00500F4E7F8B50546C8
:10418000EFF3058717B100242046F8BD20B3466839
:104190003307F8D4D0E9021306F0010699B14F2B8A
:1041A000F1D9BEB1042000F077FC04460028EAD023
:1041B00037462D682946204600F098FE002FE3D0B0
:1041C00044F00104E0E7002BDDD12EB1042000F023
:1041D00097FCEAE70120E6E7012000F091FC0446A5
:1041E0000028D0D0002DE5D00026E1E738B5034601
:1041F0000C4620F0010003F00102EFF3058595B9AC
:10420000012B13D962B100F050FE012801D100202A
:1042100038BD002C14BF6FF001006FF00200F7E70B
:1042200000F086FDF1E76FF00500F1E76FF00300A5
:10423000EEE7024608B520F0010002F00103EFF3BB
:10424000058179B9012A10D93BB100F03AFC012867
:104250000CBF00206FF0020008BD1A46194600F09E
:1042600069FBF4E76FF00500F6E76FF00300F3E792
:10427000F7B504460E461546EFF3058242B938B14C
:10428000884205D355B1D5E902372BB14F2F22D83B
:104290000024204603B0F0BD002FF9D1012C0CD032
:1042A0002046314600F028FB04460028F0D085B9AE
:1042B0002946204600F01AFEEBE7032200210120E8
:1042C00000F0D1FA0EE01A4600F0F4FA0446002895
:1042D000DED02D68ECE70128F5D1032100911146CD
:1042E00000F073FA04460028D2D0002EDFD000235D
:1042F0001A46194600F01EFB0128D8D0204600F0CF
:104300001FFEC5E7034B0360034B0B608023136064
:10431000704700BF240F0020240D0020034B0360D2
:10432000034B0B604FF4807313607047C80C002080
:10433000C808002013B5044640B94FF0500383F37A
:104340001188BFF36F8FBFF34F8FFEE720230193D8
:10435000019B202B08D04FF0500383F31188BFF34B
:104360006F8FBFF34F8FFEE7002340F8043B00F050
:1043700025F901232046237702B010BD38B520204F
:1043800001F04CFF044628B1002540F8045B00F022
:1043900015F92577204638BD2DE9F843DDF8209042
:1043A0000D4617469846064640B94FF0500383F332
:1043B0001188BFF36F8FBFF34F8FFEE7B1F1807F9E
:1043C00008D34FF0500383F31188BFF36F8FBFF30F
:1043D0004F8FFEE741B94FF0500383F31188BFF3CD
:1043E0006F8FBFF34F8FFEE701F0A6FA58B9B9F10E
:1043F000000F08D04FF0500383F31188BFF36F8F85
:10440000BFF34F8FFEE700F0E1FF346805EA0403D5
:10441000B8F1000F13D1A3B9B9F1000F15D0391EAF
:1044200018BF01210906B8F1000F01D041F08061E9
:104430004A462943301D01F05DF9002407E09D4202
:10444000EAD117B124EA050333604FF0000901F007
:1044500063F8B9F1000F1CD048B94FF0E0234FF0DA
:104460008052C3F8042DBFF34F8FBFF36F8F01F05D
:1044700041FB830104460AD401F0A4FD346805EA37
:104480000403B8F1000F07D143B901F0BBFD24F0DC
:104490007F442046BDE8F8839D42F6D1002FF4D03A
:1044A00024EA05053560F0E770B50C46054640B9CD
:1044B0004FF0500383F31188BFF36F8FBFF34F8F1B
:1044C000FEE7B1F1807F08D34FF0500383F31188EA
:1044D000BFF36F8FBFF34F8FFEE701F073FD2E68C0
:1044E00026EA04042C6001F08DFD304670BDFFF714
:1044F000DBBF00000A4600230146014801F0FABC78
:10450000EF440008EFF311834FF0500282F311885B
:10451000BFF36F8FBFF34F8F006883F3118870472D
:104520002DE9F0410D46044640B94FF0500383F3A6
:104530001188BFF36F8FBFF34F8FFEE7B1F1807F1C
:1045400008D34FF0500383F31188BFF36F8FBFF38D
:104550004F8FFEE700F10C0600F038FF236820695A
:104560002B43002523608642216807D121EA0501FB
:10457000216000F0D1FF2068BDE8F081D0E900287B
:1045800022F07F4312F0806F03EA010702D11FB9C6
:104590004046E8E7BB42FBD1D20141F0007148BF81
:1045A0001D4301F033F9F3E7FFF7BABF13460A469C
:1045B0000146014801F09EBCA94500084FF0FF32BA
:1045C00000F10803C0E90223436003610023036094
:1045D000704700230361704743689A684B608A60A4
:1045E000516099600368086101330360704730B51A
:1045F0000C68631C0AD103695A684A6091608B6039
:104600005960036808610133036030BD00F108029E
:10461000134652681568A542FAD9EDE70369D0E957
:1046200001128A6051605968814208BF5A600022B5
:1046300002611A68013A1A601868704710B504469A
:1046400001F0C0FCA46B01F0DDFCB4FA84F0400979
:1046500010BD70B51646026C0446856B42B90668FB
:104660009EB9806801F0B6F9A6600135A56370BDFA
:104670006EB9406802F0E1FC6368226C1344A268E2
:104680006360934224BF236863600020EDE7C06845
:1046900002F0D3FC226CE36851429B1A2268E3606B
:1046A00093423EBFA3685B18E360022EEDD10DB1CB
:1046B000013DEAE72846D8E703461A6C084610B4DD
:1046C00062B1DC68996814448C4228BF1968DC60C8
:1046D00028BFD960D96810BC02F0AFBC10BC7047CD
:1046E00070B5044601F06EFC94F8455004F12406C0
:1046F0006DB2002D01DD636AB3B9FF2384F8453044
:1047000001F080FC01F05EFC94F8445004F11006C6
:104710006DB2002D01DD23697BB9FF2384F844309D
:10472000BDE8704001F06EBC304601F02FF808B1D2
:1047300001F0F6F8013D6DB2DBE7304601F026F8F6
:1047400008B101F0EDF8013D6DB2E2E738B50D4674
:10475000044640B94FF0500383F31188BFF36F8FC5
:10476000BFF34F8FFEE701F02DFCD4E90F314B432F
:104770002268D0185B1AA060626000201A44FF23F0
:10478000A063E26084F8443084F84530A5B9236919
:1047900073B104F1100000F0F9FF48B14FF0E023CD
:1047A0004FF08052C3F8042DBFF34F8FBFF36F8FCC
:1047B00001F028FC012038BD04F11000FFF7FEFED7
:1047C00004F12400FFF7FAFEF2E737B50D461C4668
:1047D00040B94FF0500383F31188BFF36F8FBFF3DD
:1047E0004F8FFEE743B94FF0500383F31188BFF3B7
:1047F0006F8FBFF34F8FFEE74AB191B94FF050036F
:1048000083F31188BFF36F8FBFF34F8FFEE741B182
:104810004FF0500383F31188BFF36F8FBFF34F8FB7
:10482000FEE750230193019B502B08D04FF050031B
:1048300083F31188BFF36F8FBFF34F8FFEE7012122
:10484000002D08BF2246C4E90F0584F84610204613
:104850002260019BFFF77AFF20469DF8183084F80C
:104860004C3003B030BDF8B50D461746064640B98A
:104870004FF0500383F31188BFF36F8FBFF34F8F57
:10488000FEE74843503001F0C9FC044670B10023F4
:1048900080F8463065B100F1500301212046C4E99B
:1048A0000F652360FFF752FF84F84C702046F8BD77
:1048B0000346F2E713B513460C4640B94FF05003D8
:1048C00083F31188BFF36F8FBFF34F8FFEE78842EA
:1048D00008D24FF0500383F31188BFF36F8FBFF3FB
:1048E0004F8FFEE70222009200221146FFF76DFF74
:1048F00000B1846302B010BD10B50C4640B94FF052
:10490000500383F31188BFF36F8FBFF34F8FFEE720
:10491000884208D24FF0500383F31188BFF36F8FA2
:10492000BFF34F8FFEE702220021FFF79CFF00B18B
:10493000846310BD2DE9FF410F461E4604460192D7
:1049400040B94FF0500383F31188BFF36F8FBFF36B
:104950004F8FFEE751B9036C43B14FF0500383F31F
:104960001188BFF36F8FBFF34F8FFEE7022E0BD17D
:10497000E36B012B08D04FF0500383F31188BFF392
:104980006F8FBFF34F8FFEE700F0D6FF054620B3D1
:1049900000254FF0000801F015FBA26BE36B9A4273
:1049A00027D2324639462046FFF753FE636A1BB1D1
:1049B00004F1240000F0EAFE48B14FF0E0234FF08C
:1049C0008052C3F8042DBFF34F8FBFF36F8F01F0F8
:1049D00019FB012004B0BDE8F081019B002BD8D069
:1049E0004FF0500383F31188BFF36F8FBFF34F8FE6
:1049F000FEE7022ED5D0019B1BB901F003FB00207E
:104A0000E8E715B902A800F043FF01F0FBFA00F057
:104A1000DDFC01F0D7FA94F84430FF2B08BF84F88E
:104A2000448094F84530FF2B08BF84F8458001F09E
:104A3000E9FA01A902A800F037FF38BB01F0C2FA79
:104A4000A26BE36B9A420ED101F0DCFA019904F1FA
:104A5000100000F035FE2046FFF742FE00F05CFD3E
:104A600048B1012597E701F0CDFA2046FFF738FE5F
:104A700000F052FDF5E74FF0E0234FF08052C3F80D
:104A8000042DBFF34F8FBFF36F8FEAE72046FFF788
:104A900027FE00F041FDB2E7002213B50B4600905F
:104AA00011460120FFF791FE044638B100231A4653
:104AB000194683600360C360FFF73CFF204602B0E5
:104AC00010BD38B5044640B94FF0500383F3118848
:104AD000BFF36F8FBFF34F8FFEE7856800F026FFAF
:104AE00085420BD1E368013BE3600BB1012038BD87
:104AF0001A4619462046FFF71DFFF7E70020F6E7A4
:104B000070B50646502001F089FB044698B1002597
:104B1000012180F84650C0E90F150060FFF716FE2E
:104B20002B462A462946204684F84C60A56025601D
:104B3000E560FFF7FFFE204670BD2DE9F84389468A
:104B400017461E46044640B94FF0500383F31188C0
:104B5000BFF36F8FBFF34F8FFEE751B9036C43B1C3
:104B60004FF0500383F31188BFF36F8FBFF34F8F64
:104B7000FEE7022E0BD1E36B012B08D04FF0500360
:104B800083F31188BFF36F8FBFF34F8FFEE701F000
:104B9000F1FAEFF311884FF0500383F31188BFF35C
:104BA0006F8FBFF34F8FA26BE36B9A4201D3022E3C
:104BB0001ED194F845503246494620466DB2A36B4B
:104BC000FFF747FD6B1C0ED1636A3BB104F1240073
:104BD00000F0DCFD10B10FB101233B60012088F330
:104BE0001188BDE8F88301356DB284F84550F5E7CA
:104BF0000020F4E72DE9FF410E460446019240B93A
:104C00004FF0500383F31188BFF36F8FBFF34F8FC3
:104C1000FEE751B9036C43B14FF0500383F31188A1
:104C2000BFF36F8FBFF34F8FFEE700F085FE0546A1
:104C300018B300254FF0000801F0C4F9A76B47B383
:104C400031462046013FFFF737FDA763236973B163
:104C500004F1100000F09AFD48B14FF0E0234FF04E
:104C60008052C3F8042DBFF34F8FBFF36F8F01F055
:104C7000C9F9012004B0BDE8F081019B002BD9D017
:104C80004FF0500383F31188BFF36F8FBFF34F8F43
:104C9000FEE7019B1BB901F0B5F90020EAE715B961
:104CA00002A800F0F5FD01F0ADF900F08FFB01F076
:104CB00089F994F84430FF2B08BF84F8448094F8B5
:104CC0004530FF2B08BF84F8458001F09BF901A90E
:104CD00002A800F0E9FD00BB2046FFF7AFFCB0B131
:104CE000019904F1240000F0EBFC2046FFF7F8FCEA
:104CF00000F012FC48B94FF0E0234FF08052C3F8A7
:104D0000042DBFF34F8FBFF36F8F012594E720462B
:104D1000FFF7E6FC00F000FCF7E72046FFF7E0FCB9
:104D200000F0FAFB2046FFF789FC0028EDD0B4E73D
:104D3000F0B585B00446019140B94FF0500383F3BC
:104D40001188BFF36F8FBFF34F8FFEE7056C45B13E
:104D50004FF0500383F31188BFF36F8FBFF34F8F72
:104D6000FEE700F0E9FD064620B32E46002701F0DD
:104D700029F9A36B53B3013BA363236813B900F074
:104D8000C5FEA060236973B104F1100000F0FEFCC1
:104D900048B14FF0E0234FF08052C3F8042DBFF329
:104DA0004F8FBFF36F8F01F02DF9012005B0F0BDDB
:104DB0003546DBE7019B002BFAD04FF0500383F31D
:104DC0001188BFF36F8FBFF34F8FFEE7019B53B97D
:104DD000002D66D04FF0500383F31188BFF36F8F1F
:104DE000BFF34F8FFEE716B902A800F051FD01F0A6
:104DF00009F900F0EBFA01F0E5F894F84430FF2BE4
:104E000008BF84F8447094F84530FF2B08BF84F83D
:104E1000457001F0F7F801A902A800F045FD50BB6C
:104E20002046FFF70BFC00B323683BB901F0CAF83A
:104E3000A06800F091FD054601F0E4F8019904F145
:104E4000240000F03DFC2046FFF74AFC00F064FB24
:104E500048B94FF0E0234FF08052C3F8042DBFF360
:104E60004F8FBFF36F8F012681E72046FFF738FC95
:104E700000F052FBF7E72046FFF732FC00F04CFB56
:104E80002046FFF7DBFB0028EDD065B101F09AF872
:104E9000616A19B1236B1968C1F13801A06800F08B
:104EA000DBFD01F0AFF8002080E770B50D46044649
:104EB00040B94FF0500383F31188BFF36F8FBFF3F6
:104EC0004F8FFEE7866800F031FD864204D1012055
:104ED000E3680133E36070BD29462046FFF728FFF1
:104EE0000028F8D0E3680133E360F4E7002330B52D
:104EF000064A52F8335002EBC3041DB942F833108E
:104F0000606030BD0133082BF3D1FAE7840F002035
:104F1000002310B5084A52F83310DC00814206D154
:104F20000021064A42F833102244516010BD01337B
:104F3000082BF0D1FAE700BF880F0020840F002073
:104F400010B540B94FF0500383F31188BFF36F8F52
:104F5000BFF34F8FFEE7FFF7DBFF90F846301BB93A
:104F6000BDE8104001F0F2B910BD70B504460D4621
:104F7000164601F027F894F84430FF2B04BF0023B5
:104F800084F8443094F84530FF2B04BF002384F8A4
:104F9000453001F037F8A36B2BB93246294604F1AE
:104FA000240000F0D3FB2046BDE87040FFF798BB1B
:104FB0002DE9F041044601F005F8304B304E1A68F7
:104FC000304F01321A603568002D4BD134601B68B8
:104FD000012B1FD1B84640460135FFF7EFFA382DB7
:104FE00008F11408F7D1DFF8A080284D4046FFF7FC
:104FF000E5FA2846FFF7E2FA2548FFF7DFFA2548E9
:10500000FFF7DCFA2448FFF7D9FA244BC3F80080F5
:10501000234B1D601420234A136801331360224A76
:1050200063641168E36A8B4200FB037004F10401BE
:1050300088BF1360FFF7D0FA00F0E4FF1B4B1B683A
:1050400073B13368DA6AE36A9A4209D24FF0E02317
:105050004FF08052C3F8042DBFF34F8FBFF36F8F13
:10506000BDE8F081114B1A68E36A002AD2D1326898
:10507000D26A9A4298BF3460CCE700BFE80F0020A4
:10508000BC1400205C1000204810002034100020C8
:105090001810002004100020EC0F00203010002019
:1050A0002C100020CC0F0020E00F0020DC0F00208F
:1050B000F8B50646144B154D1C6828680F46043099
:1050C000FFF7ACFA731C07D137B1296810480431D7
:1050D000BDE8F840FFF780BA2B68A4195C6007D3DD
:1050E0000C4B18682968BDE8F8400431FFF77FBA17
:1050F000094B186829680431FFF779FA074B1A68D9
:10510000A24288BF1C60F8BDE40F0020BC14002040
:10511000EC0F00202C10002030100020C80F0020C1
:10512000064A13681968064B19B94FF0FF321A6026
:1051300070471268D268D2685268F8E730100020D1
:10514000C80F002010B590F8593004463BB9006BE9
:1051500001F0FCF82046BDE8104001F0F7B8012B43
:10516000F9D0022B08D04FF0500383F31188BFF31E
:105170006F8FBFF34F8FFEE710BD000080B5134C5B
:10518000134F144D236873B9134B1B68012BF8D9C7
:105190004FF0E0234FF08052C3F8042DBFF34F8F40
:1051A000BFF36F8FEDE700F00DFFFB68DE68301D89
:1051B000FFF734FA2B68013B2B602368013B236027
:1051C00000F020FF3046FFF7BDFFDBE700100020B6
:1051D00004100020E80F00205C1000202DE9F047AB
:1051E0000D46DDE90994960032460746A521206B5D
:1051F000984601F095FE236B043E1E4426F00706F8
:10520000A5B36B1E04F133020F3513F8011F02F82A
:10521000011F09B1AB42F8D1002384F84330089D47
:105220004FF0000A372D28BF3725201DE562E564C1
:10523000C4F850A0FFF7CDF9C5F1380504F1180006
:10524000FFF7C7F9C4F854A04246394630462461F6
:10525000A561646284F858A000F090FE2060B9F166
:10526000000F01D0C9F80040BDE8F08784F8345041
:10527000D5E770B586B0DDE90B5445B94FF0500362
:1052800083F31188BFF36F8FBFF34F8FFEE744B9ED
:105290004FF0500383F31188BFF36F8FBFF34F8F2D
:1052A000FEE75C260596059E5C2E08D04FF0500365
:1052B00083F31188BFF36F8FBFF34F8FFEE7256332
:1052C000022584F8595004AD01950A9D0294009579
:1052D000059EFFF783FF2046FFF76AFE049806B09D
:1052E00070BD2DE9F043074685B09000884616460C
:1052F000994600F093FF054620B94FF0FF3005B006
:10530000BDE8F0835C2000F089FF044698B10023DB
:1053100080F859300D9B056301930C9B3246414642
:105320000290009338464B46FFF758FF2046FFF7A0
:105330003FFE0120E3E7284601F008F8DDE7000022
:1053400010B5002488B007AA06A905A8CDE9054430
:10535000FEF7D8FF059B079A0293069B1649CDE9F5
:10536000004316482346FFF784FF18B300F02CFCD7
:10537000012814D14FF0500383F31188BFF36F8FCE
:10538000BFF34F8F4FF0FF320D4B1A600D4B18607B
:105390000D4B1C6008B0BDE8104000F093BE01301A
:1053A00008D14FF0500383F31188BFF36F8FBFF321
:1053B0004F8FFEE708B010BD059800087D5100082A
:1053C000C80F0020DC0F0020E40F0020024A136801
:1053D00001331360704700BFC40F0020014B1868F1
:1053E000704700BFE40F0020404B2DE9F74F1B68CA
:1053F000002B73D13E4B1C6801341C60BCB93D4B83
:105400001A68126842B14FF0500383F31188BFF35A
:105410006F8FBFF34F8FFEE7374A19681068186027
:105420001160364A136801331360FFF779FE344D7B
:105430004FF0000B2B68334E9C42334F12D2142195
:105440003A68D26A4A43B258022A304A28BF4FF01B
:10545000010B1268002A18BF4FF0010B584603B029
:10546000BDE8F08FDFF88C90DFF8A4A0D9F8002019
:1054700012681AB94FF0FF322A60E0E7D9F800202D
:10548000D268D2F80C80D8F804108C4201D229607E
:10549000D5E708F1040318460193FFF7BFF8D8F8E1
:1054A000281019B108F11800FFF7B8F81423D8F83C
:1054B0002C00DAF80010884288BFCAF8000008F112
:1054C000040103FB0060FFF787F83868D8F82C1058
:1054D000C26A914228BF4FF0010BC7E70D4A4FF057
:1054E000000B136801331360B8E700BFC40F00203E
:1054F000E40F0020301000202C100020D00F0020DE
:10550000C80F00205C100020BC140020D40F002025
:10551000E00F0020D80F00202DE9F041304C236827
:1055200043B94FF0500383F31188BFF36F8FBFF37C
:105530004F8FFEE700F046FD2368013B236024689F
:105540002CB1002400F05EFD2046BDE8F081254B23
:105550001B68002BF5D0244D244EDFF894801DE00D
:10556000EB68DC68271D04F11800FFF757F8384690
:10557000FFF754F81420E36A326800FB038093427B
:10558000394688BF3360FFF727F81A4BE26A1B6879
:10559000DB6A9A4202D30122174B1A602B68002B58
:1055A000DED10CB1FFF7BCFD144D2C6844B10127CE
:1055B000114EFFF719FF00B13760013CF9D12C60A3
:1055C0000D4B1B68002BBCD04FF0E0234FF08052F6
:1055D000C3F8042DBFF34F8FBFF36F8F0124B1E7E2
:1055E000C40F0020E80F002018100020E00F00205A
:1055F0005C100020BC140020D40F0020D80F002025
:1056000008B550B94FF0E0234FF08052C3F8042D95
:10561000BFF34F8FBFF36F8F08BD0A4B196841B1BD
:105620004FF0500383F31188BFF36F8FBFF34F8F99
:10563000FEE7FFF7CBFEFFF73BFDFFF76DFF00280E
:10564000E0D0E9E7C40F0020184B70B51A68184B7A
:1056500012B101221A6070BD1426164D1A602A6814
:10566000154906FB02F3CC58C81894B144680833B6
:1056700064680B449C4208BF6368446008BF436091
:10568000142303FB02114B68D9680C4B19602A6084
:10569000E1E742B94FF0500383F31188BFF36F8FF6
:1056A000BFF34F8FFEE7013ADBE700BFC40F0020D6
:1056B000D40F0020E00F00205C100020BC1400205C
:1056C00010B50C4640B94FF0500383F31188BFF377
:1056D0006F8FBFF34F8FFEE7054B19681831FEF748
:1056E00086FF2046BDE810400121FFF7E1BC00BF66
:1056F000BC14002010B5144640B94FF0500383F39A
:105700001188BFF36F8FBFF34F8FFEE70D4B1B6800
:1057100043B94FF0500383F31188BFF36F8FBFF38A
:105720004F8FFEE7084B41F000411A6891611968FC
:105730001831FEF751FF2046BDE810400121FFF768
:10574000B7BC00BFC40F0020BC14002038B50D4604
:10575000144640B94FF0500383F31188BFF36F8FA5
:10576000BFF34F8FFEE7084B19681831FEF734FF7F
:10577000002C214608BF2846BDE8384018BF4FF02E
:10578000FF30FFF795BC00BFBC14002038B5C368DC
:10579000DC6844B94FF0500383F31188BFF36F8F77
:1057A000BFF34F8FFEE704F118052846FEF736FFDA
:1057B000104B1B68DBB9251D2846FEF72FFF0E4A4C
:1057C00014201168E36A8B42294688BF13600B4A94
:1057D00000FB0320FEF700FF094BE26A1B68DB6A4F
:1057E0009A4285BF0120074B0020186038BD29462A
:1057F0000548EFE7C40F0020E00F00205C100020F8
:10580000BC140020D40F0020181000201B4A38B50B
:10581000126842B94FF0500383F31188BFF36F8FC2
:10582000BFF34F8FFEE7C46841F00041016044B907
:105830004FF0500383F31188BFF36F8FBFF34F8F87
:10584000FEE7251DFEF7EAFE2846FEF7E7FE1420D8
:105850000B4AE36A11688B4288BF1360094A2946E4
:1058600000FB0320FEF7B8FE074BE26A1B68DB6A09
:105870009A4282BF0122054B1A6038BDC40F002036
:10588000E00F00205C100020BC140020D40F00208A
:10589000034B1B680360034B1B684360704700BFEA
:1058A000D00F0020E40F002070B50C46054640B92B
:1058B0004FF0500383F31188BFF36F8FBFF34F8F07
:1058C000FEE741B94FF0500383F31188BFF36F8FA8
:1058D000BFF34F8FFEE700F075FB0F4B196823688D
:1058E0005A1C10D00D482E6800686A68864201D0A4
:1058F0008A420FD9881A83420AD95B1A1344284670
:105900002360FFF7C5FF002400F07CFB204670BD3C
:10591000002323600124F7E7E40F0020D00F0020CC
:105920000122014B1A607047D40F0020014B186808
:10593000704700BFBC140020054B1B6833B1054BFA
:105940001868B0FA80F040094000704701207047A5
:10595000DC0F0020C40F0020F8B5044638B31A4D00
:10596000C36A2A68D26A934226D28269174E002AF5
:10597000A1BF2A68D26AC2F138028261142202FBF6
:10598000036342699A4213D1071D3846FEF746FE6B
:1059900014202B680E4ADB6A116800FB03608B42FF
:1059A000E362394688BF1360FEF716FE0120F8BD9A
:1059B0002B68DB6AC362F9E72B68C06CDB6A98422C
:1059C0002CBF00200120F2E7BC1400205C10002056
:1059D000E00F002038B508B9002038BD1B4B1C680B
:1059E000844208D04FF0500383F31188BFF36F8FC8
:1059F000BFF34F8FFEE7236D43B94FF0500383F39E
:105A00001188BFF36F8FBFF34F8FFEE7E16AE26C3F
:105A1000013B91422365DFD0002BDDD1251D2846B7
:105A2000FEF7FCFD1420E36CC3F13802A261084AC2
:105A3000E36211688B4288BF1360064A294600FB67
:105A40000320FEF7C9FD0120C7E700BFBC140020FA
:105A5000E00F00205C10002070B50446002841D003
:105A6000026D42B94FF0500383F31188BFF36F8F7B
:105A7000BFF34F8FFEE7C36C994238BF1946C36A24
:105A80008B422FD0012A2DD1174A1268824208D1A9
:105A90004FF0500383F31188BFF36F8FBFF34F8F25
:105AA000FEE78269114D002A4FF0140202FB0353F6
:105AB0004269C162A4BFC1F1380181619A4211D12A
:105AC000061D3046FEF7AAFD1420094AE36A116854
:105AD00000FB03508B423146BDE8704088BF136025
