:020000040800F2
:1000000000500020FD310008CD300008CF3000083E
:10001000D1300008D3300008D530000800000000BF
:100020000000000000000000000000000174000853
:10003000D73000080000000091740008D930000893
:1000400045320008453200084532000845320008B4
:1000500045320008453200084532000845320008A4
:100060004532000845320008453200084532000894
:100070004532000845320008453200084532000884
:100080004532000845320008453200084532000874
:100090004532000845320008453200084532000864
:1000A0004532000845320008453200084532000854
:1000B000F13000084532000845320008453200089A
:1000C0004532000845320008453200084532000834
:1000D00045320008FD3000080931000845320008AB
:1000E0004532000845320008453200080000000093
:1000F0000000000000000000000000000000000000
:0C01000000000000000000005FF808F1A3
:1001100010B5054C237833B9044B13B10448AFF341
:1001200000800123237010BDE001002000000000CA
:100130003CB2000808B5034B1BB103490348AFF3B9
:10014000008008BD00000000E40100203CB200086F
:10015000034613F8012B002AFBD1181A0138704707
:1001600081F0004102E000BF83F0004330B54FEA68
:1001700041044FEA430594EA050F08BF90EA020FD5
:100180001FBF54EA000C55EA020C7FEA645C7FEA68
:10019000655C00F0E2804FEA5454D4EB5555B8BF8B
:1001A0006D420CDD2C4480EA020281EA030382EAFC
:1001B000000083EA010180EA020281EA0303362D8E
:1001C00088BF30BD11F0004F4FEA01314FF4801C61
:1001D0004CEA113102D0404261EB410113F0004F73
:1001E0004FEA03334CEA133302D0524263EB43032A
:1001F00094EA050F00F0A780A4F10104D5F1200EC8
:100200000DDB02FA0EFC22FA05F2801841F1000122
:1002100003FA0EF2801843FA05F359410EE0A5F1F6
:1002200020050EF1200E012A03FA0EFC28BF4CF027
:10023000020C43FA05F3C01851EBE37101F00045DD
:1002400007D54FF0000EDCF1000C7EEB00006EEBEA
:100250000101B1F5801F1BD3B1F5001F0CD3490874
:100260005FEA30004FEA3C0C04F101044FEA4452CB
:1002700012F5800F80F09A80BCF1004F08BF5FEA52
:10028000500C50F1000041EB045141EA050130BD32
:100290005FEA4C0C404141EB0101013C28BFB1F544
:1002A000801FE9D291F0000F04BF01460020B1FA8F
:1002B00081F308BF2033A3F10B03B3F120020CDA62
:1002C0000C3208DD02F1140CC2F10C0201FA0CF040
:1002D00021FA02F10CE002F11402D8BFC2F1200CA5
:1002E00001FA02F120FA0CFCDCBF41EA0C0190405B
:1002F000E41AA2BF01EB0451294330BD6FEA0404A4
:100300001F3C1CDA0C340EDC04F11404C4F120028E
:1003100020FA04F001FA02F340EA030021FA04F3A0
:1003200045EA030130BDC4F10C04C4F1200220FAF7
:1003300002F001FA04F340EA0300294630BD21FA35
:1003400004F0294630BD94F0000F83F4801306BFFB
:1003500081F480110134013D4EE77FEA645C18BFEF
:100360007FEA655C29D094EA050F08BF90EA020F86
:1003700005D054EA000C04BF1946104630BD91EA7E
:10038000030F1EBF0021002030BD5FEA545C05D181
:100390004000494128BF41F0004130BD14F58004C0
:1003A0003CBF01F5801130BD01F0004545F0FE4134
:1003B00041F470014FF0000030BD7FEA645C1ABF69
:1003C000194610467FEA655C1CBF0B46024650EAA0
:1003D000013406BF52EA033591EA030F41F40021CC
:1003E00030BD00BF90F0000F04BF0021704730B552
:1003F0004FF4806404F132044FF000054FF0000127
:1004000050E700BF90F0000F04BF0021704730B5E7
:100410004FF4806404F1320410F0004548BF4042BC
:100420004FF000013EE700BF42004FEAE2014FEA11
:1004300031014FEA02701FBF12F07F4393F07F4FEC
:1004400081F06051704732F07F4208BF704793F0EF
:100450007F4F04BF41F40021704730B54FF4607402
:1004600001F0004521F000411CE700BF50EA010205
:1004700008BF704730B54FF000050AE050EA0102AE
:1004800008BF704730B511F0004502D5404261EB1E
:1004900041014FF4806404F132045FEA915C3FF45F
:1004A000D8AE4FF003025FEADC0C18BF03325FEAFC
:1004B000DC0C18BF033202EBDC02C2F1200300FAAD
:1004C00003FC20FA02F001FA03FE40EA0E0021FAD2
:1004D00002F11444BDE600BF70B54FF0FF0C4CF4C0
:1004E000E06C1CEA11541DBF1CEA135594EA0C0F72
:1004F00095EA0C0F00F0DEF82C4481EA030621EAAD
:100500004C5123EA4C5350EA013518BF52EA0335E7
:1005100041F4801143F4801338D0A0FB02CE4FF099
:100520000005E1FB02E506F00042E0FB03E54FF0C9
:100530000006E1FB03569CF0000F18BF4EF0010EC1
:10054000A4F1FF04B6F5007F64F5407404D25FEABD
:100550004E0E6D4146EB060642EAC62141EA555170
:100560004FEAC52040EA5E504FEACE2EB4F1FD0CB2
:1005700088BFBCF5E06F1ED8BEF1004F08BF5FEA30
:10058000500E50F1000041EB045170BD06F00046E2
:1005900046EA010140EA020081EA0301B4EB5C048F
:1005A000C2BFD4EB0C0541EA045170BD41F4801187
:1005B0004FF0000E013C00F3AB8014F1360FDEBFAC
:1005C000002001F0004170BDC4F10004203C35DA88
:1005D0000C341BDC04F11404C4F1200500FA05F30B
:1005E00020FA04F001FA05F240EA020001F00042AC
:1005F00021F0004110EBD37021FA04F642EB060122
:100600005EEA430E08BF20EAD37070BDC4F10C044B
:10061000C4F1200500FA04F320FA05F001FA04F20F
:1006200040EA020001F0004110EBD37041F10001FB
:100630005EEA430E08BF20EAD37070BDC4F1200506
:1006400000FA05F24EEA020E20FA04F301FA05F26E
:1006500043EA020321FA04F001F0004121FA04F216
:1006600020EA020000EBD3705EEA430E08BF20EAE6
:10067000D37070BD94F0000F0FD101F00046400020
:1006800041EB010111F4801F08BF013CF7D041EAA2
:10069000060195F0000F18BF704703F000465200A6
:1006A00043EB030313F4801F08BF013DF7D043EA77
:1006B0000603704794EA0C0F0CEA135518BF95EA2D
:1006C0000C0F0CD050EA410618BF52EA4306D1D1B4
:1006D00081EA030101F000414FF0000070BD50EAD3
:1006E000410606BF1046194652EA430619D094EA5D
:1006F0000C0F02D150EA013613D195EA0C0F05D147
:1007000052EA03361CBF104619460AD181EA03019A
:1007100001F0004141F0FE4141F470014FF0000052
:1007200070BD41F0FE4141F4780170BD70B54FF0ED
:10073000FF0C4CF4E06C1CEA11541DBF1CEA13556D
:1007400094EA0C0F95EA0C0F00F0A7F8A4EB05044F
:1007500081EA030E52EA03354FEA013100F0888046
:100760004FEA03334FF0805545EA131343EA12630F
:100770004FEA022245EA111545EA10654FEA0026C4
:100780000EF000419D4208BF964244F1FD0404F57D
:10079000407402D25B084FEA3202B61A65EB0305D9
:1007A0005B084FEA32024FF480104FF4002CB6EB96
:1007B000020E75EB030E22BFB61A754640EA0C0016
:1007C0005B084FEA3202B6EB020E75EB030E22BF56
:1007D000B61A754640EA5C005B084FEA3202B6EB97
:1007E000020E75EB030E22BFB61A754640EA9C0056
:1007F0005B084FEA3202B6EB020E75EB030E22BF26
:10080000B61A754640EADC0055EA060E18D04FEAE3
:10081000051545EA16754FEA06164FEAC30343EA83
:1008200052734FEAC2025FEA1C1CC0D111F4801F50
:100830000BD141EA00014FF000004FF0004CB6E749
:1008400011F4801F04BF01430020B4F1FD0C88BFE8
:10085000BCF5E06F3FF6AFAEB5EB030C04BFB6EBF3
:10086000020C5FEA500C50F1000041EB045170BDE6
:100870000EF0004E4EEA113114EB5C04C2BFD4EB13
:100880000C0541EA045170BD41F480114FF0000E97
:10089000013C90E645EA060E8DE60CEA135594EA13
:1008A0000C0F08BF95EA0C0F3FF43BAF94EA0C0F16
:1008B0000AD150EA01347FF434AF95EA0C0F7FF48B
:1008C00025AF104619462CE795EA0C0F06D152EADF
:1008D00003353FF4FDAE1046194622E750EA4106C3
:1008E00018BF52EA43067FF4C5AE50EA41047FF4D4
:1008F0000DAF52EA43057FF4EBAE12E74FF0FF3C39
:1009000006E000BF4FF0010C02E000BF4FF0010C09
:100910004DF804CD4FEA410C7FEA6C5C4FEA430C82
:1009200018BF7FEA6C5C1BD001B050EA410C0CBFD1
:1009300052EA430C91EA030F02BF90EA020F002033
:10094000704710F1000F91EA030F58BF994208BF9A
:1009500090422CBFD8176FEAE37040F00100704757
:100960004FEA410C7FEA6C5C02D150EA013C07D1AE
:100970004FEA430C7FEA6C5CD6D152EA033CD3D0F9
:100980005DF8040B704700BF8446104662468C46F3
:100990001946634600E000BF01B5FFF7B7FF002826
:1009A00048BF10F1000F01BD4DF808EDFFF7F4FF4F
:1009B0000CBF012000205DF808FB00BF4DF808EDDA
:1009C000FFF7EAFF34BF012000205DF808FB00BFFD
:1009D0004DF808EDFFF7E0FF94BF012000205DF81F
:1009E00008FB00BF4DF808EDFFF7CEFF94BF0120D4
:1009F00000205DF808FB00BF4DF808EDFFF7C4FFCD
:100A000034BF012000205DF808FB00BF4FEA410C15
:100A10007FEA6C5C02D150EA013C0AD14FEA430CF8
:100A20007FEA6C5C02D152EA033C02D14FF0000035
:100A300070474FF0010070474FEA410212F5001273
:100A400015D211D56FF47873B3EB625212D94FEA15
:100A5000C12343F0004343EA505311F0004F23FAFF
:100A600002F018BF404270474FF00000704750EA54
:100A7000013005D111F0004008BF6FF00040704711
:100A80004FF00000704700BF80F0004002E000BF60
:100A900081F0004142001FBF5FEA410392EA030F69
:100AA0007FEA226C7FEA236C6AD04FEA1262D2EBB3
:100AB0001363C1BFD218414048404140B8BF5B42B8
:100AC000192B88BF704710F0004F40F4000020F051
:100AD0007F4018BF404211F0004F41F4000121F067
:100AE0007F4118BF494292EA030F3FD0A2F10102B1
:100AF00041FA03FC10EB0C00C3F1200301FA03F1EF
:100B000000F0004302D5494260EB4000B0F5000F11
:100B100013D3B0F1807F06D340084FEA310102F1D0
:100B20000102FE2A51D2B1F1004F40EBC25008BF82
:100B300020F0010040EA03007047490040EB00004C
:100B4000013A28BFB0F5000FEDD2B0FA80FCACF14D
:100B5000080CB2EB0C0200FA0CF0AABF00EBC2507A
:100B600052421843BCBFD0401843704792F0000F68
:100B700081F4000106BF80F400000132013BB5E7BB
:100B80004FEA41037FEA226C18BF7FEA236C21D031
:100B900092EA030F04D092F0000F08BF0846704796
:100BA00090EA010F1CBF0020704712F07F4F04D164
:100BB000400028BF40F00040704712F100723CBF77
:100BC00000F50000704700F0004343F0FE4040F4A1
:100BD000000070477FEA226216BF08467FEA23635F
:100BE0000146420206BF5FEA412390EA010F40F44A
:100BF000800070474FF0000304E000BF10F0004396
:100C000048BF40425FEA000C08BF704743F096437C
:100C100001464FF000001CE050EA010208BF704797
:100C20004FF000030AE000BF50EA010208BF70471E
:100C300011F0004302D5404261EB41015FEA010C33
:100C400002BF84460146002043F0B64308BFA3F12B
:100C50008053A3F50003BCFA8CF2083AA3EBC2530D
:100C600010DB01FA02FC634400FA02FCC2F120022C
:100C7000BCF1004F20FA02F243EB020008BF20F063
:100C80000100704702F1200201FA02FCC2F12002C9
:100C900050EA4C0021FA02F243EB020008BF20EABE
:100CA000DC7070474FF0FF0C1CEAD0521EBF1CEAEC
:100CB000D15392EA0C0F93EA0C0F6FD01A4480EADA
:100CC000010C400218BF5FEA41211ED04FF00063C3
:100CD00043EA501043EA5111A0FB01310CF00040EF
:100CE000B1F5000F3EBF490041EAD3715B0040EA15
:100CF000010062F17F02FD2A1DD8B3F1004F40EBE5
:100D0000C25008BF20F00100704790F0000F0CF0B7
:100D1000004C08BF49024CEA502040EA51207F3A7B
:100D2000C2BFD2F1FF0340EAC250704740F4000056
:100D30004FF00003013A5DDC12F1190FDCBF00F047
:100D400000407047C2F10002410021FA02F1C2F1F5
:100D5000200200FA02FC5FEA310040F1000053EA91
:100D60004C0308BF20EADC70704792F0000F00F0DF
:100D7000004C02BF400010F4000F013AF9D040EAE5
:100D80000C0093F0000F01F0004C02BF490011F479
:100D9000000F013BF9D041EA0C018FE70CEAD15377
:100DA00092EA0C0F18BF93EA0C0F0AD030F0004CF7
:100DB00018BF31F0004CD8D180EA010000F00040AB
:100DC000704790F0000F17BF90F0004F084691F069
:100DD000000F91F0004F14D092EA0C0F01D14202A3
:100DE0000FD193EA0C0F03D14B0218BF084608D16C
:100DF00080EA010000F0004040F0FE4040F40000B6
:100E0000704740F0FE4040F4400070474FF0FF0C48
:100E10001CEAD0521EBF1CEAD15392EA0C0F93EA8F
:100E20000C0F69D0A2EB030280EA010C49024FEAE1
:100E3000402037D04FF0805343EA111143EA10139A
:100E40000CF000408B4238BF5B0042F17D024FF452
:100E5000000C8B4224BF5B1A40EA0C00B3EB510F2D
:100E600024BFA3EB510340EA5C00B3EB910F24BF16
:100E7000A3EB910340EA9C00B3EBD10F24BFA3EB9B
:100E8000D10340EADC001B0118BF5FEA1C1CE0D163
:100E9000FD2A3FF650AF8B4240EBC25008BF20F016
:100EA000010070470CF0004C4CEA50207F32C2BF6A
:100EB000D2F1FF0340EAC250704740F400004FF007
:100EC0000003013A37E792F0000F00F0004C02BF38
:100ED000400010F4000F013AF9D040EA0C0093F002
:100EE000000F01F0004C02BF490011F4000F013B5C
:100EF000F9D041EA0C0195E70CEAD15392EA0C0FC4
:100F000008D142027FF47DAF93EA0C0F7FF470AFFB
:100F1000084676E793EA0C0F04D14B023FF44CAF3E
:100F200008466EE730F0004C18BF31F0004CCAD1D3
:100F300030F000427FF45CAF31F000437FF43CAF0F
:100F40005FE700BF4FF0FF3C06E000BF4FF0010C31
:100F500002E000BF4FF0010C4DF804CD4FEA400213
:100F60004FEA41037FEA226C18BF7FEA236C11D05D
:100F700001B052EA530C18BF90EA010F58BFB2EB10
:100F8000030088BFC81738BF6FEAE17018BF40F090
:100F9000010070477FEA226C02D15FEA402C05D144
:100FA0007FEA236CE4D15FEA412CE1D05DF8040BC9
:100FB000704700BF844608466146FFE70FB5FFF75C
:100FC000C9FF002848BF10F1000F0FBD4DF808ED14
:100FD000FFF7F4FF0CBF012000205DF808FB00BF05
:100FE0004DF808EDFFF7EAFF34BF012000205DF85F
:100FF00008FB00BF4DF808EDFFF7E0FF94BF0120AC
:1010000000205DF808FB00BF4DF808EDFFF7D2FFA8
:1010100094BF012000205DF808FB00BF4DF808EDEB
:10102000FFF7C8FF34BF012000205DF808FB00BFB8
:101030004FEA40024FEA41037FEA226C02D15FEAA5
:10104000402C08D17FEA236C02D15FEA412C02D107
:101050004FF0000070474FF0010070474FEA400228
:10106000B2F1FE4F0FD34FF09E03B3EB12620DD9D6
:101070004FEA002343F0004310F0004F23FA02F040
:1010800018BF404270474FF00000704712F1610FE7
:1010900001D1420205D110F0004008BF6FF00040BE
:1010A00070474FF00000704700B11030704700B13A
:1010B0001C30704700B12830704700B1383070479D
:1010C00008B1007A7047FF2070471FB5044690B101
:1010D0004FF47A738DF80C10017900938DF80D2080
:1010E0000223006803AA490002F0A4FD08B103200E
:1010F000E07104B010BD0120FBE770B50E46054657
:1011000010B90124204670BD0A463D21FFF7DDFFDE
:1011100004460028F5D11E206E7102F0DDF8F1E7DB
:101120000A4610B13E21FFF7D0BF012070471FB51E
:10113000044690B18AB101234FF47A7C0079CDE95D
:10114000013C00920A4600FA03F1206802F0F8FF21
:1011500008B10320E07104B010BD0120FBE70A468E
:1011600018B111B10021FFF7E2BF0120704713B59C
:10117000044610B9012002B010BD35210DF107025F
:10118000FFF7D5FF0028F5D19DF807309A0984F8BC
:101190003E20C3F3011284F83F20C3F3810203F021
:1011A000030384F8402084F84130E4E713B5044693
:1011B00010B9012002B010BD34210DF10702FFF774
:1011C000B6FF0028F5D19DF8073084F84230F1E7EA
:1011D00038B51546044608B9012038BD0029FBD0B2
:1011E000002AF9D00A463921FFF7A1FF0028F3D1E0
:1011F0002A463A212046FFF79AFF003818BF0120FF
:10120000EBE737B50446A8B3A1B300252923016055
:10121000C5800572C0F80A50C58105618582C0F895
:1012200016504583C5610562456229460371102247
:10123000283007F0A5F8A563A587C4F83E5003251C
:1012400020460DF10501FFF78AFF60B13220013D14
:1012500002F042F815F0FF05F2D10323E371FF23FA
:101260002372032007E09DF80530A02B05D0012252
:101270002372E271012003B030BD40F28A2002F0F7
:101280002BF802F023F800F5FA6520460DF107026D
:101290000DF10601FFF79CFF10B10323E371E0E7B6
:1012A0009DF8063003F0FB03012B18D19DF8065082
:1012B000012D1CD100212046FFF732FF02460028F5
:1012C000D8D13B212046FFF700FF0028D2D10C21C6
:1012D0002046FFF712FF0028CCD1E580CBE70A209B
:1012E00001F0FAFF01F0F2FFA842CED3DEE70220C0
:1012F000E071C0E730B5044685B098B192B18BB1CA
:101300004FF47A750079CDE90135012300920A4640
:1013100000FA03F1206802F013FF08B10320E07126
:1013200005B030BD0120FBE713B5044610B901201C
:1013300002B010BD06236A460821FFF7DBFF002834
:10134000F5D1BDF800306381BDF80230A381BDF84E
:101350000430E381ECE713B5044610B9012002B074
:1013600010BD06236A461421FFF7C4FF0028F5D1FB
:10137000009B2361BDF80430A382F0E713B5044657
:1013800010B9012002B010BD06236A460E21FFF7F6
:10139000B1FF0028F5D1BDF80030E382BDF802307E
:1013A0002383BDF804306383ECE7F7B5044618B92E
:1013B0000125284603B0F0BD06236A461A21FFF72F
:1013C00099FF05460028F3D1BDF90000FFF716FC90
:1013D0004FF07651FFF766FCBDF90270E0613846C8
:1013E000FFF70CFC4FF07651FFF75CFCBDF9046091
:1013F00020623046FFF702FC4FF07651FFF752FCB7
:101400006062D6E72DE9F341044620B9012528465C
:1014100002B0BDE8F08108236A462021FFF76AFF89
:1014200005460028F2D1BDF90000FFF7E7FB4FF0B9
:101430006251FFF737FCBDF90280A0624046FFF71A
:10144000DDFB4FF06251FFF72DFCBDF90470E06247
:101450003846FFF7D3FB4FF06251FFF723FCBDF98D
:10146000066020633046FFF7C9FB4FF06251FFF77B
:1014700019FC6063CBE713B5044610B9012002B034
:1014800010BD06236A462821FFF734FF0028F5D156
:10149000009BA363BDF80430A387F0E738B5054689
:1014A00080B3837973B3FFF73FFF04462846FFF705
:1014B00052FF0443E4B2003C284618BF0124FFF762
:1014C0005DFF0028284618BF0124FFF76EFF0028A3
:1014D000284618BF0124FFF795FF0028284618BFAB
:1014E0000124FFF7C8FF0028284618BF0124FFF792
:1014F0003EFE2846FFF75AFE01F0E8FEEC716864F4
:10150000204638BD0424FBE73422002106F038BF12
:1015100070B504460E46856A50F82510006BFFF73B
:10152000B7FA314644F82560FFF7B4FA0A230135CB
:1015300095FBF3F203FB1255E36A0646092BDCBF69
:101540000133E3622063A562E06AFFF757FB0146BF
:101550003046FFF75BFC70BD08B50A480A4A0B4BE2
:10156000C0E9002300234FF48042C0E90233C0E900
:101570000423C0E90633036202F09AFA08B172B696
:10158000FEE708BD7008002000540040A08601005E
:101590000FB413B50B4C04AB53F8042B8021204639
:1015A000019306F0CFFE2046FEF7D2FD642382B2FF
:1015B0002146054803F0E7FC02B0BDE8104004B046
:1015C000704700BF64020020E00700202628F8B51D
:1015D0000C4617D826281CD8DFE800F01C21252946
:1015E0002B2D2F381B3B404247494B4D1B1B1B1BD0
:1015F0001B1B1B1B1B1B1B1B1B1B1B1B8181686DD0
:101600006F76830040F20713984275D0B0F5847F5F
:1016100074D0F8BD3A4B1B681B882380F9E7384B20
:101620001B685B88F9E7364B1B689B88F5E7354BF1
:10163000F1E7344BF4E7334BF6E73349334B1868A3
:10164000FFF730FBFFF70AFD2080E2E73049314B1E
:10165000F5E7314B1B7803F00103DEE72F4BF9E789
:1016600080212F4802F068F8EEE74021F9E72021B9
:10167000F7E71021F5E78021294802F05DF84021C5
:101680000646274802F058F820210746244802F071
:1016900053F810218500224802F04EF845EA47052C
:1016A00035432DB245EAC0052580B2E71A4B1B78B9
:1016B000C3F34003B1E7194BF9E71A4B1B78002B32
:1016C000ABD0194B1B78A8E7164B1B783BB1174BD7
:1016D0001B78012B03D9164B1B885BBA9DE70023AF
:1016E0009BE7104B1B78002BF9D0104B1B78032B7A
:1016F000F5D90F4B5B88F0E7074BE3E7074BE1E7D2
:101700005C020020580200200000C842E8020020CD
:1017100000002041E4020020EE020020ED02002043
:1017200000080140F4020020F5020020F60200202B
:10173000F7020020A0F5807010B50C46092853D898
:10174000DFE800F0050F25335252525252424B1E31
:10175000F62B49D8254B26481972BDE81040FFF7F3
:1017600017BF4C1EA4B2032C8CBF4FF4E134214BA5
:101770001E4898BF33F8144090F81824214690F87A
:10178000193400F085FF78BB21461B48E5E70229A4
:101790002AD81648CAB290F81934D0F8141400F0B8
:1017A00077FF08BB21461548D7E74B1E012B1BD8F6
:1017B0000E48CBB290F81824D0F8141400F068FF4B
:1017C00090B921460E48C8E701290DD100240D4BE0
:1017D0000D481C70FFF7DCFE2246BDE810404FF4B8
:1017E00000410A4801F0AEBF10BD00BF0003002059
:1017F00058B2000822BD00087EB20008A0B200085E
:10180000BFB20008ED020020E1B200080010014064
:10181000F8B5294E2948FFF7BBFE0121306803F0D7
:1018200068FE0025264C274F08214FF47A730022CA
:10183000306803F0A5FE01072DD501F047FD42F207
:101840000F73401B984208D80821306803F07AFED5
:101850004FF47A7003F030FEE6E71B48FFF798FE7E
:1018600001F034FD08210546306803F06BFE237853
:10187000DA0706D51548FFF78BFE237823F001031E
:10188000237023789B0706D51148FFF781FE237844
:1018900023F002032370227802B101224FF40041A9
:1018A000384601F04FFF38464FF4005101F04FFF2A
:1018B0004FF4FA70CEE700BF4C020020F7B20008E8
:1018C000ED020020001001401AB300084AB30008DE
:1018D00065B3000808B50548FFF75AFE044C2046DA
:1018E00000F084FF012003F0E7FDF8E780B3000873
:1018F000000300202DE9F04FB1484FF0FF330022E4
:10190000012185B0006803F03BFEAE48FFF740FEC2
:101910000024AD4B1B78002B00F0F081AB4B1B7803
:10192000DB0740F1EB81AA4B6421186803F08AFEC3
:10193000002840F09881A748FFF7B0FD0146002835
:1019400040F0C481A448FFF7DFFDA248FFF7B5FBD4
:10195000A24C20609F48FFF7ADFB80469D48FFF7F3
:10196000A6FB06469B48FFF79FFB9D4B186023682C
:10197000002B00F0C781B8F1000F00F0C381002EEA
:1019800000F0C081002800F0BD8101F09FFC954F60
:101990000546386850B1281AFFF72CF99249FFF72D
:1019A00035FA00210446FFF725FB00B18F4CD8F82B
:1019B00000A03D6051465046FFF774F9D8F8047016
:1019C000D8F80850D8F80C90394680463846FFF7CA
:1019D00069F901464046FFF75DF8294680462846EA
:1019E000FFF760F901464046FFF754F84946804644
:1019F0004846FFF757F901464046FFF74BF808F015
:101A000095FD7B498046FFF7EBFA002840F07A818C
:101A100041463846FFF7FAF9414607462846FFF7A0
:101A2000F5F9414605464846FFF7F0F98346014679
:101A3000FFF730F859468146FFF734F939460090F0
:101A40003846FFF727F829460390FFF72BF9414660
:101A500083465046FFF7DAF94946FFF723F95F4B13
:101A60000190D3F80090B9F90000FFF7C7F8614979
:101A7000FFF718F98046B9F90400FFF7BFF85D4990
:101A8000FFF710F95C4981463068FFF70BF95B49B5
:101A9000FFF7BCF9824608F063FD0290504608F05B
:101AA00097FD294682462846FEF7F4FF2946FFF7B0
:101AB000F9F801464FF07E50FEF7EAFF0099FEF775
:101AC000E7FF4146FFF7EEF8019905465846FEF755
:101AD000DFFF4946FFF7E6F801462846FEF7DAFF42
:101AE0000299FFF7DFF8394605460398FFF7DAF861
:101AF00001464FF07E50FEF7CBFF0099FEF7C8FF7E
:101B00004946FFF7CFF8019907465846FEF7C2FF4E
:101B10004146FFF7C7F801463846FEF7BBFF51467E
:101B2000FFF7C0F801462846FEF7B4FF01462A48F1
:101B3000FFF7EEFC324B07461A78324D002A40F090
:101B40009680012228601A702F68DFF8BC80384622
:101B5000D8F80010FEF79EFF4FF07C51FFF7A2F877
:101B600021462A4CFFF79EF82168FEF793FFC8F83C
:101B7000007020600546264927F00040FFF730FA44
:101B8000244F002800F08F80154BD3F80080B8F95F
:101B90000000FFF733F84FF0804120F00040FFF7DE
:101BA0001FFA00287FD0B8F90200FFF727F84FF09E
:101BB000804120F00040FFF713FA002873D02BE09B
:101BC0004C020020A2B30008EC020020EE0200202C
:101BD000540200202C070020180200205C02002084
:101BE000580200201402002000007A440AD7A33CC7
:101BF000BD3786350AD7233CDB0F4940000034430C
:101C0000100200200C020020080200200402002024
:101C1000CDCC4C3D00020020B8F90400FEF7EEFFE9
:101C20004FF0804120F00040FFF7DAF900283AD069
:101C30003B780133DBB2022B3B7036D900232360A3
:101C40002268324B1A603268314B1A600022314BE5
:101C50001A60314A137823F00103137000242F4BCC
:101C6000186803F012FD322003F026FC51E62C49DF
:101C70002046FEF70FFF01462046FFF7C7F8014652
:101C800081464FF07E50FEF703FF2968FFF70AF800
:101C9000494680463846FFF705F801464046FEF7BC
:101CA000F9FE286050E700233B701E4F2846394656
:101CB000FFF7B4F908B12760C2E71B4D2068294639
:101CC000FFF78EF90028BBD02560B9E70134224622
:101CD0001648FFF75DFC042CC1D90F4A4FF40041B0
:101CE0001378134843F001031370012201F02AFD19
:101CF000104B0821186803F0FCFBAFE7642003F0E9
:101D0000DBFBB0E705B0BDE8F08F00BFE8020020C4
:101D1000E402002060020020ED02002054020020B6
:101D2000AF4C593D00004842000048C2C3B3000810
:101D3000001001404C0200202DE9F04F764F85B095
:101D40007648FFF725FC012142F210730022386823
:101D500003F016FC01F00EF80146002800F0878021
:101D60006F48FFF715FCFF2001F018F8002800F07D
:101D700082806C48FFF70CFC00F0B0FF00287CD19B
:101D80006948FFF705FCDFF8A481694D694E98F8B2
:101D90000010002900F0A580674B1B789B0740F1DD
:101DA000A0806421286803F04DFC0446002859D126
:101DB0004FF4FA630DF1070202A98DF8070001F054
:101DC00025F8002879D09DF80730002B75D05B48A6
:101DD000FFF7DEFB5A48FFF7DBFBDFF868919DF861
:101DE0000720E3B29A424AD85748FFF7D1FB0023B5
:101DF00099469DF8070002A9DAB2904201D9042B56
:101E000046D1DFF848A1DFF848B1DAF800304B4599
:101E100002D19BF80030E3B949464E48FFF7B8FBC2
:101E20009DF807404C48224602A906F036FB0122E5
:101E30004A4B042C1C708BF80020494BCAF80090C8
:101E40002ED148481A70FFF7A3FB0221386803F02F
:101E500050FB454B444A1B7803F0FD031370286880
:101E600003F013FC4FF4FA7003F026FB8FE73F48B2
:101E7000FFF78EFB77E73E487CE73E4881E710336B
:101E80006B44484613F8081CFFF782FB0134A6E7B1
:101E900011F8012BDC00A24049EA02090133ABE74B
:101EA000072C03D1022234481A70CCE700222146C5
:101EB00032481A70FFF76CFBC7E7254C2378002BDC
:101EC000C7D02F48FFF764FB0023244A2370137008
:101ED000234A13701D4A13601F4A1360C2F803306F
:101EE000B7E733680133312B336006D9124B2548ED
:101EF0001A78FFF74DFB002333600A21286803F0AE
:101F0000A1FB0028AED1124B1870144B1870144B63
:101F100018700E4B1860A2E74C020020FCB30008BA
:101F20001CB400085AB40008A3B40008EC02002056
:101F300054020020FC010020EE020020D9B4000869
:101F4000FDB4000803B50008C9BA0008F00200207B
:101F5000F402002009B50008F7020020F602002074
:101F6000F50200202BB50008ED02002039B400086E
:101F70007DB40008BCB4000854B5000880B5000862
:101F8000A3B50008B2B50008202210B590B000211A
:101F90000DEB020006F0F4F90021142201A806F06E
:101FA000EFF9022401224FF4803306A8CDE906237D
:101FB000CDE90D430A9202F0BBFA014608B172B6B0
:101FC000FEE70F23CDE90300059001A8CDE9013418
:101FD00002F070FC08B172B6FEE710B010BD000050
:101FE000F8B54F484F4CFFF7D3FA242229214E4829
:101FF000FFF7CEFA61684D48FFF7CAFA94F83D1032
:102000004B48FFF7C5FA94F83D202A2AD3B221D8CD
:102010001F2B02D833B3474825E0203B0A2BFAD8C0
:1020200001A252F823F000BFC9200008D120000807
:10203000D520000817200008CD2000081720000830
:102040001720000817200008D9200008DD2000080C
:10205000E1200008A02B45D0E02B45D0602BDAD141
:10206000354800E03548FFF793FA94F83D30202BCF
:1020700012D03348FFF78CFA2A4801F0C1FD0A203C
:1020800001F02AF9FFF768FA322001F025F994F8F7
:102090003D102C48FFF77CFA0124224D2A4E2B4F8D
:1020A000610001226423284689B202F08DF90246BC
:1020B00050BB21463846FFF76BFA292C16D124482D
:1020C000FFF766FA2A24EBE72248CCE72248CAE762
:1020D0002248C8E72248C6E72248C4E72248C2E7A8
:1020E0002248C0E72248BEE72248BCE7242C04D19E
:1020F0002148FFF74DFA2524D2E72048FFF748FA98
:102100000134802CCCD1F8BD0328F9D0292C01D082
:10211000242CF5D121463046FFF73AFA0134BFE7C7
:10212000F9B500087008002013B6000847B600088B
:1021300061B60008F7B60008D7B6000871B6000807
:1021400003B7000829B70008F0B700084FB7000828
:1021500074B700087BB6000885B600088EB6000884
:102160009AB60008A6B60008B1B60008C4B60008C2
:10217000E1B60008EDB600088FB70008AEB700085A
:102180002DE9F7430024504D504E2C703470FFF76A
:1021900027FF4F48FFF7FCF9DFF83881DFF8389167
:1021A0004E4F23460134002B60D040462146FFF7B6
:1021B000EFF94FF4FA7001F08FF849463846FFF70F
:1021C00020F8032C54D00028EBD14548FFF7E0F964
:1021D00042480DF107020DF10601FEF7F9FF30B993
:1021E0009DF807209DF806103E48FFF7D1F9797950
:1021F0003D48FFF7CDF92B7843F001032B703B48A6
:10220000FFF7C6F93A4F344B00243B6048233B713B
:10221000384BDFF8E480BC60BC813B61234601346D
:10222000002B48D040462146FFF7B2F94FF4FA7030
:1022300001F052F8384600F085FD032C3DD000280F
:10224000ECD12E48FFF7A4F92B7843F002032B7052
:1022500001222B4B2B481A70FFF79AF93278297814
:10226000294803B0BDE8F043FFF792B96420A2E724
:102270000028AAD01948FEF723FF04460146234848
:10228000FFF786F9FF2C0DD12148FFF781F933784C
:10229000012243F001034FF400411E48337001F066
:1022A00051FAACE70CB91C48EFE7A02221461B48C5
:1022B000FFF76EF9EBE76420BAE70028C1D01848B1
:1022C000FFF766F9C4E700BFEE020020ED02002030
:1022D0001BB8000834B80008700800202C07002044
:1022E00050B8000872B80008A2B80008A4B90008E5
:1022F0007407002091150008BCB90008D7B9000880
:10230000EC02002015BA000874B80008BDB8000837
:1023100000B900080010014034B9000875B9000880
:10232000F8B9000880B58AB000F0B2FFFFF72CFEC4
:102330001022002106A806F023F8984B4FF46041C4
:102340009A69974842F010029A619A69002402F053
:1023500010020092009A9A69012742F020029A61C5
:102360009A694FF0020802F020020192019A9A69DC
:102370004FF4807942F004029A619A694FF4E13691
:1023800002F004020292029A9A690C2542F00802B5
:102390009A619B69002203F008030393039B01F0F9
:1023A000D1F900224FF480717E4801F0CBF94FF44F
:1023B00060437B4806A9CDE90637CDE9084801F01E
:1023C00079F8F023774806A9CDE90634089401F09E
:1023D00071F8744806A9CDE90697CDE9084801F0DF
:1023E00069F8FFF7B9F87048704BC0E90244C0E9DA
:1023F0000036C0E905540461C46102F07BFD08B1F8
:1024000072B6FEE76A4C6B4BC4E90200C4E90405EE
:10241000C4E906002046C4E9003602F06BFD06461A
:1024200008B172B6FEE71022014606A805F0A8FF23
:102430000F234FF08042604DCDE90466C5E90023CB
:1024400041F288332846C5E90336AE60AE6102F03A
:10245000B7FB08B172B6FEE74FF48053284606A9D1
:10246000069302F0E3FB08B172B6FEE7CDE9040083
:1024700004A9284602F074FC08B172B6FEE7FFF723
:102480007FFE214604232A464C4800F0D3F8044638
:1024900000287ED14A48FFF77BF804214948FFF71E
:1024A00077F84948FFF774F84848FFF771F848494A
:1024B000424800F04FFB4749404800F04FFB0422E0
:1024C00049463E4800F03CFB42464FF482713B488F
:1024D00000F036FB40F2011240F20511374800F0DF
:1024E0002FFB40F201124FF48371344800F028FBB7
:1024F000052240F20111314800F022FB22464FF440
:1025000081712E4800F01CFB3A4640F203112B4823
:1025100000F016FB3048FFF73BF83048FFF738F87B
:102520002F48FFF735F802F057FF2E4803F052F816
:102530002D4B002118602D4A012003F0C5F82C4BCB
:10254000002118602B4A2C4802F072FF2B4B00210F
:1025500018602B4A2B4802F06BFF2B4B00211860B0
:102560002A4A2B4802F064FF2A4B002118602A4AAD
:102570002A4802F05DFF2A4B186010B92948FFF77E
:1025800007F8294802F0A4FF284B186002F036FF34
:10259000FEE72748FEF7FCFFBCE700BF0010024043
:1025A0000010014000080140E00700200038014011
:1025B0009807002000440040280800200003002065
:1025C00037BA000863BA000879BA00088EBA000862
:1025D000CD15000835170008CCBA0008E1BA00088C
:1025E000FBBA00084CBD0008540200203CBD0008A6
:1025F00050020020C8BD00081118000894070020F0
:1026000080BD0008F51800088C0700205CBD00089C
:10261000391D000888070020A4BD0008D51800084F
:102620009007002015BB00082CBD00084C020020BC
:10263000ACBA0008F8B50D4617461E46044610B35E
:1026400009B302B3013BDBB2F62B1CD840F22C429B
:10265000002105F095FE4FF4E133267201264FF478
:1026600000720021C4F81434C4E9005784F81964D6
:1026700004F10A0005F084FE32462846034902F0C0
:102680009AFE0020F8BD0120FCE700BFC80800202A
:1026900038B50446002836D0C0F8141480F8182441
:1026A00080F81934006802F054FC0022D4F8143485
:1026B00020684360826094F81934991E4B424B4164
:1026C0005B03C36094F81834012B03D0022B17D09E
:1026D000026105E04FF4806303614FF4805383602F
:1026E00000230C22C361C0E9052302F003FC054668
:1026F00020B901220549206802F05DFE284638BD58
:102700004FF4C063E8E70125F8E700BFC8080020E0
:10271000024601444FF6FF7030B5094D8A4200D1A0
:1027200030BD082412F8013B584040F300032B4011
:1027300083EA500398B2631E13F0FF04F5D1EDE76E
:1027400001A0FFFF70B5B0F8105400F544760446C0
:1027500029463046FFF7DCFF631983F81003032393
:10276000AA1C0135ADB292B22544000AA4F8102487
:1027700085F81003314684F812342068642302F08F
:1027800002FC002284F81224A4F80A234FF48041AA
:10279000BDE87040014800F0D5BF00BF0010014007
:1027A000B0F80A3310B5FF2B044613D8C218013312
:1027B00082F80A12A0F80A3300F088FD0123C4F859
:1027C0000C0384F8123420680122BDE81040064949
:1027D00002F0F1BDD0F820340133C0F820340023DA
:1027E000A0F80A33EDE700BFC80800202DE9F34741
:1027F000044600F06BFDB64B05461A68824233D0A2
:10280000186094F81234012B1AD0032B206800F0C2
:10281000908190F84230222B06D000230122AD494E
:10282000A4F80A3302F0C7FDB4F80A33E3B1D4F8D0
:102830000C33E81A632884BF0023A4F80A3313E09A
:10284000D4F80C33C31A042B0ED9B4F80A5335B19B
:10285000032D0CD8D4F820340133C4F820340023DD
:10286000A4F80A3384F8123402B0BDE8F08704F209
:102870000A26A91E304689B2FFF74AFF354415F8EB
:10288000012C15F8023C43EA02238342E2D194F87A
:102890000A32227A9A4201D0002BE0D101224FF471
:1028A00080418D4800F04EFF94F80B32062B00F06B
:1028B000C8801AD8032B217A23D0042B7BD063F055
:1028C0007F0384F81133012384F812330323227A1F
:1028D000A4F81034204684F81023FFF733FFD4F80F
:1028E00020340133C4F820341BE0102BE7D1B4F8B6
:1028F0000A130A2900F2CD80237A84F8103390233A
:1029000060E0B4F80A23082A11D0832284F8101357
:1029100084F8112384F81233A4F810342046FFF70A
:1029200011FFD4F81C340133C4F81C3497E7B4F811
:102930000E22B4F80C5252BA92B2501E6DBA7C28D4
:10294000ADB205D8FF2D03D8A818B0F5807F09DDFA
:10295000832384F8101384F81133022384F812338C
:102960000323D9E7A046560005F1040984F81013A3
:1029700084F8113384F8126304EB490987B239F8FB
:10298000023FADF80630D4F824341BB128460DF1CF
:1029900006019847BDF806300135ADB21A0ABD42AE
:1029A00088F8132388F8143308F10208E7D1F21CE1
:1029B000A4F81024B2E7B4F80A23082A06D0842326
:1029C00084F8101384F811330323A3E7B4F80E221C
:1029D000B4F80C5252BA92B2501E6DBA7C28ADB205
:1029E00005D8FF2D03D8A818B0F5807F03DD842318
:1029F00084F81013AFE7A046560005F1040984F8E7
:102A0000101384F8113384F8126304EB490987B278
:102A100039F8023FADF80630D4F824341BB128460B
:102A20000DF106019847BDF806300135ADB21A0A1E
:102A3000BD4288F8132388F8143308F10208E7D15F
:102A4000B5E7B4F80A33082B04D0237A84F810339E
:102A50008623B7E7B4F80C02B4F80E3240BA80B25D
:102A60005BBAFF2899B204D9237A84F810338623FD
:102A700071E704EB40025381D4F8283403B198473E
:102A8000D4F80A32C4F81033B388A4F814330623F8
:102A900042E7B4F80E32B4F80C225BBA9EB2701E54
:102AA0007A2894F810320ED8B3EB460F0BD152BAF5
:102AB00097B2FF2F07D807EB0608B8F5807F02DC36
:102AC000093399420AD0237A84F81033902342E7DD
:102AD000C4080020C808002000100140A1463D465F
:102AE00007F1040A04EB4A0A1FFA88F899F8113230
:102AF00099F8121241EA0321D4F828342AF8021F67
:102B00000BB1284698470135ADB2A84509F1020935
:102B1000ECD1237A84F8137384F81033102384F8EB
:102B20001133002384F8156384F8123384F81433C6
:102B3000ADE790F84130202B7FF496AE002391E66C
:102B400038B1FF2904D800EB4100428101207047D1
:102B50000020704708B1C0F82414704708B1C0F8CD
:102B60002814704770470000F0B5041E08BF4FF4EA
:102B70007A74002564270D4E85B0306801230179F1
:102B8000009700680DF10F0201F02EF928B99DF8A9
:102B90000F00012801D105B0F0BD0A200A3500F070
:102BA0009BFBAC42E9D80020F5E700BFCC08002031
:102BB000F0B54B1CDBB283B0DA1D02F4FC7202AF3D
:102BC000ADEB020D6A46642605460C4608490868C6
:102BD000017942F8086B006801F006F922462846A0
:102BE0000DF1090105F059FC0437BD46F0BD00BFE9
:102BF000CC08002010B50B4C2368986888B19989DF
:102C0000002200F09FFD0A2000F066FB23680122ED
:102C10009868998900F096FDBDE81040322000F0D8
:102C20005BBB10BDCC0800200B462DE9F041002411
:102C3000154603F10F0284B002F4FC726E4602AF37
:102C4000ADEB020D02AA8DF808405470FF24947079
:102C50005C1CD470DC431471D424073154710DF121
:102C60000D0C00EB030840451AD1D0186442847162
:102C700000206424505417490833086801790094EF
:102C8000006800F0D7FF0220B54600F025FB28467B
:102C9000FFF76AFF58B900200837BD46BDE8F0814C
:102CA00010F801EB74440CF801EFE4B2DBE7062105
:102CB0003846FFF77DFF06223846074905F050FBEE
:102CC0000028E8D1022000F007FB2846FFF74CFF60
:102CD000E2E700BFCC0800200000002014220123FE
:102CE00010B50A4C04212270A27020466422637041
:102CF000E370FFF799FF40B120460921FFF758FF25
:102D0000A079A0F115035842584110BDD008002009
:102D10001FB555238DF80F30094B0DF10F021868C0
:102D20006423017900930068012300F083FF0A20E7
:102D300000F0D2FAFFF7D2FF05B05DF804FB00BF48
:102D4000CC08002008B5094B186060B103690BB1CD
:102D500007489847FFF74EFF642000F0BDFAFFF7E1
:102D6000D7FF002008BD0120FCE700BFCC080020F1
:102D700083BB0008022310B5074C642201212046C2
:102D80002370FFF751FF30B120460D21FFF710FFF0
:102D9000D4F8060000BA10BDD008002038B53223A0
:102DA0000A4C05212370FF23A370012320716422A4
:102DB00020466170E370FFF737FF054618B109211F
:102DC0002046FFF7F5FE284638BD00BFD00800209A
:102DD00070B50D4C05460E4620461421FFF7E8FE5F
:102DE000E379012B0DD10022237B3370217BD3B2F9
:102DF000994201D8012070BDE118497B0132E954A4
:102E0000F4E70020F7E700BFD008002070B51646B1
:102E10004A221C46104BB4F57A7F1A704FF001021B
:102E20000D465A70987022464FF0030128BF4FF4A8
:102E30007A721846FFF7F8FE60B1322000F04CFAC3
:102E40002046FFF791FE28B131462846BDE8704084
:102E5000FFF7BEBF002070BDD0080020114B07B5A2
:102E60009A690F2142F001029A619A696FF001009C
:102E700002F001020092009ADA6942F08052DA61AF
:102E8000DB69002203F080530193019B00F048FAB4
:102E9000054A536823F0E06343F00073536003B0C6
:102EA0005DF804FB001002400000014010B504462C
:102EB00086B01022002102A805F062FA2268114BA8
:102EC0009A421CD1104CC022A369104843F0080359
:102ED000A361A36902A903F008030093009B1223D6
:102EE000CDE902230323059300F0E4FAE36943F4F8
:102EF0000013E361E36903F400130193019B06B03F
:102F000010BD00BF0054004000100240000C014002
:102F100008B50268094B9A420ED1094A4021D3698B
:102F2000084823F40013D36100F098FBBDE8084083
:102F30008021044800F092BB08BD00BF005400404F
:102F400000100240000C0140036807B5B3F1804F48
:102F500015D103F50433DA69052142F00102DA6183
:102F6000DB69002203F0010301931C20019B00F0A8
:102F7000D7F91C2003B05DF804EB00F001BA03B0F0
:102F80005DF804FB102210B5044688B00DEB02007A
:102F9000002105F0F5F92368324A934231D1324BD2
:102FA0004FF400719A69314842F480429A619A69FB
:102FB000002402F480420092009A9A6942F00402CE
:102FC0009A619B6903F004030193019B0223CDE9FD
:102FD0000413032304A9079300F06CFA4FF48063F1
:102FE000224804A9CDE90434069400F063FA2520B0
:102FF0002246052100F094F9252000F0C1F908B01F
:1030000010BD1B4A9342FAD1174B1848DA6904A93C
:1030100042F40032DA61DA69002402F400320292EA
:10302000029A9A6942F004029A619B69042203F0B1
:1030300004030393039B0223CDE904230323079393
:1030400000F038FA0823094804A9CDE904340694AD
:1030500000F030FA26202246052100F061F92620F2
:10306000CBE700BF003801400010024000080140DB
:103070000044004008B5124A036893420FD102F59C
:10308000584293690F4823F480434FF4C061936121
:1030900000F0E4FA2520BDE8084000F07FB90A4AB4
:1030A00093420BD102F5E632D369064823F400338C
:1030B0000C21D36100F0D2FA2620ECE708BD00BF56
:1030C000003801400008014000440040FEE7FEE7F0
:1030D000FEE7FEE7FEE7704708B500F0EBF803F007
:1030E00057FE012803D0BDE8084004F0F3B908BD3D
:1030F000014801F09FBC00BF28080020014801F0F2
:10310000F7BF00BFE0070020014801F0F1BF00BF9A
:10311000980700200268044B9A4204D1034B0448EC
:103120001978FFF73DBB704700440040C8080020F5
:10313000000300200368B3F1804F02D10148FFF77C
:1031400011BD7047000300200120704708B505F04D
:1031500069F9162303604FF0FF3008BD08B505F08C
:1031600061F916230360FEE770B50D4614460E465E
:10317000731B9C4201DC204670BDAFF3008006F853
:10318000010BF5E770B50D4614460E46731B9C42C5
:1031900001DC204670BD16F8010BAFF30080F5E7A7
:1031A0004FF0FF3070474FF4005300204B607047E2
:1031B00001207047002070470B4A0346116810B584
:1031C00009B90A491160106809490A4C0344091BEE
:1031D0008B4206D905F026F90C2303604FF0FF302F
:1031E00010BD1360FCE700BF10090020B03F0020B5
:1031F000005000200004000070470000FFF7FCFFB3
:103200000B480C490C4A002302E0D458C450043344
:10321000C4188C42F9D3094A094C002301E0136019
:103220000432A242FBD305F003F9FFF77BF87047A5
:1032300000000020E001002004C40008E00100209C
:10324000B03F0020FEE7000038B50E4B05461A7867
:103250004FF47A73B3FBF2F30B4A1068B0FBF3F050
:1032600000F0AEF8044658B90F2D09D80246294699
:103270004FF0FF3000F054F82046044B1D6038BD7D
:103280000120FCE70C0000200800002010000020B6
:10329000074A08B51368032043F01003136000F0D9
:1032A0002DF80F20FFF7D0FFFFF7D8FD002008BD55
:1032B00000200240034A044B11681B780B44136042
:1032C000704700BF140900200C000020014B186853
:1032D000704700BF1409002038B50446FFF7F6FF19
:1032E0000546631C1EBF044B1B78E418FFF7EEFF76
:1032F000431BA342FAD338BD0C0000200749030248
:10330000CA6803F4E06322F4E0621204120C13436F
:1033100043F0BF6343F40033CB60704700ED00E03F
:10332000154B30B5DC68C4F30224C4F10703251D36
:10333000042B28BF0423062D4FF0FF3594BF002433
:10334000033C05FA03F321EA0303A54022EA050240
:10335000A340002843EA0203ACBF00F16040074AE3
:103360004FEA0313DBB2ABBF00F5614000F00F0082
:1033700080F80033135430BD00ED00E014ED00E0A0
:10338000002807DB01234109034A00F01F008340A6
:1033900042F82130704700BF00E100E000280CDB5C
:1033A00001220649430900F01F008240203341F802
:1033B0002320BFF34F8FBFF36F8F704700E100E012
:1033C0000138B0F1807F0BD24FF0E023F021054AA5
:1033D000586182F823100020072298611A61704713
:1033E0000120704700ED00E090F821200346022AFA
:1033F00006D0042282630120002283F82020704737
:103400000268C06B116821F00E011160116821F093
:103410000101116001211A6C01FA02F242600020E0
:1034200083F82110E8E7000008B590F82130022B5E
:1034300003D004238363012008BD03681A6822F0C7
:103440000E021A601A6822F001021A60174A9342AB
:103450001FD0143293421ED0143293421DD0143226
:1034600093421DD0143293421DD01432934214BFA4
:103470004FF080734FF480130D4A5360012380F89E
:103480002130002380F82030436B03B1984700209F
:10349000D2E70123F0E71023EEE74FF48073EBE768
:1034A0004FF48053E8E74FF48033E5E7080002402B
:1034B000000002402DE9F74F00244FF00F0E264682
:1034C000DFF884C1614B00F104080A6832FA06F59E
:1034D00002D103B0BDE8F08F012505FA06F702EA34
:1034E000070537EA020276D14A68032A07D8013A6B
:1034F000022A00F28380DFE802F091969C00122AF3
:1035000000F0948069D8112A00F08A80FF2D94BFC2
:103510008146C1464FEA8602D9F8007088BF203A3A
:103520000EFA02FA27EA0A0704FA02F21743C9F868
:103530000070D1F8049019F0805F4CD0DCF81820AE
:1035400026F0030742F00102CCF81820DCF818201E
:1035500007F1804702F00102019207F5803706F07B
:10356000030A019A4FEA8A0ABA680EFA0AFB22EAAB
:103570000B0B374A904260D002F5806290425ED0D9
:1035800002F5806290425CD002F58062904214BFE6
:103590000422032202FA0AF242EA0B02BA609A6893
:1035A00019F4801F14BF2A43AA439A60DA6819F4F9
:1035B000001F14BF2A43AA43DA605A6819F4003F77
:1035C00014BF2A43AA435A601A6819F4803F14BFF3
:1035D0002A43AA431A60013677E7DFF878904A4514
:1035E0000CD014D8A9F580194A4507D009F57029DF
:1035F0004A4503D0A9F580194A4587D18A68D2B1D6
:10360000012A4FF008040CBF076147617EE7DFF82D
:1036100048904A45F2D009F58039EDE7CC6875E766
:10362000CC68043472E7CC6808346FE7CC680C349B
:103630006CE700246AE7042468E70022AAE7012275
:10364000A8E70222A6E700BF0010024000040140E4
:103650000008014000002210000031102DE9F74F52
:103660004FF0040B00224FF0010A4FF00F0800EB5F
:103670000B0301932E4B31FA02F402D103B0BDE8E3
:10368000F08F0AFA02F70F4049D022F0030404F148
:10369000804404F5803402F0030CA5684FEA8C0CDA
:1036A00008FA0CF909EA050E224DA84239D005F5B1
:1036B0008065A84237D005F58065A84235D005F56C
:1036C0008065A84214BF0425032505FA0CF575454D
:1036D0006FEA07060FD11D6835401D605D683540F3
:1036E0005D60DD683540DD609D6835409D60A568A2
:1036F00025EA0905A560FF2F94BF0746019F4FEA01
:1037000082043D6888BF203C08FA04FC25EA0C05C9
:103710000BFA04F425433D60C4683440C4600132B0
:10372000A9E70025D1E70125CFE70225CDE700BFB6
:1037300000040140000801408368194214BF0120C1
:10374000002070470AB1016170470904FBE7C368B4
:1037500001EA030221EA030141EA024101617047E3
:10376000016800224B6913F4806310D06FF480630A
:103770004B612023026380F83D3080F83E20036CCB
:1037800080F83C2043F0040303640120704718468E
:1037900070472DE9F84606460F4691461D464FEA0A
:1037A000114A3368BAF1010F0CBF5C699C6927EAC2
:1037B0000404A4B2B4FA84F46409A14501D0002041
:1037C00025E06A1CEED0FFF781FD089BC01AA842D5
:1037D00001D8002DE5D13368BAF1010F0CBF5B6948
:1037E0009B6927EA03039BB2B3FA83F35B0999450C
:1037F000D7D1002320220120336386F83D2086F8AC
:103800003E30326C86F83C3042F020023264BDE833
:10381000F8862DE9F04104460F461646984625687D
:10382000686927EA000080B2C0B16B695A0517D5F4
:103830002B68202243F400732B606FF480636B616C
:103840000023236384F83D2084F83E30236C43F04A
:10385000040323640023012084F83C30BDE8F08198
:10386000731CDDD0FFF732FDA0EB0800B04201D899
:10387000002ED4D123685A6927EA020292B2002AA4
:10388000CDD000232022236384F83D2084F83E30ED
:10389000236C1343DDE770B504460D4616462368D6
:1038A0005B691B0601D500201EE02046FFF758FF8C
:1038B000C8B96A1CF3D0FFF709FD801BA84201D8E4
:1038C000002DECD123685B6913F08003E7D120223F
:1038D000236384F83D2084F83E30226C84F83C3029
:1038E00042F020022264012070BD00002DE9FF4754
:1038F0009A46DDE90C78036815461A680E4642F4CC
:1039000080621A601A684FF0011142F480721A60E6
:103910003B460022CDF800800446FFF73AFF2368BB
:1039200048B11B68DB0548BF4FF400734FF003003C
:1039300048BF236421E05FFA86F906F0FE061E61A7
:103940003A46434620462A49FFF763FFA0B9236859
:1039500003905A69394603929B6942460393204675
:10396000039BFFF798FF58B1236C042B01BF22681B
:10397000136843F400731360012004B0BDE8F087BE
:10398000BAF1010F23681AD1EDB2424639462046FA
:103990001D61FFF780FF02460028E5D1216820461F
:1039A0000B6843F480730B603B464FF00111CDF878
:1039B0000080FFF7EEFE226860B11368B2E72A0AC2
:1039C0001A61394642462046FFF765FF0028CBD1F1
:1039D0002368D9E749F001031361204643463A467C
:1039E0000349FFF716FF003818BF0120C5E700BFE5
:1039F0000200010070B504460D46164623685B6957
:103A00005B0701D500201EE02046FFF7A9FEC8B9DC
:103A10006A1CF3D0FFF75AFC801BA84201D8002D86
:103A2000ECD123685B6913F00403E7D12022236300
:103A300084F83D2084F83E30226C84F83C3042F01B
:103A400020022264012070BD70B504460D46164662
:103A500021684B6913F0400301D0002011E04A694E
:103A6000D2060FD56FF010024A612022236384F83A
:103A70003D2084F83E30236C23640023012084F829
:103A80003C3070BDFFF722FC801BA84201D8002DFE
:103A9000DED123685B6913F04003D9D12022236370
:103AA00084F83D2084F83E30236C1343E4E70000A3
:103AB00070B5044608B9012070BD90F83D3003F0A0
:103AC000FF021BB980F83C20FFF7F0F9242384F8AB
:103AD0003D3023681A6822F001021A601A6842F425
:103AE00000421A601A6822F400421A6000F07EFF59
:103AF0003F4B65689D4294BF3E4B3F4B98428CBF05
:103B000000230123002BD6D1394E3C4BB542B0FBEC
:103B1000F3F388BF4FF496762268516821F03F0195
:103B200041EA030182BF73434FF47A76B3FBF6F3A5
:103B30005160116A013321F03F010B431362D169D7
:103B4000431E2B4821F44F41854221F0FF0132D81A
:103B50006D00B3FBF5F340F6FC700133034242D035
:103B6000C3F30B031943D1611168D4E9073021F085
:103B7000C00103430B4313609168D4E9030321F4AC
:103B80000341034321F0FF010B439360D168D4E963
:103B9000053021F0FF0103430B43D360136800207D
:103BA00043F0010313602023206484F83D30206338
:103BB00084F83E0080E7A06850B905EB4505B3FBEB
:103BC000F5F30133C3F30B037BB143F40043C9E7BF
:103BD00019206843B3FBF0F30133C3F30B0323B1A4
:103BE00043F44043BEE70423BCE70123BAE700BF28
:103BF000A08601007F841E00FF083D0040420F00A8
:103C000010B5044698B12423026880F83D3013684B
:103C100023F001031360FFF77BF90020206484F890
:103C20003C0084F83D00206384F83E0010BD012074
:103C3000FCE700002DE9F043044685B098460D46A8
:103C400091460C9FFFF742FB94F83D300646202B2F
:103C500004D00225284605B0BDE8F0830090192362
:103C6000012220465C49FFF794FD0028F1D194F829
:103C70003C30012BEDD00123216884F83C300B68E7
:103C8000DA075EBF0B6843F001030B600B6823F497
:103C900000630B60212384F83D30102384F83E300C
:103CA00000232364A4F82A80638DC4F8249023851C
:103CB0004A4BE362E36A082B04D0012B02D013F5D0
:103CC000803F04D10B6843F480730B6002E0236BE8
:103CD000122BF7D000223B464FF0011120460096F0
:103CE000FFF757FD226840B11368DB0501D40125B9
:103CF000B0E74FF400732364F9E72369B3F5804F0D
:103D000021D105F0FE05156133463A462046344977
:103D1000FFF77FFD05460028E9D1236803905A6923
:103D200003929B690393039B238DF3B921680A686F
:103D300042F400720A60202284F83C3084F83D206E
:103D400084F83E3086E7EB1103F0060343F0F003FE
:103D50001361204633463A462249FFF75AFD0028B0
:103D6000C5D12368EDB21D61CEE732463946204603
:103D7000FFF791FD40B1236C042BB8D12268136882
:103D800043F400731360B2E7636A20681A4612F8BE
:103D9000011B01616262628D013A92B26285228DDD
:103DA000D0F814C0511E89B21CF0040F21850AD02E
:103DB00049B15978023301616362638D023A013B74
:103DC0009BB263852285324639462046FFF712FEB4
:103DD0000028A9D0CFE700BF020010000000FFFFBD
:103DE00002000100080001002DE9F043984600237D
:103DF000044689B002930E469146109FFFF766FA7B
:103E000094F83D300546202B04D00226304609B0F8
:103E1000BDE8F08300901923012220468F49FFF767
:103E2000B8FC0028F1D194F83C30012BEDD00123EF
:103E3000216884F83C300B68DB075EBF0B6843F0F9
:103E400001030B600B6823F400630B60222384F8EA
:103E50003D30102384F83E3000232364A4F82A80E8
:103E6000638DC4F8249023857D4BE362E36A0A687E
:103E7000082B42F480620A6004D0012B02D013F5B3
:103E8000803F04D10B6843F480730B6002E0236B26
:103E9000112BF7D03B4600224FF001112046009530
:103EA000FFF777FC236838B11B68D80544BF4FF48F
:103EB000007323640126A9E72269B2F5804F29D156
:103EC00046F00106F6B21E612B463A462046654989
:103ED000FFF79FFC06460028ECD1228D2368002ABC
:103EE0004DD103905A6903929A690392039A1A6812
:103EF00042F400721A60DFF87081DFF87091238D50
:103F0000002B6CD1202284F83C3084F83D2084F8CA
:103F10003E307BE74FEAE61808F0060848F0F0026A
:103F20001A6120462B463A465149FFF772FC002899
:103F3000C0D12368F6B23A461E6120462B46494955
:103F4000FFF767FC02460028B4D12368079059693F
:103F500020460791996907910799196841F4807182
:103F600019603B464FF001110095FFF712FC2268E3
:103F700008B1136899E748F0F1031361A4E7012A37
:103F800011D11A6822F480621A6072B62368049014
:103F90005A6904929A690492049A1A6842F4007267
:103FA0001A6062B6A7E7022A1A680ED142F40062CC
:103FB0001A6072B6236805905A6905929A6905924B
:103FC000059A1A6822F48062EAE742F480621A6075
:103FD00006905A6906929B690693069B8BE7032B12
:103FE00000F28880012B16D12A4639462046FFF779
:103FF0002BFD00287FF45EAF23681A69636A1A708C
:10400000636A01336362238D013B2385638D013B2A
:104010009BB2638573E7022B4FF000023B4641469B
:104020002046009526D1FFF7B4FB00287FF442AF6D
:1040300072B623681A6842F400721A601A69636AD9
:104040001A70636A01336362238D013B2385638D9C
:10405000013B9BB2638562B6CEE700BF0200100051
:104060000000FFFF02000100040001000800002022
:1040700008000100FFF78DFB00287FF41BAF2268CA
:10408000136823F48063136072B646F2A8112368A4
:104090001A69636A1A70626A531C6362238D013B5A
:1040A0002385638D013B9BB26385D9F80030B3FB58
:1040B000F1F323214B430293029B013B0293029BAA
:1040C0006BB92022236384F83D2084F83E30226CB3
:1040D00042F02002226462B684F83C30EAE62368AB
:1040E00059694907E8D5196841F4007119601B69DD
:1040F0005370A6E72A4639462046FFF7A5FC00285C
:104100007FF4D8AE23681A69636A1A70628D616A97
:10411000013A92B24B1C628522686362238D50691A
:10412000013B9BB2400723857FF5E9AE032B02BF1D
:10413000136823F48063136013694B7060E700BF5A
:104140002DE9F04399460023044689B003930D46B8
:104150009046129FFFF7BAF894F83D300646202BA0
:1041600004D00225284609B0BDE8F0830090192349
:10417000012220469049FFF70CFB0028F1D194F86A
:104180003C30012BEDD00123206884F83C300368DB
:104190002946DB0758BF036842465CBF43F0010372
:1041A0000360036823F400630360222384F83D3036
:1041B000402384F83E3000232364109B2046636232
:1041C000BDF844306385638D23857C4BE3624B46A9
:1041D000CDE90076FFF78AFB0546002840F0BA805B
:1041E000228D2368C2B904905A6904929A69049294
:1041F000049A1A6842F400721A60DFF8C481DFF88A
:10420000C491238D002B37D1202284F83C3084F8D0
:104210003D2084F83E30A5E7012A11D11A6822F426
:1042200080621A6072B6236805905A6905929A698D
:104230000592059A1A6842F400721A6062B6DCE7C9
:10424000022A1A680ED142F400621A6072B623681C
:1042500006905A6906929A690692069A1A6822F49A
:104260008062EAE742F480621A6007905A69079216
:104270009B690793079BC0E7032B78D8012B15D1C7
:10428000324639462046FFF7DFFB002862D123681B
:104290001A69636A1A70636A01336362238D013B92
:1042A0002385638D013B9BB26385AAE7022B4FF008
:1042B00000023B4641462046009618D1FFF769FAB6
:1042C000002847D172B623681A6842F400721A6057
:1042D0001A69636A1A70636A01336362238D013B52
:1042E0002385638D013B9BB2638562B6CFE7FFF701
:1042F00050FA00282ED12268136823F480631360DB
:1043000072B646F2A81123681A69636A1A70626A63
:10431000531C6362238D013B2385638D013B9BB25C
:104320006385D9F80030B3FBF1F323214B430393AA
:10433000039B013B0393039B73B92022236384F8FF
:104340003D2084F83E30226C42F02002226462B6A6
:1043500084F83C30012505E7236859694907E7D50A
:10436000196841F4007119601B695370B3E7324654
:1043700039462046FFF768FB0028EBD123681A690D
:10438000636A1A70628D616A013A92B24B1C62854F
:1043900022686362238D5069013B9BB240072385ED
:1043A0007FF52FAF032B02BF136823F480631360E4
:1043B00013694B706FE700BF020010000000FFFFA1
:1043C00004000100080000202DE9F04F044685B0EC
:1043D0001F4688469246FEF779FF94F83D30054621
:1043E000202B03D0022005B0BDE8F08F00901923E8
:1043F000012220464C49FFF7CCF90028F2D194F86D
:104400003C30012BEED0012384F83C302368002699
:104410001A68DFF814B1D00758BF1A6808F0FE0810
:104420005CBF42F001021A601A6822F400621A604E
:10443000242384F83D303D4B2664E36222684FF02C
:1044400001111368204643F4807313603B46002239
:104450000095FFF79EF9236838B11B680320D90542
:1044600044BF4FF400732364BDE7C3F81080FEF728
:104470002DFF4FF0A009054623685A695B69C2F316
:104480004002C3F3802394F83D10A0291CD14FF0C3
:104490002009236884F83D905A6992072BD51A6841
:1044A000204642F400721A60002203925A691E49A3
:1044B00003929B6901220393039B00951923FFF745
:1044C00068F998B101208EE71343E0D1FEF7FEFEB4
:1044D000401BB84200D80FB984F83D9023685A6950
:1044E0005B69C2F34002C3F38023CCE784F83D90BC
:1044F00084F83C0077E71A68594642F400721A6063
:104500006FF4806220465A61192301220095FFF75B
:1045100040F90028D6D1013656458FD384F83D9016
:1045200084F83C00CEE700BF020010000000FFFF4F
:104530002DE9F341054638B30368DB0710D42B6837
:104540009F075ED42B68190700F195802B685A07E6
:1045500000F1C180EB69002B40F02C81002029E0A4
:10456000904C636803F00C03042B07D0636803F0DE
:104570000C03082B0AD16368DE0307D523689C036C
:10458000DDD56B68002BDAD1012013E06B68B3F541
:10459000803F12D1236843F480332360FEF796FEF8
:1045A000064623689803CAD4FEF790FE801B642851
:1045B000F7D9032002B0BDE8F0819BB9236823F44A
:1045C00080332360236823F480232360FEF77EFE7C
:1045D000064623689903B2D5FEF778FE801B64284F
:1045E000F7D9E6E7B3F5A02F236803D143F480237E
:1045F0002360CFE723F480332360236823F48023F0
:10460000CBE7684C636813F00C0F07D0636803F0C6
:104610000C03082B10D16368DA030DD423689B07C1
:1046200002D52B69012BAFD123686A6923F0F80307
:1046300043EAC203236085E72A695B4B6AB1012222
:104640001A60FEF743FE064623689F07ECD4FEF788
:104650003DFE801B0228F7D9ABE71A60FEF736FE55
:104660000646236898077FF56DAFFEF72FFE801B87
:104670000228F6D99DE7AA694A4E4B4BE2B10122C6
:10468000C3F88024FEF722FE0446736A9B070DD50B
:104690004FF4FA52454B1B68B3FBF2F3019300BF92
:1046A000019B5A1E0192002BF9D14FE7FEF70EFE37
:1046B000001B0228E9D97CE7C3F88024FEF706FE38
:1046C0000446736A9F077FF541AFFEF7FFFD001BAD
:1046D0000228F6D96DE7334CE369D80024D40127CA
:1046E000E36943F08053E361E36903F0805300938F
:1046F000009B2F4E3368D90518D5EB68012B26D1C6
:10470000236A43F001032362FEF7E0FD41F288389B
:104710000646236A9B073FD5002F3FF41BAFE36992
:1047200023F08053E36115E70027E2E7336843F4A1
:1047300080733360FEF7CAFD80463368DA05DCD447
:10474000FEF7C4FDA0EB08006428F6D931E7ABB949
:10475000236A41F2883823F001032362236A23F09D
:1047600004032362FEF7B2FD0646236A9807D3D5F9
:10477000FEF7ACFD801B4045F7D91AE7052B236AED
:1047800003D143F004032362BAE723F00103236259
:10479000236A23F00403B6E7FEF798FD801B40452B
:1047A000B7D906E70010024000004242080000208E
:1047B000007000402A4C626802F00C02082A3ED0C9
:1047C0000022022B274B1A662CD1FEF77FFD0646EE
:1047D0002368990120D42B6AB3F5803F05D1626824
:1047E000A96822F400320A436260696A62680B4376
:1047F00022F474121343012263601A4B1A66FEF707
:1048000065FD054623689A013FF5A8AEFEF75EFDFB
:10481000401B0228F6D9CCE6FEF758FD801B022883
:10482000D6D9C6E6FEF752FD054623689B017FF503
:1048300095AEFEF74BFD401B0228F6D9B9E6012BD9
:104840003FF4A2AE60682B6A00F480329A427FF493
:104850009BAE6B6A00F47010C01A18BF0120A9E665
:1048600000100240000042420D4A536803F00C0160
:10487000082912D10B48C3F38341DB03405C09D5FF
:104880005368094AC3F340435043084AD35CB0FB22
:10489000F3F07047064B584370470348704700BF1A
:1048A0000010024006BE000800127A0004BE000894
:1048B00000093D002DE9F0410D46044610B90120E4
:1048C000BDE8F081444A136803F007038B4228D304
:1048D00021688E0730D4CA0743D43F4A136803F0D7
:1048E0000703AB4265D822683C4D12F0040F6CD12F
:1048F000130706D56B68226923F4605343EAC203A9
:104900006B60FFF7B1FF6B68354AC3F30313D35CE9
:10491000D840344B1860344B1868FEF795FC0020E3
:10492000CEE7136823F007030B431360136803F00B
:1049300007038B42C3D1CBE7284B11F0040F1EBFF6
:104940005A6842F4E0625A60080742BF5A6842F46B
:1049500060525A605A68A06822F0F00202435A601E
:10496000B9E762681D4E012A33681AD113F4003F7B
:10497000A5D0736841F2883823F0030313437360B2
:10498000FEF7A4FC07467368626803F00C03B3EB00
:10499000820FA2D0FEF79AFCC01B4045F3D903203A
:1049A0008EE7022A02D113F0007FE1E713F0020F35
:1049B000DEE7136823F007032B431360136803F04B
:1049C0000703AB427FF47BAF8DE76B68E16823F4AC
:1049D000E0630B436B608BE7002002400010024055
:1049E000F4BD00080800002010000020044B054A18
:1049F0005B68C3F30223D35C034A1068D840704756
:104A000000100240ECBD000808000020044B054ADD
:104A10005B68C3F3C223D35C034A1068D840704775
:104A200000100240ECBD00080800002070477047ED
:104A300070477047036870B5DD681E690446B107AA
:104A40000DD5AA070BD56FF002021A610122027779
:104A50009B699B0769D0FFF7EAFF00232377710763
:104A600010D56A070ED56FF00402236820461A613C
:104A7000022222779B6913F4407F5CD0FFF7D7FFB7
:104A80000023237733070FD528070DD56FF00802D1
:104A9000236820461A6104222277DB69990750D0E7
:104AA000FFF7C5FF00232377F20610D5EB060ED5DE
:104AB0006FF01002236820461A6108222277DB6912
:104AC00013F4407F43D0FFF7B2FF00232377F007B2
:104AD00008D5E90706D56FF00102236820461A6160
:104AE000FEF728FB320608D52B0606D56FF08002AC
:104AF000236820461A6100F062F9700608D569063D
:104B000006D56FF04002236820461A61FFF791FF37
:104B1000B20622D5AB0620D56FF0200223682046CE
:104B2000BDE870401A6100F049B9FFF77FFF2046E9
:104B3000FFF77EFF91E7FFF779FF2046FFF778FF49
:104B40009EE7FFF773FF2046FFF772FFAAE7FFF724
:104B50006DFF2046FFF76CFFB7E770BD174A03688B
:104B600090420AD0B0F1804F07D0A2F59432904223
:104B700003D002F58062904207D14A6823F07003A7
:104B80001343CA6823F4407313434A6923F0800334
:104B9000134303608B68C3620B688362074B9842C0
:104BA00004BF0B690363012343610369DB0742BF51
:104BB000036923F001030361704700BF002C01402B
:104BC00010B5044630B390F83D3003F0FF021BB936
:104BD00080F83C20FEF7B8F90223206884F83D30C5
:104BE000211DFFF7BBFF0123002084F8463084F825
:104BF0003E3084F83F3084F8403084F8413084F807
:104C0000423084F8433084F8443084F8453084F8E6
:104C10003D3010BD0120FCE710B584680A4324F440
:104C20007F4442EA03222243826010BD38B590F8E7
:104C30003C300446012B4FF0020000F08E80012230
:104C400084F83D00206884F83C20836823F47F4387
:104C500023F0770383600B68602B4FD032D8402B52
:104C600064D016D8202B0DD00AD833F0100109D00B
:104C7000012384F83D30002384F83C30104638BDD1
:104C8000302BF5D1826822F07002134343F0070302
:104C900028E0502BECD14A68CD68016A036A21F004
:104CA0000A0123F00103036283690A4323F0F0033E
:104CB00043EA051383610262836823F0700343F0C3
:104CC00057030FE0B3F5805F0DD0B3F5005F0CD054
:104CD000702BCDD1CB68D1E90121FFF79DFF83680F
:104CE00043F0770383600022C2E7CB68D1E901215A
:104CF000FFF792FF836843F48043F3E7036A026A95
:104D00004D6822F01002C9680262826923F0A00394
:104D100022F4704243EA051342EA013282610362DF
:104D2000836823F0700343F06703DBE74A68CD68CC
:104D3000016A036A21F00A0123F001030362836917
:104D40000A4323F0F00343EA051383610262836898
:104D500023F0700343F04703C4E702468EE70000E8
:104D600030B590F83C300246012B4FF0020022D0C3
:104D7000136882F83D005C680D6824F070042C43D1
:104D800098685C600C4CA3420AD0B3F1804F07D006
:104D9000A4F59434A34203D004F58064A34204D163
:104DA000496820F08000014399600123002082F8C7
:104DB0003D3082F83C0030BD002C01407047704708
:104DC000026802F10C0353E8003F23F490730C32A5
:104DD00042E8003102680029F2D102F1140353E8DD
:104DE000003F23F0010302F1140C4CE800310029CC
:104DF000F3D1036B012B0BD102F10C0353E8003FFD
:104E000023F0100302F10C0C4CE800310029F3D11F
:104E1000202380F8423000230363704710B5044616
:104E20000368C1681A6922F440520A431A61826811
:104E30000069D9680243606921F4B05121F00C0186
:104E400002430A43DA605A69A16922F440720A43B4
:104E50005A610E4A934215D1FFF7D8FD19234343F7
:104E6000626820689200B3FBF2F36422B3FBF2F1B4
:104E700002FB11331B013233B3FBF2F303EB0113DB
:104E8000836010BDFFF7B2FDE8E700BF00380140C6
:104E9000F7B505460C4617461E462A68136834EADD
:104EA000030301D1002021E0701CF7D0FEF70EFAB9
:104EB000C01B86421CD3DEB12B68DA685107ECD5E3
:104EC000802CEAD0402CE8D01A681207E5D50024DF
:104ED00001941A68284601925B680193019BFFF7D1
:104EE0006FFF082301206B6485F8404003B0F0BDDC
:104EF0000320FBE710B5044648B390F8413003F0B7
:104F0000FF021BB980F84020FEF73CF824232268FA
:104F100084F84130D368204623F40053D360FFF770
:104F20007DFF236800201A6922F490421A615A69B1
:104F300022F02A025A61DA6842F40052DA60202331
:104F4000606484F8413084F84230606310BD012011
:104F5000FCE710B50446A0B12423026880F8413074
:104F6000D36823F40053D360FEF784F80020606414
:104F700084F8400084F8410084F8420020636063B4
:104F800010BD0120FCE72DE9F843984690F8413028
:104F90000446202B0E4617463FD100293FD0002A59
:104FA0003DD021230025456480F84130FEF78EF97D
:104FB000A3688146B3F5805FA784E78403D12369A2
:104FC0000BB935461E46E38C9BB253B943464A465D
:104FD00040212046FFF75CFF202350B984F8413080
:104FE0000AE043464A4680212046FFF751FF28B198
:104FF0002023032084F84130BDE8F88322684EB9AD
:1050000035F8023BC3F308035360E18C013989B2E0
:10501000E184D8E716F8013BF6E70220ECE701202F
:10502000EAE77047704708B50023406AC385C38428
:10503000FFF7F8FF08BD704790F8423007B5222B04
:1050400042D181680268B1F5805F836A3FD101690E
:1050500000293FD15268C2F3080223F8022B836271
:10506000C38D013B9BB2C385002B2DD10268D16853
:1050700021F02001D160D16821F48071D1605169A3
:1050800021F001015161202280F842204363026B2C
:10509000012A026828D1036302F10C0353E8003FA0
:1050A00023F0100302F10C0C4CE800310029F3D17D
:1050B0001368DB0605D501911368019353680193CA
:1050C000019B818DFFF7B7FF03B05DF804FB39B991
:1050D000016929B95268D2B21A70836A0133BEE7F6
:1050E000526802F07F02F7E7FEF714F8ECE70000E1
:1050F000036873B51A6804461607D9685D6908D154
:10510000960668D58D0666D502B0BDE87040FFF7FB
:1051100093BF05F0010001F4907505435BD0D607FD
:1051200005D5CD0542BF636C43F0010363645307AB
:1051300004D518B1636C43F002036364960704D589
:1051400018B1636C43F004036364150707D501F0DD
:10515000200303431EBF636C43F008036364636C66
:10516000002B32D0920604D58B0602D52046FFF7DD
:1051700063FF266820467369626C03F0400302F007
:10518000080253EA020522D0FFF71AFE73695E0691
:1051900018D5226802F1140353E8003F23F04003BE
:1051A000143242E800310029F3D1E06B50B1744B66
:1051B0004363FEF739F940B1E06B436B02B0BDE8E1
:1051C000704018472046FFF72DFF02B070BDFFF773
:1051D00029FF6564F9E7206B012840F09480D5062B
:1051E00040F19180C80640F18E80002201921A6839
:1051F00001925A680192019A5A6952064DD5E16BA3
:105200000A68526892B2002ADFD0A08D9042DCD9A1
:10521000E2858A69202A36D003F10C0252E8002F79
:1052200022F4807203F10C0040E800210029F3D140
:1052300003F1140252E8002F22F0010203F11400DE
:1052400040E800210029F3D103F1140252E8002FB5
:1052500022F0400203F1140040E800210029F3D1BC
:10526000202284F84220216303F10C0252E8002F2F
:1052700022F0100203F10C0040E800210029F3D1D4
:10528000E06BFEF7B1F802236363E38DA18DC91AC9
:1052900089B22046FFF7CFFE97E7E28DE08DA18D22
:1052A00080B292B2002890D0891A89B200298CD09D
:1052B00003F10C0252E8002F22F4907203F10C0566
:1052C00045E800200028F3D103F1140252E8002F32
:1052D00022F0010203F1140545E800200028F3D173
:1052E000202284F84220206303F10C0252E8002FB0
:1052F00022F0100203F10C0545E800200028F3D14C
:1053000002236363C5E7160628D50D0626D594F853
:105310004120212A7FF459AFA168226AB1F5805F4C
:1053200017D12169A9B932F8021BC1F308015960EC
:105330002262E28C013A92B2E284002A7FF445AF05
:10534000DA6822F08002DA60DA6842F04002DA605D
:105350003BE7511C216212785A60EAE750067FF55C
:1053600034AF4A067FF531AFDA68204622F04002BA
:10537000DA60202384F84130FFF753FE25E700BFB1
:10538000275000080023C2854364222382850269D6
:1053900080F84230816203681AB1DA6842F48072A0
:1053A000DA605A69002042F001025A61DA6842F07C
:1053B0002002DA60704770B490F84260202E06D167
:1053C00041B13AB10024046370BCFFF7DBBF022097
:1053D00070BC70470120FBE7EFF305832BB9064B48
:1053E000186828B901221A6070476FF005007047ED
:1053F0004FF0FF30704700BFD00F002010B5EFF323
:1054000005845CB9084B1A68012A0AD1074AD47787
:1054100002221A6001F0C0F9204610BD6FF00500AD
:10542000FBE74FF0FF30F8E7D00F002000ED00E081
:10543000F0B51446002287B00B460592EFF30582C3
:10544000FAB9F0B154B3A56925B1691E372902D95B
:10545000002017E018256268D207F9D466699EB16A
:10546000B2082168D4E9027C87B1BCF15B0F08D98E
:10547000246934B12EB1CDE90147009501F025F939
:105480000590059807B0F0BD8022EAE7BCF1000F57
:10549000F7D12469002CF4D10C4601E018258022B4
:1054A00005A9CDE9005192B2214601F046F9012843
:1054B0001CBF00230593E4E708B5EFF3058222B98A
:1054C00008B101F0C9FA002008BD6FF00500FBE744
:1054D0000346EFF3058242B948B1D3E9020318B19C
:1054E0001F2B02D900F052B90BB10020704700F019
:1054F00071B913B50C46F8B1B1F1807F1CD2EFF34E
:105500000583A3B1002301AA019300F07BFAB0B197
:10551000019B4BB14FF0E0234FF08052C3F8042DB4
:10552000BFF34F8FBFF36F8F204602B010BD02B0A4
:10553000BDE8104000F020BA6FF00304F4E76FF00C
:105540000204F1E770B50E460546B0B1B1F1807FB7
:1055500013D2EFF3058363B100F000FA314604463D
:10556000284600F0F3F9002808BF6FF00204204637
:1055700070BDBDE8704000F0C3B96FF00304F6E7FA
:1055800073B50C461D46F8B1B1F1807F1CD2EFF324
:105590000583E3B902F0010682F00202C2F3400281
:1055A0003346009500F024F904EA00024EB1A2420D
:1055B00005D0002D14BF6FF001006FF0020002B0A3
:1055C00070BD002AF5D0FAE76FF00300F7E76FF03F
:1055D0000500F4E7F8B50546EFF3058717B1002499
:1055E0002046F8BD20B346683307F8D4D0E902134B
:1055F00006F0010699B14F2BF1D9BEB1042000F09D
:1056000077FC04460028EAD037462D682946204614
:1056100000F098FE002FE3D044F00104E0E7002BF7
:10562000DDD12EB1042000F097FCEAE70120E6E787
:10563000012000F091FC04460028D0D0002DE5D0D8
:105640000026E1E738B503460C4620F0010003F0E0
:105650000102EFF3058595B9012B13D962B100F072
:1056600050FE012801D1002038BD002C14BF6FF07E
:1056700001006FF00200F7E700F086FDF1E76FF040
:105680000500F1E76FF00300EEE7024608B520F0F1
:10569000010002F00103EFF3058179B9012A10D965
:1056A0003BB100F03AFC01280CBF00206FF0020073
:1056B00008BD1A46194600F069FBF4E76FF00500D3
:1056C000F6E76FF00300F3E7F7B504460E4615461C
:1056D000EFF3058242B938B1884205D355B1D5E917
:1056E00002372BB14F2F22D80024204603B0F0BD43
:1056F000002FF9D1012C0CD02046314600F028FBB8
:1057000004460028F0D085B92946204600F01AFE4C
:10571000EBE703220021012000F0D1FA0EE01A4647
:1057200000F0F4FA04460028DED02D68ECE70128EA
:10573000F5D103210091114600F073FA04460028C8
:10574000D2D0002EDFD000231A46194600F01EFBEF
:105750000128D8D0204600F01FFEC5E7034B0360A8
:10576000034B0B6080231360704700BF740F002051
:10577000740D0020034B0360034B0B604FF48073E8
:1057800013607047180D00201809002013B5044657
:1057900040B94FF0500383F31188BFF36F8FBFF30D
:1057A0004F8FFEE720230193019B202B08D04FF061
:1057B000500383F31188BFF36F8FBFF34F8FFEE762
:1057C000002340F8043B00F025F90123204623770D
:1057D00002B010BD38B5202001F050FF044628B1BA
:1057E000002540F8045B00F015F92577204638BD08
:1057F0002DE9F843DDF820900D46174698460646F9
:1058000040B94FF0500383F31188BFF36F8FBFF39C
:105810004F8FFEE7B1F1807F08D34FF0500383F341
:105820001188BFF36F8FBFF34F8FFEE741B94FF081
:10583000500383F31188BFF36F8FBFF34F8FFEE7E1
:1058400001F0A6FA58B9B9F1000F08D04FF0500393
:1058500083F31188BFF36F8FBFF34F8FFEE700F024
:10586000E1FF346805EA0403B8F1000F13D1A3B9CE
:10587000B9F1000F15D0391E18BF01210906B8F182
:10588000000F01D041F080614A462943301D01F0EC
:105890005DF9002407E09D42EAD117B124EA05032F
:1058A00033604FF0000901F063F8B9F1000F1CD02C
:1058B00048B94FF0E0234FF08052C3F8042DBFF3F6
:1058C0004F8FBFF36F8F01F041FB830104460AD471
:1058D00001F0A8FD346805EA0403B8F1000F07D110
:1058E00043B901F0BFFD24F07F442046BDE8F883B2
:1058F0009D42F6D1002FF4D024EA05053560F0E78B
:1059000070B50C46054640B94FF0500383F311883B
:10591000BFF36F8FBFF34F8FFEE7B1F1807F08D3E6
:105920004FF0500383F31188BFF36F8FBFF34F8F96
:10593000FEE701F077FD2E6826EA04042C6001F0F2
:1059400091FD304670BDFFF7DBBF00000A46002323
:105950000146014801F0FABC47590008EFF31183F2
:105960004FF0500282F31188BFF36F8FBFF34F8F58
:10597000006883F3118870472DE9F0410D46044615
:1059800040B94FF0500383F31188BFF36F8FBFF31B
:105990004F8FFEE7B1F1807F08D34FF0500383F3C0
:1059A0001188BFF36F8FBFF34F8FFEE700F10C0636
:1059B00000F038FF236820692B43002523608642CE
:1059C000216807D121EA0501216000F0D1FF20689C
:1059D000BDE8F081D0E9002822F07F4312F0806F0B
:1059E00003EA010702D11FB94046E8E7BB42FBD1F9
:1059F000D20141F0007148BF1D4301F033F9F3E7D4
:105A0000FFF7BABF13460A460146014801F09EBCA3
:105A1000015A00084FF0FF3200F10803C0E90223E9
:105A200043600361002303607047002303617047F4
:105A300043689A684B608A605160996003680861A6
:105A400001330360704730B50C68631C0AD10369E9
:105A50005A684A6091608B6059600368086101333D
:105A6000036030BD00F10802134652681568A54274
:105A7000FAD9EDE70369D0E901128A6051605968EB
:105A8000814208BF5A60002202611A68013A1A6016
:105A90001868704710B5044601F0C4FCA46B01F00F
:105AA000E1FCB4FA84F0400910BD70B51646026CF2
:105AB0000446856B42B906689EB9806801F0B6F964
:105AC000A6600135A56370BD6EB9406802F0E5FCC3
:105AD0006368226C1344A2686360934224BF236806
