:020000040800F2
:1000000000500020512100086120000863200008F2
:100010006520000867200008692000080000000033
:10002000000000000000000000000000015F000868
:100030006B20000800000000915F00086D200008A0
:1000400099210008992100089921000899210008A8
:100050009921000899210008992100089921000898
:100060009921000899210008992100089921000888
:100070009921000899210008992100089921000878
:100080009921000899210008992100089921000868
:100090009921000899210008992100089921000858
:1000A0009921000899210008992100089921000848
:1000B0009921000899210008992100089921000838
:1000C0009921000899210008992100089921000828
:1000D0009921000885200008912000089921000836
:1000E00099210008992100089921000800000000CA
:1000F0000000000000000000000000000000000000
:0C01000000000000000000005FF808F1A3
:1001100010B5054C237833B9044B13B10448AFF341
:1001200000800123237010BDD801002000000000D2
:100130002C90000808B5034B1BB103490348AFF3EB
:10014000008008BD00000000DC0100202C900008A9
:10015000034613F8012B002AFBD1181A0138704707
:100160004FF0FF0C1CEAD0521EBF1CEAD15392EA9A
:100170000C0F93EA0C0F6FD01A4480EA010C400276
:1001800018BF5FEA41211ED04FF0006343EA5010D0
:1001900043EA5111A0FB01310CF00040B1F5000F12
:1001A0003EBF490041EAD3715B0040EA010062F1C1
:1001B0007F02FD2A1DD8B3F1004F40EBC25008BFAB
:1001C00020F00100704790F0000F0CF0004C08BFC9
:1001D00049024CEA502040EA51207F3AC2BFD2F196
:1001E000FF0340EAC250704740F400004FF00003A4
:1001F000013A5DDC12F1190FDCBF00F000407047DE
:10020000C2F10002410021FA02F1C2F1200200FA1B
:1002100002FC5FEA310040F1000053EA4C0308BFE2
:1002200020EADC70704792F0000F00F0004C02BF33
:10023000400010F4000F013AF9D040EA0C0093F0AE
:10024000000F01F0004C02BF490011F4000F013B08
:10025000F9D041EA0C018FE70CEAD15392EA0C0F76
:1002600018BF93EA0C0F0AD030F0004C18BF31F0E1
:10027000004CD8D180EA010000F00040704790F0B7
:10028000000F17BF90F0004F084691F0000F91F05B
:10029000004F14D092EA0C0F01D142020FD193EA21
:1002A0000C0F03D14B0218BF084608D180EA0100A9
:1002B00000F0004040F0FE4040F40000704740F085
:1002C000FE4040F44000704781F0004102E000BF72
:1002D00083F0004330B54FEA41044FEA430594EA06
:1002E000050F08BF90EA020F1FBF54EA000C55EA41
:1002F000020C7FEA645C7FEA655C00F0E2804FEA12
:100300005454D4EB5555B8BF6D420CDD2C4480EAF3
:10031000020281EA030382EA000083EA010180EA23
:10032000020281EA0303362D88BF30BD11F0004F71
:100330004FEA01314FF4801C4CEA113102D04042A7
:1003400061EB410113F0004F4FEA03334CEA1333E2
:1003500002D0524263EB430394EA050F00F0A780FA
:10036000A4F10104D5F1200E0DDB02FA0EFC22FAF5
:1003700005F2801841F1000103FA0EF2801843FAE9
:1003800005F359410EE0A5F120050EF1200E012ADA
:1003900003FA0EFC28BF4CF0020C43FA05F3C01818
:1003A00051EBE37101F0004507D54FF0000EDCF191
:1003B000000C7EEB00006EEB0101B1F5801F1BD33A
:1003C000B1F5001F0CD349085FEA30004FEA3C0C3E
:1003D00004F101044FEA445212F5800F80F09A8034
:1003E000BCF1004F08BF5FEA500C50F1000041EB38
:1003F000045141EA050130BD5FEA4C0C404141EB3C
:100400000101013C28BFB1F5801FE9D291F0000F36
:1004100004BF01460020B1FA81F308BF2033A3F1E5
:100420000B03B3F120020CDA0C3208DD02F1140CDC
:10043000C2F10C0201FA0CF021FA02F10CE002F117
:100440001402D8BFC2F1200C01FA02F120FA0CFC10
:10045000DCBF41EA0C019040E41AA2BF01EB045159
:10046000294330BD6FEA04041F3C1CDA0C340EDC57
:1004700004F11404C4F1200220FA04F001FA02F39A
:1004800040EA030021FA04F345EA030130BDC4F158
:100490000C04C4F1200220FA02F001FA04F340EA4D
:1004A0000300294630BD21FA04F0294630BD94F0FE
:1004B000000F83F4801306BF81F480110134013DE5
:1004C0004EE77FEA645C18BF7FEA655C29D094EA56
:1004D000050F08BF90EA020F05D054EA000C04BFD4
:1004E0001946104630BD91EA030F1EBF00210020BF
:1004F00030BD5FEA545C05D14000494128BF41F05E
:10050000004130BD14F580043CBF01F5801130BDC1
:1005100001F0004545F0FE4141F470014FF000004C
:1005200030BD7FEA645C1ABF194610467FEA655CFD
:100530001CBF0B46024650EA013406BF52EA03359F
:1005400091EA030F41F4002130BD00BF90F0000F8D
:1005500004BF0021704730B54FF4806404F13204C9
:100560004FF000054FF0000150E700BF90F0000F82
:1005700004BF0021704730B54FF4806404F13204A9
:1005800010F0004548BF40424FF000013EE700BF79
:1005900042004FEAE2014FEA31014FEA02701FBF09
:1005A00012F07F4393F07F4F81F06051704732F03B
:1005B0007F4208BF704793F07F4F04BF41F4002192
:1005C000704730B54FF4607401F0004521F00041F0
:1005D0001CE700BF50EA010208BF704730B54FF07A
:1005E00000050AE050EA010208BF704730B511F07B
:1005F000004502D5404261EB41014FF4806404F1B3
:1006000032045FEA915C3FF4D8AE4FF003025FEA38
:10061000DC0C18BF03325FEADC0C18BF033202EBBC
:10062000DC02C2F1200300FA03FC20FA02F001FA16
:1006300003FE40EA0E0021FA02F11444BDE600BFB9
:1006400070B54FF0FF0C4CF4E06C1CEA11541DBF68
:100650001CEA135594EA0C0F95EA0C0F00F0DEF833
:100660002C4481EA030621EA4C5123EA4C5350EA18
:10067000013518BF52EA033541F4801143F4801369
:1006800038D0A0FB02CE4FF00005E1FB02E506F0FA
:100690000042E0FB03E54FF00006E1FB03569CF04F
:1006A000000F18BF4EF0010EA4F1FF04B6F5007F55
:1006B00064F5407404D25FEA4E0E6D4146EB0606C7
:1006C00042EAC62141EA55514FEAC52040EA5E5050
:1006D0004FEACE2EB4F1FD0C88BFBCF5E06F1ED8FA
:1006E000BEF1004F08BF5FEA500E50F1000041EB31
:1006F000045170BD06F0004646EA010140EA0200DE
:1007000081EA0301B4EB5C04C2BFD4EB0C0541EAFF
:10071000045170BD41F480114FF0000E013C00F314
:10072000AB8014F1360FDEBF002001F0004170BD38
:10073000C4F10004203C35DA0C341BDC04F1140451
:10074000C4F1200500FA05F320FA04F001FA05F2DD
:1007500040EA020001F0004221F0004110EBD370AA
:1007600021FA04F642EB06015EEA430E08BF20EAD6
:10077000D37070BDC4F10C04C4F1200500FA04F379
:1007800020FA05F001FA04F240EA020001F000410B
:1007900010EBD37041F100015EEA430E08BF20EA7E
:1007A000D37070BDC4F1200500FA05F24EEA020EC6
:1007B00020FA04F301FA05F243EA020321FA04F0F5
:1007C00001F0004121FA04F220EA020000EBD370AC
:1007D0005EEA430E08BF20EAD37070BD94F0000FAC
:1007E0000FD101F00046400041EB010111F4801FE0
:1007F00008BF013CF7D041EA060195F0000F18BF91
:10080000704703F00046520043EB030313F4801FCC
:1008100008BF013DF7D043EA0603704794EA0C0F86
:100820000CEA135518BF95EA0C0F0CD050EA41069C
:1008300018BF52EA4306D1D181EA030101F0004119
:100840004FF0000070BD50EA410606BF1046194641
:1008500052EA430619D094EA0C0F02D150EA01364D
:1008600013D195EA0C0F05D152EA03361CBF10468E
:1008700019460AD181EA030101F0004141F0FE412D
:1008800041F470014FF0000070BD41F0FE4141F4B1
:10089000780170BD70B54FF0FF0C4CF4E06C1CEAB1
:1008A00011541DBF1CEA135594EA0C0F95EA0C0F66
:1008B00000F0A7F8A4EB050481EA030E52EA033521
:1008C0004FEA013100F088804FEA03334FF0805542
:1008D00045EA131343EA12634FEA022245EA11156F
:1008E00045EA10654FEA00260EF000419D4208BF20
:1008F000964244F1FD0404F5407402D25B084FEACD
:100900003202B61A65EB03055B084FEA32024FF478
:1009100080104FF4002CB6EB020E75EB030E22BFD5
:10092000B61A754640EA0C005B084FEA3202B6EB95
:10093000020E75EB030E22BFB61A754640EA5C0044
:100940005B084FEA3202B6EB020E75EB030E22BFD4
:10095000B61A754640EA9C005B084FEA3202B6EBD5
:10096000020E75EB030E22BFB61A754640EADC0094
:1009700055EA060E18D04FEA051545EA16754FEAF6
:1009800006164FEAC30343EA52734FEAC2025FEA14
:100990001C1CC0D111F4801F0BD141EA00014FF0A3
:1009A00000004FF0004CB6E711F4801F04BF014374
:1009B0000020B4F1FD0C88BFBCF5E06F3FF6AFAE90
:1009C000B5EB030C04BFB6EB020C5FEA500C50F120
:1009D000000041EB045170BD0EF0004E4EEA1131A3
:1009E00014EB5C04C2BFD4EB0C0541EA045170BDAA
:1009F00041F480114FF0000E013C90E645EA060EEE
:100A00008DE60CEA135594EA0C0F08BF95EA0C0F1B
:100A10003FF43BAF94EA0C0F0AD150EA01347FF463
:100A200034AF95EA0C0F7FF425AF104619462CE73A
:100A300095EA0C0F06D152EA03353FF4FDAE10469D
:100A4000194622E750EA410618BF52EA43067FF4EE
:100A5000C5AE50EA41047FF40DAF52EA43057FF47E
:100A6000EBAE12E74FF0FF3C06E000BF4FF0010C89
:100A700002E000BF4FF0010C4DF804CD4FEA410CED
:100A80007FEA6C5C4FEA430C18BF7FEA6C5C1BD0BA
:100A900001B050EA410C0CBF52EA430C91EA030F3B
:100AA00002BF90EA020F0020704710F1000F91EA98
:100AB000030F58BF994208BF90422CBFD8176FEA66
:100AC000E37040F0010070474FEA410C7FEA6C5C34
:100AD00002D150EA013C07D14FEA430C7FEA6C5C3B
:100AE000D6D152EA033CD3D05DF8040B704700BF67
:100AF0008446104662468C461946634600E000BFB5
:100B000001B5FFF7B7FF002848BF10F1000F01BD86
:100B10004DF808EDFFF7F4FF0CBF012000205DF851
:100B200008FB00BF4DF808EDFFF7EAFF34BF0120D6
:100B300000205DF808FB00BF4DF808EDFFF7E0FF6F
:100B400094BF012000205DF808FB00BF4DF808EDC0
:100B5000FFF7CEFF94BF012000205DF808FB00BF27
:100B60004DF808EDFFF7C4FF34BF012000205DF809
:100B700008FB00BF4FEA410C7FEA6C5C02D150EAEF
:100B8000013C0AD14FEA430C7FEA6C5C02D152EA85
:100B9000033C02D14FF0000070474FF00100704756
:100BA0004FEA410212F5001215D211D56FF4787395
:100BB000B3EB625212D94FEAC12343F0004343EA38
:100BC000505311F0004F23FA02F018BF4042704713
:100BD0004FF00000704750EA013005D111F000409D
:100BE00008BF6FF0004070474FF00000704700BF33
:100BF00080F0004002E000BF81F0004142001FBFD2
:100C00005FEA410392EA030F7FEA226C7FEA236CDA
:100C10006AD04FEA1262D2EB1363C1BFD2184140CF
:100C200048404140B8BF5B42192B88BF704710F065
:100C3000004F40F4000020F07F4018BF404211F008
:100C4000004F41F4000121F07F4118BF494292EA70
:100C5000030F3FD0A2F1010241FA03FC10EB0C009C
:100C6000C3F1200301FA03F100F0004302D5494229
:100C700060EB4000B0F5000F13D3B0F1807F06D3D6
:100C800040084FEA310102F10102FE2A51D2B1F1CE
:100C9000004F40EBC25008BF20F0010040EA0300C3
:100CA0007047490040EB0000013A28BFB0F5000F43
:100CB000EDD2B0FA80FCACF1080CB2EB0C0200FAF9
:100CC0000CF0AABF00EBC25052421843BCBFD04048
:100CD0001843704792F0000F81F4000106BF80F4C2
:100CE00000000132013BB5E74FEA41037FEA226C85
:100CF00018BF7FEA236C21D092EA030F04D092F050
:100D0000000F08BF0846704790EA010F1CBF002083
:100D1000704712F07F4F04D1400028BF40F00040E0
:100D2000704712F100723CBF00F50000704700F000
:100D3000004343F0FE4040F4000070477FEA226227
:100D400016BF08467FEA23630146420206BF5FEAF8
:100D5000412390EA010F40F4800070474FF00003F8
:100D600004E000BF10F0004348BF40425FEA000CBF
:100D700008BF704743F0964301464FF000001CE067
:100D800050EA010208BF70474FF000030AE000BFBD
:100D900050EA010208BF704711F0004302D54042FB
:100DA00061EB41015FEA010C02BF8446014600206D
:100DB00043F0B64308BFA3F18053A3F50003BCFA88
:100DC0008CF2083AA3EBC25310DB01FA02FC634435
:100DD00000FA02FCC2F12002BCF1004F20FA02F23C
:100DE00043EB020008BF20F00100704702F120022F
:100DF00001FA02FCC2F1200250EA4C0021FA02F290
:100E000043EB020008BF20EADC70704700B10A30F3
:100E1000704700B11030704700B11630704700B114
:100E20003E30704708B1007A7047FF2070471FB509
:100E3000044690B14FF47A738DF80C100179009349
:100E40008DF80D200223006803AA490001F084FEFA
:100E500008B10320E07104B010BD0120FBE770B5BC
:100E60000E46054610B90124204670BD0A463D21B4
:100E7000FFF7DDFF04460028F5D11E206E7101F05A
:100E8000D5F9F1E70A4610B13E21FFF7D0BF0120A6
:100E900070471FB5044690B18AB101234FF47A7CA4
:100EA0000079CDE9013C00920A4600FA03F120687E
:100EB00002F0D8F808B10320E07104B010BD0120A1
:100EC000FBE70A4618B111B10021FFF7E2BF01208C
:100ED000704713B5044610B9012002B010BD35218A
:100EE0000DF10702FFF7D5FF0028F5D19DF8073077
:100EF0009A0984F83E20C3F3011284F83F20C3F31B
:100F0000810203F0030384F8402084F84130E4E7D1
:100F100013B5044610B9012002B010BD34210DF103
:100F20000702FFF7B6FF0028F5D19DF8073084F8D7
:100F30004230F1E738B51546044608B9012038BDFE
:100F40000029FBD0002AF9D00A463921FFF7A1FF7A
:100F50000028F3D12A463A212046FFF79AFF0038AD
:100F600018BF0120EBE737B50446A8B3A1B30025AD
:100F700029230160C5800572C0F80A50C58105614A
:100F80008582C0F816504583C561056245622946D1
:100F900003711022283005F073FFA563A587C4F8FC
:100FA0003E50032520460DF10501FFF78AFF60B191
:100FB0003220013D01F03AF915F0FF05F2D103208E
:100FC000FF23E071237203B030BD9DF80530A02BE4
:100FD00004D001222372E2710120F4E740F28A205A
:100FE00001F024F901F01CF900F57A7520460DF1A5
:100FF00007020DF10601FFF79DFF0028ECD10A2042
:1010000001F014F99DF80630012B15D1002120467E
:10101000FFF738FF02460028DED13B212046FFF7CC
:1010200006FF0028D8D10C212046FFF718FF002822
:10103000D2D10123E380C6E701F0F2F8A842D5D36C
:101040009DF80630012BE1D00220E071BBE730B5FE
:10105000044685B098B192B18BB14FF47A7500799E
:10106000CDE90135012300920A4600FA03F1206818
:1010700001F0F8FF08B10320E07105B030BD012098
:10108000FBE713B5044610B9012002B010BD0623DA
:101090006A460821FFF7DBFF0028F5D1BDF80030D4
:1010A0006381BDF80230A381BDF80430E381ECE731
:1010B00013B5044610B9012002B010BD06236A46DC
:1010C0001421FFF7C4FF0028F5D1009B2361BDF870
:1010D0000430A382F0E713B5044610B9012002B032
:1010E00010BD06236A460E21FFF7B1FF0028F5D197
:1010F000BDF80030E382BDF802302383BDF8043030
:101100006383ECE7F7B5044618B90125284603B018
:10111000F0BD06236A461A21FFF799FF054600280D
:10112000F3D1BDF90000FFF71DFE4FF07651FFF738
:1011300017F8BDF90270E0613846FFF713FE4FF073
:101140007651FFF70DF8BDF9046020623046FFF7D5
:1011500009FE4FF07651FFF703F86062D6E72DE9FC
:10116000F341044620B90125284602B0BDE8F081CC
:1011700008236A462021FFF76AFF05460028F2D1BE
:10118000BDF90000FFF7EEFD4FF06251FEF7E8FFFA
:10119000BDF90280A0624046FFF7E4FD4FF06251C6
:1011A000FEF7DEFFBDF90470E0623846FFF7DAFDB6
:1011B0004FF06251FEF7D4FFBDF906602063304660
:1011C000FFF7D0FD4FF06251FEF7CAFF6063CBE737
:1011D00013B5044610B9012002B010BD06236A46BB
:1011E0002821FFF734FF0028F5D1009BA363BDF849
:1011F0000430A387F0E738B5054680B3837973B32D
:10120000FFF73FFF04462846FFF752FF0443E4B2CE
:10121000003C284618BF0124FFF75DFF0028284640
:1012200018BF0124FFF76EFF0028284618BF0124CD
:10123000FFF795FF0028284618BF0124FFF7C8FFD5
:101240000028284618BF0124FFF743FE2846FFF771
:101250005FFE00F0E5FFEC716864204638BD0424B1
:10126000FBE7000008B50A480A4A0B4BC0E9002317
:1012700000234FF48042C0E90233C0E90423C0E9EF
:101280000633036201F0A6FB08B172B6FEE708BDA3
:10129000A003002000540040A0860100202210B5C9
:1012A00090B000210DEB020005F0EAFD00211422B0
:1012B00001A805F0E5FD022401224FF4803306A8C1
:1012C000CDE90623CDE90D430A9202F0C3F80146A9
:1012D00008B172B6FEE70F23CDE90300059001A81F
:1012E000CDE9013402F078FA08B172B6FEE710B029
:1012F00010BD00000FB413B50B4C04AB53F8042B16
:1013000080212046019305F09DFD2046FEF720FF39
:10131000642382B22146054802F0E3FB02B0BDE837
:10132000104004B0704700BF140200205803002092
:10133000F8B53B4E0121306802F05FFE394C3A4F60
:1013400008214FF47A730022306802F09DFE0107F5
:1013500046D53648FFF7CEFF0821306802F076FE0A
:101360002378DA071BD5324D2968022917D80131B5
:1013700030482960FFF7BEFF2F493048FFF7F3FDE3
:10138000002836D123782E4A23F0010323701378E6
:10139000286043F001032B481370FFF7ABFF23785D
:1013A0009B0711D52449284800F040FC002834D17F
:1013B0002378234A23F0020323701378234843F051
:1013C00002031370FFF796FF237803F00303032B48
:1013D00006D11F48FFF78EFF0821306802F036FE65
:1013E00038464FF4005101F044F9642002F0E8FD62
:1013F000A6E729681748FFF77DFF2B68022BCED997
:101400001548FFF777FF23780D4A23F00103237077
:10141000137823F001031370C1E71048D2E700BF2F
:1014200004020020950200200010014048900008AE
:101430000002002078900008A003002098020020FD
:101440009602002095900008E00200200691000816
:1014500047910008AF900008D39000082091000841
:101460002DE9F04FDFF85C814FF0FF3300220121BE
:1014700089B0D8F8000002F007FE5348FFF73AFFA2
:10148000DFF84891524D534F99F80010002900F0B1
:101490008380514B1B78DB077ED56421286802F0DE
:1014A00055FE0646002840F089804C48FFF7A3FE11
:1014B000DFF82CA10446DAF800300133092BCAF812
:1014C000003005D901464748FFF714FFCAF800600D
:1014D000454E8CBB4148FFF799FC83463F48FFF7D8
:1014E00098FC82463D48FFF797FCB0F904C0BBF971
:1014F0000430BBF90220BBF90010CDF814C0B0F9DC
:1015000002C0CDF810C0B0F900000390BAF9040091
:101510000290BAF902000190BAF900000090334835
:10152000FFF7E8FE324A3460137823F001031370AA
:10153000286802F02EFE41E021462E48FFF7DAFE31
:1015400026480DF11F020DF11E01FFF7F3FC30B923
:101550009DF81F209DF81E102748FFF7CBFE1F485F
:10156000FFF75DFC837842780178C07800902348CB
:10157000FFF7C0FE33680133092B3360D8D91C4A0A
:1015800008211378D8F8000043F00103137002F02B
:1015900034FD00233360CBE73B680133312B3B60E4
:1015A00006D90D4B16481A78FFF7A4FE00233B60BE
:1015B0000A21286802F0CAFD0028B9D0642002F090
:1015C000FFFC61E7040200208691000894020020DD
:1015D0000C020020F8010020960200209802002052
:1015E000FC0100209C91000810020020BF9100081F
:1015F00095020020FD9100081B9200084B92000804
:101600007C920008F8B5294D4FF0FF3300220121EC
:10161000286802F039FD2648FFF76CFE254E264F5C
:101620003368264C0133092B336007D9244B2178CA
:101630001A782448FFF75EFE002333602378386869
:101640004BB31F4B1B789B0725D5642102F07EFD11
:1016500030BB1D4800F088FB1C4C60B91A4800F0F4
:1016600088FB90B10221237823F0020323702868BD
:1016700002F0C3FC05E00328237806D123F002031F
:101680002370386802F085FD0AE02378082143F0D2
:1016900002032370EBE70A2102F058FD0028F0D086
:1016A0004FF4FA7002F08CFCBAE700BF040200208D
:1016B000C4920008F40100200C02002094020020D3
:1016C00096020020D7920008E00200209502002038
:1016D0002DE9F0415A485B4CFFF70CFE24222921EA
:1016E0005948FFF707FE94F83D105848FFF702FEEF
:1016F00094F83D202A2AD3B220D81F2B02D82BB32E
:10170000534824E0203B0A2BFAD801A252F823F0D8
:10171000BB170008C3170008C71700080117000807
:10172000BF1700080117000801170008011700087B
:10173000CB170008CF170008D3170008A02B4AD0FA
:10174000E02B4AD0602BDBD1424800E04248FFF753
:10175000D1FD94F83D30202B12D04048FFF7CAFD50
:10176000384801F0DFF90A2000F060FDFFF77AFD4C
:10177000322000F05BFD94F83D103948FFF7BAFDC8
:10178000012400252F4E374FDFF8DC806100012255
:101790006423304689B201F0A9FD024600283DD1FC
:1017A00021464046FFF7A6FD0135292CEDB216D1A2
:1017B0002E48FFF79FFD2A24E8E72D48C7E72D486C
:1017C000C5E72D48C3E72D48C1E72D48BFE72D48A1
:1017D000BDE72D48BBE72D48B9E72D48B7E7242CD6
:1017E00004D12C48FFF786FD2524CFE72A48FFF7D0
:1017F00081FD0134802CC9D1E5B92848FFF77AFD75
:101800002748FFF777FD2748FFF774FD2648FFF7C5
:1018100071FDBDE8F0412548FFF76CBD0328E8D015
:10182000292C01D0242CE4D121463846FFF762FD53
:101830000134ABE72946BDE8F0411D48FFF75ABD2A
:101840001B930008A003002035930008699300084B
:10185000FF930008DF930008799300080B940008B9
:1018600031940008F8940008579400087C9400080C
:10187000839300088D93000896930008A2930008B4
:10188000AE930008B9930008CC930008E9930008D0
:10189000F593000897940008B69400082395000873
:1018A0004C950008769500089D950008C1950008A4
:1018B000F1950008002373B53F4C404D404823701C
:1018C0002B70FFF717FDFFF703FF3E48FFF712FDF0
:1018D0003D493E48FFF747FB3C4E00283AD13C4883
:1018E000FFF708FD30460DF107020DF10601FFF785
:1018F00021FB30B99DF807209DF806103548FFF709
:10190000F9FC71793448FFF7F5FC237843F00103C3
:1019100023703248FFF7EEFC2B49314800F086F97E
:1019200001462F4889BB00F099FA2E48FFF7E2FCE8
:10193000237843F00203237001222B4B2B481A70AB
:10194000FFF7D8FC2A782178294802B0BDE870401A
:10195000FFF7D0BC3046FFF765FA0646014625483A
:10196000FFF7C8FCFF2E07D12348FFF7C3FC2B78F5
:1019700043F001032B70CCE70EB92048F5E7A02215
:1019800031461F48FFF7B6FCF1E700F000FA0646C3
:1019900001461C48FFF7AEFC012E07D11A48FFF79D
:1019A000A9FC2B7843F002032B70C5E7022E0CBF75
:1019B00016481748F3E700BF960200209502002062
:1019C0001A96000830960008A00300209802002014
:1019D000499600081B9200086B9600085C97000867
:1019E000E002002074970008940200203698000856
:1019F0001D92000886960008B8960008EC9600082C
:101A00002D97000895970008C297000801980008D4
:101A10002198000880B588B000F0E4FBFFF73EFC99
:101A2000102200210DEB020005F02AFA494B4FF479
:101A300000519A69484842F010029A619A6901255A
:101A400002F010020092009A9A69002442F02002EB
:101A50009A619A694FF4E13702F020020192019AEB
:101A60009A690C2642F004029A619A6902F0040213
:101A70000292029A9A6942F008029A619B690022D6
:101A800003F008030393039B00F0EEFD4FF40053B3
:101A9000CDE904350223304804A9CDE9064300F01E
:101AA000A1FCFFF7DFFB2D482D4BC0E90244C0E944
:101AB0000037C0E905640461C46101F0E3FF034637
:101AC00008B172B6FEE72748274AC0E90233C0E9E9
:101AD0000027C0E90436C0E9063301F0D3FF04460D
:101AE00008B172B6FEE7FFF7E5FE2048FFF702FCFB
:101AF0001F48FFF7FFFB1F48FFF7FCFB02F0F0F960
:101B00001D4802F0EBFA1D4B214618601C4A28467E
:101B100002F05EFB1B4B214618601B4A1B4802F07B
:101B20000BFA1B4B214618601A4A1B4802F004FAB4
:101B30001A4B214618601A4A1A4802F0FDF91A4B4E
:101B400018601A4802F048FA194B186002F0DAF9E6
:101B5000FEE700BF001002400010014058030020C3
:101B6000003801401003002000440040589800084D
:101B70006D980008879800088C9A00080C020020D5
:101B80007C9A000808020020E49A0008311300083B
:101B90000C030020C09A000861140008080300200C
:101BA0009C9A000805160008040300206C9A00089F
:101BB00004020020F0B50D46044687B010B901209C
:101BC00007B0F0BD0029FAD002230326C8278DF8FC
:101BD0000F3000970123482120680DF10F0200F01B
:101BE000BBFFE8B9322000F021FB00970823482111
:101BF000206804AA01F08AF890B99DF810109DF8A9
:101C0000112051EA02030BD09DF812409DF81330C9
:101C100043EA042343EA016343EA02432B60CFE72C
:101C2000642000F003FB013ED3D1C8E770B5044641
:101C300086B0002846D0002944D000254FF47A739E
:101C40001022C3610160057129460584053005F045
:101C500017F94FF4FA7000F0E9FAADF814508DF866
:101C60001650642545F2555300954821049304AA63
:101C70000723206800F070FF284600F0D7FA0326FB
:101C8000204602A9FFF796FF054658B1C82000F08C
:101C9000CDFA013EF4D14FF4827304252384284603
:101CA00006B070BD6426084B00964821039303AA32
:101CB0000423206800F050FF304600F0B7FA84F8A3
:101CC0002050ECE70125EAE71401000130B5044695
:101CD0008DB0002843D06425224B00951A889B784C
:101CE000ADF80C208DF80E3048210323006803AABC
:101CF00000F032FF28B100230425237528460DB0DB
:101D000030BD284600F092FAC823009304AA20238D
:101D10004821206800F0FAFF9DF810309DF811204E
:101D2000134340EA030515F0FF0503D00023032504
:101D30002375E3E79DF81230FF2BF7D19DF816309D
:101D4000002BF3D0012323750423A371DDF81B308E
:101D50006571C4F8073000F063FAA061CEE7012591
:101D6000CCE700BFE698000808B1FFF7AFBF01203D
:101D7000704710B5044648B100F052FAA369C01A82
:101D8000E369984284BF00232375207D10BD10B104
:101D900090F821007047FF2070470000F0B50F4613
:101DA000144606468DB0002854D0002952D0002396
:101DB000ADF81030FF238DF81230531CD4258DF868
:101DC0001330D3430DF116008DF814308DF81550F3
:101DD00005F0E3F839462B46A21DD2B238198842E5
:101DE0001DD130326A445B4202F8203C0022E31DE0
:101DF000DBB230336B4403F8202C4FF47A7204F1D9
:101E00000803009248213068DBB204AA00F0A4FE67
:101E100050B1042486F8204020460DB0F0BD11F8E2
:101E2000015B2B44DBB2DAE70A2000F0FFF9642300
:101E3000009348210623306802AA00F067FF044699
:101E40000028E6D10622044902A805F009F8002876
:101E5000E2D0DEE70124DFE7089B0008012307B595
:101E600068B14FF499720171ADF8042001A9032201
:101E70008DF80630FFF792FF03B05DF804FB1846BB
:101E8000FAE70000114B07B59A690F2142F00102F1
:101E90009A619A696FF0010002F001020092009AC3
:101EA000DA6942F08052DA61DB69002203F0805384
:101EB0000193019B00F0DEF9054A536823F0E063CB
:101EC00043F00073536003B05DF804FB0010024060
:101ED0000000014010B5044686B01022002102A87F
:101EE00004F0CEFF2268114B9A421CD1104CC02244
:101EF000A369104843F00803A361A36902A903F092
:101F000008030093009B1223CDE9022303230593CA
:101F100000F068FAE36943F40013E361E36903F452
:101F200000130193019B06B010BD00BF0054004098
:101F300000100240000C014008B50268094B9A42AB
:101F40000ED1094A4021D369084823F40013D36114
:101F500000F01CFBBDE808408021044800F016BBDF
:101F600008BD00BF0054004000100240000C0140BA
:101F7000102210B5044688B00DEB0200002104F0D9
:101F80007FFF2368324A934231D1324B4FF40071C4
:101F90009A69314842F480429A619A69002402F4B5
:101FA00080420092009A9A6942F004029A619B6909
:101FB00003F004030193019B0223CDE904130323DF
:101FC00004A9079300F00EFA4FF48063224804A995
:101FD000CDE90434069400F005FA252022460521B7
:101FE00000F048F9252000F075F908B010BD1B4A33
:101FF0009342FAD1174B1848DA6904A942F4003227
:10200000DA61DA69002402F400320292029A9A69D3
:1020100042F004029A619B69042203F004030393D3
:10202000039B0223CDE904230323079300F0DAF98D
:102030000823094804A9CDE90434069400F0D2F934
:1020400026202246052100F015F92620CBE700BF07
:1020500000380140001002400008014000440040E8
:10206000FEE7FEE7FEE7FEE7FEE7704708B500F093
:10207000CBF803F011FC012803D0BDE8084003F0C1
:10208000A9BF08BD014801F0E1BD00BF5803002011
:10209000014801F0DBBD00BF1003002001207047A4
:1020A00008B504F03FFF162303604FF0FF3008BD72
:1020B00008B504F037FF16230360FEE770B50D4640
:1020C00014460E46731B9C4201DC204670BDAFF3E4
:1020D000008006F8010BF5E770B50D4614460E4674
:1020E000731B9C4201DC204670BD16F8010BAFF358
:1020F0000080F5E74FF0FF3070474FF400530020A9
:102100004B60704701207047002070470B4A034620
:10211000116810B509B90A491160106809490A4CDB
:102120000344091B8B4206D904F0FCFE0C23036018
:102130004FF0FF3010BD1360FCE700BFF403002038
:10214000981E00200050002000040000704700008E
:10215000FFF7FCFF0B480C490C4A002302E0D4585F
:10216000C4500433C4188C42F9D3094A094C0023E3
:1021700001E013600432A242FBD304F0D9FEFFF762
:1021800049FC704700000020D80100204C9D000849
:10219000D8010020941E0020FEE7000038B50E4B49
:1021A00005461A784FF47A73B3FBF2F30B4A1068C2
:1021B000B0FBF3F000F09CF8044658B90F2D09D895
:1021C000024629464FF0FF3000F054F82046044BF9
:1021D0001D6038BD0120FCE7040000200000002045
:1021E00008000020074A08B51368032043F01003D5
:1021F000136000F02DF80F20FFF7D0FFFFF742FE2D
:10220000002008BD00200240034A044B11681B78DF
:102210000B441360704700BFF80300200400002047
:10222000014B1868704700BFF803002038B504461A
:10223000FFF7F6FF0546631C1EBF044B1B78E4182E
:10224000FFF7EEFF431BA342FAD338BD0400002082
:1022500007490302CA6803F4E06322F4E06212044F
:10226000120C134343F0BF6343F40033CB60704759
:1022700000ED00E0154B30B5DC68C4F30224C4F176
:102280000703251D042B28BF0423062D4FF0FF351F
:1022900094BF0024033C05FA03F321EA0303A5409D
:1022A00022EA0502A340002843EA0203ACBF00F182
:1022B0006040074A4FEA0313DBB2ABBF00F5614051
:1022C00000F00F0080F80033135430BD00ED00E043
:1022D00014ED00E0002807DB01234109034A00F068
:1022E0001F00834042F82130704700BF00E100E04A
:1022F0000138B0F1807F0BD24FF0E023F021054A86
:10230000586182F823100020072298611A617047F3
:102310000120704700ED00E090F821200346022ADA
:1023200006D0042282630120002283F82020704717
:102330000268C06B116821F00E011160116821F074
:102340000101116001211A6C01FA02F242600020C1
:1023500083F82110E8E7000008B590F82130022B3F
:1023600003D004238363012008BD03681A6822F0A8
:102370000E021A601A6822F001021A60174A93428C
:102380001FD0143293421ED0143293421DD0143207
:1023900093421DD0143293421DD01432934214BF85
:1023A0004FF080734FF480130D4A5360012380F87F
:1023B0002130002380F82030436B03B19847002080
:1023C000D2E70123F0E71023EEE74FF48073EBE749
:1023D0004FF48053E8E74FF48033E5E7080002400C
:1023E000000002402DE9F74F00244FF00F0E264663
:1023F000DFF884C1614B00F104080A6832FA06F57F
:1024000002D103B0BDE8F08F012505FA06F702EA14
:10241000070537EA020276D14A68032A07D8013A4B
:10242000022A00F28380DFE802F091969C00122AD3
:1024300000F0948069D8112A00F08A80FF2D94BFA3
:102440008146C1464FEA8602D9F8007088BF203A1B
:102450000EFA02FA27EA0A0704FA02F21743C9F849
:102460000070D1F8049019F0805F4CD0DCF818208F
:1024700026F0030742F00102CCF81820DCF81820FF
:1024800007F1804702F00102019207F5803706F05C
:10249000030A019A4FEA8A0ABA680EFA0AFB22EA8C
:1024A0000B0B374A904260D002F5806290425ED0BA
:1024B00002F5806290425CD002F58062904214BFC7
:1024C0000422032202FA0AF242EA0B02BA609A6874
:1024D00019F4801F14BF2A43AA439A60DA6819F4DA
:1024E000001F14BF2A43AA43DA605A6819F4003F58
:1024F00014BF2A43AA435A601A6819F4803F14BFD4
:102500002A43AA431A60013677E7DFF878904A45F4
:102510000CD014D8A9F580194A4507D009F57029BF
:102520004A4503D0A9F580194A4587D18A68D2B1B6
:10253000012A4FF008040CBF076147617EE7DFF80E
:1025400048904A45F2D009F58039EDE7CC6875E747
:10255000CC68043472E7CC6808346FE7CC680C347C
:102560006CE700246AE7042468E70022AAE7012256
:10257000A8E70222A6E700BF0010024000040140C5
:102580000008014000002210000031102DE9F74F33
:102590004FF0040B00224FF0010A4FF00F0800EB40
:1025A0000B0301932E4B31FA02F402D103B0BDE8C4
:1025B000F08F0AFA02F70F4049D022F0030404F129
:1025C000804404F5803402F0030CA5684FEA8C0CBB
:1025D00008FA0CF909EA050E224DA84239D005F592
:1025E0008065A84237D005F58065A84235D005F54D
:1025F0008065A84214BF0425032505FA0CF575452E
:102600006FEA07060FD11D6835401D605D683540D3
:102610005D60DD683540DD609D6835409D60A56882
:1026200025EA0905A560FF2F94BF0746019F4FEAE1
:1026300082043D6888BF203C08FA04FC25EA0C05AA
:102640000BFA04F425433D60C4683440C460013291
:10265000A9E70025D1E70125CFE70225CDE700BF97
:1026600000040140000801400AB1016170470904FB
:10267000FBE7C36801EA030221EA030141EA0241E0
:1026800001617047016800224B6913F4806310D028
:102690006FF480634B612023026380F83D3080F843
:1026A0003E20036C80F83C2043F0040303640120C7
:1026B0007047184670472DE9F84606460F46914682
:1026C0001D464FEA114A3368BAF1010F0CBF5C692D
:1026D0009C6927EA0404A4B2B4FA84F46409A1450D
:1026E00001D0002025E06A1CEED0FFF799FD089B81
:1026F000C01AA84201D8002DE5D13368BAF1010F04
:102700000CBF5B699B6927EA03039BB2B3FA83F3AF
:102710005B099945D7D1002320220120336386F835
:102720003D2086F83E30326C86F83C3042F0200284
:102730003264BDE8F8862DE9F04104460F4616469E
:1027400098462568686927EA000080B2C0B16B69C5
:102750005A0517D52B68202243F400732B606FF4C1
:1027600080636B610023236384F83D2084F83E304E
:10277000236C43F0040323640023012084F83C30DD
:10278000BDE8F081731CDDD0FFF74AFDA0EB080027
:10279000B04201D8002ED4D123685A6927EA020238
:1027A00092B2002ACDD000232022236384F83D205A
:1027B00084F83E30236C1343DDE770B504460D46C4
:1027C000164623685B691B0601D500201EE02046E3
:1027D000FFF758FFC8B96A1CF3D0FFF721FD801B33
:1027E000A84201D8002DECD123685B6913F0800367
:1027F000E7D12022236384F83D2084F83E30226C08
:1028000084F83C3042F020022264012070BD0000B8
:102810002DE9FF479A46DDE90C78036815461A68EA
:102820000E4642F480621A601A684FF0011142F4B9
:1028300080721A603B460022CDF800800446FFF704
:102840003AFF236848B11B68DB0548BF4FF40073AB
:102850004FF0030048BF236421E05FFA86F906F0D9
:10286000FE061E613A46434620462A49FFF763FFAB
:10287000A0B9236803905A69394603929B6942467E
:1028800003932046039BFFF798FF58B1236C042B5A
:1028900001BF2268136843F400731360012004B081
:1028A000BDE8F087BAF1010F23681AD1EDB24246B4
:1028B000394620461D61FFF780FF02460028E5D11A
:1028C000216820460B6843F480730B603B464FF051
:1028D0000111CDF80080FFF7EEFE226860B11368A9
:1028E000B2E72A0A1A61394642462046FFF765FFD9
:1028F0000028CBD12368D9E749F0010313612046B2
:1029000043463A460349FFF716FF003818BF012037
:10291000C5E700BF0200010070B504460D4616462B
:1029200023685B695B0701D500201EE02046FFF7A6
:10293000A9FEC8B96A1CF3D0FFF772FC801BA8423D
:1029400001D8002DECD123685B6913F00403E7D1B3
:102950002022236384F83D2084F83E30226C84F8E2
:102960003C3042F020022264012070BD70B5044664
:102970000D46164621684B6913F0400301D0002034
:1029800011E04A69D2060FD56FF010024A61202289
:10299000236384F83D2084F83E30236C23640023B5
:1029A000012084F83C3070BDFFF73AFC801BA84240
:1029B00001D8002DDED123685B6913F04003D9D123
:1029C0002022236384F83D2084F83E30236C134397
:1029D000E4E7000070B5044608B9012070BD90F826
:1029E0003D3003F0FF021BB980F83C20FFF772FA7C
:1029F000242384F83D3023681A6822F001021A600B
:102A00001A6842F400421A601A6822F400421A60FE
:102A100000F07EFF3F4B65689D4294BF3E4B3F4BAD
:102A200098428CBF00230123002BD6D1394E3C4B5A
:102A3000B542B0FBF3F388BF4FF496762268516835
:102A400021F03F0141EA030182BF73434FF47A76DC
:102A5000B3FBF6F35160116A013321F03F010B43E0
:102A60001362D169431E2B4821F44F41854221F066
:102A7000FF0132D86D00B3FBF5F340F6FC70013373
:102A8000034242D0C3F30B031943D1611168D4E967
:102A9000073021F0C00103430B4313609168D4E970
:102AA000030321F40341034321F0FF010B4393602F
:102AB000D168D4E9053021F0FF0103430B43D36013
:102AC0001368002043F0010313602023206484F87E
:102AD0003D30206384F83E0080E7A06850B905EBE4
:102AE0004505B3FBF5F30133C3F30B037BB143F4AB
:102AF0000043C9E719206843B3FBF0F30133C3F384
:102B00000B0323B143F44043BEE70423BCE7012396
:102B1000BAE700BFA08601007F841E00FF083D00C9
:102B200040420F0010B5044698B12423026880F893
:102B30003D30136823F001031360FFF7FDF9002017
:102B4000206484F83C0084F83D00206384F83E0053
:102B500010BD0120FCE700002DE9F043044685B0DC
:102B600098460D4691460C9FFFF75AFB94F83D306E
:102B70000646202B04D00225284605B0BDE8F08388
:102B800000901923012220465C49FFF794FD00289C
:102B9000F1D194F83C30012BEDD00123216884F869
:102BA0003C300B68DA075EBF0B6843F001030B6033
:102BB0000B6823F400630B60212384F83D3010235D
:102BC00084F83E3000232364A4F82A80638DC4F87F
:102BD000249023854A4BE362E36A082B04D0012B3F
:102BE00002D013F5803F04D10B6843F480730B606F
:102BF00002E0236B122BF7D000223B464FF001116D
:102C000020460096FFF757FD226840B11368DB05A8
:102C100001D40125B0E74FF400732364F9E7236979
:102C2000B3F5804F21D105F0FE05156133463A46D4
:102C300020463449FFF77FFD05460028E9D1236887
:102C400003905A6903929B690393039B238DF3B905
:102C500021680A6842F400720A60202284F83C303D
:102C600084F83D2084F83E3086E7EB1103F006033C
:102C700043F0F0031361204633463A462249FFF7FA
:102C80005AFD0028C5D12368EDB21D61CEE732465A
:102C900039462046FFF791FD40B1236C042BB8D193
:102CA0002268136843F400731360B2E7636A206814
:102CB0001A4612F8011B01616262628D013A92B2FA
:102CC0006285228DD0F814C0511E89B21CF0040F09
:102CD00021850AD049B15978023301616362638D5D
:102CE000023A013B9BB26385228532463946204633
:102CF000FFF712FE0028A9D0CFE700BF02001000A6
:102D00000000FFFF02000100080001002DE9F04370
:102D100098460023044689B002930E469146109FC0
:102D2000FFF77EFA94F83D300546202B04D00226AA
:102D3000304609B0BDE8F0830090192301222046F7
:102D40008F49FFF7B8FC0028F1D194F83C30012BF3
:102D5000EDD00123216884F83C300B68DB075EBFAF
:102D60000B6843F001030B600B6823F400630B60F6
:102D7000222384F83D30102384F83E30002323645E
:102D8000A4F82A80638DC4F8249023857D4BE362E8
:102D9000E36A0A68082B42F480620A6004D0012BBF
:102DA00002D013F5803F04D10B6843F480730B60AD
:102DB00002E0236B112BF7D03B4600224FF00111AC
:102DC00020460095FFF777FC236838B11B68D805CB
:102DD00044BF4FF4007323640126A9E72269B2F5CA
:102DE000804F29D146F00106F6B21E612B463A46C5
:102DF00020466549FFF79FFC06460028ECD1228D4E
:102E00002368002A4DD103905A6903929A6903926C
:102E1000039A1A6842F400721A60DFF87081DFF8D2
:102E20007091238D002B6CD1202284F83C3084F8E3
:102E30003D2084F83E307BE74FEAE61808F00608AC
:102E400048F0F0021A6120462B463A465149FFF7F6
:102E500072FC0028C0D12368F6B23A461E612046B3
:102E60002B464949FFF767FC02460028B4D1236886
:102E70000790596920460791996907910799196840
:102E800041F4807119603B464FF001110095FFF746
:102E900012FC226808B1136899E748F0F103136146
:102EA000A4E7012A11D11A6822F480621A6072B66E
:102EB000236804905A6904929A690492049A1A68E1
:102EC00042F400721A6062B6A7E7022A1A680ED1AD
:102ED00042F400621A6072B6236805905A6905923E
:102EE0009A690592059A1A6822F48062EAE742F428
:102EF00080621A6006905A6906929B690693069B47
:102F00008BE7032B00F28880012B16D12A46394625
:102F10002046FFF72BFD00287FF45EAF23681A6977
:102F2000636A1A70636A01336362238D013B2385F0
:102F3000638D013B9BB2638573E7022B4FF0000268
:102F40003B4641462046009526D1FFF7B4FB0028BA
:102F50007FF442AF72B623681A6842F400721A60B6
:102F60001A69636A1A70636A01336362238D013BD5
:102F70002385638D013B9BB2638562B6CEE700BFBC
:102F8000020010000000FFFF020001000400010029
:102F90000000002008000100FFF78DFB00287FF4EF
:102FA0001BAF2268136823F48063136072B646F285
:102FB000A81123681A69636A1A70626A531C6362F3
:102FC000238D013B2385638D013B9BB26385D9F83B
:102FD0000030B3FBF1F323214B430293029B013BEF
:102FE0000293029B6BB92022236384F83D2084F86E
:102FF0003E30226C42F02002226462B684F83C30FB
:10300000EAE6236859694907E8D5196841F400716F
:1030100019601B695370A6E72A4639462046FFF718
:10302000A5FC00287FF4D8AE23681A69636A1A7079
:10303000628D616A013A92B24B1C628522686362BA
:10304000238D5069013B9BB2400723857FF5E9AE94
:10305000032B02BF136823F48063136013694B7062
:1030600060E700BF2DE9F04399460023044689B08C
:1030700003930D469046129FFFF7D2F894F83D3027
:103080000646202B04D00225284609B0BDE8F0836F
:1030900000901923012220469049FFF70CFB0028DD
:1030A000F1D194F83C30012BEDD00123206884F855
:1030B0003C3003682946DB0758BF036842465CBFC3
:1030C00043F001030360036823F4006303602223D9
:1030D00084F83D30402384F83E3000232364109B65
:1030E00020466362BDF844306385638D23857C4B45
:1030F000E3624B46CDE90076FFF78AFB05460028E0
:1031000040F0BA80228D2368C2B904905A690492B3
:103110009A690492049A1A6842F400721A60DFF8FD
:10312000C481DFF8C491238D002B37D1202284F88D
:103130003C3084F83D2084F83E30A5E7012A11D1C7
:103140001A6822F480621A6072B6236805905A6980
:1031500005929A690592059A1A6842F400721A60FB
:1031600062B6DCE7022A1A680ED142F400621A60E5
:1031700072B6236806905A6906929A690692069A70
:103180001A6822F48062EAE742F480621A600790CB
:103190005A6907929B690793079BC0E7032B78D86E
:1031A000012B15D1324639462046FFF7DFFB0028B8
:1031B00062D123681A69636A1A70636A01336362B1
:1031C000238D013B2385638D013B9BB26385AAE779
:1031D000022B4FF000023B4641462046009618D194
:1031E000FFF769FA002847D172B623681A6842F4DB
:1031F00000721A601A69636A1A70636A0133636243
:10320000238D013B2385638D013B9BB2638562B6B1
:10321000CFE7FFF750FA00282ED12268136823F475
:103220008063136072B646F2A81123681A69636A54
:103230001A70626A531C6362238D013B2385638D80
:10324000013B9BB26385D9F80030B3FBF1F3232136
:103250004B430393039B013B0393039B73B92022CE
:10326000236384F83D2084F83E30226C42F0200233
:10327000226462B684F83C30012505E72368596969
:103280004907E7D5196841F4007119601B6953704B
:10329000B3E7324639462046FFF768FB0028EBD1FA
:1032A00023681A69636A1A70628D616A013A92B280
:1032B0004B1C628522686362238D5069013B9BB27F
:1032C000400723857FF52FAF032B02BF136823F43C
:1032D0008063136013694B706FE700BF020010003A
:1032E0000000FFFF04000100000000202DE9F04F66
:1032F000044685B01F4688469246FEF791FF94F833
:103300003D300546202B03D0022005B0BDE8F08FEC
:1033100000901923012220464C49FFF7CCF90028E0
:10332000F2D194F83C30012BEED0012384F83C30EC
:10333000236800261A68DFF814B1D00758BF1A684E
:1033400008F0FE085CBF42F001021A601A6822F41D
:1033500000621A60242384F83D303D4B2664E3620A
:1033600022684FF001111368204643F48073136004
:103370003B4600220095FFF79EF9236838B11B6891
:103380000320D90544BF4FF400732364BDE7C3F89D
:103390001080FEF745FF4FF0A009054623685A69E3
:1033A0005B69C2F34002C3F3802394F83D10A02967
:1033B0001CD14FF02009236884F83D905A69920788
:1033C0002BD51A68204642F400721A60002203923C
:1033D0005A691E4903929B6901220393039B00953E
:1033E0001923FFF768F998B101208EE71343E0D164
:1033F000FEF716FF401BB84200D80FB984F83D9085
:1034000023685A695B69C2F34002C3F38023CCE7A7
:1034100084F83D9084F83C0077E71A68594642F4F6
:1034200000721A606FF4806220465A6119230122EB
:103430000095FFF740F90028D6D1013656458FD3C5
:1034400084F83D9084F83C00CEE700BF02001000F5
:103450000000FFFF2DE9F341054638B30368DB07A1
:1034600010D42B689F075ED42B68190700F1958054
:103470002B685A0700F1C180EB69002B40F02C81CA
:10348000002029E0904C636803F00C03042B07D064
:10349000636803F00C03082B0AD16368DE0307D5C9
:1034A00023689C03DDD56B68002BDAD1012013E083
:1034B0006B68B3F5803F12D1236843F480332360F7
:1034C000FEF7AEFE064623689803CAD4FEF7A8FEB0
:1034D000801B6428F7D9032002B0BDE8F0819BB9B6
:1034E000236823F480332360236823F4802323603C
:1034F000FEF796FE064623689903B2D5FEF790FEC6
:10350000801B6428F7D9E6E7B3F5A02F236803D121
:1035100043F480232360CFE723F4803323602368C0
:1035200023F48023CBE7684C636813F00C0F07D0BB
:10353000636803F00C03082B10D16368DA030DD421
:1035400023689B0702D52B69012BAFD123686A69D9
:1035500023F0F80343EAC203236085E72A695B4B43
:103560006AB101221A60FEF75BFE064623689F07D8
:10357000ECD4FEF755FE801B0228F7D9ABE71A60A2
:10358000FEF74EFE0646236898077FF56DAFFEF7FF
:1035900047FE801B0228F6D99DE7AA694A4E4B4B8D
:1035A000E2B10122C3F88024FEF73AFE0446736AB2
:1035B0009B070DD54FF4FA52454B1B68B3FBF2F352
:1035C000019300BF019B5A1E0192002BF9D14FE7D6
:1035D000FEF726FE001B0228E9D97CE7C3F8802409
:1035E000FEF71EFE0446736A9F077FF541AFFEF7A4
:1035F00017FE001B0228F6D96DE7334CE369D800AB
:1036000024D40127E36943F08053E361E36903F0C5
:1036100080530093009B2F4E3368D90518D5EB6873
:10362000012B26D1236A43F001032362FEF7F8FD44
:1036300041F288380646236A9B073FD5002F3FF4A6
:103640001BAFE36923F08053E36115E70027E2E74E
:10365000336843F480733360FEF7E2FD80463368DD
:10366000DA05DCD4FEF7DCFDA0EB08006428F6D90F
:1036700031E7ABB9236A41F2883823F001032362B2
:10368000236A23F004032362FEF7CAFD0646236A79
:103690009807D3D5FEF7C4FD801B4045F7D91AE73C
:1036A000052B236A03D143F004032362BAE723F016
:1036B00001032362236A23F00403B6E7FEF7B0FD9B
:1036C000801B4045B7D906E7001002400000424287
:1036D00000000020007000402A4C626802F00C02DA
:1036E000082A3ED00022022B274B1A662CD1FEF767
:1036F00097FD06462368990120D42B6AB3F5803FD5
:1037000005D16268A96822F400320A436260696ADE
:1037100062680B4322F474121343012263601A4B54
:103720001A66FEF77DFD054623689A013FF5A8AEAF
:10373000FEF776FD401B0228F6D9CCE6FEF770FDB9
:10374000801B0228D6D9C6E6FEF76AFD0546236827
:103750009B017FF595AEFEF763FD401B0228F6D96D
:10376000B9E6012B3FF4A2AE60682B6A00F4803208
:103770009A427FF49BAE6B6A00F47010C01A18BFB7
:103780000120A9E600100240000042420D4A5368A1
:1037900003F00C01082912D10B48C3F38341DB036A
:1037A000405C09D55368094AC3F340435043084A73
:1037B000D35CB0FBF3F07047064B584370470348A7
:1037C000704700BF00100240289B000800127A00DA
:1037D000269B000800093D002DE9F0410D460446F6
:1037E00010B90120BDE8F081444A136803F00703D3
:1037F0008B4228D321688E0730D4CA0743D43F4A6E
:10380000136803F00703AB4265D822683C4D12F001
:10381000040F6CD1130706D56B68226923F460533B
:1038200043EAC2036B60FFF7B1FF6B68354AC3F32D
:103830000313D35CD840344B1860344B1868FEF740
:10384000ADFC0020CEE7136823F007030B431360A1
:10385000136803F007038B42C3D1CBE7284B11F069
:10386000040F1EBF5A6842F4E0625A60080742BF64
:103870005A6842F460525A605A68A06822F0F00216
:1038800002435A60B9E762681D4E012A33681AD1B3
:1038900013F4003FA5D0736841F2883823F0030386
:1038A00013437360FEF7BCFC07467368626803F05D
:1038B0000C03B3EB820FA2D0FEF7B2FCC01B404555
:1038C000F3D903208EE7022A02D113F0007FE1E74B
:1038D00013F0020FDEE7136823F007032B43136096
:1038E000136803F00703AB427FF47BAF8DE76B688F
:1038F000E16823F4E0630B436B608BE70020024038
:1039000000100240169B0008000000200800002064
:10391000044B054A5B68C3F30223D35C034A106877
:10392000D8407047001002400E9B000800000020A5
:10393000044B054A5B68C3F3C223D35C034A106897
:10394000D8407047001002400E9B00080000002085
:10395000026802F10C0353E8003F23F490730C3229
:1039600042E8003102680029F2D102F1140353E861
:10397000003F23F0010302F1140C4CE80031002950
:10398000F3D1036B012B0BD102F10C0353E8003F81
:1039900023F0100302F10C0C4CE800310029F3D1A4
:1039A000202380F8423000230363704710B504469B
:1039B0000368C1681A6922F440520A431A61826896
:1039C0000069D9680243606921F4B05121F00C010B
:1039D00002430A43DA605A69A16922F440720A4339
:1039E0005A610E4A934215D1FFF7A2FF19234343B0
:1039F000626820689200B3FBF2F36422B3FBF2F139
:103A000002FB11331B013233B3FBF2F303EB01135F
:103A1000836010BDFFF77CFFE8E700BF003801407E
:103A2000F7B505460C4617461E462A68136834EA61
:103A3000030301D1002021E0701CF7D0FEF7F0FB5A
:103A4000C01B86421CD3DEB12B68DA685107ECD567
:103A5000802CEAD0402CE8D01A681207E5D5002463
:103A600001941A68284601925B680193019BFFF755
:103A70006FFF082301206B6485F8404003B0F0BD60
:103A80000320FBE710B5044648B390F8413003F03B
:103A9000FF021BB980F84020FEF76AFA242322684F
:103AA00084F84130D368204623F40053D360FFF7F5
:103AB0007DFF236800201A6922F490421A615A6936
:103AC00022F02A025A61DA6842F40052DA602023B6
:103AD000606484F8413084F84230606310BD012096
:103AE000FCE72DE9F843984690F841300446202B36
:103AF0000E4617463FD100293FD0002A3DD0212352
:103B00000025456480F84130FEF78AFBA3688146B2
:103B1000B3F5805FA784E78403D123690BB93546E9
:103B20001E46E38C9BB253B943464A464021204689
:103B3000FFF776FF202350B984F841300AE043466E
:103B40004A4680212046FFF76BFF28B1202303203F
:103B500084F84130BDE8F88322684EB935F8023B5D
:103B6000C3F308035360E18C013989B2E184D8E7DB
:103B700016F8013BF6E70220ECE70120EAE7704780
:103B80007047704708B50023406AC385C384FFF7B8
:103B9000F8FF08BD704790F8423007B5222B42D19C
:103BA00081680268B1F5805F836A3FD101690029AD
:103BB0003FD15268C2F3080223F8022B8362C38DFF
:103BC000013B9BB2C385002B2DD10268D16821F047
:103BD0002001D160D16821F48071D160516921F058
:103BE00001015161202280F842204363026B012AC7
:103BF000026828D1036302F10C0353E8003F23F06D
:103C0000100302F10C0C4CE800310029F3D11368C9
:103C1000DB0605D501911368019353680193019B5D
:103C2000818DFFF7B7FF03B05DF804FB39B9016977
:103C300029B95268D2B21A70836A0133BEE752685A
:103C400002F07F02F7E7FFF79BFFECE7036873B52D
:103C50001A6804461607D9685D6908D1960668D5C2
:103C60008D0666D502B0BDE87040FFF794BF05F041
:103C7000010001F4907505435BD0D60705D5CD054D
:103C800042BF636C43F001036364530704D518B16A
:103C9000636C43F002036364960704D518B1636C48
:103CA00043F004036364150707D501F020030343C1
:103CB0001EBF636C43F008036364636C002B32D057
:103CC000920604D58B0602D52046FFF764FF2668CE
:103CD00020467369626C03F0400302F0080253EA65
:103CE000020522D0FFF734FE73695E0618D52268FC
:103CF00002F1140353E8003F23F04003143242E87A
:103D000000310029F3D1E06B50B1744B4363FEF7EF
:103D100023FB40B1E06B436B02B0BDE87040184735
:103D20002046FFF72EFF02B070BDFFF72AFF656443
:103D3000F9E7206B012840F09480D50640F191808E
:103D4000C80640F18E80002201921A6801925A68DA
:103D50000192019A5A6952064DD5E16B0A68526880
:103D600092B2002ADFD0A08D9042DCD9E2858A6928
:103D7000202A36D003F10C0252E8002F22F4807280
:103D800003F10C0040E800210029F3D103F11402F3
:103D900052E8002F22F0010203F1140040E8002154
:103DA0000029F3D103F1140252E8002F22F040025F
:103DB00003F1140040E800210029F3D1202284F807
:103DC0004220216303F10C0252E8002F22F010027E
:103DD00003F10C0040E800210029F3D1E06BFEF76D
:103DE0009BFA02236363E38DA18DC91A89B2204631
:103DF000FFF7D0FE97E7E28DE08DA18D80B292B201
:103E0000002890D0891A89B200298CD003F10C02C5
:103E100052E8002F22F4907203F10C0545E80020CF
:103E20000028F3D103F1140252E8002F22F001021E
:103E300003F1140545E800200028F3D1202284F87E
:103E40004220206303F10C0252E8002F22F01002FE
:103E500003F10C0545E800200028F3D10223636339
:103E6000C5E7160628D50D0626D594F84120212A47
:103E70007FF459AFA168226AB1F5805F17D121693B
:103E8000A9B932F8021BC1F3080159602262E28C21
:103E9000013A92B2E284002A7FF445AFDA6822F058
:103EA0008002DA60DA6842F04002DA603BE7511CD7
:103EB000216212785A60EAE750067FF534AF4A066D
:103EC0007FF531AFDA68204622F04002DA60202325
:103ED00084F84130FFF753FE25E700BF853B00081B
:103EE000EFF305832BB9064B186828B901221A6035
:103EF00070476FF0050070474FF0FF30704700BF0C
:103F0000B40A002010B5EFF305845CB9084B1A68B9
:103F1000012A0AD1074AD47702221A6001F0C0F9B7
:103F2000204610BD6FF00500FBE74FF0FF30F8E7CB
:103F3000B40A002000ED00E0F0B51446002287B07E
:103F40000B460592EFF30582FAB9F0B154B3A569B7
:103F500025B1691E372902D9002017E018256268AB
:103F6000D207F9D466699EB1B2082168D4E9027C0F
:103F700087B1BCF15B0F08D9246934B12EB1CDE90A
:103F80000147009501F025F90590059807B0F0BDAF
:103F90008022EAE7BCF1000FF7D12469002CF4D1AC
:103FA0000C4601E01825802205A9CDE9005192B206
:103FB000214601F046F901281CBF00230593E4E7E0
:103FC00008B5EFF3058222B908B101F0C9FA002063
:103FD00008BD6FF00500FBE70346EFF3058242B929
:103FE00048B1D3E9020318B11F2B02D900F052B92E
:103FF0000BB10020704700F071B913B50C46F8B151
:10400000B1F1807F1CD2EFF30583A3B1002301AA95
:10401000019300F07BFAB0B1019B4BB14FF0E0236C
:104020004FF08052C3F8042DBFF34F8FBFF36F8F53
:10403000204602B010BD02B0BDE8104000F020BA2A
:104040006FF00304F4E76FF00204F1E770B50E4679
:104050000546B0B1B1F1807F13D2EFF3058363B1B0
:1040600000F000FA31460446284600F0F3F9002833
:1040700008BF6FF00204204670BDBDE8704000F03C
:10408000C3B96FF00304F6E773B50C461D46F8B1EB
:10409000B1F1807F1CD2EFF30583E3B902F0010692
:1040A00082F00202C2F340023346009500F024F988
:1040B00004EA00024EB1A24205D0002D14BF6FF0F9
:1040C00001006FF0020002B070BD002AF5D0FAE7DF
:1040D0006FF00300F7E76FF00500F4E7F8B5054669
:1040E000EFF3058717B100242046F8BD20B34668DA
:1040F0003307F8D4D0E9021306F0010699B14F2B2B
:10410000F1D9BEB1042000F077FC04460028EAD0C3
:1041100037462D682946204600F098FE002FE3D050
:1041200044F00104E0E7002BDDD12EB1042000F0C3
:1041300097FCEAE70120E6E7012000F091FC044645
:104140000028D0D0002DE5D00026E1E738B50346A1
:104150000C4620F0010003F00102EFF3058595B94C
:10416000012B13D962B100F050FE012801D10020CB
:1041700038BD002C14BF6FF001006FF00200F7E7AC
:1041800000F086FDF1E76FF00500F1E76FF0030046
:10419000EEE7024608B520F0010002F00103EFF35C
:1041A000058179B9012A10D93BB100F03AFC012808
:1041B0000CBF00206FF0020008BD1A46194600F03F
:1041C00069FBF4E76FF00500F6E76FF00300F3E733
:1041D000F7B504460E461546EFF3058242B938B1ED
:1041E000884205D355B1D5E902372BB14F2F22D8DC
:1041F0000024204603B0F0BD002FF9D1012C0CD0D3
:104200002046314600F028FB04460028F0D085B94E
:104210002946204600F01AFEEBE703220021012088
:1042200000F0D1FA0EE01A4600F0F4FA0446002835
:10423000DED02D68ECE70128F5D10321009111466D
:1042400000F073FA04460028D2D0002EDFD00023FD
:104250001A46194600F01EFB0128D8D0204600F06F
:104260001FFEC5E7034B0360034B0B608023136005
:10427000704700BF580A002058080020034B036015
:10428000034B0B604FF4807313607047FC070020F2
:10429000FC03002013B5044640B94FF0500383F3EC
:1042A0001188BFF36F8FBFF34F8FFEE72023019379
:1042B000019B202B08D04FF0500383F31188BFF3EC
:1042C0006F8FBFF34F8FFEE7002340F8043B00F0F1
:1042D00025F901232046237702B010BD38B52020F0
:1042E00001F04CFF044628B1002540F8045B00F0C3
:1042F00015F92577204638BD2DE9F843DDF82090E3
:104300000D4617469846064640B94FF0500383F3D2
:104310001188BFF36F8FBFF34F8FFEE7B1F1807F3E
:1043200008D34FF0500383F31188BFF36F8FBFF3AF
:104330004F8FFEE741B94FF0500383F31188BFF36D
:104340006F8FBFF34F8FFEE701F0A6FA58B9B9F1AE
:10435000000F08D04FF0500383F31188BFF36F8F25
:10436000BFF34F8FFEE700F0E1FF346805EA040376
:10437000B8F1000F13D1A3B9B9F1000F15D0391E50
:1043800018BF01210906B8F1000F01D041F080618A
:104390004A462943301D01F05DF9002407E09D42A3
:1043A000EAD117B124EA050333604FF0000901F0A8
:1043B00063F8B9F1000F1CD048B94FF0E0234FF07B
:1043C0008052C3F8042DBFF34F8FBFF36F8F01F0FE
:1043D00041FB830104460AD401F0A4FD346805EAD8
:1043E0000403B8F1000F07D143B901F0BBFD24F07D
:1043F0007F442046BDE8F8839D42F6D1002FF4D0DB
:1044000024EA05053560F0E770B50C46054640B96D
:104410004FF0500383F31188BFF36F8FBFF34F8FBB
:10442000FEE7B1F1807F08D34FF0500383F311888A
:10443000BFF36F8FBFF34F8FFEE701F073FD2E6860
:1044400026EA04042C6001F08DFD304670BDFFF7B4
:10445000DBBF00000A4600230146014801F0FABC18
:104460004F440008EFF311834FF0500282F311889C
:10447000BFF36F8FBFF34F8F006883F311887047CE
:104480002DE9F0410D46044640B94FF0500383F347
:104490001188BFF36F8FBFF34F8FFEE7B1F1807FBD
:1044A00008D34FF0500383F31188BFF36F8FBFF32E
:1044B0004F8FFEE700F10C0600F038FF23682069FB
:1044C0002B43002523608642216807D121EA05019C
:1044D000216000F0D1FF2068BDE8F081D0E900281C
:1044E00022F07F4312F0806F03EA010702D11FB967
:1044F0004046E8E7BB42FBD1D20141F0007148BF22
:104500001D4301F033F9F3E7FFF7BABF13460A463C
:104510000146014801F09EBC094500084FF0FF32FA
:1045200000F10803C0E90223436003610023036034
:10453000704700230361704743689A684B608A6044
:10454000516099600368086101330360704730B5BA
:104550000C68631C0AD103695A684A6091608B60D9
:104560005960036808610133036030BD00F108023F
:10457000134652681568A542FAD9EDE70369D0E9F8
:1045800001128A6051605968814208BF5A60002256
:1045900002611A68013A1A601868704710B504463B
:1045A00001F0C0FCA46B01F0DDFCB4FA84F040091A
:1045B00010BD70B51646026C0446856B42B906689C
:1045C0009EB9806801F0B6F9A6600135A56370BD9B
:1045D0006EB9406802F0E1FC6368226C1344A26883
:1045E0006360934224BF236863600020EDE7C068E6
:1045F00002F0D3FC226CE36851429B1A2268E3600C
:1046000093423EBFA3685B18E360022EEDD10DB16B
:10461000013DEAE72846D8E703461A6C084610B47D
:1046200062B1DC68996814448C4228BF1968DC6068
:1046300028BFD960D96810BC02F0AFBC10BC70476D
:1046400070B5044601F06EFC94F8455004F1240660
:104650006DB2002D01DD636AB3B9FF2384F84530E4
:1046600001F080FC01F05EFC94F8445004F1100667
:104670006DB2002D01DD23697BB9FF2384F844303E
:10468000BDE8704001F06EBC304601F02FF808B173
:1046900001F0F6F8013D6DB2DBE7304601F026F897
:1046A00008B101F0EDF8013D6DB2E2E738B50D4615
:1046B000044640B94FF0500383F31188BFF36F8F66
:1046C000BFF34F8FFEE701F02DFCD4E90F314B43D0
:1046D0002268D0185B1AA060626000201A44FF2391
:1046E000A063E26084F8443084F84530A5B92369BA
:1046F00073B104F1100000F0F9FF48B14FF0E0236E
:104700004FF08052C3F8042DBFF34F8FBFF36F8F6C
:1047100001F028FC012038BD04F11000FFF7FEFE77
:1047200004F12400FFF7FAFEF2E737B50D461C4608
:1047300040B94FF0500383F31188BFF36F8FBFF37D
:104740004F8FFEE743B94FF0500383F31188BFF357
:104750006F8FBFF34F8FFEE74AB191B94FF050030F
:1047600083F31188BFF36F8FBFF34F8FFEE741B123
:104770004FF0500383F31188BFF36F8FBFF34F8F58
:10478000FEE750230193019B502B08D04FF05003BC
:1047900083F31188BFF36F8FBFF34F8FFEE70121C3
:1047A000002D08BF2246C4E90F0584F846102046B4
:1047B0002260019BFFF77AFF20469DF8183084F8AD
:1047C0004C3003B030BDF8B50D461746064640B92B
:1047D0004FF0500383F31188BFF36F8FBFF34F8FF8
:1047E000FEE74843503001F0C9FC044670B1002395
:1047F00080F8463065B100F1500301212046C4E93C
:104800000F652360FFF752FF84F84C702046F8BD17
:104810000346F2E713B513460C4640B94FF0500378
:1048200083F31188BFF36F8FBFF34F8FFEE788428A
:1048300008D24FF0500383F31188BFF36F8FBFF39B
:104840004F8FFEE70222009200221146FFF76DFF14
:1048500000B1846302B010BD10B50C4640B94FF0F2
:10486000500383F31188BFF36F8FBFF34F8FFEE7C1
:10487000884208D24FF0500383F31188BFF36F8F43
:10488000BFF34F8FFEE702220021FFF79CFF00B12C
:10489000846310BD2DE9FF410F461E460446019278
:1048A00040B94FF0500383F31188BFF36F8FBFF30C
:1048B0004F8FFEE751B9036C43B14FF0500383F3C0
:1048C0001188BFF36F8FBFF34F8FFEE7022E0BD11E
:1048D000E36B012B08D04FF0500383F31188BFF333
:1048E0006F8FBFF34F8FFEE700F0D6FF054620B372
:1048F00000254FF0000801F015FBA26BE36B9A4214
:1049000027D2324639462046FFF753FE636A1BB171
:1049100004F1240000F0EAFE48B14FF0E0234FF02C
:104920008052C3F8042DBFF34F8FBFF36F8F01F098
:1049300019FB012004B0BDE8F081019B002BD8D009
:104940004FF0500383F31188BFF36F8FBFF34F8F86
:10495000FEE7022ED5D0019B1BB901F003FB00201E
:10496000E8E715B902A800F043FF01F0FBFA00F0F8
:10497000DDFC01F0D7FA94F84430FF2B08BF84F82F
:10498000448094F84530FF2B08BF84F8458001F03F
:10499000E9FA01A902A800F037FF38BB01F0C2FA1A
:1049A000A26BE36B9A420ED101F0DCFA019904F19B
:1049B000100000F035FE2046FFF742FE00F05CFDDF
:1049C00048B1012597E701F0CDFA2046FFF738FE00
:1049D00000F052FDF5E74FF0E0234FF08052C3F8AE
:1049E000042DBFF34F8FBFF36F8FEAE72046FFF729
:1049F00027FE00F041FDB2E7002213B50B46009000
:104A000011460120FFF791FE044638B100231A46F3
:104A1000194683600360C360FFF73CFF204602B085
:104A200010BD38B5044640B94FF0500383F31188E8
:104A3000BFF36F8FBFF34F8FFEE7856800F026FF4F
:104A400085420BD1E368013BE3600BB1012038BD27
:104A50001A4619462046FFF71DFFF7E70020F6E744
:104A600070B50646502001F089FB044698B1002538
:104A7000012180F84650C0E90F150060FFF716FECF
:104A80002B462A462946204684F84C60A5602560BE
:104A9000E560FFF7FFFE204670BD2DE9F84389462B
:104AA00017461E46044640B94FF0500383F3118861
:104AB000BFF36F8FBFF34F8FFEE751B9036C43B164
:104AC0004FF0500383F31188BFF36F8FBFF34F8F05
:104AD000FEE7022E0BD1E36B012B08D04FF0500301
:104AE00083F31188BFF36F8FBFF34F8FFEE701F0A1
:104AF000F1FAEFF311884FF0500383F31188BFF3FD
:104B00006F8FBFF34F8FA26BE36B9A4201D3022EDC
:104B10001ED194F845503246494620466DB2A36BEB
:104B2000FFF747FD6B1C0ED1636A3BB104F1240013
:104B300000F0DCFD10B10FB101233B60012088F3D0
:104B40001188BDE8F88301356DB284F84550F5E76A
:104B50000020F4E72DE9FF410E460446019240B9DA
:104B60004FF0500383F31188BFF36F8FBFF34F8F64
:104B7000FEE751B9036C43B14FF0500383F3118842
:104B8000BFF36F8FBFF34F8FFEE700F085FE054642
:104B900018B300254FF0000801F0C4F9A76B47B324
:104BA00031462046013FFFF737FDA763236973B104
:104BB00004F1100000F09AFD48B14FF0E0234FF0EF
:104BC0008052C3F8042DBFF34F8FBFF36F8F01F0F6
:104BD000C9F9012004B0BDE8F081019B002BD9D0B8
:104BE0004FF0500383F31188BFF36F8FBFF34F8FE4
:104BF000FEE7019B1BB901F0B5F90020EAE715B902
:104C000002A800F0F5FD01F0ADF900F08FFB01F016
:104C100089F994F84430FF2B08BF84F8448094F855
:104C20004530FF2B08BF84F8458001F09BF901A9AE
:104C300002A800F0E9FD00BB2046FFF7AFFCB0B1D1
:104C4000019904F1240000F0EBFC2046FFF7F8FC8A
:104C500000F012FC48B94FF0E0234FF08052C3F847
:104C6000042DBFF34F8FBFF36F8F012594E72046CC
:104C7000FFF7E6FC00F000FCF7E72046FFF7E0FC5A
:104C800000F0FAFB2046FFF789FC0028EDD0B4E7DE
:104C9000F0B585B00446019140B94FF0500383F35D
:104CA0001188BFF36F8FBFF34F8FFEE7056C45B1DF
:104CB0004FF0500383F31188BFF36F8FBFF34F8F13
:104CC000FEE700F0E9FD064620B32E46002701F07E
:104CD00029F9A36B53B3013BA363236813B900F015
:104CE000C5FEA060236973B104F1100000F0FEFC62
:104CF00048B14FF0E0234FF08052C3F8042DBFF3CA
:104D00004F8FBFF36F8F01F02DF9012005B0F0BD7B
:104D10003546DBE7019B002BFAD04FF0500383F3BD
:104D20001188BFF36F8FBFF34F8FFEE7019B53B91D
:104D3000002D66D04FF0500383F31188BFF36F8FBF
:104D4000BFF34F8FFEE716B902A800F051FD01F046
:104D500009F900F0EBFA01F0E5F894F84430FF2B84
:104D600008BF84F8447094F84530FF2B08BF84F8DE
:104D7000457001F0F7F801A902A800F045FD50BB0D
:104D80002046FFF70BFC00B323683BB901F0CAF8DB
:104D9000A06800F091FD054601F0E4F8019904F1E6
:104DA000240000F03DFC2046FFF74AFC00F064FBC5
:104DB00048B94FF0E0234FF08052C3F8042DBFF301
:104DC0004F8FBFF36F8F012681E72046FFF738FC36
:104DD00000F052FBF7E72046FFF732FC00F04CFBF7
:104DE0002046FFF7DBFB0028EDD065B101F09AF813
:104DF000616A19B1236B1968C1F13801A06800F02C
:104E0000DBFD01F0AFF8002080E770B50D460446E9
:104E100040B94FF0500383F31188BFF36F8FBFF396
:104E20004F8FFEE7866800F031FD864204D10120F5
:104E3000E3680133E36070BD29462046FFF728FF91
:104E40000028F8D0E3680133E360F4E7002330B5CD
:104E5000064A52F8335002EBC3041DB942F833102E
:104E6000606030BD0133082BF3D1FAE7B80A0020A7
:104E7000002310B5084A52F83310DC00814206D1F5
:104E80000021064A42F833102244516010BD01331C
:104E9000082BF0D1FAE700BFBC0A0020B80A0020B6
:104EA00010B540B94FF0500383F31188BFF36F8FF3
:104EB000BFF34F8FFEE7FFF7DBFF90F846301BB9DB
:104EC000BDE8104001F0F2B910BD70B504460D46C2
:104ED000164601F027F894F84430FF2B04BF002356
:104EE00084F8443094F84530FF2B04BF002384F845
:104EF000453001F037F8A36B2BB93246294604F14F
:104F0000240000F0D3FB2046BDE87040FFF798BBBB
:104F10002DE9F041044601F005F8304B304E1A6897
:104F2000304F01321A603568002D4BD134601B6858
:104F3000012B1FD1B84640460135FFF7EFFA382D57
:104F400008F11408F7D1DFF8A080284D4046FFF79C
:104F5000E5FA2846FFF7E2FA2548FFF7DFFA254889
:104F6000FFF7DCFA2448FFF7D9FA244BC3F8008096
:104F7000234B1D601420234A136801331360224A17
:104F800063641168E36A8B4200FB037004F104015F
:104F900088BF1360FFF7D0FA00F0E4FF1B4B1B68DB
:104FA00073B13368DA6AE36A9A4209D24FF0E023B8
:104FB0004FF08052C3F8042DBFF34F8FBFF36F8FB4
:104FC000BDE8F081114B1A68E36A002AD2D1326839
:104FD000D26A9A4298BF3460CCE700BF1C0B002015
:104FE000F00F0020900B00207C0B0020680B0020AD
:104FF0004C0B0020380B0020200B0020640B0020FD
:10500000600B0020000B0020140B0020100B002070
:10501000F8B50646144B154D1C6828680F46043039
:10502000FFF7ACFA731C07D137B129681048043177
:10503000BDE8F840FFF780BA2B68A4195C6007D37D
:105040000C4B18682968BDE8F8400431FFF77FBAB7
:10505000094B186829680431FFF779FA074B1A6879
:10506000A24288BF1C60F8BD180B0020F00F002082
:10507000200B0020600B0020640B0020FC0A0020A5
:10508000064A13681968064B19B94FF0FF321A60C7
:1050900070471268D268D2685268F8E7640B002043
:1050A000FC0A002010B590F8593004463BB9006B5B
:1050B00001F0FCF82046BDE8104001F0F7B8012BE4
:1050C000F9D0022B08D04FF0500383F31188BFF3BF
:1050D0006F8FBFF34F8FFEE710BD000080B5134CFC
:1050E000134F144D236873B9134B1B68012BF8D968
:1050F0004FF0E0234FF08052C3F8042DBFF34F8FE1
:10510000BFF36F8FEDE700F00DFFFB68DE68301D29
:10511000FFF734FA2B68013B2B602368013B2360C7
:1051200000F020FF3046FFF7BDFFDBE7340B002027
:10513000380B00201C0B0020900B00202DE9F047BD
:105140000D46DDE90994960032460746A521206BFD
:10515000984601F095FE236B043E1E4426F0070698
:10516000A5B36B1E04F133020F3513F8011F02F8CB
:10517000011F09B1AB42F8D1002384F84330089DE8
:105180004FF0000A372D28BF3725201DE562E56462
:10519000C4F850A0FFF7CDF9C5F1380504F11800A7
:1051A000FFF7C7F9C4F854A0424639463046246197
:1051B000A561646284F858A000F090FE2060B9F107
:1051C000000F01D0C9F80040BDE8F08784F83450E2
:1051D000D5E770B586B0DDE90B5445B94FF0500303
:1051E00083F31188BFF36F8FBFF34F8FFEE744B98E
:1051F0004FF0500383F31188BFF36F8FBFF34F8FCE
:10520000FEE75C260596059E5C2E08D04FF0500305
:1052100083F31188BFF36F8FBFF34F8FFEE72563D2
:10522000022584F8595004AD01950A9D0294009519
:10523000059EFFF783FF2046FFF76AFE049806B03D
:1052400070BD2DE9F043074685B0900088461646AC
:10525000994600F093FF054620B94FF0FF3005B0A6
:10526000BDE8F0835C2000F089FF044698B100237C
:1052700080F859300D9B056301930C9B32464146E3
:105280000290009338464B46FFF758FF2046FFF741
:105290003FFE0120E3E7284601F008F8DDE70000C3
:1052A00010B5002488B007AA06A905A8CDE90544D1
:1052B000FEF7D8FF059B079A0293069B1649CDE996
:1052C000004316482346FFF784FF18B300F02CFC78
:1052D000012814D14FF0500383F31188BFF36F8F6F
:1052E000BFF34F8F4FF0FF320D4B1A600D4B18601C
:1052F0000D4B1C6008B0BDE8104000F093BE0130BB
:1053000008D14FF0500383F31188BFF36F8FBFF3C1
:105310004F8FFEE708B010BDE9980008DD50000887
:10532000FC0A0020100B0020180B0020024A136812
:1053300001331360704700BFF80A0020014B186862
:10534000704700BF180B0020404B2DE9F74F1B683A
:10535000002B73D13E4B1C6801341C60BCB93D4B23
:105360001A68126842B14FF0500383F31188BFF3FB
:105370006F8FBFF34F8FFEE7374A196810681860C8
:105380001160364A136801331360FFF779FE344D1C
:105390004FF0000B2B68334E9C42334F12D2142136
:1053A0003A68D26A4A43B258022A304A28BF4FF0BC
:1053B000010B1268002A18BF4FF0010B584603B0CA
:1053C000BDE8F08FDFF88C90DFF8A4A0D9F80020BA
:1053D00012681AB94FF0FF322A60E0E7D9F80020CE
:1053E000D268D2F80C80D8F804108C4201D229601F
:1053F000D5E708F1040318460193FFF7BFF8D8F882
:10540000281019B108F11800FFF7B8F81423D8F8DC
:105410002C00DAF80010884288BFCAF8000008F1B2
:10542000040103FB0060FFF787F83868D8F82C10F8
:10543000C26A914228BF4FF0010BC7E70D4A4FF0F7
:10544000000B136801331360B8E700BFF80A0020AF
:10545000180B0020640B0020600B0020040B0020C0
:10546000FC0A0020900B0020F00F0020080B002009
:10547000140B00200C0B00202DE9F041304C236868
:1054800043B94FF0500383F31188BFF36F8FBFF31D
:105490004F8FFEE700F046FD2368013B2360246840
:1054A0002CB1002400F05EFD2046BDE8F081254BC4
:1054B0001B68002BF5D0244D244EDFF894801DE0AE
:1054C000EB68DC68271D04F11800FFF757F8384631
:1054D000FFF754F81420E36A326800FB038093421C
:1054E000394688BF3360FFF727F81A4BE26A1B681A
:1054F000DB6A9A4202D30122174B1A602B68002BF9
:10550000DED10CB1FFF7BCFD144D2C6844B101276E
:10551000114EFFF719FF00B13760013CF9D12C6043
:105520000D4B1B68002BBCD04FF0E0234FF0805296
:10553000C3F8042DBFF34F8FBFF36F8F0124B1E782
:10554000F80A00201C0B00204C0B0020140B00203C
:10555000900B0020F00F0020080B00200C0B002007
:1055600008B550B94FF0E0234FF08052C3F8042D36
:10557000BFF34F8FBFF36F8F08BD0A4B196841B15E
:105580004FF0500383F31188BFF36F8FBFF34F8F3A
:10559000FEE7FFF7CBFEFFF73BFDFFF76DFF0028AF
:1055A000E0D0E9E7F80A0020184B70B51A68184BEC
:1055B00012B101221A6070BD1426164D1A602A68B5
:1055C000154906FB02F3CC58C81894B14468083357
:1055D00064680B449C4208BF6368446008BF436032
:1055E000142303FB02114B68D9680C4B19602A6025
:1055F000E1E742B94FF0500383F31188BFF36F8F97
:10560000BFF34F8FFEE7013ADBE700BFF80A002047
:10561000080B0020140B0020900B0020F00F00203E
:1056200010B50C4640B94FF0500383F31188BFF317
:105630006F8FBFF34F8FFEE7054B19681831FEF7E8
:1056400086FF2046BDE810400121FFF7E1BC00BF06
:10565000F00F002010B5144640B94FF0500383F30B
:105660001188BFF36F8FBFF34F8FFEE70D4B1B68A1
:1056700043B94FF0500383F31188BFF36F8FBFF32B
:105680004F8FFEE7084B41F000411A68916119689D
:105690001831FEF751FF2046BDE810400121FFF709
:1056A000B7BC00BFF80A0020F00F002038B50D4647
:1056B000144640B94FF0500383F31188BFF36F8F46
:1056C000BFF34F8FFEE7084B19681831FEF734FF20
:1056D000002C214608BF2846BDE8384018BF4FF0CF
:1056E000FF30FFF795BC00BFF00F002038B5C3684E
:1056F000DC6844B94FF0500383F31188BFF36F8F18
:10570000BFF34F8FFEE704F118052846FEF736FF7A
:10571000104B1B68DBB9251D2846FEF72FFF0E4AEC
:1057200014201168E36A8B42294688BF13600B4A34
:1057300000FB0320FEF700FF094BE26A1B68DB6AEF
:105740009A4285BF0120074B0020186038BD2946CA
:105750000548EFE7F80A0020140B0020900B00200A
:10576000F00F0020080B00204C0B00201B4A38B51E
:10577000126842B94FF0500383F31188BFF36F8F63
:10578000BFF34F8FFEE7C46841F00041016044B9A8
:105790004FF0500383F31188BFF36F8FBFF34F8F28
:1057A000FEE7251DFEF7EAFE2846FEF7E7FE142079
:1057B0000B4AE36A11688B4288BF1360094A294685
:1057C00000FB0320FEF7B8FE074BE26A1B68DB6AAA
:1057D0009A4282BF0122054B1A6038BDF80A0020A8
:1057E000140B0020900B0020F00F0020080B00206D
:1057F000034B1B680360034B1B684360704700BF8B
:10580000040B0020180B002070B50C46054640B96B
:105810004FF0500383F31188BFF36F8FBFF34F8FA7
:10582000FEE741B94FF0500383F31188BFF36F8F48
:10583000BFF34F8FFEE700F075FB0F4B196823682D
:105840005A1C10D00D482E6800686A68864201D044
:105850008A420FD9881A83420AD95B1A1344284610
:105860002360FFF7C5FF002400F07CFB204670BDDD
:10587000002323600124F7E7180B0020040B00200D
:105880000122014B1A607047080B0020014B186879
:10589000704700BFF00F0020054B1B6833B1054B6C
:1058A0001868B0FA80F04009400070470120704746
:1058B000100B0020F80A0020F8B5044638B31A4D42
:1058C000C36A2A68D26A934226D28269174E002A96
:1058D000A1BF2A68D26AC2F138028261142202FB97
:1058E000036342699A4213D1071D3846FEF746FE0C
:1058F00014202B680E4ADB6A116800FB03608B42A0
:10590000E362394688BF1360FEF716FE0120F8BD3A
:105910002B68DB6AC362F9E72B68C06CDB6A9842CC
:105920002CBF00200120F2E7F00F0020900B002098
:10593000140B002038B508B9002038BD1B4B1C687B
:10594000844208D04FF0500383F31188BFF36F8F68
:10595000BFF34F8FFEE7236D43B94FF0500383F33E
:105960001188BFF36F8FBFF34F8FFEE7E16AE26CE0
:10597000013B91422365DFD0002BDDD1251D284658
:10598000FEF7FCFD1420E36CC3F13802A261084A63
:10599000E36211688B4288BF1360064A294600FB08
:1059A0000320FEF7C9FD0120C7E700BFF00F00206C
:1059B000140B0020900B002070B50446002841D045
:1059C000026D42B94FF0500383F31188BFF36F8F1C
:1059D000BFF34F8FFEE7C36C994238BF1946C36AC5
:1059E0008B422FD0012A2DD1174A1268824208D14A
:1059F0004FF0500383F31188BFF36F8FBFF34F8FC6
:105A0000FEE78269114D002A4FF0140202FB035396
:105A10004269C162A4BFC1F1380181619A4211D1CA
:105A2000061D3046FEF7AAFD1420094AE36A1168F4
:105A300000FB03508B423146BDE8704088BF1360C5
:105A4000FEF77ABD70BD00BFF00F0020900B002064
:105A5000140B0020044B1A68196890691A68CB6A05
:105A6000C3F1380393617047F00F0020044B1A68AC
:105A70001AB119680A6D01320A651868704700BFCB
:105A8000F00F0020914208B5416000610AD8D21A97
:105A900083699A420DD2084B011D1868FEF757FD25
:105AA000002008BD9A4201D2994202D2034B011D47
:105AB000F3E70120F5E700BFF0100020F41000200C
:105AC000F7B5114C00F02EFA2568BDB90F4F104EF6
:105AD0003846FEF723FD3046FEF720FD0D4B102122
