:020000040800F2
:1000000000500020712E00084D2D00084F2D0008D3
:10001000512D0008532D0008552D00080000000048
:10002000000000000000000000000000116F000848
:10003000572D000800000000A16F0008592D00088E
:10004000B92E0008B92E0008B92E0008B92E0008F4
:10005000B92E0008B92E0008B92E0008B92E0008E4
:10006000B92E0008B92E0008B92E0008B92E0008D4
:10007000B92E0008B92E0008B92E0008B92E0008C4
:10008000B92E0008B92E0008B92E0008B92E0008B4
:10009000B92E0008B92E0008B92E0008B92E0008A4
:1000A000B92E0008B92E0008B92E0008B92E000894
:1000B000712D0008B92E0008B92E0008B92E0008CD
:1000C000B92E0008B92E0008B92E0008B92E000874
:1000D000B92E0008B92E00087D2D0008B92E0008A1
:1000E000B92E0008B92E0008B92E00080000000043
:1000F0000000000000000000000000000000000000
:0C01000000000000000000005FF808F1A3
:1001100010B5054C237833B9044B13B10448AFF341
:1001200000800123237010BDE001002000000000CA
:1001300084A9000808B5034B1BB103490348AFF37A
:10014000008008BD00000000E401002084A9000830
:10015000034613F8012B002AFBD1181A0138704707
:1001600081F0004102E000BF83F0004330B54FEA68
:1001700041044FEA430594EA050F08BF90EA020FD5
:100180001FBF54EA000C55EA020C7FEA645C7FEA68
:10019000655C00F0E2804FEA5454D4EB5555B8BF8B
:1001A0006D420CDD2C4480EA020281EA030382EAFC
:1001B000000083EA010180EA020281EA0303362D8E
:1001C00088BF30BD11F0004F4FEA01314FF4801C61
:1001D0004CEA113102D0404261EB410113F0004F73
:1001E0004FEA03334CEA133302D0524263EB43032A
:1001F00094EA050F00F0A780A4F10104D5F1200EC8
:100200000DDB02FA0EFC22FA05F2801841F1000122
:1002100003FA0EF2801843FA05F359410EE0A5F1F6
:1002200020050EF1200E012A03FA0EFC28BF4CF027
:10023000020C43FA05F3C01851EBE37101F00045DD
:1002400007D54FF0000EDCF1000C7EEB00006EEBEA
:100250000101B1F5801F1BD3B1F5001F0CD3490874
:100260005FEA30004FEA3C0C04F101044FEA4452CB
:1002700012F5800F80F09A80BCF1004F08BF5FEA52
:10028000500C50F1000041EB045141EA050130BD32
:100290005FEA4C0C404141EB0101013C28BFB1F544
:1002A000801FE9D291F0000F04BF01460020B1FA8F
:1002B00081F308BF2033A3F10B03B3F120020CDA62
:1002C0000C3208DD02F1140CC2F10C0201FA0CF040
:1002D00021FA02F10CE002F11402D8BFC2F1200CA5
:1002E00001FA02F120FA0CFCDCBF41EA0C0190405B
:1002F000E41AA2BF01EB0451294330BD6FEA0404A4
:100300001F3C1CDA0C340EDC04F11404C4F120028E
:1003100020FA04F001FA02F340EA030021FA04F3A0
:1003200045EA030130BDC4F10C04C4F1200220FAF7
:1003300002F001FA04F340EA0300294630BD21FA35
:1003400004F0294630BD94F0000F83F4801306BFFB
:1003500081F480110134013D4EE77FEA645C18BFEF
:100360007FEA655C29D094EA050F08BF90EA020F86
:1003700005D054EA000C04BF1946104630BD91EA7E
:10038000030F1EBF0021002030BD5FEA545C05D181
:100390004000494128BF41F0004130BD14F58004C0
:1003A0003CBF01F5801130BD01F0004545F0FE4134
:1003B00041F470014FF0000030BD7FEA645C1ABF69
:1003C000194610467FEA655C1CBF0B46024650EAA0
:1003D000013406BF52EA033591EA030F41F40021CC
:1003E00030BD00BF90F0000F04BF0021704730B552
:1003F0004FF4806404F132044FF000054FF0000127
:1004000050E700BF90F0000F04BF0021704730B5E7
:100410004FF4806404F1320410F0004548BF4042BC
:100420004FF000013EE700BF42004FEAE2014FEA11
:1004300031014FEA02701FBF12F07F4393F07F4FEC
:1004400081F06051704732F07F4208BF704793F0EF
:100450007F4F04BF41F40021704730B54FF4607402
:1004600001F0004521F000411CE700BF50EA010205
:1004700008BF704730B54FF000050AE050EA0102AE
:1004800008BF704730B511F0004502D5404261EB1E
:1004900041014FF4806404F132045FEA915C3FF45F
:1004A000D8AE4FF003025FEADC0C18BF03325FEAFC
:1004B000DC0C18BF033202EBDC02C2F1200300FAAD
:1004C00003FC20FA02F001FA03FE40EA0E0021FAD2
:1004D00002F11444BDE600BF70B54FF0FF0C4CF4C0
:1004E000E06C1CEA11541DBF1CEA135594EA0C0F72
:1004F00095EA0C0F00F0DEF82C4481EA030621EAAD
:100500004C5123EA4C5350EA013518BF52EA0335E7
:1005100041F4801143F4801338D0A0FB02CE4FF099
:100520000005E1FB02E506F00042E0FB03E54FF0C9
:100530000006E1FB03569CF0000F18BF4EF0010EC1
:10054000A4F1FF04B6F5007F64F5407404D25FEABD
:100550004E0E6D4146EB060642EAC62141EA555170
:100560004FEAC52040EA5E504FEACE2EB4F1FD0CB2
:1005700088BFBCF5E06F1ED8BEF1004F08BF5FEA30
:10058000500E50F1000041EB045170BD06F00046E2
:1005900046EA010140EA020081EA0301B4EB5C048F
:1005A000C2BFD4EB0C0541EA045170BD41F4801187
:1005B0004FF0000E013C00F3AB8014F1360FDEBFAC
:1005C000002001F0004170BDC4F10004203C35DA88
:1005D0000C341BDC04F11404C4F1200500FA05F30B
:1005E00020FA04F001FA05F240EA020001F00042AC
:1005F00021F0004110EBD37021FA04F642EB060122
:100600005EEA430E08BF20EAD37070BDC4F10C044B
:10061000C4F1200500FA04F320FA05F001FA04F20F
:1006200040EA020001F0004110EBD37041F10001FB
:100630005EEA430E08BF20EAD37070BDC4F1200506
:1006400000FA05F24EEA020E20FA04F301FA05F26E
:1006500043EA020321FA04F001F0004121FA04F216
:1006600020EA020000EBD3705EEA430E08BF20EAE6
:10067000D37070BD94F0000F0FD101F00046400020
:1006800041EB010111F4801F08BF013CF7D041EAA2
:10069000060195F0000F18BF704703F000465200A6
:1006A00043EB030313F4801F08BF013DF7D043EA77
:1006B0000603704794EA0C0F0CEA135518BF95EA2D
:1006C0000C0F0CD050EA410618BF52EA4306D1D1B4
:1006D00081EA030101F000414FF0000070BD50EAD3
:1006E000410606BF1046194652EA430619D094EA5D
:1006F0000C0F02D150EA013613D195EA0C0F05D147
:1007000052EA03361CBF104619460AD181EA03019A
:1007100001F0004141F0FE4141F470014FF0000052
:1007200070BD41F0FE4141F4780170BD70B54FF0ED
:10073000FF0C4CF4E06C1CEA11541DBF1CEA13556D
:1007400094EA0C0F95EA0C0F00F0A7F8A4EB05044F
:1007500081EA030E52EA03354FEA013100F0888046
:100760004FEA03334FF0805545EA131343EA12630F
:100770004FEA022245EA111545EA10654FEA0026C4
:100780000EF000419D4208BF964244F1FD0404F57D
:10079000407402D25B084FEA3202B61A65EB0305D9
:1007A0005B084FEA32024FF480104FF4002CB6EB96
:1007B000020E75EB030E22BFB61A754640EA0C0016
:1007C0005B084FEA3202B6EB020E75EB030E22BF56
:1007D000B61A754640EA5C005B084FEA3202B6EB97
:1007E000020E75EB030E22BFB61A754640EA9C0056
:1007F0005B084FEA3202B6EB020E75EB030E22BF26
:10080000B61A754640EADC0055EA060E18D04FEAE3
:10081000051545EA16754FEA06164FEAC30343EA83
:1008200052734FEAC2025FEA1C1CC0D111F4801F50
:100830000BD141EA00014FF000004FF0004CB6E749
:1008400011F4801F04BF01430020B4F1FD0C88BFE8
:10085000BCF5E06F3FF6AFAEB5EB030C04BFB6EBF3
:10086000020C5FEA500C50F1000041EB045170BDE6
:100870000EF0004E4EEA113114EB5C04C2BFD4EB13
:100880000C0541EA045170BD41F480114FF0000E97
:10089000013C90E645EA060E8DE60CEA135594EA13
:1008A0000C0F08BF95EA0C0F3FF43BAF94EA0C0F16
:1008B0000AD150EA01347FF434AF95EA0C0F7FF48B
:1008C00025AF104619462CE795EA0C0F06D152EADF
:1008D00003353FF4FDAE1046194622E750EA4106C3
:1008E00018BF52EA43067FF4C5AE50EA41047FF4D4
:1008F0000DAF52EA43057FF4EBAE12E74FF0FF3C39
:1009000006E000BF4FF0010C02E000BF4FF0010C09
:100910004DF804CD4FEA410C7FEA6C5C4FEA430C82
:1009200018BF7FEA6C5C1BD001B050EA410C0CBFD1
:1009300052EA430C91EA030F02BF90EA020F002033
:10094000704710F1000F91EA030F58BF994208BF9A
:1009500090422CBFD8176FEAE37040F00100704757
:100960004FEA410C7FEA6C5C02D150EA013C07D1AE
:100970004FEA430C7FEA6C5CD6D152EA033CD3D0F9
:100980005DF8040B704700BF8446104662468C46F3
:100990001946634600E000BF01B5FFF7B7FF002826
:1009A00048BF10F1000F01BD4DF808EDFFF7F4FF4F
:1009B0000CBF012000205DF808FB00BF4DF808EDDA
:1009C000FFF7EAFF34BF012000205DF808FB00BFFD
:1009D0004DF808EDFFF7E0FF94BF012000205DF81F
:1009E00008FB00BF4DF808EDFFF7CEFF94BF0120D4
:1009F00000205DF808FB00BF4DF808EDFFF7C4FFCD
:100A000034BF012000205DF808FB00BF4FEA410C15
:100A10007FEA6C5C02D150EA013C0AD14FEA430CF8
:100A20007FEA6C5C02D152EA033C02D14FF0000035
:100A300070474FF0010070474FEA410212F5001273
:100A400015D211D56FF47873B3EB625212D94FEA15
:100A5000C12343F0004343EA505311F0004F23FAFF
:100A600002F018BF404270474FF00000704750EA54
:100A7000013005D111F0004008BF6FF00040704711
:100A80004FF00000704700BF80F0004002E000BF60
:100A900081F0004142001FBF5FEA410392EA030F69
:100AA0007FEA226C7FEA236C6AD04FEA1262D2EBB3
:100AB0001363C1BFD218414048404140B8BF5B42B8
:100AC000192B88BF704710F0004F40F4000020F051
:100AD0007F4018BF404211F0004F41F4000121F067
:100AE0007F4118BF494292EA030F3FD0A2F10102B1
:100AF00041FA03FC10EB0C00C3F1200301FA03F1EF
:100B000000F0004302D5494260EB4000B0F5000F11
:100B100013D3B0F1807F06D340084FEA310102F1D0
:100B20000102FE2A51D2B1F1004F40EBC25008BF82
:100B300020F0010040EA03007047490040EB00004C
:100B4000013A28BFB0F5000FEDD2B0FA80FCACF14D
:100B5000080CB2EB0C0200FA0CF0AABF00EBC2507A
:100B600052421843BCBFD0401843704792F0000F68
:100B700081F4000106BF80F400000132013BB5E7BB
:100B80004FEA41037FEA226C18BF7FEA236C21D031
:100B900092EA030F04D092F0000F08BF0846704796
:100BA00090EA010F1CBF0020704712F07F4F04D164
:100BB000400028BF40F00040704712F100723CBF77
:100BC00000F50000704700F0004343F0FE4040F4A1
:100BD000000070477FEA226216BF08467FEA23635F
:100BE0000146420206BF5FEA412390EA010F40F44A
:100BF000800070474FF0000304E000BF10F0004396
:100C000048BF40425FEA000C08BF704743F096437C
:100C100001464FF000001CE050EA010208BF704797
:100C20004FF000030AE000BF50EA010208BF70471E
:100C300011F0004302D5404261EB41015FEA010C33
:100C400002BF84460146002043F0B64308BFA3F12B
:100C50008053A3F50003BCFA8CF2083AA3EBC2530D
:100C600010DB01FA02FC634400FA02FCC2F120022C
:100C7000BCF1004F20FA02F243EB020008BF20F063
:100C80000100704702F1200201FA02FCC2F12002C9
:100C900050EA4C0021FA02F243EB020008BF20EABE
:100CA000DC7070474FF0FF0C1CEAD0521EBF1CEAEC
:100CB000D15392EA0C0F93EA0C0F6FD01A4480EADA
:100CC000010C400218BF5FEA41211ED04FF00063C3
:100CD00043EA501043EA5111A0FB01310CF00040EF
:100CE000B1F5000F3EBF490041EAD3715B0040EA15
:100CF000010062F17F02FD2A1DD8B3F1004F40EBE5
:100D0000C25008BF20F00100704790F0000F0CF0B7
:100D1000004C08BF49024CEA502040EA51207F3A7B
:100D2000C2BFD2F1FF0340EAC250704740F4000056
:100D30004FF00003013A5DDC12F1190FDCBF00F047
:100D400000407047C2F10002410021FA02F1C2F1F5
:100D5000200200FA02FC5FEA310040F1000053EA91
:100D60004C0308BF20EADC70704792F0000F00F0DF
:100D7000004C02BF400010F4000F013AF9D040EAE5
:100D80000C0093F0000F01F0004C02BF490011F479
:100D9000000F013BF9D041EA0C018FE70CEAD15377
:100DA00092EA0C0F18BF93EA0C0F0AD030F0004CF7
:100DB00018BF31F0004CD8D180EA010000F00040AB
:100DC000704790F0000F17BF90F0004F084691F069
:100DD000000F91F0004F14D092EA0C0F01D14202A3
:100DE0000FD193EA0C0F03D14B0218BF084608D16C
:100DF00080EA010000F0004040F0FE4040F40000B6
:100E0000704740F0FE4040F4400070474FF0FF0C48
:100E10001CEAD0521EBF1CEAD15392EA0C0F93EA8F
:100E20000C0F69D0A2EB030280EA010C49024FEAE1
:100E3000402037D04FF0805343EA111143EA10139A
:100E40000CF000408B4238BF5B0042F17D024FF452
:100E5000000C8B4224BF5B1A40EA0C00B3EB510F2D
:100E600024BFA3EB510340EA5C00B3EB910F24BF16
:100E7000A3EB910340EA9C00B3EBD10F24BFA3EB9B
:100E8000D10340EADC001B0118BF5FEA1C1CE0D163
:100E9000FD2A3FF650AF8B4240EBC25008BF20F016
:100EA000010070470CF0004C4CEA50207F32C2BF6A
:100EB000D2F1FF0340EAC250704740F400004FF007
:100EC0000003013A37E792F0000F00F0004C02BF38
:100ED000400010F4000F013AF9D040EA0C0093F002
:100EE000000F01F0004C02BF490011F4000F013B5C
:100EF000F9D041EA0C0195E70CEAD15392EA0C0FC4
:100F000008D142027FF47DAF93EA0C0F7FF470AFFB
:100F1000084676E793EA0C0F04D14B023FF44CAF3E
:100F200008466EE730F0004C18BF31F0004CCAD1D3
:100F300030F000427FF45CAF31F000437FF43CAF0F
:100F40005FE700BF4FF0FF3C06E000BF4FF0010C31
:100F500002E000BF4FF0010C4DF804CD4FEA400213
:100F60004FEA41037FEA226C18BF7FEA236C11D05D
:100F700001B052EA530C18BF90EA010F58BFB2EB10
:100F8000030088BFC81738BF6FEAE17018BF40F090
:100F9000010070477FEA226C02D15FEA402C05D144
:100FA0007FEA236CE4D15FEA412CE1D05DF8040BC9
:100FB000704700BF844608466146FFE70FB5FFF75C
:100FC000C9FF002848BF10F1000F0FBD4DF808ED14
:100FD000FFF7F4FF0CBF012000205DF808FB00BF05
:100FE0004DF808EDFFF7EAFF34BF012000205DF85F
:100FF00008FB00BF4DF808EDFFF7E0FF94BF0120AC
:1010000000205DF808FB00BF4DF808EDFFF7D2FFA8
:1010100094BF012000205DF808FB00BF4DF808EDEB
:10102000FFF7C8FF34BF012000205DF808FB00BFB8
:101030004FEA40024FEA41037FEA226C02D15FEAA5
:10104000402C08D17FEA236C02D15FEA412C02D107
:101050004FF0000070474FF0010070474FEA400228
:10106000B2F1FE4F0FD34FF09E03B3EB12620DD9D6
:101070004FEA002343F0004310F0004F23FA02F040
:1010800018BF404270474FF00000704712F1610FE7
:1010900001D1420205D110F0004008BF6FF00040BE
:1010A00070474FF00000704700B11030704700B13A
:1010B0001C30704700B12830704700B1383070479D
:1010C0001FB5044690B14FF47A738DF80C10017976
:1010D00000938DF80D200223006803AA490002F056
:1010E000E3FB08B10320E07104B010BD0120FBE771
:1010F00070B50E46054610B90124204670BD0A465B
:101100003D21FFF7DDFF04460028F5D11E206E715A
:1011100001F01CFFF1E70A4610B13E21FFF7D0BFF6
:10112000012070471FB5044690B18AB101234FF4E6
:101130007A7C0079CDE9013C00920A4600FA03F17D
:10114000206802F037FE08B10320E07104B010BD42
:101150000120FBE70A4618B111B10021FFF7E2BFF9
:101160000120704713B5044610B9012002B010BD2C
:1011700035210DF10702FFF7D5FF0028F5D19DF8C5
:1011800007309A0984F83E20C3F3011284F83F2007
:10119000C3F3810203F0030384F8402084F8413054
:1011A000E4E713B5044610B9012002B010BD3421A4
:1011B0000DF10702FFF7B6FF0028F5D19DF80730C3
:1011C00084F84230F1E738B51546044608B90120E5
:1011D00038BD0029FBD0002AF9D00A463921FFF793
:1011E000A1FF0028F3D12A463A212046FFF79AFFB3
:1011F000003818BF0120EBE737B50446A8B3A1B308
:10120000002529230160C5800572C0F80A50C581F8
:1012100005618582C0F816504583C5610562456247
:10122000294603711022283006F0F5FDA563A58735
:10123000C4F83E50032520460DF10501FFF78AFF53
:1012400060B13220013D01F081FE15F0FF05F2D1C1
:101250000323E371FF232372032007E09DF8053089
:10126000A02B05D001222372E271012003B030BD12
:1012700040F28A2001F06AFE01F062FE00F5FA6594
:1012800020460DF107020DF10601FFF79CFF10B19A
:101290000323E371E0E79DF8063003F0FB03012B25
:1012A00018D19DF80650012D1CD100212046FFF7D2
:1012B00032FF02460028D8D13B212046FFF700FF2D
:1012C0000028D2D108212046FFF712FF0028CCD1F8
:1012D000E580CBE70A2001F039FE01F031FEA8429B
:1012E000CED3DEE70220E071C0E730B5044685B01A
:1012F00098B192B18BB14FF47A750079CDE901358F
:10130000012300920A4600FA03F1206802F052FD20
:1013100008B10320E07105B030BD0120FBE713B533
:10132000044610B9012002B010BD06236A46082108
:10133000FFF7DBFF0028F5D1BDF800306381BDF871
:101340000230A381BDF80430E381ECE713B5044615
:1013500010B9012002B010BD06236A461421FFF720
:10136000C4FF0028F5D1009B2361BDF80430A3829F
:10137000F0E713B5044610B9012002B010BD0623F2
:101380006A460E21FFF7B1FF0028F5D1BDF8003005
:10139000E382BDF802302383BDF804306383ECE7B9
:1013A000F7B5044618B90125284603B0F0BD062359
:1013B0006A461A21FFF799FF05460028F3D1BDF9C7
:1013C0000000FFF71BFC4FF07651FFF76BFCBDF9F7
:1013D0000270E0613846FFF711FC4FF07651FFF7DD
:1013E00061FCBDF9046020623046FFF707FC4FF056
:1013F0007651FFF757FC6062D6E72DE9F3410446CA
:1014000020B90125284602B0BDE8F08108236A46CC
:101410002021FFF76AFF05460028F2D1BDF9000040
:10142000FFF7ECFB4FF06251FFF73CFCBDF9028087
:10143000A0624046FFF7E2FB4FF06251FFF732FC3B
:10144000BDF90470E0623846FFF7D8FB4FF06251F7
:10145000FFF728FCBDF9066020633046FFF7CEFB9E
:101460004FF06251FFF71EFC6063CBE713B50446F3
:1014700010B9012002B010BD06236A462821FFF7EB
:1014800034FF0028F5D1009BA363BDF80430A38787
:10149000F0E738B5054680B3837973B3FFF73FFFB4
:1014A00004462846FFF752FF0443E4B2003C2846B6
:1014B00018BF0124FFF75DFF0028284618BF01244C
:1014C000FFF76EFF0028284618BF0124FFF795FF9D
:1014D0000028284618BF0124FFF7C8FF0028284627
:1014E00018BF0124FFF73EFE2846FFF75AFE01F021
:1014F00027FDEC716864204638BD0424FBE73422E4
:10150000002106F088BC70B504460E46856A50F886
:101510002510006BFFF7BCFA314644F82560FFF751
:10152000B9FA0A23013595FBF3F203FB1255E36A7E
:101530000646092BDCBF0133E3622063A562E06A43
:10154000FFF75CFB01463046FFF760FC70BD000012
:1015500008B50A480A4A0B4BC0E9002300234FF4A0
:101560008042C0E90233C0E90423C0E906330362C4
:1015700002F0D8F808B172B6FEE708BD00080020F6
:1015800000540040A08601002628F8B50C4614D966
:10159000A0F58073082B00D9F8BD6FF48073184450
:1015A000072800F2CF80DFE810F0D000EA00EE005C
:1015B000E200F200F200F500F7002628ECD801A3C3
:1015C00053F820F0611600086B1600087316000827
:1015D0007B1600087F16000883160008871600088F
:1015E00099160008991500089F160008A91600080A
:1015F000AD160008B7160008BB160008BF16000895
:10160000C3160008991500089915000899150008D7
:1016100099150008991500089915000899150008F2
:1016200099150008991500089915000899150008E2
:1016300099150008991500089915000899150008D2
:10164000991500082B1700082B170008F916000839
:101650000317000807170008151700082F170008C0
:101660004E4B1B681B88238096E74C4B1B685B889E
:10167000F9E74A4B1B689B88F5E7494BF1E7484B74
:10168000F4E7474BF6E74749474B1868FFF70AFB73
:10169000FFF7E4FC20807FE74449454BF5E7454BE5
:1016A0001B7803F00103DEE7434BF9E78021434851
:1016B00001F07CFEEEE74021F9E72021F7E7102159
:1016C000F5E780213D4801F071FE402106463B4888
:1016D00001F06CFE20210746384801F067FE10211A
:1016E0008500364801F062FE45EA470535432DB2D4
:1016F00045EAC00525804FE72E4B1B78C3F3400316
:10170000B1E72D4BF9E72E4B1B78002BABD02D4BBF
:101710001B78A8E72A4B1B783BB12B4B1B78012B7E
:1017200003D92A4B1B885BBA9DE700239BE7244B18
:101730001B78002BF9D0244B1B78032BF5D9234BB6
:101740005B88F0E7224B1B7A8DE7214BD3F86C3492
:10175000B3F5164F11D007D8B3F5165F09D0B3F51E
:10176000964F08D005237EE7B3F5614FFAD10423E5
:1017700079E7012377E7022375E7032373E7144B27
:1017800093F870346FE7124B93F871346BE740F2C3
:10179000011368E7074BBBE7074BB9E75C02002082
:1017A000580200200000C8426802002000002041CA
:1017B000640200206E0200206D020020000801403B
:1017C00074020020750200207602002077020020BB
:1017D00080020020A0F5807010B509280BD8DFE842
:1017E00000F0050B1E270A0A0A0A0A2F4B1EF62BC9
:1017F00001D81D4B197210BD013989B203298CBF64
:101800004FF4E131194B184898BF33F8111090F894
:10181000702490F87134BDE8104000F07DBD0229BD
:10182000E9D81148CAB290F87134D0F86C14F2E7D4
:101830004B1E012BDFD80C48CBB290F87024F4E794
:101840000129D8D100240A4B22464FF4004109480F
:101850001C7001F0B1FD2246BDE810404FF48071CC
:10186000054801F0A9BD00BF80020020A0A9000822
:101870006D02002000100140000801402DE9F843EE
:101880002C4E0121306803F0BAFB00252A4C2B4F67
:10189000DFF8AC804FF47A7300220821306803F03F
:1018A000F5FB831C26D0010724D501F049FB42F249
:1018B0000F73401B984208D80821306803F0C8FB1A
:1018C0004FF47A7003F07EFBE4E701F039FB082166
:1018D0000546306803F0BCFB2378DA0742BF237863
:1018E00003F0FE03237023789B0742BF237803F0A5
:1018F000FD032370237803F0FF099BB101224FF40D
:101900000041384601F058FD01224FF480714046F5
:1019100001F052FD38464FF4005101F052FD4FF4F2
:10192000FA70CFE74A464FF40041384601F044FDD3
:101930004A46EAE74C0200206D02002000100140F8
:101940000008014008B5044C204600F093FD01203A
:1019500003F038FBF8E700BF800200202DE9F04FCC
:10196000AF484FF0FF3300220121006885B003F03B
:101970008DFB0024AB4B1B78002B00F0E981AA4BB8
:101980001B78DB0740F1E481A84B6421186803F061
:10199000DFFB002840F09581A548FFF77AFD00287D
:1019A00040F0C281A348FFF7AAFDA148FFF785FBDD
:1019B000A14C20609E48FFF77DFB80469C48FFF7C6
:1019C00076FB06469A48FFF76FFB9C4B186023682E
:1019D000002B00F0C181B8F1000F00F0BD81002E96
:1019E00000F0BA81002800F0B78101F0A9FA944F05
:1019F0000546386850B1281AFFF7FCF89149FFF7FF
:101A000005FA00210446FFF7F5FA00B18E4CD8F82C
:101A100000A03D6051465046FFF744F9D8F80470E5
:101A2000D8F80850D8F80C90394680463846FFF769
:101A300039F901464046FFF72DF8294680462846E9
:101A4000FFF730F901464046FFF724F84946804643
:101A50004846FFF727F901464046FFF71BF808F014
:101A600009F97A498046FFF7BBFA002840F07481F3
:101A700041463846FFF7CAF9414607462846FFF770
:101A8000C5F9414605464846FFF7C0F98346014679
:101A9000FFF700F859468146FFF704F939460090F0
:101AA0003846FEF7F7FF29460390FFF7FBF841465B
:101AB00083465046FFF7AAF94946FFF7F3F85E4B15
:101AC0000190D3F80090B9F90000FFF797F860494A
:101AD000FFF7E8F88046B9F90400FFF78FF85C4992
:101AE000FFF7E0F85B4981463068FFF7DBF85A49B9
:101AF000FFF78CF9824608F0D7F80290504608F0BC
:101B00000BF9294682462846FEF7C4FF2946FFF70F
:101B1000C9F801464FF07E50FEF7BAFF0099FEF774
:101B2000B7FF4146FFF7BEF8019905465846FEF754
:101B3000AFFF4946FFF7B6F801462846FEF7AAFF71
:101B40000299FFF7AFF8394605460398FFF7AAF860
:101B500001464FF07E50FEF79BFF0099FEF798FF7D
:101B60004946FFF79FF8019907465846FEF792FF4E
:101B70004146FFF797F801463846FEF78BFF51467E
:101B8000FFF790F801462846FEF784FF01462948F2
:101B9000FFF7B9FC314B07461A78314D002A40F067
:101BA0009480012228601A702F68DFF8B8803846C8
:101BB000D8F80010FEF76EFF4FF07C51FFF772F877
:101BC0002146294CFFF76EF82168FEF763FFC8F83D
:101BD000007020600546254927F00040FFF700FA15
:101BE000234F002800F08D80144BD3F80080B8F903
:101BF0000000FFF703F84FF0804120F00040FFF7AE
:101C0000EFF900287DD0B8F90200FEF7F7FF4FF09A
:101C1000804120F00040FFF7E3F9002871D029E06F
:101C20004C0200206C0200206E02002054020020B2
:101C300004070020180200205C0200205802002047
:101C40001402002000007A440AD7A33CBD37863531
:101C50000AD7233CDB0F4940000034431002002028
:101C60000C0200200802002004020020CDCC4C3DD4
:101C700000020020B8F90400FEF7C0FF4FF08041D9
:101C800020F00040FFF7ACF900283AD03B78013350
:101C9000DBB2022B3B7036D9002323602268304B25
:101CA0001A6032682F4B1A6000222F4B1A602F4A9D
:101CB000137803F0FE03137000242D4B186803F013
:101CC0006AFA322003F07EF954E62A492046FEF7EC
:101CD000E1FE01462046FFF799F8014681464FF0A4
:101CE0007E50FEF7D5FE2968FEF7DCFF49468046A8
:101CF0003846FEF7D7FF01464046FEF7CBFE286088
:101D000052E700233B701C4F28463946FFF786F9FF
:101D100008B12760C2E7194D20682946FFF760F92E
:101D20000028BBD02560B9E70134042CC5D90F4A7F
:101D30004FF400411378124843F00103137001225D
:101D400001F03AFB0F4B0821186803F058F9B3E78C
:101D5000642003F037F9B4E705B0BDE8F08F00BFA9
:101D60006802002064020020600200206D02002052
:101D700054020020AF4C593D00004842000048C2C8
:101D8000001001404C0200202DE9FF474B4E42F26B
:101D9000107300220121306803F078F900F02AFE68
:101DA000FF2000F03BFE00F0DFFD454D454F3B7846
:101DB0002868002B6DD0444B1B78990769D56421A6
:101DC00003F0C6F9044600284BD14FF4FA630DF135
:101DD000070202A98DF8070000F058FE002847D03E
:101DE0009DF80780B8F1000F42D0012302A810F837
:101DF000012BD90008398A401443DAB2904502D940
:101E00000133052BF3D1DFF8C490DFF8C4A0D9F873
:101E10000030A34202D19AF80030D3B942462D488F
:101E200002A906F086F8B8F1040F1FD0A8F1070246
:101E3000534253415B00284A022182F8008001226C
:101E40008AF80020254A3068C9F80040137003F072
:101E5000D6F8234A137803F0FD031370286803F0C3
:101E60009AF94FF4FA7003F0ADF8A0E70123E2E726
:101E7000174A1378002BECD000231370164A137006
:101E8000164A1370114A1360124A1360C2F80330E5
:101E9000DFE7144A0A2113680133322B28BF0023DD
:101EA000136003F055F90028DBD1094B18700A4B79
:101EB00018700A4B1870054B1860CFE74C020020D1
:101EC000540200206C0200206E02002070020020EC
:101ED00074020020770200207602002075020020A4
:101EE0006D020020FC010020202210B590B00021DE
:101EF0000DEB020005F08FFF0021142201A805F070
:101F00008AFF022401224FF4803306A8CDE906237C
:101F1000CDE90D430A9202F091F8014608B172B67C
:101F2000FEE70F23CDE90300059001A8CDE90134B8
:101F300002F046FA08B172B6FEE710B010BD00001C
:101F400008B5094890F83D30202B0BD001F092FCE9
:101F50000A2000F0FBFFFFF7FBFABDE80840322043
:101F600000F0F4BF08BD00BF000800202DE9F341D8
:101F70000024284E284D34702C70FFF7E1FF6420B8
:101F800000F0E4FF254FDFF89880394640460134E1
:101F9000FFF732F9032C05D028B14FF4FA7000F0A6
:101FA000D5FFF2E700BB1E480DF107020DF1060157
:101FB000FFF709F9337843F001033370194D174BDC
:101FC00000242B60482364202B71AC60AC812C6111
:101FD00000F0BCFF0134284600F0FAFC032C0ED0C0
:101FE00070B14FF4FA70F3E72B78012243F001034C
:101FF0004FF400410C482B7001F0DEF9DEE718B910
:10200000337843F0020333700122084B1A7002B098
:10201000BDE8F0816E0200206D0200200008002063
:10202000040700204C070020001001406C02002033
:1020300080B58AB000F066FFFFF756FF102200213E
:1020400006A805F0E8FE824B4FF460419A6981488A
:1020500042F010029A619A69002502F01002009283
:10206000009A9A69022442F020029A619A69012733
:1020700002F020020192019A9A694FF4807842F0AE
:1020800004029A619A6902F004020292029A9A6921
:1020900042F008029A619B69002203F0080303934F
:1020A000039B01F089F900224FF480716A4801F026
:1020B00083F94FF46043674806A9CDE90637CDE9B7
:1020C000085401F031F8F023634806A9CDE906353C
:1020D000089501F029F8604806A9CDE90854CDE932
:1020E000068701F021F8FFF733FA4FF4E1335B4C38
:1020F0005B492046C4E900130C23C4E90255C4E936
:1021000005352561E56102F07BFC064608B172B633
:10211000FEE71022014606A805F07DFE0F234FF0D2
:102120008042504DCDE90466C5E9002341F2883371
:102130002846C5E90336AE60AE6102F0C7FA08B1C1
:1021400072B6FEE74FF48053284606A9069302F0C4
:10215000F3FA08B172B6FEE7CDE9040004A92846F7
:1021600002F084FB08B172B6FEE74FF47A7000F01B
:10217000EDFEFFF7FBFE214604232A463A4800F015
:102180009DF8044690BB3949374800F02AFB38498E
:10219000354800F02AFB04224146334800F016FB84
:1021A00004224FF48271304800F010FB40F201121B
:1021B00040F205112C4800F009FB40F201124FF4E7
:1021C0008371294800F002FB052240F201112648E4
:1021D00000F0FCFA22464FF48171234800F0F6FA31
:1021E0003A4640F20311204800F0F0FA02F07AFE7D
:1021F000204802F075FF204B002118601F4A012083
:1022000002F0E8FF1E4B002118601E4A1E4802F033
:1022100095FE1E4B002118601D4A1E4802F08EFEDE
:102220001D4B002118601D4A1D4802F087FE1D4B02
:10223000002118601C4A1D4802F080FE1C4B1860EB
:102240001C4802F0CBFE1C4B186002F05DFEFEE75E
:1022500000100240001001400008014070070020FB
:1022600000440040B80700208002002089150008C3
:10227000D51700089CAB0008540200208CAB000866
:102280005002002018AC00087D1800086C070020E0
:10229000D0AB00085D19000864070020ACAB000853
:1022A000891D000860070020F4AB000845190008EC
:1022B000680700207CAB00084C020020F8B50D46F2
:1022C00017461E46044610B309B302B3013BDBB206
:1022D000F62B1CD840F28442002105F09CFD4FF4FF
:1022E000E133267201264FF416720021C4F86C34D3
:1022F000C4E9005784F8716404F10A0005F08BFD0D
:1023000032462846034902F0DCFD0020F8BD0120DA
:10231000FCE700BF5808002038B50446002836D036
:10232000C0F86C1480F8702480F87134006802F0F2
:1023300096FB0022D4F86C3420684360826094F8E5
:102340007134991E4B424B415B03C36094F8703467
:10235000012B03D0022B17D0026105E04FF48063FC
:1023600003614FF48053836000230C22C361C0E9F2
:10237000052302F045FB054620B9012205492068E6
:1023800002F09FFD284638BD4FF4C063E8E7012501
:10239000F8E700BF58080020024601444FF6FF70DE
:1023A00030B5094D8A4200D130BD082412F8013BF6
:1023B000584040F300032B4083EA500398B2631E59
:1023C00013F0FF04F5D1EDE701A0FFFF70B5B0F801
:1023D000685400F55A76044629463046FFF7DCFF7C
:1023E000631983F868030323AA1C0135ADB292B2C6
:1023F0002544000AA4F8682485F86803314684F867
:102400006A342068642302F044FB002284F86A24C2
:10241000A4F862234FF48041BDE87040014800F009
:10242000CBBF00BF00100140B0F8623310B5FF2BE6
:10243000044613D8C218013382F86212A0F862333E
:1024400000F07EFD0123C4F8640384F86A34206838
:102450000122BDE81040064902F033BDD0F87834BF
:102460000133C0F878340023A0F86233EDE700BFF1
:10247000580800202DE9F347044600F061FDB84BF1
:1024800005461A68824233D0186094F86A34012BEA
:102490001AD0032B206800F0918190F84230222B53
:1024A00006D000230122AF49A4F8623302F009FDEF
:1024B000B4F86233E3B1D4F86433E81A632884BF14
:1024C0000023A4F8623313E0D4F86433C31A042B56
:1024D0000ED9B4F8625335B1032D0CD8D4F8783442
:1024E0000133C4F878340023A4F8623384F86A34E2
:1024F00002B0BDE8F08704F26226A91E304689B218
:10250000FFF74AFF354415F8012C15F8023C43EA61
:1025100002238342E2D194F86232227A9A4201D0B5
:10252000002BE0D101224FF480418F4800F044FF9E
:1025300094F86332062B00F0CA801AD8032B217A54
:1025400023D0042B7CD063F07F0384F8693301230C
:1025500084F86A330323227AA4F86834204684F886
:102560006823FFF733FFD4F878340133C4F87834A4
:102570001BE0102BE7D1B4F862130A2900F2D080D7
:10258000237A84F86833902361E0B4F86223082A40
:1025900011D0832284F8681384F8692384F86A339D
:1025A000A4F868342046FFF711FFD4F874340133DF
:1025B000C4F8743497E7B4F86622B4F8645252BA97
:1025C00092B2501E6DBA7C28ADB206D8B5F5967F92
:1025D00003D2A818B0F5967F09DD832384F8681329
:1025E00084F86933022384F86A330323D8E7A046CA
:1025F000560005F1040984F8681384F8693384F8F7
:102600006A6304EB490987B239F8023FADF8063036
:10261000D4F87C341BB128460DF106019847BDF86B
:1026200006300135ADB21A0ABD4288F86B2388F82E
:102630006C3308F10208E7D1F21CA4F86824B1E772
:10264000B4F86223082A06D0842384F8681384F837
:1026500069330323A2E7B4F86622B4F8645252BA8D
:1026600092B2501E6DBA7C28ADB206D8B5F5967FF1
:1026700003D2A818B0F5967F03DD842384F868138D
:10268000AEE7A046560005F1040984F8681384F803
:10269000693384F86A6304EB490987B239F8023F69
:1026A000ADF80630D4F87C341BB128460DF1060194
:1026B0009847BDF806300135ADB21A0ABD4288F818
:1026C0006B2388F86C3308F10208E7D1B4E7B4F85B
:1026D0006233082B04D0237A84F868338623B6E764
:1026E000B4F86402B4F8663240BA80B25BBAB0F5AE
:1026F000967F99B204D3237A84F8683386236FE7F0
:1027000004EB40025381D4F8803403B19847D4F8E5
:102710006232C4F86833B388A4F86C3306233FE709
:10272000B4F86632B4F864725BBA9EB2721E7A2A4A
:1027300094F868320ED8B3EB460F0BD17DBAADB228
:10274000B5F5967F06D2AA19B2F5967F02DC093359
:1027500099420BD0237A84F86833902340E700BF76
:10276000540800205808002000100140A04605F140
:10277000040904EB49091FFA82FA98F8693298F8BB
:102780006A1241EA0321D4F8803429F8021F0BB100
:10279000284698470135ADB2AA4508F10208ECD1A8
:1027A000237AA4F86A7384F86833102384F86933B1
:1027B000002384F86D6384F86C33AFE790F8413000
:1027C000202B7FF495AE002390E600BF40B1B1F519
:1027D000967F04D200EB4100428101207047002027
:1027E000704708B1C0F87C14704708B1C0F8801475
:1027F00070477047F0B5041E08BF4FF47A74002587
:1028000064270D4E85B03068012301790097006878
:102810000DF10F0201F022F928B99DF80F000128EF
:1028200001D105B0F0BD0A200A3500F08FFBAC42A3
:10283000E9D80020F5E700BF5C080020F0B54B1C8C
:10284000DBB283B0DA1D02F4FC7202AFADEB020D15
:102850006A46642605460C4608490868017942F82C
:10286000086B006801F0FAF8224628460DF10901CC
:1028700005F05FFB0437BD46F0BD00BF5C080020DB
:1028800010B50B4C2368986888B19989002200F034
:1028900093FD0A2000F05AFB236801229868998969
:1028A00000F08AFDBDE81040322000F04FBB10BDA3
:1028B0005C0800200B462DE9F0410024154603F189
:1028C0000F0284B002F4FC726E4602AFADEB020D53
:1028D00002AA8DF808405470FF2494705C1CD470D8
:1028E000DC431471D424073154710DF10D0C00EB4D
:1028F000030840451AD1D018644284710020642432
:10290000505417490833086801790094006800F0B2
:10291000CBFF0220B54600F019FB2846FFF76AFFFF
:1029200058B900200837BD46BDE8F08110F801EB2A
:1029300074440CF801EFE4B2DBE706213846FFF7F8
:102940007DFF06223846074905F055FA0028E8D1F0
:10295000022000F0FBFA2846FFF74CFFE2E700BF39
:102960005C080020000000201422012310B50A4C4E
:1029700004212270A270204664226370E370FFF786
:1029800099FF40B120460921FFF758FFA079A0F137
:1029900015035842584110BD600800201FB555234B
:1029A0008DF80F30094B0DF10F021868642301797F
:1029B00000930068012300F077FF0A2000F0C6FAB8
:1029C000FFF7D2FF05B05DF804FB00BF5C080020F4
:1029D00008B5074B186040B1FFF752FF642000F0C4
:1029E000B5FAFFF7DBFF002008BD0120FCE700BFC0
:1029F0005C080020022310B5074C64220121204608
:102A00002370FFF757FF30B120460D21FFF716FF67
:102A1000D4F8060000BA10BD6008002038B5322393
:102A20000A4C05212370FF23A37001232071642227
:102A300020466170E370FFF73DFF054618B109219C
:102A40002046FFF7FBFE284638BD00BF6008002087
:102A500070B50D4C05460E4620461421FFF7EEFEDC
:102A6000E379012B0DD10022237B3370217BD3B27C
:102A7000994201D8012070BDE118497B0132E95427
:102A8000F4E70020F7E700BF6008002070B51646A5
:102A90004A221C46104BB4F57A7F1A704FF001029F
:102AA0000D465A70987022464FF0030128BF4FF42C
:102AB0007A721846FFF7FEFE60B1322000F046FA47
:102AC0002046FFF797FE28B131462846BDE8704002
:102AD000FFF7BEBF002070BD60080020114B07B596
:102AE0009A690F2142F001029A619A696FF0010020
:102AF00002F001020092009ADA6942F08052DA6133
:102B0000DB69002203F080530193019B00F042FA3D
:102B1000054A536823F0E06343F00073536003B049
:102B20005DF804FB001002400000014010B50446AF
:102B300086B01022002102A805F06DF92268114B21
:102B40009A421CD1104CC022A369104843F00803DC
:102B5000A361A36902A903F008030093009B122359
:102B6000CDE902230323059300F0DEFAE36943F481
:102B70000013E361E36903F400130193019B06B0C2
:102B800010BD00BF0054004000100240000C014086
:102B900008B50268094B9A420ED1094A4021D3690F
:102BA000084823F40013D36100F092FBBDE808400D
:102BB0008021044800F08CBB08BD00BF00540040D9
:102BC00000100240000C0140036807B5B3F1804FCC
:102BD00015D103F50433DA69052142F00102DA6107
:102BE000DB69002203F0010301931C20019B00F02C
:102BF000D1F91C2003B05DF804EB00F0FBB903B081
:102C00005DF804FB102210B5044688B00DEB0200FD
:102C1000002105F000F92368324A934231D1324B4A
:102C20004FF400719A69314842F480429A619A697E
:102C3000002402F480420092009A9A6942F0040251
:102C40009A619B6903F004030193019B0223CDE980
:102C50000413032304A9079300F066FA4FF480637A
:102C6000224804A9CDE90434069400F05DFA252039
:102C70002246052100F08EF9252000F0BBF908B0AE
:102C800010BD1B4A9342FAD1174B1848DA6904A9C0
:102C900042F40032DA61DA69002402F4003202926E
:102CA000029A9A6942F004029A619B69042203F035
:102CB00004030393039B0223CDE904230323079317
:102CC00000F032FA0823094804A9CDE90434069437
:102CD00000F02AFA26202246052100F05BF9262082
:102CE000CBE700BF0038014000100240000801405F
:102CF0000044004008B5124A036893420FD102F520
:102D0000584293690F4823F480434FF4C0619361A4
:102D100000F0DEFA2520BDE8084000F079B90A4A43
:102D200093420BD102F5E632D369064823F400330F
:102D30000C21D36100F0CCFA2620ECE708BD00BFDF
:102D4000003801400008014000440040FEE7FEE773
:102D5000FEE7FEE7FEE7704708B500F0E5F803F090
:102D60009DFD012803D0BDE8084004F03BB908BD33
:102D7000014801F0E5BB00BFB8070020014801F0A1
:102D80003DBF00BF700700200268044B9A4204D187
:102D9000034B04481978FFF747BB704700440040D5
:102DA00058080020800200200368B3F1804F02D150
:102DB0000148FFF71EBD70478002002001207047C8
:102DC00008B505F07BF8162303604FF0FF3008BD0F
:102DD00008B505F073F816230360FEE770B50D46DD
:102DE00014460E46731B9C4201DC204670BDAFF3B7
:102DF000008006F8010BF5E770B50D4614460E4647
:102E0000731B9C4201DC204670BD16F8010BAFF32A
:102E10000080F5E74FF0FF3070474FF4005300207B
:102E20004B60704701207047002070470B4A0346F3
:102E3000116810B509B90A491160106809490A4CAE
:102E40000344091B8B4206D905F038F80C230360B4
:102E50004FF0FF3010BD1360FCE700BFA00800205A
:102E6000403F002000500020000400007047000098
:102E7000FFF7FCFF0B480C490C4A002302E0D45832
:102E8000C4500433C4188C42F9D3094A094C0023B6
:102E900001E013600432A242FBD305F015F8FFF7FE
:102EA000C7F8704700000020E001002054B200087D
:102EB000E0010020403F0020FEE7000038B50E4B47
:102EC00005461A784FF47A73B3FBF2F30B4A106895
:102ED000B0FBF3F000F0AEF8044658B90F2D09D856
:102EE000024629464FF0FF3000F054F82046044BCC
:102EF0001D6038BD0120FCE70C0000200800002008
:102F000010000020074A08B51368032043F010039F
:102F1000136000F02DF80F20FFF7D0FFFFF7DEFD64
:102F2000002008BD00200240034A044B11681B78B2
:102F30000B441360704700BFA40800200C00002061
:102F4000014B1868704700BFA408002038B504463C
:102F5000FFF7F6FF0546631C1EBF044B1B78E41801
:102F6000FFF7EEFF431BA342FAD338BD0C0000204D
:102F700007490302CA6803F4E06322F4E062120422
:102F8000120C134343F0BF6343F40033CB6070472C
:102F900000ED00E0154B30B5DC68C4F30224C4F149
:102FA0000703251D042B28BF0423062D4FF0FF35F2
:102FB00094BF0024033C05FA03F321EA0303A54070
:102FC00022EA0502A340002843EA0203ACBF00F155
:102FD0006040074A4FEA0313DBB2ABBF00F5614024
:102FE00000F00F0080F80033135430BD00ED00E016
:102FF00014ED00E0002807DB01234109034A00F03B
:103000001F00834042F82130704700BF00E100E01C
:1030100000280CDB01220649430900F01F00824012
:10302000203341F82320BFF34F8FBFF36F8F7047DA
:1030300000E100E00138B0F1807F0BD24FF0E023D7
:10304000F021054A586182F8231000200722986178
:103050001A6170470120704700ED00E090F82120D0
:103060000346022A06D0042282630120002283F84C
:10307000202070470268C06B116821F00E011160BA
:10308000116821F00101116001211A6C01FA02F2AC
:103090004260002083F82110E8E7000008B590F8AE
:1030A0002130022B03D004238363012008BD036871
:1030B0001A6822F00E021A601A6822F001021A60E1
:1030C000174A93421FD0143293421ED014329342B7
:1030D0001DD0143293421DD0143293421DD01432AD
:1030E000934214BF4FF080734FF480130D4A536026
:1030F000012380F82130002380F82030436B03B196
:1031000098470020D2E70123F0E71023EEE74FF4C1
:103110008073EBE74FF48053E8E74FF48033E5E743
:1031200008000240000002402DE9F74F00244FF054
:103130000F0E2646DFF884C1614B00F104080A68CF
:1031400032FA06F502D103B0BDE8F08F012505FA89
:1031500006F702EA070537EA020276D14A68032A2F
:1031600007D8013A022A00F28380DFE802F0919644
:103170009C00122A00F0948069D8112A00F08A80FD
:10318000FF2D94BF8146C1464FEA8602D9F80070F0
:1031900088BF203A0EFA02FA27EA0A0704FA02F276
:1031A0001743C9F80070D1F8049019F0805F4CD033
:1031B000DCF8182026F0030742F00102CCF81820B2
:1031C000DCF8182007F1804702F00102019207F5B0
:1031D000803706F0030A019A4FEA8A0ABA680EFAA3
:1031E0000AFB22EA0B0B374A904260D002F580625C
:1031F00090425ED002F5806290425CD002F580621F
:10320000904214BF0422032202FA0AF242EA0B029D
:10321000BA609A6819F4801F14BF2A43AA439A60BF
:10322000DA6819F4001F14BF2A43AA43DA605A6807
:1032300019F4003F14BF2A43AA435A601A6819F4CC
:10324000803F14BF2A43AA431A60013677E7DFF8AC
:1032500078904A450CD014D8A9F580194A4507D072
:1032600009F570294A4503D0A9F580194A4587D147
:103270008A68D2B1012A4FF008040CBF0761476188
:103280007EE7DFF848904A45F2D009F58039EDE74E
:10329000CC6875E7CC68043472E7CC6808346FE713
:1032A000CC680C346CE700246AE7042468E7002249
:1032B000AAE70122A8E70222A6E700BF0010024009
:1032C00000040140000801400000221000003110FD
:1032D0002DE9F74F4FF0040B00224FF0010A4FF099
:1032E0000F0800EB0B0301932E4B31FA02F402D1CD
:1032F00003B0BDE8F08F0AFA02F70F4049D022F080
:10330000030404F1804404F5803402F0030CA56842
:103310004FEA8C0C08FA0CF909EA050E224DA84276
:1033200039D005F58065A84237D005F58065A842FB
:1033300035D005F58065A84214BF0425032505FA9C
:103340000CF575456FEA07060FD11D6835401D6005
:103350005D6835405D60DD683540DD609D68354005
:103360009D60A56825EA0905A560FF2F94BF074663
:10337000019F4FEA82043D6888BF203C08FA04FCA4
:1033800025EA0C050BFA04F425433D60C46834407B
:10339000C4600132A9E70025D1E70125CFE7022566
:1033A000CDE700BF000401400008014083681942D6
:1033B00014BF0120002070470AB101617047090461
:1033C000FBE7C36801EA030221EA030141EA024183
:1033D00001617047016800224B6913F4806310D0CB
:1033E0006FF480634B612023026380F83D3080F8E6
:1033F0003E20036C80F83C2043F00403036401206A
:103400007047184670472DE9F84606460F46914624
:103410001D464FEA114A3368BAF1010F0CBF5C69CF
:103420009C6927EA0404A4B2B4FA84F46409A145AF
:1034300001D0002025E06A1CEED0FFF781FD089B3B
:10344000C01AA84201D8002DE5D13368BAF1010FA6
:103450000CBF5B699B6927EA03039BB2B3FA83F352
:103460005B099945D7D1002320220120336386F8D8
:103470003D2086F83E30326C86F83C3042F0200227
:103480003264BDE8F8862DE9F04104460F46164641
:1034900098462568686927EA000080B2C0B16B6968
:1034A0005A0517D52B68202243F400732B606FF464
:1034B00080636B610023236384F83D2084F83E30F1
:1034C000236C43F0040323640023012084F83C3080
:1034D000BDE8F081731CDDD0FFF732FDA0EB0800E2
:1034E000B04201D8002ED4D123685A6927EA0202DB
:1034F00092B2002ACDD000232022236384F83D20FD
:1035000084F83E30236C1343DDE770B504460D4666
:10351000164623685B691B0601D500201EE0204685
:10352000FFF758FFC8B96A1CF3D0FFF709FD801BED
:10353000A84201D8002DECD123685B6913F0800309
:10354000E7D12022236384F83D2084F83E30226CAA
:1035500084F83C3042F020022264012070BD00005B
:103560002DE9FF479A46DDE90C78036815461A688D
:103570000E4642F480621A601A684FF0011142F45C
:1035800080721A603B460022CDF800800446FFF7A7
:103590003AFF236848B11B68DB0548BF4FF400734E
:1035A0004FF0030048BF236421E05FFA86F906F07C
:1035B000FE061E613A46434620462A49FFF763FF4E
:1035C000A0B9236803905A69394603929B69424621
:1035D00003932046039BFFF798FF58B1236C042BFD
:1035E00001BF2268136843F400731360012004B024
:1035F000BDE8F087BAF1010F23681AD1EDB2424657
:10360000394620461D61FFF780FF02460028E5D1BC
:10361000216820460B6843F480730B603B464FF0F3
:103620000111CDF80080FFF7EEFE226860B113684B
:10363000B2E72A0A1A61394642462046FFF765FF7B
:103640000028CBD12368D9E749F001031361204654
:1036500043463A460349FFF716FF003818BF0120DA
:10366000C5E700BF0200010070B504460D461646CE
:1036700023685B695B0701D500201EE02046FFF749
:10368000A9FEC8B96A1CF3D0FFF75AFC801BA842F8
:1036900001D8002DECD123685B6913F00403E7D156
:1036A0002022236384F83D2084F83E30226C84F885
:1036B0003C3042F020022264012070BD70B5044607
:1036C0000D46164621684B6913F0400301D00020D7
:1036D00011E04A69D2060FD56FF010024A6120222C
:1036E000236384F83D2084F83E30236C2364002358
:1036F000012084F83C3070BDFFF722FC801BA842FB
:1037000001D8002DDED123685B6913F04003D9D1C5
:103710002022236384F83D2084F83E30236C134339
:10372000E4E7000070B5044608B9012070BD90F8C8
:103730003D3003F0FF021BB980F83C20FFF7F6F99B
:10374000242384F83D3023681A6822F001021A60AD
:103750001A6842F400421A601A6822F400421A60A1
:1037600000F0CAFE3F4B65689D4294BF3E4B3F4B05
:1037700098428CBF00230123002BD6D1394E3C4BFD
:10378000B542B0FBF3F388BF4FF4967622685168D8
:1037900021F03F0141EA030182BF73434FF47A767F
:1037A000B3FBF6F35160116A013321F03F010B4383
:1037B0001362D169431E2B4821F44F41854221F009
:1037C000FF0132D86D00B3FBF5F340F6FC70013316
:1037D000034242D0C3F30B031943D1611168D4E90A
:1037E000073021F0C00103430B4313609168D4E913
:1037F000030321F40341034321F0FF010B439360D2
:10380000D168D4E9053021F0FF0103430B43D360B5
:103810001368002043F0010313602023206484F820
:103820003D30206384F83E0080E7A06850B905EB86
:103830004505B3FBF5F30133C3F30B037BB143F44D
:103840000043C9E719206843B3FBF0F30133C3F326
:103850000B0323B143F44043BEE70423BCE7012339
:10386000BAE700BFA08601007F841E00FF083D006C
:1038700040420F0010B5044698B12423026880F836
:103880003D30136823F001031360FFF781F9002036
:10389000206484F83C0084F83D00206384F83E00F6
:1038A00010BD0120FCE700002DE9F043044685B07F
:1038B00098460D4691460C9FFFF742FB94F83D3029
:1038C0000646202B04D00225284605B0BDE8F0832B
:1038D00000901923012220465C49FFF794FD00283F
:1038E000F1D194F83C30012BEDD00123216884F80C
:1038F0003C300B68DA075EBF0B6843F001030B60D6
:103900000B6823F400630B60212384F83D301023FF
:1039100084F83E3000232364A4F82A80638DC4F821
:10392000249023854A4BE362E36A082B04D0012BE1
:1039300002D013F5803F04D10B6843F480730B6011
:1039400002E0236B122BF7D000223B464FF001110F
:1039500020460096FFF757FD226840B11368DB054B
:1039600001D40125B0E74FF400732364F9E723691C
:10397000B3F5804F21D105F0FE05156133463A4677
:1039800020463449FFF77FFD05460028E9D123682A
:1039900003905A6903929B690393039B238DF3B9A8
:1039A00021680A6842F400720A60202284F83C30E0
:1039B00084F83D2084F83E3086E7EB1103F00603DF
:1039C00043F0F0031361204633463A462249FFF79D
:1039D0005AFD0028C5D12368EDB21D61CEE73246FD
:1039E00039462046FFF791FD40B1236C042BB8D136
:1039F0002268136843F400731360B2E7636A2068B7
:103A00001A4612F8011B01616262628D013A92B29C
:103A10006285228DD0F814C0511E89B21CF0040FAB
:103A200021850AD049B15978023301616362638DFF
:103A3000023A013B9BB263852285324639462046D5
:103A4000FFF712FE0028A9D0CFE700BF0200100048
:103A50000000FFFF02000100080001002DE9F04313
:103A600098460023044689B002930E469146109F63
:103A7000FFF766FA94F83D300546202B04D0022665
:103A8000304609B0BDE8F08300901923012220469A
:103A90008F49FFF7B8FC0028F1D194F83C30012B96
:103AA000EDD00123216884F83C300B68DB075EBF52
:103AB0000B6843F001030B600B6823F400630B6099
:103AC000222384F83D30102384F83E300023236401
:103AD000A4F82A80638DC4F8249023857D4BE3628B
:103AE000E36A0A68082B42F480620A6004D0012B62
:103AF00002D013F5803F04D10B6843F480730B6050
:103B000002E0236B112BF7D03B4600224FF001114E
:103B100020460095FFF777FC236838B11B68D8056D
:103B200044BF4FF4007323640126A9E72269B2F56C
:103B3000804F29D146F00106F6B21E612B463A4667
:103B400020466549FFF79FFC06460028ECD1228DF0
:103B50002368002A4DD103905A6903929A6903920F
:103B6000039A1A6842F400721A60DFF87081DFF875
:103B70007091238D002B6CD1202284F83C3084F886
:103B80003D2084F83E307BE74FEAE61808F006084F
:103B900048F0F0021A6120462B463A465149FFF799
:103BA00072FC0028C0D12368F6B23A461E61204656
:103BB0002B464949FFF767FC02460028B4D1236829
:103BC00007905969204607919969079107991968E3
:103BD00041F4807119603B464FF001110095FFF7E9
:103BE00012FC226808B1136899E748F0F1031361E9
:103BF000A4E7012A11D11A6822F480621A6072B611
:103C0000236804905A6904929A690492049A1A6883
:103C100042F400721A6062B6A7E7022A1A680ED14F
:103C200042F400621A6072B6236805905A690592E0
:103C30009A690592059A1A6822F48062EAE742F4CA
:103C400080621A6006905A6906929B690693069BE9
:103C50008BE7032B00F28880012B16D12A463946C8
:103C60002046FFF72BFD00287FF45EAF23681A691A
:103C7000636A1A70636A01336362238D013B238593
:103C8000638D013B9BB2638573E7022B4FF000020B
:103C90003B4641462046009526D1FFF7B4FB00285D
:103CA0007FF442AF72B623681A6842F400721A6059
:103CB0001A69636A1A70636A01336362238D013B78
:103CC0002385638D013B9BB2638562B6CEE700BF5F
:103CD000020010000000FFFF0200010004000100CC
:103CE0000800002008000100FFF78DFB00287FF48A
:103CF0001BAF2268136823F48063136072B646F228
:103D0000A81123681A69636A1A70626A531C636295
:103D1000238D013B2385638D013B9BB26385D9F8DD
:103D20000030B3FBF1F323214B430293029B013B91
:103D30000293029B6BB92022236384F83D2084F810
:103D40003E30226C42F02002226462B684F83C309D
:103D5000EAE6236859694907E8D5196841F4007112
:103D600019601B695370A6E72A4639462046FFF7BB
:103D7000A5FC00287FF4D8AE23681A69636A1A701C
:103D8000628D616A013A92B24B1C6285226863625D
:103D9000238D5069013B9BB2400723857FF5E9AE37
:103DA000032B02BF136823F48063136013694B7005
:103DB00060E700BF2DE9F04399460023044689B02F
:103DC00003930D469046129FFFF7BAF894F83D30E2
:103DD0000646202B04D00225284609B0BDE8F08312
:103DE00000901923012220469049FFF70CFB002880
:103DF000F1D194F83C30012BEDD00123206884F8F8
:103E00003C3003682946DB0758BF036842465CBF65
:103E100043F001030360036823F40063036022237B
:103E200084F83D30402384F83E3000232364109B07
:103E300020466362BDF844306385638D23857C4BE7
:103E4000E3624B46CDE90076FFF78AFB0546002882
:103E500040F0BA80228D2368C2B904905A69049256
:103E60009A690492049A1A6842F400721A60DFF8A0
:103E7000C481DFF8C491238D002B37D1202284F830
:103E80003C3084F83D2084F83E30A5E7012A11D16A
:103E90001A6822F480621A6072B6236805905A6923
:103EA00005929A690592059A1A6842F400721A609E
:103EB00062B6DCE7022A1A680ED142F400621A6088
:103EC00072B6236806905A6906929A690692069A13
:103ED0001A6822F48062EAE742F480621A6007906E
:103EE0005A6907929B690793079BC0E7032B78D811
:103EF000012B15D1324639462046FFF7DFFB00285B
:103F000062D123681A69636A1A70636A0133636253
:103F1000238D013B2385638D013B9BB26385AAE71B
:103F2000022B4FF000023B4641462046009618D136
:103F3000FFF769FA002847D172B623681A6842F47D
:103F400000721A601A69636A1A70636A01336362E5
:103F5000238D013B2385638D013B9BB2638562B654
:103F6000CFE7FFF750FA00282ED12268136823F418
:103F70008063136072B646F2A81123681A69636AF7
:103F80001A70626A531C6362238D013B2385638D23
:103F9000013B9BB26385D9F80030B3FBF1F32321D9
:103FA0004B430393039B013B0393039B73B9202271
:103FB000236384F83D2084F83E30226C42F02002D6
:103FC000226462B684F83C30012505E7236859690C
:103FD0004907E7D5196841F4007119601B695370EE
:103FE000B3E7324639462046FFF768FB0028EBD19D
:103FF00023681A69636A1A70628D616A013A92B223
:104000004B1C628522686362238D5069013B9BB221
:10401000400723857FF52FAF032B02BF136823F4DE
:104020008063136013694B706FE700BF02001000DC
:104030000000FFFF04000100080000202DE9F3410B
:10404000054638B30368DB0710D42B689F075ED49E
:104050002B68190700F195802B685A0700F1C18081
:10406000EB69002B40F02C81002029E0904C636824
:1040700003F00C03042B07D0636803F00C03082B38
:104080000AD16368DE0307D523689C03DDD56B681E
:10409000002BDAD1012013E06B68B3F5803F12D119
:1040A000236843F480332360FEF74AFF0646236803
:1040B0009803CAD4FEF744FF801B6428F7D9032075
:1040C00002B0BDE8F0819BB9236823F480332360FC
:1040D000236823F480232360FEF732FF064623681B
:1040E0009903B2D5FEF72CFF801B6428F7D9E6E7C9
:1040F000B3F5A02F236803D143F480232360CFE7D7
:1041000023F480332360236823F48023CBE7684CB7
:10411000636813F00C0F07D0636803F00C03082BDF
:1041200010D16368DA030DD423689B0702D52B698D
:10413000012BAFD123686A6923F0F80343EAC20375
:10414000236085E72A695B4B6AB101221A60FEF79A
:10415000F7FE064623689F07ECD4FEF7F1FE801BAE
:104160000228F7D9ABE71A60FEF7EAFE0646236895
:1041700098077FF56DAFFEF7E3FE801B0228F6D9A6
:104180009DE7AA694A4E4B4BE2B10122C3F8802455
:10419000FEF7D6FE0446736A9B070DD54FF4FA521C
:1041A000454B1B68B3FBF2F3019300BF019B5A1E02
:1041B0000192002BF9D14FE7FEF7C2FE001B022847
:1041C000E9D97CE7C3F88024FEF7BAFE0446736A97
:1041D0009F077FF541AFFEF7B3FE001B0228F6D91B
:1041E0006DE7334CE369D80024D40127E36943F039
:1041F0008053E361E36903F080530093009B2F4EEB
:104200003368D90518D5EB68012B26D1236A43F012
:1042100001032362FEF794FE41F288380646236AC2
:104220009B073FD5002F3FF41BAFE36923F080537A
:10423000E36115E70027E2E7336843F480733360F6
:10424000FEF77EFE80463368DA05DCD4FEF778FEA2
:10425000A0EB08006428F6D931E7ABB9236A41F234
:10426000883823F001032362236A23F004032362C6
:10427000FEF766FE0646236A9807D3D5FEF760FE72
:10428000801B4045F7D91AE7052B236A03D143F079
:1042900004032362BAE723F001032362236A23F0B5
:1042A0000403B6E7FEF74CFE801B4045B7D906E78E
:1042B0000010024000004242080000200070004050
:1042C0002A4C626802F00C02082A3ED00022022B1F
:1042D000274B1A662CD1FEF733FE06462368990158
:1042E00020D42B6AB3F5803F05D16268A96822F417
:1042F00000320A436260696A62680B4322F47412F6
:104300001343012263601A4B1A66FEF719FE054635
:1043100023689A013FF5A8AEFEF712FE401B022863
:10432000F6D9CCE6FEF70CFE801B0228D6D9C6E6ED
:10433000FEF706FE054623689B017FF595AEFEF766
:10434000FFFD401B0228F6D9B9E6012B3FF4A2AECF
:1043500060682B6A00F480329A427FF49BAE6B6AED
:1043600000F47010C01A18BF0120A9E60010024026
:10437000000042420D4A536803F00C01082912D193
:104380000B48C3F38341DB03405C09D55368094AFA
:10439000C3F340435043084AD35CB0FBF3F070478B
:1043A000064B584370470348704700BF0010024057
:1043B00056AC000800127A0054AC000800093D0019
:1043C0002DE9F0410D46044610B90120BDE8F08109
:1043D000444A136803F007038B4228D321688E07F1
:1043E00030D4CA0743D43F4A136803F00703AB42F3
:1043F00065D822683C4D12F0040F6CD1130706D526
:104400006B68226923F4605343EAC2036B60FFF7D1
:10441000B1FF6B68354AC3F30313D35CD840344B08
:104420001860344B1868FEF749FD0020CEE713688A
:1044300023F007030B431360136803F007038B4259
:10444000C3D1CBE7284B11F0040F1EBF5A6842F4CA
:10445000E0625A60080742BF5A6842F460525A60EC
:104460005A68A06822F0F00202435A60B9E7626815
:104470001D4E012A33681AD113F4003FA5D073688A
:1044800041F2883823F0030313437360FEF758FDAD
:1044900007467368626803F00C03B3EB820FA2D087
:1044A000FEF74EFDC01B4045F3D903208EE7022ADC
:1044B00002D113F0007FE1E713F0020FDEE713688B
:1044C00023F007032B431360136803F00703AB4289
:1044D0007FF47BAF8DE76B68E16823F4E0630B4307
:1044E0006B608BE7002002400010024044AC0008E3
:1044F0000800002010000020044B054A5B68C3F34D
:104500000223D35C034A1068D84070470010024071
:104510003CAC000808000020044B054A5B68C3F36C
:10452000C223D35C034A1068D84070470010024091
:104530003CAC000808000020704770477047704787
:10454000036870B5DD681E690446B1070DD5AA077A
:104550000BD56FF002021A61012202779B699B075B
:1045600069D0FFF7EAFF00232377710710D56A07A8
:104570000ED56FF00402236820461A6102222277CA
:104580009B6913F4407F5CD0FFF7D7FF00232377AC
:1045900033070FD528070DD56FF008022368204692
:1045A0001A6104222277DB69990750D0FFF7C5FF13
:1045B00000232377F20610D5EB060ED56FF010021C
:1045C000236820461A6108222277DB6913F4407FB2
:1045D00043D0FFF7B2FF00232377F00708D5E907A0
:1045E00006D56FF00102236820461A61FEF7DCFB56
:1045F000320608D52B0606D56FF0800223682046C8
:104600001A6100F062F9700608D5690606D56FF0E8
:104610004002236820461A61FFF791FFB20622D5B7
:10462000AB0620D56FF0200223682046BDE870401D
:104630001A6100F049B9FFF77FFF2046FFF77EFFC0
:1046400091E7FFF779FF2046FFF778FF9EE7FFF736
:1046500073FF2046FFF772FFAAE7FFF76DFF2046C2
:10466000FFF76CFFB7E770BD174A036890420AD0A6
:10467000B0F1804F07D0A2F59432904203D002F5FA
:104680008062904207D14A6823F070031343CA68DE
:1046900023F4407313434A6923F0800313430360F8
:1046A0008B68C3620B688362074B984204BF0B6937
:1046B0000363012343610369DB0742BF036923F0FE
:1046C00001030361704700BF002C014010B5044690
:1046D00030B390F83D3003F0FF021BB980F83C2066
:1046E000FEF772FA0223206884F83D30211DFFF79F
:1046F000BBFF0123002084F8463084F83E3084F864
:104700003F3084F8403084F8413084F8423084F8F7
:10471000433084F8443084F8453084F83D3010BD8F
:104720000120FCE710B584680A4324F47F4442EA80
:1047300003222243826010BD38B590F83C30044615
:10474000012B4FF0020000F08E80012284F83D0022
:10475000206884F83C20836823F47F4323F07703A8
:1047600083600B68602B4FD032D8402B64D016D8B2
:10477000202B0DD00AD833F0100109D0012384F882
:104780003D30002384F83C30104638BD302BF5D145
:10479000826822F07002134343F0070328E0502B95
:1047A000ECD14A68CD68016A036A21F00A0123F05E
:1047B0000103036283690A4323F0F00343EA05130C
:1047C00083610262836823F0700343F057030FE0B4
:1047D000B3F5805F0DD0B3F5005F0CD0702BCDD159
:1047E000CB68D1E90121FFF79DFF836843F0770390
:1047F00083600022C2E7CB68D1E90121FFF792FF75
:10480000836843F48043F3E7036A026A4D6822F049
:104810001002C9680262826923F0A00322F4704288
:1048200043EA051342EA013282610362836823F09E
:10483000700343F06703DBE74A68CD68016A036AE7
:1048400021F00A0123F00103036283690A4323F084
:10485000F00343EA051383610262836823F0700367
:1048600043F04703C4E702468EE7000030B590F8F6
:104870003C300246012B4FF0020022D0136882F830
:104880003D005C680D6824F070042C4398685C60FF
:104890000C4CA3420AD0B3F1804F07D0A4F5943456
:1048A000A34203D004F58064A34204D1496820F0F8
:1048B0008000014399600123002082F83D3082F896
:1048C0003C0030BD002C014070477047026802F187
:1048D0000C0353E8003F23F490730C3242E800319C
:1048E00002680029F2D102F1140353E8003F23F0DB
:1048F000010302F1140C4CE800310029F3D1036BE1
:10490000012B0BD102F10C0353E8003F23F01003FD
:1049100002F10C0C4CE800310029F3D1202380F87F
:10492000423000230363704710B504460368C16832
:104930001A6922F440520A431A6182680069D968F0
:104940000243606921F4B05121F00C0102430A4393
:10495000DA605A69A16922F440720A435A610E4A28
:10496000934215D1FFF7D8FD1923434362682068AD
:104970009200B3FBF2F36422B3FBF2F102FB1133BA
:104980001B013233B3FBF2F303EB0113836010BD61
:10499000FFF7B2FDE8E700BF00380140F7B5054674
:1049A0000C4617461E462A68136834EA030301D1F1
:1049B000002021E0701CF7D0FEF7C2FAC01B86422F
:1049C0001CD3DEB12B68DA685107ECD5802CEAD015
:1049D000402CE8D01A681207E5D5002401941A6823
:1049E000284601925B680193019BFFF76FFF082344
:1049F00001206B6485F8404003B0F0BD0320FBE765
:104A000010B5044648B390F8413003F0FF021BB9DB
:104A100080F84020FEF7F6F82423226884F841301D
:104A2000D368204623F40053D360FFF77DFF23684B
:104A300000201A6922F490421A615A6922F02A026F
:104A40005A61DA6842F40052DA602023606484F824
:104A5000413084F84230606310BD0120FCE710B59E
:104A60000446A0B12423026880F84130D36823F4BF
:104A70000053D360FEF73EF90020606484F84000E4
:104A800084F8410084F842002063606310BD012077
:104A9000FCE72DE9F843984690F841300446202B76
:104AA0000E4617463FD100293FD0002A3DD0212392
:104AB0000025456480F84130FEF742FAA36881463C
:104AC000B3F5805FA784E78403D123690BB935462A
:104AD0001E46E38C9BB253B943464A4640212046CA
:104AE000FFF75CFF202350B984F841300AE04346C9
:104AF0004A4680212046FFF751FF28B1202303209A
:104B000084F84130BDE8F88322684EB935F8023B9D
:104B1000C3F308035360E18C013989B2E184D8E71B
:104B200016F8013BF6E70220ECE70120EAE77047C0
:104B3000704708B50023406AC385C384FFF7F8FFB8
:104B400008BD704790F8423007B5222B42D18168EA
:104B50000268B1F5805F836A3FD1016900293FD1C6
:104B60005268C2F3080223F8022B8362C38D013B13
:104B70009BB2C385002B2DD10268D16821F02001A2
:104B8000D160D16821F48071D160516921F00101B7
:104B90005161202280F842204363026B012A02689F
:104BA00028D1036302F10C0353E8003F23F0100304
:104BB00002F10C0C4CE800310029F3D11368DB063C
:104BC00005D501911368019353680193019B818D71
:104BD000FFF7B7FF03B05DF804FB39B9016929B9E4
:104BE0005268D2B21A70836A0133BEE7526802F08B
:104BF0007F02F7E7FEF7C8F8ECE70000036873B53B
:104C00001A6804461607D9685D6908D1960668D502
:104C10008D0666D502B0BDE87040FFF793BF05F082
:104C2000010001F4907505435BD0D60705D5CD058D
:104C300042BF636C43F001036364530704D518B1AA
:104C4000636C43F002036364960704D518B1636C88
:104C500043F004036364150707D501F02003034301
:104C60001EBF636C43F008036364636C002B32D097
:104C7000920604D58B0602D52046FFF763FF26680F
:104C800020467369626C03F0400302F0080253EAA5
:104C9000020522D0FFF71AFE73695E0618D5226856
:104CA00002F1140353E8003F23F04003143242E8BA
:104CB00000310029F3D1E06B50B1744B4363FEF730
:104CC000EDF940B1E06B436B02B0BDE870401847AE
:104CD0002046FFF72DFF02B070BDFFF729FF656486
:104CE000F9E7206B012840F09480D50640F19180CF
:104CF000C80640F18E80002201921A6801925A681B
:104D00000192019A5A6952064DD5E16B0A685268C0
:104D100092B2002ADFD0A08D9042DCD9E2858A6968
:104D2000202A36D003F10C0252E8002F22F48072C0
:104D300003F10C0040E800210029F3D103F1140233
:104D400052E8002F22F0010203F1140040E8002194
:104D50000029F3D103F1140252E8002F22F040029F
:104D600003F1140040E800210029F3D1202284F847
:104D70004220216303F10C0252E8002F22F01002BE
:104D800003F10C0040E800210029F3D1E06BFEF7AD
:104D900065F902236363E38DA18DC91A89B22046A8
:104DA000FFF7CFFE97E7E28DE08DA18D80B292B242
:104DB000002890D0891A89B200298CD003F10C0206
:104DC00052E8002F22F4907203F10C0545E8002010
:104DD0000028F3D103F1140252E8002F22F001025F
:104DE00003F1140545E800200028F3D1202284F8BF
:104DF0004220206303F10C0252E8002F22F010023F
:104E000003F10C0545E800200028F3D10223636379
:104E1000C5E7160628D50D0626D594F84120212A87
:104E20007FF459AFA168226AB1F5805F17D121697B
:104E3000A9B932F8021BC1F3080159602262E28C61
:104E4000013A92B2E284002A7FF445AFDA6822F098
:104E50008002DA60DA6842F04002DA603BE7511C17
:104E6000216212785A60EAE750067FF534AF4A06AD
:104E70007FF531AFDA68204622F04002DA60202365
:104E800084F84130FFF753FE25E700BF334B00089D
:104E90000023C285436422238285026980F8423060
:104EA000816203681AB1DA6842F48072DA605A6982
:104EB000002042F001025A61DA6842F02002DA6012
:104EC000704770B490F84260202E06D141B13AB1DB
:104ED0000024046370BCFFF7DBBF022070BC704786
:104EE0000120FBE7EFF305832BB9064B186828B9BF
:104EF00001221A6070476FF0050070474FF0FF30D5
:104F0000704700BF600F002010B5EFF305845CB957
:104F1000084B1A68012A0AD1074AD47702221A607C
:104F200001F0C0F9204610BD6FF00500FBE74FF01F
:104F3000FF30F8E7600F002000ED00E0F0B5144608
:104F4000002287B00B460592EFF30582FAB9F0B163
:104F500054B3A56925B1691E372902D9002017E08D
:104F600018256268D207F9D466699EB1B208216833
:104F7000D4E9027C87B1BCF15B0F08D9246934B154
:104F80002EB1CDE90147009501F025F9059005986E
:104F900007B0F0BD8022EAE7BCF1000FF7D1246929
:104FA000002CF4D10C4601E01825802205A9CDE99A
:104FB000005192B2214601F046F901281CBF00239E
:104FC0000593E4E708B5EFF3058222B908B101F0D3
:104FD000C9FA002008BD6FF00500FBE70346EFF3B8
:104FE000058242B948B1D3E9020318B11F2B02D997
:104FF00000F052B90BB10020704700F071B913B541
:105000000C46F8B1B1F1807F1CD2EFF30583A3B158
:10501000002301AA019300F07BFAB0B1019B4BB1D0
:105020004FF0E0234FF08052C3F8042DBFF34F8FB1
:10503000BFF36F8F204602B010BD02B0BDE8104034
:1050400000F020BA6FF00304F4E76FF00204F1E718
:1050500070B50E460546B0B1B1F1807F13D2EFF3C3
:10506000058363B100F000FA31460446284600F09B
:10507000F3F9002808BF6FF00204204670BDBDE8B8
:10508000704000F0C3B96FF00304F6E773B50C4647
:105090001D46F8B1B1F1807F1CD2EFF30583E3B96F
:1050A00002F0010682F00202C2F34002334600958C
:1050B00000F024F904EA00024EB1A24205D0002D0E
:1050C00014BF6FF001006FF0020002B070BD002A43
:1050D000F5D0FAE76FF00300F7E76FF00500F4E7AB
:1050E000F8B50546EFF3058717B100242046F8BD53
:1050F00020B346683307F8D4D0E9021306F001065E
:1051000099B14F2BF1D9BEB1042000F077FC0446D1
:105110000028EAD037462D682946204600F098FE40
:10512000002FE3D044F00104E0E7002BDDD12EB1E5
:10513000042000F097FCEAE70120E6E7012000F0F8
:1051400091FC04460028D0D0002DE5D00026E1E7F0
:1051500038B503460C4620F0010003F00102EFF3DE
:10516000058595B9012B13D962B100F050FE0128D5
:1051700001D1002038BD002C14BF6FF001006FF08A
:105180000200F7E700F086FDF1E76FF00500F1E7B8
:105190006FF00300EEE7024608B520F0010002F0D0
:1051A0000103EFF3058179B9012A10D93BB100F071
:1051B0003AFC01280CBF00206FF0020008BD1A461F
:1051C000194600F069FBF4E76FF00500F6E76FF0B1
:1051D0000300F3E7F7B504460E461546EFF30582E4
:1051E00042B938B1884205D355B1D5E902372BB160
:1051F0004F2F22D80024204603B0F0BD002FF9D154
:10520000012C0CD02046314600F028FB0446002833
:10521000F0D085B92946204600F01AFEEBE70322BC
:105220000021012000F0D1FA0EE01A4600F0F4FA55
:1052300004460028DED02D68ECE70128F5D10321D3
:105240000091114600F073FA04460028D2D0002ED7
:10525000DFD000231A46194600F01EFB0128D8D0E3
:10526000204600F01FFEC5E7034B0360034B0B60B5
:1052700080231360704700BF040F0020040D00203E
:10528000034B0360034B0B604FF480731360704754
:10529000A80C0020A808002013B5044640B94FF020
:1052A000500383F31188BFF36F8FBFF34F8FFEE777
:1052B00020230193019B202B08D04FF0500383F350
:1052C0001188BFF36F8FBFF34F8FFEE7002340F8C5
:1052D000043B00F025F901232046237702B010BDDE
:1052E00038B5202001F052FF044628B1002540F8CF
:1052F000045B00F015F92577204638BD2DE9F84309
:10530000DDF820900D4617469846064640B94FF006
:10531000500383F31188BFF36F8FBFF34F8FFEE706
:10532000B1F1807F08D34FF0500383F31188BFF3AE
:105330006F8FBFF34F8FFEE741B94FF0500383F3F8
:105340001188BFF36F8FBFF34F8FFEE701F0A6FA0E
:1053500058B9B9F1000F08D04FF0500383F311880A
:10536000BFF36F8FBFF34F8FFEE700F0E1FF3468AC
:1053700005EA0403B8F1000F13D1A3B9B9F1000F86
:1053800015D0391E18BF01210906B8F1000F01D050
:1053900041F080614A462943301D01F05DF9002447
:1053A00007E09D42EAD117B124EA050333604FF0CC
:1053B000000901F063F8B9F1000F1CD048B94FF0B3
:1053C000E0234FF08052C3F8042DBFF34F8FBFF39B
:1053D0006F8F01F041FB830104460AD401F0AAFD5E
:1053E000346805EA0403B8F1000F07D143B901F0AE
:1053F000C1FD24F07F442046BDE8F8839D42F6D1EC
:10540000002FF4D024EA05053560F0E770B50C46AE
:10541000054640B94FF0500383F31188BFF36F8FF7
:10542000BFF34F8FFEE7B1F1807F08D34FF05003F9
:1054300083F31188BFF36F8FBFF34F8FFEE701F047
:1054400079FD2E6826EA04042C6001F093FD3046B5
:1054500070BDFFF7DBBF00000A460023014601488C
:1054600001F0FABC53540008EFF311834FF05002DF
:1054700082F31188BFF36F8FBFF34F8F006883F300
:10548000118870472DE9F0410D46044640B94FF0B0
:10549000500383F31188BFF36F8FBFF34F8FFEE785
:1054A000B1F1807F08D34FF0500383F31188BFF32D
:1054B0006F8FBFF34F8FFEE700F10C0600F038FF4F
:1054C000236820692B43002523608642216807D189
:1054D00021EA0501216000F0D1FF2068BDE8F081DC
:1054E000D0E9002822F07F4312F0806F03EA010721
:1054F00002D11FB94046E8E7BB42FBD1D20141F0DF
:10550000007148BF1D4301F033F9F3E7FFF7BABF5D
:1055100013460A460146014801F09EBC0D5500089D
:105520004FF0FF3200F10803C0E90223436003613A
:1055300000230360704700230361704743689A6843
:105540004B608A60516099600368086101330360B1
:10555000704730B50C68631C0AD103695A684A6009
:1055600091608B605960036808610133036030BD4E
:1055700000F10802134652681568A542FAD9EDE712
:105580000369D0E901128A6051605968814208BFFD
:105590005A60002202611A68013A1A60186870475E
:1055A00010B5044601F0C6FCA46B01F0E3FCB4FAAC
:1055B00084F0400910BD70B51646026C0446856B38
:1055C00042B906689EB9806801F0B6F9A660013557
:1055D000A56370BD6EB9406802F0ABFC6368226CD5
:1055E0001344A2686360934224BF23686360002071
:1055F000EDE7C06802F09DFC226CE36851429B1A03
:105600002268E36093423EBFA3685B18E360022E0A
:10561000EDD10DB1013DEAE72846D8E703461A6C03
:10562000084610B462B1DC68996814448C4228BF03
:105630001968DC6028BFD960D96810BC02F079BC59
:1056400010BC704770B5044601F074FC94F84550E6
:1056500004F124066DB2002D01DD636AB3B9FF23A6
:1056600084F8453001F086FC01F064FC94F8445065
:1056700004F110066DB2002D01DD23697BB9FF2313
:1056800084F84430BDE8704001F074BC304601F04D
:105690002FF808B101F0F6F8013D6DB2DBE73046B6
:1056A00001F026F808B101F0EDF8013D6DB2E2E736
:1056B00038B50D46044640B94FF0500383F31188C6
:1056C000BFF36F8FBFF34F8FFEE701F033FCD4E9D8
:1056D0000F314B432268D0185B1AA0606260002033
:1056E0001A44FF23A063E26084F8443084F8453014
:1056F000A5B9236973B104F1100000F0F9FF48B1B6
:105700004FF0E0234FF08052C3F8042DBFF34F8FCA
:10571000BFF36F8F01F02EFC012038BD04F11000A3
:10572000FFF7FEFE04F12400FFF7FAFEF2E737B5BB
:105730000D461C4640B94FF0500383F31188BFF368
:105740006F8FBFF34F8FFEE743B94FF0500383F3E2
:105750001188BFF36F8FBFF34F8FFEE74AB191B946
:105760004FF0500383F31188BFF36F8FBFF34F8F58
:10577000FEE741B14FF0500383F31188BFF36F8F01
:10578000BFF34F8FFEE750230193019B502B08D0AE
:105790004FF0500383F31188BFF36F8FBFF34F8F28
:1057A000FEE70121002D08BF2246C4E90F0584F859
:1057B000461020462260019BFFF77AFF20469DF8A5
:1057C000183084F84C3003B030BDF8B50D4617469C
:1057D000064640B94FF0500383F31188BFF36F8F33
:1057E000BFF34F8FFEE74843503001F0CFFC044633
:1057F00070B1002380F8463065B100F150030121FB
:105800002046C4E90F652360FFF752FF84F84C700F
:105810002046F8BD0346F2E713B513460C4640B9DF
:105820004FF0500383F31188BFF36F8FBFF34F8F97
:10583000FEE7884208D24FF0500383F31188BFF38C
:105840006F8FBFF34F8FFEE70222009200221146B6
:10585000FFF76DFF00B1846302B010BD10B50C46B8
:1058600040B94FF0500383F31188BFF36F8FBFF33C
:105870004F8FFEE7884208D24FF0500383F3118820
:10588000BFF36F8FBFF34F8FFEE702220021FFF7B8
:105890009CFF00B1846310BD2DE9FF410F461E46F9
:1058A0000446019240B94FF0500383F31188BFF3CF
:1058B0006F8FBFF34F8FFEE751B9036C43B14FF0C9
:1058C000500383F31188BFF36F8FBFF34F8FFEE751
:1058D000022E0BD1E36B012B08D04FF0500383F362
:1058E0001188BFF36F8FBFF34F8FFEE700F0D6FF35
:1058F000054620B300254FF0000801F01BFBA26B0A
:10590000E36B9A4227D2324639462046FFF753FED0
:10591000636A1BB104F1240000F0EAFE48B14FF0C5
:10592000E0234FF08052C3F8042DBFF34F8FBFF335
:105930006F8F01F01FFB012004B0BDE8F081019BD7
:10594000002BD8D04FF0500383F31188BFF36F8F33
:10595000BFF34F8FFEE7022ED5D0019B1BB901F09C
:1059600009FB0020E8E715B902A800F043FF01F0A9
:1059700001FB00F0DDFC01F0DDFA94F84430FF2B70
:1059800008BF84F8448094F84530FF2B08BF84F8A2
:10599000458001F0EFFA01A902A800F037FF38BBFB
:1059A00001F0C8FAA26BE36B9A420ED101F0E2FA61
:1059B000019904F1100000F035FE2046FFF742FE89
:1059C00000F05CFD48B1012597E701F0D3FA2046CD
:1059D000FFF738FE00F052FDF5E74FF0E0234FF0FF
:1059E0008052C3F8042DBFF34F8FBFF36F8FEAE7E8
:1059F0002046FFF727FE00F041FDB2E7002213B575
:105A00000B46009011460120FFF791FE044638B185
:105A100000231A46194683600360C360FFF73CFF0A
:105A2000204602B010BD38B5044640B94FF05003CF
:105A300083F31188BFF36F8FBFF34F8FFEE7856845
:105A400000F026FF85420BD1E368013BE3600BB118
:105A5000012038BD1A4619462046FFF71DFFF7E71B
:105A60000020F6E770B50646502001F08FFB044693
:105A700098B10025012180F84650C0E90F1500605B
:105A8000FFF716FE2B462A462946204684F84C602E
:105A9000A5602560E560FFF7FFFE204670BD2DE99B
:105AA000F843894617461E46044640B94FF0500356
:105AB00083F31188BFF36F8FBFF34F8FFEE751B9A8
:105AC000036C43B14FF0500383F31188BFF36F8F22
:105AD000BFF34F8FFEE7022E0BD1E36B012B08D0F3
